{
  "contractName": "AcceptingRecipient",
  "abi": [
    {
      "anonymous": false,
      "inputs": [
        {
          "indexed": true,
          "internalType": "address",
          "name": "previousOwner",
          "type": "address"
        }
      ],
      "name": "OwnershipRenounced",
      "type": "event"
    },
    {
      "anonymous": false,
      "inputs": [
        {
          "indexed": true,
          "internalType": "address",
          "name": "previousOwner",
          "type": "address"
        },
        {
          "indexed": true,
          "internalType": "address",
          "name": "newOwner",
          "type": "address"
        }
      ],
      "name": "OwnershipTransferred",
      "type": "event"
    },
    {
      "inputs": [],
      "name": "amount",
      "outputs": [
        {
          "internalType": "uint256",
          "name": "",
          "type": "uint256"
        }
      ],
      "stateMutability": "view",
      "type": "function"
    },
    {
      "inputs": [],
      "name": "data",
      "outputs": [
        {
          "internalType": "bytes",
          "name": "",
          "type": "bytes"
        }
      ],
      "stateMutability": "view",
      "type": "function"
    },
    {
      "inputs": [],
      "name": "from",
      "outputs": [
        {
          "internalType": "address",
          "name": "",
          "type": "address"
        }
      ],
      "stateMutability": "view",
      "type": "function"
    },
    {
      "inputs": [],
      "name": "owner",
      "outputs": [
        {
          "internalType": "address",
          "name": "",
          "type": "address"
        }
      ],
      "stateMutability": "view",
      "type": "function"
    },
    {
      "inputs": [
        {
          "internalType": "contract ERC20Basic",
          "name": "_token",
          "type": "address"
        }
      ],
      "name": "reclaimToken",
      "outputs": [],
      "stateMutability": "nonpayable",
      "type": "function"
    },
    {
      "inputs": [],
      "name": "renounceOwnership",
      "outputs": [],
      "stateMutability": "nonpayable",
      "type": "function"
    },
    {
      "inputs": [
        {
          "internalType": "address",
          "name": "_newOwner",
          "type": "address"
        }
      ],
      "name": "transferOwnership",
      "outputs": [],
      "stateMutability": "nonpayable",
      "type": "function"
    },
    {
      "inputs": [
        {
          "internalType": "address",
          "name": "from_",
          "type": "address"
        },
        {
          "internalType": "uint256",
          "name": "amount_",
          "type": "uint256"
        },
        {
          "internalType": "bytes",
          "name": "data_",
          "type": "bytes"
        }
      ],
      "name": "onTokenTransfer",
      "outputs": [
        {
          "internalType": "bool",
          "name": "",
          "type": "bool"
        }
      ],
      "stateMutability": "nonpayable",
      "type": "function"
    }
  ],
  "bytecode": "0x608060405234801561001057600080fd5b50600080546001600160a01b031916331790556106fd806100326000396000f3fe608060405234801561001057600080fd5b50600436106100885760003560e01c8063a4c0ed361161005b578063a4c0ed36146100f3578063aa8c217c14610116578063d5ce33891461012d578063f2fde38b1461014057600080fd5b806317ffc3201461008d578063715018a6146100a257806373d4a13a146100aa5780638da5cb5b146100c8575b600080fd5b6100a061009b366004610536565b610153565b005b6100a061020f565b6100b261027b565b6040516100bf919061055a565b60405180910390f35b6000546100db906001600160a01b031681565b6040516001600160a01b0390911681526020016100bf565b6101066101013660046105af565b610309565b60405190151581526020016100bf565b61011f60025481565b6040519081526020016100bf565b6001546100db906001600160a01b031681565b6100a061014e366004610536565b610350565b6000546001600160a01b0316331461016a57600080fd5b6040517f70a082310000000000000000000000000000000000000000000000000000000081523060048201526000906001600160a01b038316906370a0823190602401602060405180830381865afa1580156101ca573d6000803e3d6000fd5b505050506040513d601f19601f820116820180604052508101906101ee9190610638565b60005490915061020b906001600160a01b03848116911683610373565b5050565b6000546001600160a01b0316331461022657600080fd5b600080546040516001600160a01b03909116917ff8df31144d9c2f0f6b59d69b8b98abd5459d07f2742c4df920b25aae33c6482091a26000805473ffffffffffffffffffffffffffffffffffffffff19169055565b6003805461028890610651565b80601f01602080910402602001604051908101604052809291908181526020018280546102b490610651565b80156103015780601f106102d657610100808354040283529160200191610301565b820191906000526020600020905b8154815290600101906020018083116102e457829003601f168201915b505050505081565b6001805473ffffffffffffffffffffffffffffffffffffffff19166001600160a01b0386161790556002839055600061034460038484610488565b50600195945050505050565b6000546001600160a01b0316331461036757600080fd5b6103708161040d565b50565b6040517fa9059cbb0000000000000000000000000000000000000000000000000000000081526001600160a01b0383811660048301526024820183905284169063a9059cbb906044016020604051808303816000875af11580156103db573d6000803e3d6000fd5b505050506040513d601f19601f820116820180604052508101906103ff91906106a5565b61040857600080fd5b505050565b6001600160a01b03811661042057600080fd5b600080546040516001600160a01b03808516939216917f8be0079c531659141344cd1fd0a4f28419497f9722a3daafe3b4186f6b6457e091a36000805473ffffffffffffffffffffffffffffffffffffffff19166001600160a01b0392909216919091179055565b82805461049490610651565b90600052602060002090601f0160209004810192826104b657600085556104fc565b82601f106104cf5782800160ff198235161785556104fc565b828001600101855582156104fc579182015b828111156104fc5782358255916020019190600101906104e1565b5061050892915061050c565b5090565b5b80821115610508576000815560010161050d565b6001600160a01b038116811461037057600080fd5b60006020828403121561054857600080fd5b813561055381610521565b9392505050565b600060208083528351808285015260005b818110156105875785810183015185820160400152820161056b565b81811115610599576000604083870101525b50601f01601f1916929092016040019392505050565b600080600080606085870312156105c557600080fd5b84356105d081610521565b935060208501359250604085013567ffffffffffffffff808211156105f457600080fd5b818701915087601f83011261060857600080fd5b81358181111561061757600080fd5b88602082850101111561062957600080fd5b95989497505060200194505050565b60006020828403121561064a57600080fd5b5051919050565b600181811c9082168061066557607f821691505b6020821081141561069f577f4e487b7100000000000000000000000000000000000000000000000000000000600052602260045260246000fd5b50919050565b6000602082840312156106b757600080fd5b8151801515811461055357600080fdfea26469706673582212203b8369029306d296f05e8798fdaea8a63ae4565b6c7ec9c1d6c87fd996c360ae64736f6c634300080b0033",
  "immutableReferences": {},
  "source": "/* SPDX-License-Identifier: apache-2.0 */\n/**\n * Copyright 2019 Monerium ehf.\n *\n * Licensed under the Apache License, Version 2.0 (the \"License\");\n * you may not use this file except in compliance with the License.\n * You may obtain a copy of the License at\n *\n *     http://www.apache.org/licenses/LICENSE-2.0\n *\n * Unless required by applicable law or agreed to in writing, software\n * distributed under the License is distributed on an \"AS IS\" BASIS,\n * WITHOUT WARRANTIES OR CONDITIONS OF ANY KIND, either express or implied.\n * See the License for the specific language governing permissions and\n * limitations under the License.\n */\n\npragma solidity 0.8.11;\n\nimport \"./ownership/CanReclaimToken.sol\";\nimport \"./IERC677Recipient.sol\";\n\n/**\n * @title AcceptingRecipient\n * @dev [ERC677]-compatible contract.\n * The contract accepts token ownership and stores data in public member variables.\n */\ncontract AcceptingRecipient is CanReclaimToken, IERC677Recipient {\n\n    address public from;\n    uint256 public amount;\n    bytes public data;\n\n    function onTokenTransfer(address from_, uint256 amount_, bytes calldata data_) external returns (bool) {\n        from = from_;\n        amount = amount_;\n        data = data_;\n        return true;\n    }\n\n}\n",
  "sourcePath": "/Users/kristen/work/monerium/smart-contracts-private/contracts/AcceptingRecipient.sol",
  "compiler": {
    "name": "solc",
    "version": "0.8.11+commit.d7f03943.Emscripten.clang"
  },
  "schemaVersion": "3.4.4",
  "updatedAt": "2022-04-28T12:24:14.163Z",
  "networkType": "ethereum",
  "devdoc": {
    "details": "[ERC677]-compatible contract. The contract accepts token ownership and stores data in public member variables.",
    "kind": "dev",
    "methods": {
      "reclaimToken(address)": {
        "details": "Reclaim all ERC20Basic compatible tokens",
        "params": {
          "_token": "ERC20Basic The address of the token contract"
        }
      },
      "renounceOwnership()": {
        "details": "Allows the current owner to relinquish control of the contract."
      },
      "transferOwnership(address)": {
        "details": "Allows the current owner to transfer control of the contract to a newOwner.",
        "params": {
          "_newOwner": "The address to transfer ownership to."
        }
      }
    },
    "title": "AcceptingRecipient",
    "version": 1
  },
  "userdoc": {
    "kind": "user",
    "methods": {
      "renounceOwnership()": {
        "notice": "Renouncing to ownership will leave the contract without an owner. It will not be possible to call the functions with the `onlyOwner` modifier anymore."
      }
    },
    "version": 1
  }
}