{
  "contractName": "CanReclaimToken",
  "abi": [
    {
      "anonymous": false,
      "inputs": [
        {
          "indexed": true,
          "internalType": "address",
          "name": "previousOwner",
          "type": "address"
        }
      ],
      "name": "OwnershipRenounced",
      "type": "event"
    },
    {
      "anonymous": false,
      "inputs": [
        {
          "indexed": true,
          "internalType": "address",
          "name": "previousOwner",
          "type": "address"
        },
        {
          "indexed": true,
          "internalType": "address",
          "name": "newOwner",
          "type": "address"
        }
      ],
      "name": "OwnershipTransferred",
      "type": "event"
    },
    {
      "inputs": [],
      "name": "owner",
      "outputs": [
        {
          "internalType": "address",
          "name": "",
          "type": "address"
        }
      ],
      "stateMutability": "view",
      "type": "function"
    },
    {
      "inputs": [],
      "name": "renounceOwnership",
      "outputs": [],
      "stateMutability": "nonpayable",
      "type": "function"
    },
    {
      "inputs": [
        {
          "internalType": "address",
          "name": "_newOwner",
          "type": "address"
        }
      ],
      "name": "transferOwnership",
      "outputs": [],
      "stateMutability": "nonpayable",
      "type": "function"
    },
    {
      "inputs": [
        {
          "internalType": "contract ERC20Basic",
          "name": "_token",
          "type": "address"
        }
      ],
      "name": "reclaimToken",
      "outputs": [],
      "stateMutability": "nonpayable",
      "type": "function"
    }
  ],
  "bytecode": "0x608060405234801561001057600080fd5b50600080546001600160a01b031916331790556103ba806100326000396000f3fe608060405234801561001057600080fd5b506004361061004c5760003560e01c806317ffc32014610051578063715018a6146100665780638da5cb5b1461006e578063f2fde38b1461009d575b600080fd5b61006461005f366004610325565b6100b0565b005b61006461016c565b600054610081906001600160a01b031681565b6040516001600160a01b03909116815260200160405180910390f35b6100646100ab366004610325565b6101d8565b6000546001600160a01b031633146100c757600080fd5b6040517f70a082310000000000000000000000000000000000000000000000000000000081523060048201526000906001600160a01b038316906370a0823190602401602060405180830381865afa158015610127573d6000803e3d6000fd5b505050506040513d601f19601f8201168201806040525081019061014b9190610349565b600054909150610168906001600160a01b038481169116836101fb565b5050565b6000546001600160a01b0316331461018357600080fd5b600080546040516001600160a01b03909116917ff8df31144d9c2f0f6b59d69b8b98abd5459d07f2742c4df920b25aae33c6482091a26000805473ffffffffffffffffffffffffffffffffffffffff19169055565b6000546001600160a01b031633146101ef57600080fd5b6101f881610295565b50565b6040517fa9059cbb0000000000000000000000000000000000000000000000000000000081526001600160a01b0383811660048301526024820183905284169063a9059cbb906044016020604051808303816000875af1158015610263573d6000803e3d6000fd5b505050506040513d601f19601f820116820180604052508101906102879190610362565b61029057600080fd5b505050565b6001600160a01b0381166102a857600080fd5b600080546040516001600160a01b03808516939216917f8be0079c531659141344cd1fd0a4f28419497f9722a3daafe3b4186f6b6457e091a36000805473ffffffffffffffffffffffffffffffffffffffff19166001600160a01b0392909216919091179055565b6001600160a01b03811681146101f857600080fd5b60006020828403121561033757600080fd5b813561034281610310565b9392505050565b60006020828403121561035b57600080fd5b5051919050565b60006020828403121561037457600080fd5b8151801515811461034257600080fdfea2646970667358221220040e6180dca373e53a2866c4ace7397ac3f85a67009c8bb04ef36688b0e212cf64736f6c634300080b0033",
  "immutableReferences": {},
  "source": "// SPDX-License-Identifier: MIT\npragma solidity ^0.8.0;\n\nimport \"./Ownable.sol\";\nimport \"../token/ERC20/ERC20Basic.sol\";\nimport \"../token/ERC20/SafeERC20.sol\";\n\n/**\n * @title Contracts that should be able to recover tokens\n * @author SylTi\n * @dev This allow a contract to recover any ERC20 token received in a contract by transferring the balance to the contract owner.\n * This will prevent any accidental loss of tokens.\n */\ncontract CanReclaimToken is Ownable {\n  using SafeERC20 for ERC20Basic;\n\n  /**\n   * @dev Reclaim all ERC20Basic compatible tokens\n   * @param _token ERC20Basic The address of the token contract\n   */\n  function reclaimToken(ERC20Basic _token) external onlyOwner {\n    uint256 balance = _token.balanceOf(address(this));\n    _token.safeTransfer(owner, balance);\n  }\n\n}\n",
  "sourcePath": "/Users/gislik/Code/smart-contracts-private/contracts/ownership/CanReclaimToken.sol",
  "compiler": {
    "name": "solc",
    "version": "0.8.11+commit.d7f03943.Emscripten.clang"
  },
  "schemaVersion": "3.4.6",
  "updatedAt": "2022-11-15T22:20:58.308Z",
  "devdoc": {
    "author": "SylTi",
    "details": "This allow a contract to recover any ERC20 token received in a contract by transferring the balance to the contract owner. This will prevent any accidental loss of tokens.",
    "kind": "dev",
    "methods": {
      "reclaimToken(address)": {
        "details": "Reclaim all ERC20Basic compatible tokens",
        "params": {
          "_token": "ERC20Basic The address of the token contract"
        }
      },
      "renounceOwnership()": {
        "details": "Allows the current owner to relinquish control of the contract."
      },
      "transferOwnership(address)": {
        "details": "Allows the current owner to transfer control of the contract to a newOwner.",
        "params": {
          "_newOwner": "The address to transfer ownership to."
        }
      }
    },
    "title": "Contracts that should be able to recover tokens",
    "version": 1
  },
  "userdoc": {
    "kind": "user",
    "methods": {
      "renounceOwnership()": {
        "notice": "Renouncing to ownership will leave the contract without an owner. It will not be possible to call the functions with the `onlyOwner` modifier anymore."
      }
    },
    "version": 1
  }
}