{
  "contractName": "ConstantSmartController",
  "abi": [
    {
      "inputs": [
        {
          "internalType": "address",
          "name": "storage_",
          "type": "address"
        },
        {
          "internalType": "bytes3",
          "name": "ticker",
          "type": "bytes3"
        }
      ],
      "stateMutability": "nonpayable",
      "type": "constructor"
    },
    {
      "anonymous": false,
      "inputs": [
        {
          "indexed": true,
          "internalType": "address",
          "name": "old",
          "type": "address"
        },
        {
          "indexed": true,
          "internalType": "address",
          "name": "current",
          "type": "address"
        }
      ],
      "name": "Frontend",
      "type": "event"
    },
    {
      "anonymous": false,
      "inputs": [
        {
          "indexed": true,
          "internalType": "address",
          "name": "previousOwner",
          "type": "address"
        }
      ],
      "name": "OwnershipRenounced",
      "type": "event"
    },
    {
      "anonymous": false,
      "inputs": [
        {
          "indexed": true,
          "internalType": "address",
          "name": "previousOwner",
          "type": "address"
        },
        {
          "indexed": true,
          "internalType": "address",
          "name": "newOwner",
          "type": "address"
        }
      ],
      "name": "OwnershipTransferred",
      "type": "event"
    },
    {
      "anonymous": false,
      "inputs": [
        {
          "indexed": false,
          "internalType": "address",
          "name": "account",
          "type": "address"
        }
      ],
      "name": "Paused",
      "type": "event"
    },
    {
      "anonymous": false,
      "inputs": [
        {
          "indexed": true,
          "internalType": "address",
          "name": "old",
          "type": "address"
        },
        {
          "indexed": true,
          "internalType": "address",
          "name": "current",
          "type": "address"
        }
      ],
      "name": "Storage",
      "type": "event"
    },
    {
      "anonymous": false,
      "inputs": [
        {
          "indexed": true,
          "internalType": "address",
          "name": "account",
          "type": "address"
        }
      ],
      "name": "SystemAccountAdded",
      "type": "event"
    },
    {
      "anonymous": false,
      "inputs": [
        {
          "indexed": true,
          "internalType": "address",
          "name": "account",
          "type": "address"
        }
      ],
      "name": "SystemAccountRemoved",
      "type": "event"
    },
    {
      "anonymous": false,
      "inputs": [
        {
          "indexed": false,
          "internalType": "address",
          "name": "account",
          "type": "address"
        }
      ],
      "name": "Unpaused",
      "type": "event"
    },
    {
      "inputs": [],
      "name": "INITIAL_SUPPLY",
      "outputs": [
        {
          "internalType": "uint256",
          "name": "",
          "type": "uint256"
        }
      ],
      "stateMutability": "view",
      "type": "function"
    },
    {
      "inputs": [
        {
          "internalType": "address",
          "name": "account",
          "type": "address"
        }
      ],
      "name": "addSystemAccount",
      "outputs": [],
      "stateMutability": "nonpayable",
      "type": "function"
    },
    {
      "inputs": [
        {
          "internalType": "address",
          "name": "owner",
          "type": "address"
        },
        {
          "internalType": "address",
          "name": "spender",
          "type": "address"
        }
      ],
      "name": "allowance",
      "outputs": [
        {
          "internalType": "uint256",
          "name": "",
          "type": "uint256"
        }
      ],
      "stateMutability": "view",
      "type": "function"
    },
    {
      "inputs": [
        {
          "internalType": "address",
          "name": "caller",
          "type": "address"
        },
        {
          "internalType": "address",
          "name": "spender",
          "type": "address"
        },
        {
          "internalType": "uint256",
          "name": "amount",
          "type": "uint256"
        }
      ],
      "name": "approve_withCaller",
      "outputs": [
        {
          "internalType": "bool",
          "name": "ok",
          "type": "bool"
        }
      ],
      "stateMutability": "nonpayable",
      "type": "function"
    },
    {
      "inputs": [
        {
          "internalType": "address",
          "name": "who",
          "type": "address"
        }
      ],
      "name": "balanceOf",
      "outputs": [
        {
          "internalType": "uint256",
          "name": "",
          "type": "uint256"
        }
      ],
      "stateMutability": "view",
      "type": "function"
    },
    {
      "inputs": [
        {
          "internalType": "address",
          "name": "from",
          "type": "address"
        },
        {
          "internalType": "uint256",
          "name": "amount",
          "type": "uint256"
        }
      ],
      "name": "burnFrom",
      "outputs": [
        {
          "internalType": "bool",
          "name": "",
          "type": "bool"
        }
      ],
      "stateMutability": "nonpayable",
      "type": "function"
    },
    {
      "inputs": [
        {
          "internalType": "address",
          "name": "caller",
          "type": "address"
        },
        {
          "internalType": "address",
          "name": "from",
          "type": "address"
        },
        {
          "internalType": "uint256",
          "name": "amount",
          "type": "uint256"
        },
        {
          "internalType": "bytes32",
          "name": "h",
          "type": "bytes32"
        },
        {
          "internalType": "uint8",
          "name": "v",
          "type": "uint8"
        },
        {
          "internalType": "bytes32",
          "name": "r",
          "type": "bytes32"
        },
        {
          "internalType": "bytes32",
          "name": "s",
          "type": "bytes32"
        }
      ],
      "name": "burnFrom_withCaller",
      "outputs": [
        {
          "internalType": "bool",
          "name": "",
          "type": "bool"
        }
      ],
      "stateMutability": "nonpayable",
      "type": "function"
    },
    {
      "inputs": [],
      "name": "claimOwnership",
      "outputs": [],
      "stateMutability": "nonpayable",
      "type": "function"
    },
    {
      "inputs": [],
      "name": "claimStorageOwnership",
      "outputs": [],
      "stateMutability": "nonpayable",
      "type": "function"
    },
    {
      "inputs": [],
      "name": "decimals",
      "outputs": [
        {
          "internalType": "uint256",
          "name": "",
          "type": "uint256"
        }
      ],
      "stateMutability": "view",
      "type": "function"
    },
    {
      "inputs": [],
      "name": "getFrontend",
      "outputs": [
        {
          "internalType": "address",
          "name": "",
          "type": "address"
        }
      ],
      "stateMutability": "view",
      "type": "function"
    },
    {
      "inputs": [],
      "name": "getStorage",
      "outputs": [
        {
          "internalType": "address",
          "name": "",
          "type": "address"
        }
      ],
      "stateMutability": "view",
      "type": "function"
    },
    {
      "inputs": [],
      "name": "getValidator",
      "outputs": [
        {
          "internalType": "address",
          "name": "",
          "type": "address"
        }
      ],
      "stateMutability": "view",
      "type": "function"
    },
    {
      "inputs": [
        {
          "internalType": "address",
          "name": "account",
          "type": "address"
        }
      ],
      "name": "isSystemAccount",
      "outputs": [
        {
          "internalType": "bool",
          "name": "",
          "type": "bool"
        }
      ],
      "stateMutability": "view",
      "type": "function"
    },
    {
      "inputs": [
        {
          "internalType": "address",
          "name": "caller",
          "type": "address"
        },
        {
          "internalType": "address",
          "name": "to",
          "type": "address"
        },
        {
          "internalType": "uint256",
          "name": "amount",
          "type": "uint256"
        }
      ],
      "name": "mintTo_withCaller",
      "outputs": [
        {
          "internalType": "bool",
          "name": "",
          "type": "bool"
        }
      ],
      "stateMutability": "nonpayable",
      "type": "function"
    },
    {
      "inputs": [],
      "name": "name",
      "outputs": [
        {
          "internalType": "string",
          "name": "",
          "type": "string"
        }
      ],
      "stateMutability": "view",
      "type": "function"
    },
    {
      "inputs": [],
      "name": "owner",
      "outputs": [
        {
          "internalType": "address",
          "name": "",
          "type": "address"
        }
      ],
      "stateMutability": "view",
      "type": "function"
    },
    {
      "inputs": [],
      "name": "pause",
      "outputs": [],
      "stateMutability": "nonpayable",
      "type": "function"
    },
    {
      "inputs": [],
      "name": "paused",
      "outputs": [
        {
          "internalType": "bool",
          "name": "",
          "type": "bool"
        }
      ],
      "stateMutability": "view",
      "type": "function"
    },
    {
      "inputs": [],
      "name": "pendingOwner",
      "outputs": [
        {
          "internalType": "address",
          "name": "",
          "type": "address"
        }
      ],
      "stateMutability": "view",
      "type": "function"
    },
    {
      "inputs": [
        {
          "internalType": "address",
          "name": "caller",
          "type": "address"
        },
        {
          "internalType": "address",
          "name": "from",
          "type": "address"
        },
        {
          "internalType": "address",
          "name": "to",
          "type": "address"
        },
        {
          "internalType": "bytes32",
          "name": "h",
          "type": "bytes32"
        },
        {
          "internalType": "uint8",
          "name": "v",
          "type": "uint8"
        },
        {
          "internalType": "bytes32",
          "name": "r",
          "type": "bytes32"
        },
        {
          "internalType": "bytes32",
          "name": "s",
          "type": "bytes32"
        }
      ],
      "name": "recover_withCaller",
      "outputs": [
        {
          "internalType": "uint256",
          "name": "",
          "type": "uint256"
        }
      ],
      "stateMutability": "nonpayable",
      "type": "function"
    },
    {
      "inputs": [
        {
          "internalType": "address",
          "name": "account",
          "type": "address"
        }
      ],
      "name": "removeSystemAccount",
      "outputs": [],
      "stateMutability": "nonpayable",
      "type": "function"
    },
    {
      "inputs": [],
      "name": "renounceOwnership",
      "outputs": [],
      "stateMutability": "nonpayable",
      "type": "function"
    },
    {
      "inputs": [
        {
          "internalType": "address",
          "name": "frontend_",
          "type": "address"
        }
      ],
      "name": "setFrontend",
      "outputs": [],
      "stateMutability": "nonpayable",
      "type": "function"
    },
    {
      "inputs": [
        {
          "internalType": "address",
          "name": "storage_",
          "type": "address"
        }
      ],
      "name": "setStorage",
      "outputs": [],
      "stateMutability": "nonpayable",
      "type": "function"
    },
    {
      "inputs": [
        {
          "internalType": "address",
          "name": "validator",
          "type": "address"
        }
      ],
      "name": "setValidator",
      "outputs": [],
      "stateMutability": "nonpayable",
      "type": "function"
    },
    {
      "inputs": [],
      "name": "symbol",
      "outputs": [
        {
          "internalType": "string",
          "name": "",
          "type": "string"
        }
      ],
      "stateMutability": "view",
      "type": "function"
    },
    {
      "inputs": [],
      "name": "ticker",
      "outputs": [
        {
          "internalType": "bytes3",
          "name": "",
          "type": "bytes3"
        }
      ],
      "stateMutability": "view",
      "type": "function"
    },
    {
      "inputs": [],
      "name": "totalSupply",
      "outputs": [
        {
          "internalType": "uint256",
          "name": "",
          "type": "uint256"
        }
      ],
      "stateMutability": "view",
      "type": "function"
    },
    {
      "inputs": [
        {
          "internalType": "address",
          "name": "caller",
          "type": "address"
        },
        {
          "internalType": "address",
          "name": "to",
          "type": "address"
        },
        {
          "internalType": "uint256",
          "name": "amount",
          "type": "uint256"
        },
        {
          "internalType": "bytes",
          "name": "data",
          "type": "bytes"
        }
      ],
      "name": "transferAndCall_withCaller",
      "outputs": [
        {
          "internalType": "bool",
          "name": "",
          "type": "bool"
        }
      ],
      "stateMutability": "nonpayable",
      "type": "function"
    },
    {
      "inputs": [
        {
          "internalType": "address",
          "name": "caller",
          "type": "address"
        },
        {
          "internalType": "address",
          "name": "from",
          "type": "address"
        },
        {
          "internalType": "address",
          "name": "to",
          "type": "address"
        },
        {
          "internalType": "uint256",
          "name": "amount",
          "type": "uint256"
        }
      ],
      "name": "transferFrom_withCaller",
      "outputs": [
        {
          "internalType": "bool",
          "name": "",
          "type": "bool"
        }
      ],
      "stateMutability": "nonpayable",
      "type": "function"
    },
    {
      "inputs": [
        {
          "internalType": "address",
          "name": "newOwner",
          "type": "address"
        }
      ],
      "name": "transferOwnership",
      "outputs": [],
      "stateMutability": "nonpayable",
      "type": "function"
    },
    {
      "inputs": [
        {
          "internalType": "address",
          "name": "newOwner",
          "type": "address"
        }
      ],
      "name": "transferStorageOwnership",
      "outputs": [],
      "stateMutability": "nonpayable",
      "type": "function"
    },
    {
      "inputs": [
        {
          "internalType": "address",
          "name": "caller",
          "type": "address"
        },
        {
          "internalType": "address",
          "name": "to",
          "type": "address"
        },
        {
          "internalType": "uint256",
          "name": "amount",
          "type": "uint256"
        }
      ],
      "name": "transfer_withCaller",
      "outputs": [
        {
          "internalType": "bool",
          "name": "",
          "type": "bool"
        }
      ],
      "stateMutability": "nonpayable",
      "type": "function"
    },
    {
      "inputs": [],
      "name": "unpause",
      "outputs": [],
      "stateMutability": "nonpayable",
      "type": "function"
    }
  ],
  "bytecode": "0x608060405260126007553480156200001657600080fd5b5060405162003b4e38038062003b4e833981016040819052620000399162000323565b8160006040516200004a9062000307565b9015158152602001604051809103906000f0801580156200006f573d6000803e3d6000fd5b50600180546001600160a81b03191661010033021790558260008381808281806001600160a01b0383161580620000a4575081155b6200011c5760405162461bcd60e51b815260206004820152603f60248201527f656974686572206120746f6b656e2073746f72616765206d757374206265206960448201527f6e697469616c697a6564206f72206e6f20696e697469616c20737570706c790060648201526084015b60405180910390fd5b6001600160a01b038316620001d357604051620001399062000315565b604051809103906000f08015801562000156573d6000803e3d6000fd5b50600380546001600160a01b0319166001600160a01b039290921691821790556040516310f29c1d60e11b8152336004820152602481018490526321e5383a90604401600060405180830381600087803b158015620001b457600080fd5b505af1158015620001c9573d6000803e3d6000fd5b50505050620001ef565b600380546001600160a01b0319166001600160a01b0385161790555b600480546001600160a01b0319166001600160a01b039283161790558816151594506200027093505050505760405162461bcd60e51b8152602060048201526024808201527f76616c696461746f722063616e6e6f7420626520746865206e756c6c206164646044820152637265737360e01b606482015260840162000113565b60405163ad41534960e01b8152600860048201526001600160a01b038416602482015273__SmartTokenLib_________________________9063ad4153499060440160006040518083038186803b158015620002cb57600080fd5b505af4158015620002e0573d6000803e3d6000fd5b50506009805462ffffff191660e89590951c94909417909355506200037995505050505050565b61073b80620028b783390190565b610b5c8062002ff283390190565b600080604083850312156200033757600080fd5b82516001600160a01b03811681146200034f57600080fd5b60208401519092506001600160e81b0319811681146200036e57600080fd5b809150509250929050565b61252e80620003896000396000f3fe608060405234801561001057600080fd5b50600436106102405760003560e01c8063715018a611610145578063a84c56d0116100bd578063e30c39781161008c578063ebbc3d4611610071578063ebbc3d4614610497578063ee0b5445146104aa578063f2fde38b146104bd57600080fd5b8063e30c397814610471578063e974fee91461048457600080fd5b8063a84c56d014610430578063b516af7014610443578063dd62ed3e1461044b578063e174fd941461045e57600080fd5b80638ba47bdd116101145780639137c1a7116100f95780639137c1a71461040257806395d89b41146104155780639e7f43ca1461041d57600080fd5b80638ba47bdd146103ac5780638da5cb5b146103ea57600080fd5b8063715018a614610376578063774d54091461037e57806379cc6790146103915780638456cb59146103a457600080fd5b8063326ecb05116101d85780634e71e0c8116101a75780635c975abb1161018c5780635c975abb1461034557806369569a511461035057806370a082311461036357600080fd5b80634e71e0c81461032a5780634eb007541461033257600080fd5b8063326ecb05146102eb5780633408f73a146102fe5780633cd1570f1461030f5780633f4ba83a1461032257600080fd5b806318160ddd1161021457806318160ddd146102a15780632ff2e9dc146102b7578063313ce567146102bf578063322ec0fb146102c857600080fd5b80623074ff1461024557806306fdde031461026f5780631195e07e146102845780631327d3d81461028c575b600080fd5b6004546001600160a01b03165b6040516001600160a01b0390911681526020015b60405180910390f35b6102776104d0565b60405161026691906120f3565b61025261055e565b61029f61029a36600461215d565b6105f3565b005b6102a9610693565b604051908152602001610266565b6102a9600081565b6102a960075481565b6102db6102d636600461217a565b61071a565b6040519015158152602001610266565b6102db6102f936600461215d565b6108bd565b6003546001600160a01b0316610252565b6102a961031d3660046121d1565b6108e0565b61029f610aa1565b61029f610ac7565b6102db610340366004612248565b610b6f565b60015460ff166102db565b61029f61035e36600461215d565b610d18565b6102a961037136600461215d565b610d9d565b61029f610e25565b6102db61038c36600461217a565b610e9d565b6102db61039f36600461229a565b61102a565b61029f611107565b6009546103b99060e81b81565b6040517fffffff00000000000000000000000000000000000000000000000000000000009091168152602001610266565b6001546102529061010090046001600160a01b031681565b61029f61041036600461215d565b61112b565b6102776111b0565b6102db61042b3660046122c6565b6111bd565b61029f61043e36600461215d565b6113ac565b61029f6113d4565b6102a9610459366004612365565b61145a565b6102db61046c36600461217a565b61150d565b600254610252906001600160a01b031681565b6102db61049236600461239e565b6116c9565b61029f6104a536600461215d565b611886565b61029f6104b836600461215d565b6118ab565b61029f6104cb36600461215d565b61193b565b600580546104dd906123ef565b80601f0160208091040260200160405190810160405280929190818152602001828054610509906123ef565b80156105565780601f1061052b57610100808354040283529160200191610556565b820191906000526020600020905b81548152906001019060200180831161053957829003601f168201915b505050505081565b6040517f6271970c0000000000000000000000000000000000000000000000000000000081526008600482015260009073__SmartTokenLib_________________________90636271970c90602401602060405180830381865af41580156105ca573d6000803e3d6000fd5b505050506040513d601f19601f820116820180604052508101906105ee9190612443565b905090565b6105fc336108bd565b61060557600080fd5b6040517fad415349000000000000000000000000000000000000000000000000000000008152600860048201526001600160a01b038216602482015273__SmartTokenLib_________________________9063ad4153499060440160006040518083038186803b15801561067857600080fd5b505af415801561068c573d6000803e3d6000fd5b5050505050565b600354604080517f6c9c2faf00000000000000000000000000000000000000000000000000000000815290516000926001600160a01b031691636c9c2faf9160048083019260209291908290030181865afa1580156106f6573d6000803e3d6000fd5b505050506040513d601f19601f820116820180604052508101906105ee9190612460565b600083336001600160a01b038216148061073e57506004546001600160a01b031633145b6107ac5760405162461bcd60e51b815260206004820152603460248201527f6569746865722063616c6c6572206d7573742062652073656e646572206f722060448201527318d85b1b1a5b99c81d9a5848199c9bdb9d195b9960621b60648201526084015b60405180910390fd5b846107b6816108bd565b6108025760405162461bcd60e51b815260206004820152601860248201527f6d75737420626520612073797374656d206163636f756e74000000000000000060448201526064016107a3565b61080b85611986565b6003546040517fb0c29c740000000000000000000000000000000000000000000000000000000081526001600160a01b03918216600482015290861660248201526044810185905273__MintableTokenLib______________________9063b0c29c7490606401602060405180830381865af415801561088f573d6000803e3d6000fd5b505050506040513d601f19601f820116820180604052508101906108b39190612479565b9695505050505050565b6001600160a01b03811660009081526020819052604081205460ff165b92915050565b600087336001600160a01b038216148061090457506004546001600160a01b031633145b61096d5760405162461bcd60e51b815260206004820152603460248201527f6569746865722063616c6c6572206d7573742062652073656e646572206f722060448201527318d85b1b1a5b99c81d9a5848199c9bdb9d195b9960621b60648201526084016107a3565b88610977816108bd565b6109c35760405162461bcd60e51b815260206004820152601860248201527f6d75737420626520612073797374656d206163636f756e74000000000000000060448201526064016107a3565b6109cc88611986565b6003546040517f8f7227340000000000000000000000000000000000000000000000000000000081526001600160a01b0391821660048201528a8216602482015290891660448201526064810188905260ff8716608482015260a4810186905260c4810185905273__SmartTokenLib_________________________90638f7227349060e401602060405180830381865af4158015610a6f573d6000803e3d6000fd5b505050506040513d601f19601f82011682018060405250810190610a939190612460565b9a9950505050505050505050565b60015461010090046001600160a01b03163314610abd57600080fd5b610ac5611af1565b565b6002546001600160a01b03163314610ade57600080fd5b6002546001546040516001600160a01b0392831692610100909204909116907f8be0079c531659141344cd1fd0a4f28419497f9722a3daafe3b4186f6b6457e090600090a3600280546001805474ffffffffffffffffffffffffffffffffffffffff0019166101006001600160a01b0384160217905573ffffffffffffffffffffffffffffffffffffffff19169055565b600087336001600160a01b0382161480610b9357506004546001600160a01b031633145b610bfc5760405162461bcd60e51b815260206004820152603460248201527f6569746865722063616c6c6572206d7573742062652073656e646572206f722060448201527318d85b1b1a5b99c81d9a5848199c9bdb9d195b9960621b60648201526084016107a3565b88610c06816108bd565b610c525760405162461bcd60e51b815260206004820152601860248201527f6d75737420626520612073797374656d206163636f756e74000000000000000060448201526064016107a3565b6003546040517f799639d40000000000000000000000000000000000000000000000000000000081526001600160a01b039182166004820152908a166024820152604481018990526064810188905260ff8716608482015260a4810186905260c4810185905273__MintableTokenLib______________________9063799639d49060e401602060405180830381865af4158015610cf4573d6000803e3d6000fd5b505050506040513d601f19601f82011682018060405250810190610a939190612479565b60015461010090046001600160a01b03163314610d3457600080fd5b6004546040516001600160a01b038084169216907fcb01f884fc4203d4c1643cb0e126faeb397682c122ca8c0433776d42cdc0060a90600090a36004805473ffffffffffffffffffffffffffffffffffffffff19166001600160a01b0392909216919091179055565b6003546040517ff8b2cb4f0000000000000000000000000000000000000000000000000000000081526001600160a01b038381166004830152600092169063f8b2cb4f90602401602060405180830381865afa158015610e01573d6000803e3d6000fd5b505050506040513d601f19601f820116820180604052508101906108da9190612460565b60015461010090046001600160a01b03163314610e4157600080fd5b6001546040516101009091046001600160a01b0316907ff8df31144d9c2f0f6b59d69b8b98abd5459d07f2742c4df920b25aae33c6482090600090a26001805474ffffffffffffffffffffffffffffffffffffffff0019169055565b600083336001600160a01b0382161480610ec157506004546001600160a01b031633145b610f2a5760405162461bcd60e51b815260206004820152603460248201527f6569746865722063616c6c6572206d7573742062652073656e646572206f722060448201527318d85b1b1a5b99c81d9a5848199c9bdb9d195b9960621b60648201526084016107a3565b60015460ff1615610f705760405162461bcd60e51b815260206004820152601060248201526f14185d5cd8589b194e881c185d5cd95960821b60448201526064016107a3565b6003546040517f365feff10000000000000000000000000000000000000000000000000000000081526001600160a01b039182166004820152868216602482015290851660448201526064810184905273__ERC20Lib______________________________9063365feff1906084015b602060405180830381865af4158015610ffd573d6000803e3d6000fd5b505050506040513d601f19601f820116820180604052508101906110219190612479565b95945050505050565b60003333611037816108bd565b6110835760405162461bcd60e51b815260206004820152601860248201527f6d75737420626520612073797374656d206163636f756e74000000000000000060448201526064016107a3565b6003546040517fa6c9ac280000000000000000000000000000000000000000000000000000000081526001600160a01b03918216600482015290861660248201526044810185905273__MintableTokenLib______________________9063a6c9ac2890606401602060405180830381865af4158015610ffd573d6000803e3d6000fd5b60015461010090046001600160a01b0316331461112357600080fd5b610ac5611b8d565b60015461010090046001600160a01b0316331461114757600080fd5b6003546040516001600160a01b038084169216907fdaaa9d417a3107fd3d9db02eba3eeafbae2b8af16ee08c534f5bc449054c1c4c90600090a36003805473ffffffffffffffffffffffffffffffffffffffff19166001600160a01b0392909216919091179055565b600680546104dd906123ef565b600085336001600160a01b03821614806111e157506004546001600160a01b031633145b61124a5760405162461bcd60e51b815260206004820152603460248201527f6569746865722063616c6c6572206d7573742062652073656e646572206f722060448201527318d85b1b1a5b99c81d9a5848199c9bdb9d195b9960621b60648201526084016107a3565b60015460ff16156112905760405162461bcd60e51b815260206004820152601060248201526f14185d5cd8589b194e881c185d5cd95960821b60448201526064016107a3565b6040516332c5a6eb60e01b8152600860048201526001600160a01b038089166024830152871660448201526064810186905273__SmartTokenLib_________________________906332c5a6eb90608401602060405180830381865af41580156112fe573d6000803e3d6000fd5b505050506040513d601f19601f820116820180604052508101906113229190612479565b6113945760405162461bcd60e51b815260206004820152602160248201527f7472616e73666572416e6443616c6c2072657175657374206e6f742076616c6960448201527f640000000000000000000000000000000000000000000000000000000000000060648201526084016107a3565b6113a18787878787611c06565b979650505050505050565b60015461010090046001600160a01b031633146113c857600080fd5b6113d181611d88565b50565b60015461010090046001600160a01b031633146113f057600080fd5b600360009054906101000a90046001600160a01b03166001600160a01b0316634e71e0c86040518163ffffffff1660e01b8152600401600060405180830381600087803b15801561144057600080fd5b505af1158015611454573d6000803e3d6000fd5b50505050565b6003546040517f1045d7ce0000000000000000000000000000000000000000000000000000000081526001600160a01b0391821660048201528382166024820152908216604482015260009073__ERC20Lib______________________________90631045d7ce90606401602060405180830381865af41580156114e2573d6000803e3d6000fd5b505050506040513d601f19601f820116820180604052508101906115069190612460565b9392505050565b600083336001600160a01b038216148061153157506004546001600160a01b031633145b61159a5760405162461bcd60e51b815260206004820152603460248201527f6569746865722063616c6c6572206d7573742062652073656e646572206f722060448201527318d85b1b1a5b99c81d9a5848199c9bdb9d195b9960621b60648201526084016107a3565b60015460ff16156115e05760405162461bcd60e51b815260206004820152601060248201526f14185d5cd8589b194e881c185d5cd95960821b60448201526064016107a3565b6040516332c5a6eb60e01b8152600860048201526001600160a01b038087166024830152851660448201526064810184905273__SmartTokenLib_________________________906332c5a6eb90608401602060405180830381865af415801561164e573d6000803e3d6000fd5b505050506040513d601f19601f820116820180604052508101906116729190612479565b6116be5760405162461bcd60e51b815260206004820152601a60248201527f7472616e736665722072657175657374206e6f742076616c696400000000000060448201526064016107a3565b611021858585611dea565b600084336001600160a01b03821614806116ed57506004546001600160a01b031633145b6117565760405162461bcd60e51b815260206004820152603460248201527f6569746865722063616c6c6572206d7573742062652073656e646572206f722060448201527318d85b1b1a5b99c81d9a5848199c9bdb9d195b9960621b60648201526084016107a3565b60015460ff161561179c5760405162461bcd60e51b815260206004820152601060248201526f14185d5cd8589b194e881c185d5cd95960821b60448201526064016107a3565b6040516332c5a6eb60e01b8152600860048201526001600160a01b038087166024830152851660448201526064810184905273__SmartTokenLib_________________________906332c5a6eb90608401602060405180830381865af415801561180a573d6000803e3d6000fd5b505050506040513d601f19601f8201168201806040525081019061182e9190612479565b61187a5760405162461bcd60e51b815260206004820152601e60248201527f7472616e7366657246726f6d2072657175657374206e6f742076616c6964000060448201526064016107a3565b6108b386868686611f3a565b60015461010090046001600160a01b031633146118a257600080fd5b6113d1816120aa565b60015461010090046001600160a01b031633146118c757600080fd5b6003546040517ff2fde38b0000000000000000000000000000000000000000000000000000000081526001600160a01b0383811660048301529091169063f2fde38b90602401600060405180830381600087803b15801561192757600080fd5b505af115801561068c573d6000803e3d6000fd5b60015461010090046001600160a01b0316331461195757600080fd5b6002805473ffffffffffffffffffffffffffffffffffffffff19166001600160a01b0392909216919091179055565b6001600160a01b0381166119dc5760405162461bcd60e51b815260206004820152601460248201527f6d757374206e6f742073656e6420746f2030783000000000000000000000000060448201526064016107a3565b6001600160a01b038116301415611a355760405162461bcd60e51b815260206004820152601b60248201527f6d757374206e6f742073656e6420746f20636f6e74726f6c6c6572000000000060448201526064016107a3565b6003546001600160a01b0382811691161415611a935760405162461bcd60e51b815260206004820152601e60248201527f6d757374206e6f742073656e6420746f20746f6b656e2073746f72616765000060448201526064016107a3565b6004546001600160a01b03828116911614156113d15760405162461bcd60e51b815260206004820152601960248201527f6d757374206e6f742073656e6420746f2066726f6e74656e640000000000000060448201526064016107a3565b60015460ff16611b435760405162461bcd60e51b815260206004820152601460248201527f5061757361626c653a206e6f742070617573656400000000000000000000000060448201526064016107a3565b6001805460ff191690557f5db9ee0a495bf2e6ff9c91a7834c1ba4fdd244a5e8aa4e537bd38aeae4b073aa335b6040516001600160a01b03909116815260200160405180910390a1565b60015460ff1615611bd35760405162461bcd60e51b815260206004820152601060248201526f14185d5cd8589b194e881c185d5cd95960821b60448201526064016107a3565b6001805460ff1916811790557f62e78cea01bee320cd4e420270b5ea74000d11b0c9f74754ebdbfc544b05a25833611b70565b600085336001600160a01b0382161480611c2a57506004546001600160a01b031633145b611c935760405162461bcd60e51b815260206004820152603460248201527f6569746865722063616c6c6572206d7573742062652073656e646572206f722060448201527318d85b1b1a5b99c81d9a5848199c9bdb9d195b9960621b60648201526084016107a3565b60015460ff1615611cd95760405162461bcd60e51b815260206004820152601060248201526f14185d5cd8589b194e881c185d5cd95960821b60448201526064016107a3565b611ce286611986565b6003546040517f1eb8bccb00000000000000000000000000000000000000000000000000000000815273__ERC677Lib_____________________________91631eb8bccb91611d47916001600160a01b0316908b908b908b908b908b9060040161249b565b602060405180830381865af4158015611d64573d6000803e3d6000fd5b505050506040513d601f19601f820116820180604052508101906113a19190612479565b611db36000826001600160a01b0316600090815260209190915260409020805460ff19166001179055565b6040516001600160a01b038216907fdfb5b1167ef9eadf5cac67570f1a2971a6f6175303b9d4166a65a11d0a294e3490600090a250565b600083336001600160a01b0382161480611e0e57506004546001600160a01b031633145b611e775760405162461bcd60e51b815260206004820152603460248201527f6569746865722063616c6c6572206d7573742062652073656e646572206f722060448201527318d85b1b1a5b99c81d9a5848199c9bdb9d195b9960621b60648201526084016107a3565b60015460ff1615611ebd5760405162461bcd60e51b815260206004820152601060248201526f14185d5cd8589b194e881c185d5cd95960821b60448201526064016107a3565b611ec684611986565b6003546040517f44ded8ba0000000000000000000000000000000000000000000000000000000081526001600160a01b039182166004820152868216602482015290851660448201526064810184905273__ERC20Lib______________________________906344ded8ba90608401610fe0565b600084336001600160a01b0382161480611f5e57506004546001600160a01b031633145b611fc75760405162461bcd60e51b815260206004820152603460248201527f6569746865722063616c6c6572206d7573742062652073656e646572206f722060448201527318d85b1b1a5b99c81d9a5848199c9bdb9d195b9960621b60648201526084016107a3565b60015460ff161561200d5760405162461bcd60e51b815260206004820152601060248201526f14185d5cd8589b194e881c185d5cd95960821b60448201526064016107a3565b61201684611986565b6003546040517ff3a0ddf90000000000000000000000000000000000000000000000000000000081526001600160a01b0391821660048201528782166024820152868216604482015290851660648201526084810184905273__ERC20Lib______________________________9063f3a0ddf99060a401602060405180830381865af415801561088f573d6000803e3d6000fd5b6001600160a01b038116600081815260208190526040808220805460ff19169055517f21bfb3de07221bc6197a8c23f7a059308b7a741f259cf4ef3b519cde0fde7ac39190a250565b600060208083528351808285015260005b8181101561212057858101830151858201604001528201612104565b81811115612132576000604083870101525b50601f01601f1916929092016040019392505050565b6001600160a01b03811681146113d157600080fd5b60006020828403121561216f57600080fd5b813561150681612148565b60008060006060848603121561218f57600080fd5b833561219a81612148565b925060208401356121aa81612148565b929592945050506040919091013590565b803560ff811681146121cc57600080fd5b919050565b600080600080600080600060e0888a0312156121ec57600080fd5b87356121f781612148565b9650602088013561220781612148565b9550604088013561221781612148565b94506060880135935061222c608089016121bb565b925060a0880135915060c0880135905092959891949750929550565b600080600080600080600060e0888a03121561226357600080fd5b873561226e81612148565b9650602088013561227e81612148565b9550604088013594506060880135935061222c608089016121bb565b600080604083850312156122ad57600080fd5b82356122b881612148565b946020939093013593505050565b6000806000806000608086880312156122de57600080fd5b85356122e981612148565b945060208601356122f981612148565b935060408601359250606086013567ffffffffffffffff8082111561231d57600080fd5b818801915088601f83011261233157600080fd5b81358181111561234057600080fd5b89602082850101111561235257600080fd5b9699959850939650602001949392505050565b6000806040838503121561237857600080fd5b823561238381612148565b9150602083013561239381612148565b809150509250929050565b600080600080608085870312156123b457600080fd5b84356123bf81612148565b935060208501356123cf81612148565b925060408501356123df81612148565b9396929550929360600135925050565b600181811c9082168061240357607f821691505b6020821081141561243d577f4e487b7100000000000000000000000000000000000000000000000000000000600052602260045260246000fd5b50919050565b60006020828403121561245557600080fd5b815161150681612148565b60006020828403121561247257600080fd5b5051919050565b60006020828403121561248b57600080fd5b8151801515811461150657600080fd5b60006001600160a01b038089168352808816602084015280871660408401525084606083015260a060808301528260a0830152828460c0840137600060c0848401015260c0601f19601f850116830101905097965050505050505056fea26469706673582212204b2bf696050fe7d8ad76bf00e719ea0532ecf906773ac328f6f3ec964487533364736f6c634300080b0033608060405234801561001057600080fd5b5060405161073b38038061073b83398101604081905261002f9161006d565b600080546001600160a01b03191633179055341561004c57600080fd5b60018054911515600160a01b0260ff60a01b19909216919091179055610096565b60006020828403121561007f57600080fd5b8151801515811461008f57600080fd5b9392505050565b610696806100a56000396000f3fe608060405234801561001057600080fd5b50600436106100b55760003560e01c80639f727c2711610070578063c0ee0b8a11610058578063c0ee0b8a14610168578063e30c39781461017b578063f2fde38b1461018e57005b80639f727c271461011d578063aa3ad4e41461012557005b80634e71e0c81161009e5780634e71e0c8146100dd578063715018a6146100e55780638da5cb5b146100ed57005b806317ffc320146100b75780632aed7f3f146100ca575b005b6100b56100c5366004610537565b6101a1565b6100b56100d8366004610537565b61025d565b6100b56102f1565b6100b5610379565b600054610100906001600160a01b031681565b6040516001600160a01b0390911681526020015b60405180910390f35b6100b56103e5565b61015861013336600461055b565b505060015474010000000000000000000000000000000000000000900460ff16919050565b6040519015158152602001610114565b6100b561017636600461059c565b600080fd5b600154610100906001600160a01b031681565b6100b561019c366004610537565b610439565b6000546001600160a01b031633146101b857600080fd5b6040517f70a082310000000000000000000000000000000000000000000000000000000081523060048201526000906001600160a01b038316906370a0823190602401602060405180830381865afa158015610218573d6000803e3d6000fd5b505050506040513d601f19601f8201168201806040525081019061023c9190610625565b600054909150610259906001600160a01b03848116911683610442565b5050565b6000546001600160a01b0316331461027457600080fd5b6000546040517ff2fde38b0000000000000000000000000000000000000000000000000000000081526001600160a01b039182166004820152829182169063f2fde38b90602401600060405180830381600087803b1580156102d557600080fd5b505af11580156102e9573d6000803e3d6000fd5b505050505050565b6001546001600160a01b0316331461030857600080fd5b600154600080546040516001600160a01b0393841693909116917f8be0079c531659141344cd1fd0a4f28419497f9722a3daafe3b4186f6b6457e091a3600180546000805473ffffffffffffffffffffffffffffffffffffffff199081166001600160a01b03841617909155169055565b6000546001600160a01b0316331461039057600080fd5b600080546040516001600160a01b03909116917ff8df31144d9c2f0f6b59d69b8b98abd5459d07f2742c4df920b25aae33c6482091a26000805473ffffffffffffffffffffffffffffffffffffffff19169055565b6000546001600160a01b031633146103fc57600080fd5b600080546040516001600160a01b03909116914780156108fc02929091818181858888f19350505050158015610436573d6000803e3d6000fd5b50565b610436816104dc565b6040517fa9059cbb0000000000000000000000000000000000000000000000000000000081526001600160a01b0383811660048301526024820183905284169063a9059cbb906044016020604051808303816000875af11580156104aa573d6000803e3d6000fd5b505050506040513d601f19601f820116820180604052508101906104ce919061063e565b6104d757600080fd5b505050565b6000546001600160a01b031633146104f357600080fd5b6001805473ffffffffffffffffffffffffffffffffffffffff19166001600160a01b0392909216919091179055565b6001600160a01b038116811461043657600080fd5b60006020828403121561054957600080fd5b813561055481610522565b9392505050565b60008060006060848603121561057057600080fd5b833561057b81610522565b9250602084013561058b81610522565b929592945050506040919091013590565b600080600080606085870312156105b257600080fd5b84356105bd81610522565b935060208501359250604085013567ffffffffffffffff808211156105e157600080fd5b818701915087601f8301126105f557600080fd5b81358181111561060457600080fd5b88602082850101111561061657600080fd5b95989497505060200194505050565b60006020828403121561063757600080fd5b5051919050565b60006020828403121561065057600080fd5b8151801515811461055457600080fdfea2646970667358221220a94225ebef816f4869aa48f8c22e9bf3610bfdab6f73257a1bfcedb10013b8d264736f6c634300080b0033608060405234801561001057600080fd5b50600080546001600160a01b03191633179055341561002e57600080fd5b610b1f8061003d6000396000f3fe608060405234801561001057600080fd5b50600436106100ec5760003560e01c80638da5cb5b11610091578063cf8eeb7e11610063578063cf8eeb7e146101be578063e30c3978146101d1578063f2fde38b146101e4578063f8b2cb4f146101f757005b80638da5cb5b146101655780639f727c2714610190578063c0ee0b8a14610198578063c7c7e9ea146101ab57005b806333dd1b8a116100ca57806333dd1b8a146101275780634e71e0c81461013a5780636c9c2faf14610142578063715018a61461015d57005b806317ffc320146100ee57806321e5383a146101015780632aed7f3f14610114575b005b6100ec6100fc366004610962565b61020a565b6100ec61010f36600461097f565b6102c6565b6100ec610122366004610962565b610374565b6100ec6101353660046109ab565b610400565b6100ec6104b6565b61014a61053e565b6040519081526020015b60405180910390f35b6100ec6105d3565b600054610178906001600160a01b031681565b6040516001600160a01b039091168152602001610154565b6100ec61063f565b6100ec6101a63660046109ec565b600080fd5b61014a6101b9366004610a75565b610693565b6100ec6101cc36600461097f565b610741565b600154610178906001600160a01b031681565b6100ec6101f2366004610962565b6107bf565b61014a610205366004610962565b6107c8565b6000546001600160a01b0316331461022157600080fd5b6040517f70a082310000000000000000000000000000000000000000000000000000000081523060048201526000906001600160a01b038316906370a0823190602401602060405180830381865afa158015610281573d6000803e3d6000fd5b505050506040513d601f19601f820116820180604052508101906102a59190610aae565b6000549091506102c2906001600160a01b0384811691168361086d565b5050565b6000546001600160a01b031633146102dd57600080fd5b6040517f7aeb0ed5000000000000000000000000000000000000000000000000000000008152600260048201526001600160a01b03831660248201526044810182905273__TokenStorageLib_______________________90637aeb0ed5906064015b60006040518083038186803b15801561035857600080fd5b505af415801561036c573d6000803e3d6000fd5b505050505050565b6000546001600160a01b0316331461038b57600080fd5b6000546040517ff2fde38b0000000000000000000000000000000000000000000000000000000081526001600160a01b039182166004820152829182169063f2fde38b90602401600060405180830381600087803b1580156103ec57600080fd5b505af115801561036c573d6000803e3d6000fd5b6000546001600160a01b0316331461041757600080fd5b6040517f5599b4b7000000000000000000000000000000000000000000000000000000008152600260048201526001600160a01b038085166024830152831660448201526064810182905273__TokenStorageLib_______________________90635599b4b79060840160006040518083038186803b15801561049957600080fd5b505af41580156104ad573d6000803e3d6000fd5b50505050505050565b6001546001600160a01b031633146104cd57600080fd5b600154600080546040516001600160a01b0393841693909116917f8be0079c531659141344cd1fd0a4f28419497f9722a3daafe3b4186f6b6457e091a3600180546000805473ffffffffffffffffffffffffffffffffffffffff199081166001600160a01b03841617909155169055565b6040517f072f9a500000000000000000000000000000000000000000000000000000000081526002600482015260009073__TokenStorageLib_______________________9063072f9a5090602401602060405180830381865af41580156105aa573d6000803e3d6000fd5b505050506040513d601f19601f820116820180604052508101906105ce9190610aae565b905090565b6000546001600160a01b031633146105ea57600080fd5b600080546040516001600160a01b03909116917ff8df31144d9c2f0f6b59d69b8b98abd5459d07f2742c4df920b25aae33c6482091a26000805473ffffffffffffffffffffffffffffffffffffffff19169055565b6000546001600160a01b0316331461065657600080fd5b600080546040516001600160a01b03909116914780156108fc02929091818181858888f19350505050158015610690573d6000803e3d6000fd5b50565b6040517f9daeae1e000000000000000000000000000000000000000000000000000000008152600260048201526001600160a01b0380841660248301528216604482015260009073__TokenStorageLib_______________________90639daeae1e90606401602060405180830381865af4158015610716573d6000803e3d6000fd5b505050506040513d601f19601f8201168201806040525081019061073a9190610aae565b9392505050565b6000546001600160a01b0316331461075857600080fd5b6040517fd9c7339e000000000000000000000000000000000000000000000000000000008152600260048201526001600160a01b03831660248201526044810182905273__TokenStorageLib_______________________9063d9c7339e90606401610340565b61069081610907565b6040517fb0aacf24000000000000000000000000000000000000000000000000000000008152600260048201526001600160a01b038216602482015260009073__TokenStorageLib_______________________9063b0aacf2490604401602060405180830381865af4158015610843573d6000803e3d6000fd5b505050506040513d601f19601f820116820180604052508101906108679190610aae565b92915050565b6040517fa9059cbb0000000000000000000000000000000000000000000000000000000081526001600160a01b0383811660048301526024820183905284169063a9059cbb906044016020604051808303816000875af11580156108d5573d6000803e3d6000fd5b505050506040513d601f19601f820116820180604052508101906108f99190610ac7565b61090257600080fd5b505050565b6000546001600160a01b0316331461091e57600080fd5b6001805473ffffffffffffffffffffffffffffffffffffffff19166001600160a01b0392909216919091179055565b6001600160a01b038116811461069057600080fd5b60006020828403121561097457600080fd5b813561073a8161094d565b6000806040838503121561099257600080fd5b823561099d8161094d565b946020939093013593505050565b6000806000606084860312156109c057600080fd5b83356109cb8161094d565b925060208401356109db8161094d565b929592945050506040919091013590565b60008060008060608587031215610a0257600080fd5b8435610a0d8161094d565b935060208501359250604085013567ffffffffffffffff80821115610a3157600080fd5b818701915087601f830112610a4557600080fd5b813581811115610a5457600080fd5b886020828501011115610a6657600080fd5b95989497505060200194505050565b60008060408385031215610a8857600080fd5b8235610a938161094d565b91506020830135610aa38161094d565b809150509250929050565b600060208284031215610ac057600080fd5b5051919050565b600060208284031215610ad957600080fd5b8151801515811461073a57600080fdfea26469706673582212209e40aaf5b41be4995f33ddcd91a2944662e87dc17bc96c3d2c61b64bf8f1a1e764736f6c634300080b0033",
  "immutableReferences": {},
  "source": "/* SPDX-License-Identifier: apache-2.0 */\n/**\n * Copyright 2019 Monerium ehf.\n *\n * Licensed under the Apache License, Version 2.0 (the \"License\");\n * you may not use this file except in compliance with the License.\n * You may obtain a copy of the License at\n *\n *     http://www.apache.org/licenses/LICENSE-2.0\n *\n * Unless required by applicable law or agreed to in writing, software\n * distributed under the License is distributed on an \"AS IS\" BASIS,\n * WITHOUT WARRANTIES OR CONDITIONS OF ANY KIND, either express or implied.\n * See the License for the specific language governing permissions and\n * limitations under the License.\n */\n\npragma solidity 0.8.11;\n\nimport \"./ConstantValidator.sol\";\nimport \"./SmartController.sol\";\n\n/**\n * @title ConstantSmartController\n * @dev Constantly rejects token transfers by using a rejecting validator.\n */\ncontract ConstantSmartController is SmartController {\n\n    /**\n     * @dev Contract constructor.\n     * @param storage_ Address of the new storage.\n     * @param ticker 3 letter currency ticker.\n     */\n    constructor(address storage_, bytes3 ticker)\n      SmartController(storage_, address(new ConstantValidator(false)), ticker, address(0x0))\n    { }\n\n}\n",
  "sourcePath": "/Users/kristen/work/monerium/smart-contracts-private/contracts/ConstantSmartController.sol",
  "compiler": {
    "name": "solc",
    "version": "0.8.11+commit.d7f03943.Emscripten.clang"
  },
  "schemaVersion": "3.4.4",
  "updatedAt": "2022-04-28T11:59:14.354Z",
  "networkType": "ethereum",
  "devdoc": {
    "details": "Constantly rejects token transfers by using a rejecting validator.",
    "kind": "dev",
    "methods": {
      "addSystemAccount(address)": {
        "details": "Assigns the system role to an account."
      },
      "allowance(address,address)": {
        "details": "Returns the allowance for a spender",
        "params": {
          "owner": "The address of the owner of the tokens.",
          "spender": "The address of the spender."
        },
        "returns": {
          "_0": "Number of tokens the spender is allowed to spend."
        }
      },
      "approve_withCaller(address,address,uint256)": {
        "details": "Approves a spender [ERC20]. Note that using the approve/transferFrom presents a possible security vulnerability described in: https://docs.google.com/document/d/1YLPtQxZu1UAvO9cZ1O2RPXBbT0mooh4DYKjA_jp-RLM/edit#heading=h.quou09mcbpzw Use transferAndCall to mitigate.",
        "params": {
          "amount": "The allowance of the spender.",
          "caller": "Address of the caller passed through the frontend.",
          "spender": "The address of the future spender."
        }
      },
      "balanceOf(address)": {
        "details": "Returns the number tokens associated with an address.",
        "params": {
          "who": "Address to lookup."
        },
        "returns": {
          "_0": "Balance of address."
        }
      },
      "burnFrom(address,uint256)": {
        "details": "Burns tokens from token owner. This removes the burned tokens from circulation.",
        "params": {
          "amount": "Number of tokens to burn.",
          "from": "Address of the token owner."
        }
      },
      "burnFrom_withCaller(address,address,uint256,bytes32,uint8,bytes32,bytes32)": {
        "details": "Burns tokens from token owner. This removes the burned tokens from circulation.",
        "params": {
          "amount": "Number of tokens to burn.",
          "caller": "Address of the caller passed through the frontend.",
          "from": "Address of the token owner.",
          "h": "Hash which the token owner signed.",
          "r": "Signature component.",
          "s": "Sigature component.",
          "v": "Signature component."
        }
      },
      "claimOwnership()": {
        "details": "Allows the pendingOwner address to finalize the transfer."
      },
      "claimStorageOwnership()": {
        "details": "Claims the ownership of the storage."
      },
      "constructor": {
        "details": "Contract constructor.",
        "params": {
          "storage_": "Address of the new storage.",
          "ticker": "3 letter currency ticker."
        }
      },
      "getFrontend()": {
        "details": "Returns the current frontend.",
        "returns": {
          "_0": "Address of the frontend."
        }
      },
      "getStorage()": {
        "details": "Returns the current storage.",
        "returns": {
          "_0": "Address of the storage."
        }
      },
      "getValidator()": {
        "details": "Gets the current validator.",
        "returns": {
          "_0": "Address of validator."
        }
      },
      "isFrontend(address)": {
        "details": "Checks wether an address is a frontend.",
        "params": {
          "frontend_": "Address of the frontend candidate."
        }
      },
      "isSystemAccount(address)": {
        "details": "Checks whether an address is a system account.",
        "params": {
          "account": "the address to check."
        },
        "returns": {
          "_0": "true if system account."
        }
      },
      "mintTo_withCaller(address,address,uint256)": {
        "details": "Mints new tokens.",
        "params": {
          "amount": "Number of tokens to mint.",
          "caller": "Address of the caller passed through the frontend.",
          "to": "Address to credit the tokens."
        }
      },
      "pause()": {
        "details": "Pause the function protected by Pausable modifier."
      },
      "paused()": {
        "details": "Returns true if the contract is paused, and false otherwise."
      },
      "recover_withCaller(address,address,address,bytes32,uint8,bytes32,bytes32)": {
        "details": "Recovers tokens from an address and reissues them to another address. In case a user loses its private key the tokens can be recovered by burning the tokens from that address and reissuing to a new address. To recover tokens the contract owner needs to provide a signature proving that the token owner has authorized the owner to do so.",
        "params": {
          "caller": "Address of the caller passed through the frontend.",
          "from": "Address to burn tokens from.",
          "h": "Hash which the token owner signed.",
          "r": "Signature component.",
          "s": "Sigature component.",
          "to": "Address to mint tokens to.",
          "v": "Signature component."
        },
        "returns": {
          "_0": "Amount recovered."
        }
      },
      "removeSystemAccount(address)": {
        "details": "Removes the system role from an account."
      },
      "renounceOwnership()": {
        "details": "Allows the current owner to relinquish control of the contract."
      },
      "setBridgeFrontend(address,string)": {
        "details": "Set a new bridge frontend.",
        "params": {
          "frontend_": "Address of the new bridge frontend.",
          "title": "Keccack256 hash of the frontend title."
        }
      },
      "setFrontend(address)": {
        "details": "Sets a new frontend.",
        "params": {
          "frontend_": "Address of the new frontend."
        }
      },
      "setStorage(address)": {
        "details": "Sets a new storage.",
        "params": {
          "storage_": "Address of the new storage."
        }
      },
      "setValidator(address)": {
        "details": "Sets a new validator.",
        "params": {
          "validator": "Address of validator."
        }
      },
      "totalSupply()": {
        "details": "Returns the total supply.",
        "returns": {
          "_0": "Number of tokens."
        }
      },
      "transferAndCall_withCaller(address,address,uint256,bytes)": {
        "details": "Transfers tokens and subsequently calls a method on the recipient [ERC677]. If the recipient is a non-contract address this method behaves just like transfer. The caller, to address and amount are validated before executing method.",
        "params": {
          "amount": "Number of tokens to transfer.",
          "caller": "Address of the caller passed through the frontend.",
          "data": "Additional data passed to the recipient's tokenFallback method.",
          "to": "Recipient address."
        }
      },
      "transferFrom_withCaller(address,address,address,uint256)": {
        "details": "Transfers tokens from a specific address [ERC20]. The address owner has to approve the spender beforehand. The from address, to address and amount are validated before executing method.",
        "params": {
          "amount": "Number of tokens to transfer.",
          "caller": "Address of the caller passed through the frontend.",
          "from": "Address to debet the tokens from.",
          "to": "Recipient address."
        }
      },
      "transferOwnership(address)": {
        "details": "Allows the current owner to set the pendingOwner address.",
        "params": {
          "newOwner": "The address to transfer ownership to."
        }
      },
      "transferStorageOwnership(address)": {
        "details": "Transfers the ownership of the storage.",
        "params": {
          "newOwner": "Address of the new storage owner."
        }
      },
      "transfer_withCaller(address,address,uint256)": {
        "details": "Transfers tokens [ERC20]. The caller, to address and amount are validated before executing method. Prior to transfering tokens the validator needs to approve.",
        "params": {
          "amount": "Number of tokens to transfer.",
          "caller": "Address of the caller passed through the frontend.",
          "to": "Recipient address."
        }
      },
      "unpause()": {
        "details": "Unpause the function protected by Pausable modifier."
      }
    },
    "title": "ConstantSmartController",
    "version": 1
  },
  "userdoc": {
    "kind": "user",
    "methods": {
      "renounceOwnership()": {
        "notice": "Renouncing to ownership will leave the contract without an owner. It will not be possible to call the functions with the `onlyOwner` modifier anymore."
      },
      "transferAndCall_withCaller(address,address,uint256,bytes)": {
        "notice": "Overrides method in a parent."
      },
      "transferFrom_withCaller(address,address,address,uint256)": {
        "notice": "Overrides method in a parent. Prior to transfering tokens the validator needs to approve."
      },
      "transfer_withCaller(address,address,uint256)": {
        "notice": "Overrides method in a parent."
      }
    },
    "version": 1
  }
}