{
  "contractName": "ConstantSmartController",
  "abi": [
    {
      "constant": true,
      "inputs": [],
      "name": "getFrontend",
      "outputs": [
        {
          "name": "",
          "type": "address"
        }
      ],
      "payable": false,
      "stateMutability": "view",
      "type": "function"
    },
    {
      "constant": true,
      "inputs": [],
      "name": "name",
      "outputs": [
        {
          "name": "",
          "type": "string"
        }
      ],
      "payable": false,
      "stateMutability": "view",
      "type": "function"
    },
    {
      "constant": true,
      "inputs": [],
      "name": "getValidator",
      "outputs": [
        {
          "name": "",
          "type": "address"
        }
      ],
      "payable": false,
      "stateMutability": "view",
      "type": "function"
    },
    {
      "constant": false,
      "inputs": [
        {
          "name": "validator",
          "type": "address"
        }
      ],
      "name": "setValidator",
      "outputs": [],
      "payable": false,
      "stateMutability": "nonpayable",
      "type": "function"
    },
    {
      "constant": true,
      "inputs": [],
      "name": "totalSupply",
      "outputs": [
        {
          "name": "",
          "type": "uint256"
        }
      ],
      "payable": false,
      "stateMutability": "view",
      "type": "function"
    },
    {
      "constant": true,
      "inputs": [],
      "name": "INITIAL_SUPPLY",
      "outputs": [
        {
          "name": "",
          "type": "uint256"
        }
      ],
      "payable": false,
      "stateMutability": "view",
      "type": "function"
    },
    {
      "constant": true,
      "inputs": [],
      "name": "decimals",
      "outputs": [
        {
          "name": "",
          "type": "uint256"
        }
      ],
      "payable": false,
      "stateMutability": "view",
      "type": "function"
    },
    {
      "constant": false,
      "inputs": [
        {
          "name": "caller",
          "type": "address"
        },
        {
          "name": "to",
          "type": "address"
        },
        {
          "name": "amount",
          "type": "uint256"
        }
      ],
      "name": "mintTo_withCaller",
      "outputs": [
        {
          "name": "",
          "type": "bool"
        }
      ],
      "payable": false,
      "stateMutability": "nonpayable",
      "type": "function"
    },
    {
      "constant": true,
      "inputs": [
        {
          "name": "account",
          "type": "address"
        }
      ],
      "name": "isSystemAccount",
      "outputs": [
        {
          "name": "",
          "type": "bool"
        }
      ],
      "payable": false,
      "stateMutability": "view",
      "type": "function"
    },
    {
      "constant": true,
      "inputs": [],
      "name": "getStorage",
      "outputs": [
        {
          "name": "",
          "type": "address"
        }
      ],
      "payable": false,
      "stateMutability": "view",
      "type": "function"
    },
    {
      "constant": false,
      "inputs": [
        {
          "name": "caller",
          "type": "address"
        },
        {
          "name": "from",
          "type": "address"
        },
        {
          "name": "to",
          "type": "address"
        },
        {
          "name": "h",
          "type": "bytes32"
        },
        {
          "name": "v",
          "type": "uint8"
        },
        {
          "name": "r",
          "type": "bytes32"
        },
        {
          "name": "s",
          "type": "bytes32"
        }
      ],
      "name": "recover_withCaller",
      "outputs": [
        {
          "name": "",
          "type": "uint256"
        }
      ],
      "payable": false,
      "stateMutability": "nonpayable",
      "type": "function"
    },
    {
      "constant": false,
      "inputs": [],
      "name": "unpause",
      "outputs": [],
      "payable": false,
      "stateMutability": "nonpayable",
      "type": "function"
    },
    {
      "constant": false,
      "inputs": [],
      "name": "claimOwnership",
      "outputs": [],
      "payable": false,
      "stateMutability": "nonpayable",
      "type": "function"
    },
    {
      "constant": false,
      "inputs": [
        {
          "name": "caller",
          "type": "address"
        },
        {
          "name": "from",
          "type": "address"
        },
        {
          "name": "amount",
          "type": "uint256"
        },
        {
          "name": "h",
          "type": "bytes32"
        },
        {
          "name": "v",
          "type": "uint8"
        },
        {
          "name": "r",
          "type": "bytes32"
        },
        {
          "name": "s",
          "type": "bytes32"
        }
      ],
      "name": "burnFrom_withCaller",
      "outputs": [
        {
          "name": "",
          "type": "bool"
        }
      ],
      "payable": false,
      "stateMutability": "nonpayable",
      "type": "function"
    },
    {
      "constant": true,
      "inputs": [],
      "name": "paused",
      "outputs": [
        {
          "name": "",
          "type": "bool"
        }
      ],
      "payable": false,
      "stateMutability": "view",
      "type": "function"
    },
    {
      "constant": false,
      "inputs": [
        {
          "name": "frontend_",
          "type": "address"
        }
      ],
      "name": "setFrontend",
      "outputs": [],
      "payable": false,
      "stateMutability": "nonpayable",
      "type": "function"
    },
    {
      "constant": true,
      "inputs": [
        {
          "name": "who",
          "type": "address"
        }
      ],
      "name": "balanceOf",
      "outputs": [
        {
          "name": "",
          "type": "uint256"
        }
      ],
      "payable": false,
      "stateMutability": "view",
      "type": "function"
    },
    {
      "constant": false,
      "inputs": [],
      "name": "renounceOwnership",
      "outputs": [],
      "payable": false,
      "stateMutability": "nonpayable",
      "type": "function"
    },
    {
      "constant": false,
      "inputs": [
        {
          "name": "caller",
          "type": "address"
        },
        {
          "name": "spender",
          "type": "address"
        },
        {
          "name": "amount",
          "type": "uint256"
        }
      ],
      "name": "approve_withCaller",
      "outputs": [
        {
          "name": "ok",
          "type": "bool"
        }
      ],
      "payable": false,
      "stateMutability": "nonpayable",
      "type": "function"
    },
    {
      "constant": false,
      "inputs": [],
      "name": "destroy",
      "outputs": [],
      "payable": false,
      "stateMutability": "nonpayable",
      "type": "function"
    },
    {
      "constant": false,
      "inputs": [],
      "name": "pause",
      "outputs": [],
      "payable": false,
      "stateMutability": "nonpayable",
      "type": "function"
    },
    {
      "constant": true,
      "inputs": [],
      "name": "ticker",
      "outputs": [
        {
          "name": "",
          "type": "bytes3"
        }
      ],
      "payable": false,
      "stateMutability": "view",
      "type": "function"
    },
    {
      "constant": true,
      "inputs": [],
      "name": "owner",
      "outputs": [
        {
          "name": "",
          "type": "address"
        }
      ],
      "payable": false,
      "stateMutability": "view",
      "type": "function"
    },
    {
      "constant": false,
      "inputs": [
        {
          "name": "storage_",
          "type": "address"
        }
      ],
      "name": "setStorage",
      "outputs": [],
      "payable": false,
      "stateMutability": "nonpayable",
      "type": "function"
    },
    {
      "constant": true,
      "inputs": [],
      "name": "symbol",
      "outputs": [
        {
          "name": "",
          "type": "string"
        }
      ],
      "payable": false,
      "stateMutability": "view",
      "type": "function"
    },
    {
      "constant": false,
      "inputs": [
        {
          "name": "caller",
          "type": "address"
        },
        {
          "name": "to",
          "type": "address"
        },
        {
          "name": "amount",
          "type": "uint256"
        },
        {
          "name": "data",
          "type": "bytes"
        }
      ],
      "name": "transferAndCall_withCaller",
      "outputs": [
        {
          "name": "",
          "type": "bool"
        }
      ],
      "payable": false,
      "stateMutability": "nonpayable",
      "type": "function"
    },
    {
      "constant": false,
      "inputs": [
        {
          "name": "account",
          "type": "address"
        }
      ],
      "name": "addSystemAccount",
      "outputs": [],
      "payable": false,
      "stateMutability": "nonpayable",
      "type": "function"
    },
    {
      "constant": false,
      "inputs": [],
      "name": "claimStorageOwnership",
      "outputs": [],
      "payable": false,
      "stateMutability": "nonpayable",
      "type": "function"
    },
    {
      "constant": true,
      "inputs": [
        {
          "name": "owner",
          "type": "address"
        },
        {
          "name": "spender",
          "type": "address"
        }
      ],
      "name": "allowance",
      "outputs": [
        {
          "name": "",
          "type": "uint256"
        }
      ],
      "payable": false,
      "stateMutability": "view",
      "type": "function"
    },
    {
      "constant": false,
      "inputs": [
        {
          "name": "caller",
          "type": "address"
        },
        {
          "name": "to",
          "type": "address"
        },
        {
          "name": "amount",
          "type": "uint256"
        }
      ],
      "name": "transfer_withCaller",
      "outputs": [
        {
          "name": "",
          "type": "bool"
        }
      ],
      "payable": false,
      "stateMutability": "nonpayable",
      "type": "function"
    },
    {
      "constant": true,
      "inputs": [],
      "name": "pendingOwner",
      "outputs": [
        {
          "name": "",
          "type": "address"
        }
      ],
      "payable": false,
      "stateMutability": "view",
      "type": "function"
    },
    {
      "constant": false,
      "inputs": [
        {
          "name": "caller",
          "type": "address"
        },
        {
          "name": "from",
          "type": "address"
        },
        {
          "name": "to",
          "type": "address"
        },
        {
          "name": "amount",
          "type": "uint256"
        }
      ],
      "name": "transferFrom_withCaller",
      "outputs": [
        {
          "name": "",
          "type": "bool"
        }
      ],
      "payable": false,
      "stateMutability": "nonpayable",
      "type": "function"
    },
    {
      "constant": false,
      "inputs": [
        {
          "name": "account",
          "type": "address"
        }
      ],
      "name": "removeSystemAccount",
      "outputs": [],
      "payable": false,
      "stateMutability": "nonpayable",
      "type": "function"
    },
    {
      "constant": false,
      "inputs": [
        {
          "name": "newOwner",
          "type": "address"
        }
      ],
      "name": "transferStorageOwnership",
      "outputs": [],
      "payable": false,
      "stateMutability": "nonpayable",
      "type": "function"
    },
    {
      "constant": false,
      "inputs": [
        {
          "name": "newOwner",
          "type": "address"
        }
      ],
      "name": "transferOwnership",
      "outputs": [],
      "payable": false,
      "stateMutability": "nonpayable",
      "type": "function"
    },
    {
      "constant": false,
      "inputs": [
        {
          "name": "_recipient",
          "type": "address"
        }
      ],
      "name": "destroyAndSend",
      "outputs": [],
      "payable": false,
      "stateMutability": "nonpayable",
      "type": "function"
    },
    {
      "inputs": [
        {
          "name": "storage_",
          "type": "address"
        },
        {
          "name": "ticker",
          "type": "bytes3"
        }
      ],
      "payable": false,
      "stateMutability": "nonpayable",
      "type": "constructor"
    },
    {
      "anonymous": false,
      "inputs": [
        {
          "indexed": true,
          "name": "old",
          "type": "address"
        },
        {
          "indexed": true,
          "name": "current",
          "type": "address"
        }
      ],
      "name": "Frontend",
      "type": "event"
    },
    {
      "anonymous": false,
      "inputs": [
        {
          "indexed": true,
          "name": "old",
          "type": "address"
        },
        {
          "indexed": true,
          "name": "current",
          "type": "address"
        }
      ],
      "name": "Storage",
      "type": "event"
    },
    {
      "anonymous": false,
      "inputs": [],
      "name": "Pause",
      "type": "event"
    },
    {
      "anonymous": false,
      "inputs": [],
      "name": "Unpause",
      "type": "event"
    },
    {
      "anonymous": false,
      "inputs": [
        {
          "indexed": true,
          "name": "previousOwner",
          "type": "address"
        }
      ],
      "name": "OwnershipRenounced",
      "type": "event"
    },
    {
      "anonymous": false,
      "inputs": [
        {
          "indexed": true,
          "name": "previousOwner",
          "type": "address"
        },
        {
          "indexed": true,
          "name": "newOwner",
          "type": "address"
        }
      ],
      "name": "OwnershipTransferred",
      "type": "event"
    },
    {
      "anonymous": false,
      "inputs": [
        {
          "indexed": true,
          "name": "account",
          "type": "address"
        }
      ],
      "name": "SystemAccountAdded",
      "type": "event"
    },
    {
      "anonymous": false,
      "inputs": [
        {
          "indexed": true,
          "name": "account",
          "type": "address"
        }
      ],
      "name": "SystemAccountRemoved",
      "type": "event"
    }
  ],
  "bytecode": "0x60806040526001805460a060020a60ff021916905560126007553480156200002657600080fd5b5060405160408062003c618339810160405280516020909101518160006200004d620003b7565b901515815260405190819003602001906000f08015801562000073573d6000803e3d6000fd5b5060018054600160a060020a03191633179055826000838180828180600160a060020a0383161580620000a4575081155b15156200013857604080517f08c379a000000000000000000000000000000000000000000000000000000000815260206004820152603f60248201527f656974686572206120746f6b656e2073746f72616765206d757374206265206960448201527f6e697469616c697a6564206f72206e6f20696e697469616c20737570706c7900606482015290519081900360840190fd5b600160a060020a0383161515620002105762000153620003c8565b604051809103906000f08015801562000170573d6000803e3d6000fd5b5060038054600160a060020a031916600160a060020a039283161790819055604080517f21e5383a00000000000000000000000000000000000000000000000000000000815233600482015260248101869052905191909216916321e5383a91604480830192600092919082900301818387803b158015620001f157600080fd5b505af115801562000206573d6000803e3d6000fd5b505050506200022c565b60038054600160a060020a031916600160a060020a0385161790555b60048054600160a060020a031916600160a060020a03928316179055881615159450620002e4935050505057604080517f08c379a0000000000000000000000000000000000000000000000000000000008152602060048201526024808201527f76616c696461746f722063616e6e6f7420626520746865206e756c6c2061646460448201527f7265737300000000000000000000000000000000000000000000000000000000606482015290519081900360840190fd5b604080517fad41534900000000000000000000000000000000000000000000000000000000815260086004820152600160a060020a0385166024820152905173__SmartTokenLib_________________________9163ad415349916044808301926000929190829003018186803b1580156200035f57600080fd5b505af415801562000374573d6000803e3d6000fd5b50506009805462ffffff19167d0100000000000000000000000000000000000000000000000000000000009095049490941790935550620003d995505050505050565b6040516107ef806200295683390190565b604051610b1c806200314583390190565b61256d80620003e96000396000f3006080604052600436106101c05763ffffffff7c01000000000000000000000000000000000000000000000000000000006000350416623074ff81146101c557806306fdde03146101f65780631195e07e146102805780631327d3d81461029557806318160ddd146102b85780632ff2e9dc146102df578063313ce567146102f4578063322ec0fb14610309578063326ecb05146103475780633408f73a146103685780633cd1570f1461037d5780633f4ba83a146103b95780634e71e0c8146103ce5780634eb00754146103e35780635c975abb1461041c57806369569a511461043157806370a0823114610452578063715018a614610473578063774d54091461048857806383197ef0146104b25780638456cb59146104c75780638ba47bdd146104dc5780638da5cb5b146105265780639137c1a71461053b57806395d89b411461055c5780639e7f43ca14610571578063a84c56d0146105e0578063b516af7014610601578063dd62ed3e14610616578063e174fd941461063d578063e30c397814610667578063e974fee91461067c578063ebbc3d46146106ac578063ee0b5445146106cd578063f2fde38b146106ee578063f5074f411461070f575b600080fd5b3480156101d157600080fd5b506101da610730565b60408051600160a060020a039092168252519081900360200190f35b34801561020257600080fd5b5061020b61073f565b6040805160208082528351818301528351919283929083019185019080838360005b8381101561024557818101518382015260200161022d565b50505050905090810190601f1680156102725780820380516001836020036101000a031916815260200191505b509250505060405180910390f35b34801561028c57600080fd5b506101da6107cd565b3480156102a157600080fd5b506102b6600160a060020a036004351661086e565b005b3480156102c457600080fd5b506102cd610917565b60408051918252519081900360200190f35b3480156102eb57600080fd5b506102cd61098a565b34801561030057600080fd5b506102cd61098f565b34801561031557600080fd5b50610333600160a060020a0360043581169060243516604435610995565b604080519115158252519081900360200190f35b34801561035357600080fd5b50610333600160a060020a0360043516610b63565b34801561037457600080fd5b506101da610b7b565b34801561038957600080fd5b506102cd600160a060020a036004358116906024358116906044351660643560ff6084351660a43560c435610b8a565b3480156103c557600080fd5b506102b6610d7b565b3480156103da57600080fd5b506102b6610e04565b3480156103ef57600080fd5b50610333600160a060020a036004358116906024351660443560643560ff6084351660a43560c435610e8e565b34801561042857600080fd5b5061033361103b565b34801561043d57600080fd5b506102b6600160a060020a036004351661105c565b34801561045e57600080fd5b506102cd600160a060020a03600435166110dc565b34801561047f57600080fd5b506102b6611179565b34801561049457600080fd5b50610333600160a060020a03600435811690602435166044356111e7565b3480156104be57600080fd5b506102b6611376565b3480156104d357600080fd5b506102b661139b565b3480156104e857600080fd5b506104f161143a565b604080517fffffff00000000000000000000000000000000000000000000000000000000009092168252519081900360200190f35b34801561053257600080fd5b506101da611460565b34801561054757600080fd5b506102b6600160a060020a036004351661146f565b34801561056857600080fd5b5061020b6114ef565b34801561057d57600080fd5b50604080516020601f60643560048181013592830184900484028501840190955281845261033394600160a060020a03813581169560248035909216956044359536956084940191819084018382808284375094975061154a9650505050505050565b3480156105ec57600080fd5b506102b6600160a060020a0360043516611763565b34801561060d57600080fd5b506102b6611786565b34801561062257600080fd5b506102cd600160a060020a0360043581169060243516611823565b34801561064957600080fd5b50610333600160a060020a03600435811690602435166044356118e0565b34801561067357600080fd5b506101da611ad1565b34801561068857600080fd5b50610333600160a060020a0360043581169060243581169060443516606435611ae0565b3480156106b857600080fd5b506102b6600160a060020a0360043516611cc9565b3480156106d957600080fd5b506102b6600160a060020a0360043516611ce9565b3480156106fa57600080fd5b506102b6600160a060020a0360043516611d7b565b34801561071b57600080fd5b506102b6600160a060020a0360043516611dc1565b600454600160a060020a031690565b6005805460408051602060026001851615610100026000190190941693909304601f810184900484028201840190925281815292918301828280156107c55780601f1061079a576101008083540402835291602001916107c5565b820191906000526020600020905b8154815290600101906020018083116107a857829003601f168201915b505050505081565b6000600873__SmartTokenLib_________________________636271970c90916040518263ffffffff167c01000000000000000000000000000000000000000000000000000000000281526004018082815260200191505060206040518083038186803b15801561083d57600080fd5b505af4158015610851573d6000803e3d6000fd5b505050506040513d602081101561086757600080fd5b5051905090565b61087733610b63565b151561088257600080fd5b604080517fad41534900000000000000000000000000000000000000000000000000000000815260086004820152600160a060020a0383166024820152905173__SmartTokenLib_________________________9163ad415349916044808301926000929190829003018186803b1580156108fc57600080fd5b505af4158015610910573d6000803e3d6000fd5b5050505050565b600354604080517f6c9c2faf0000000000000000000000000000000000000000000000000000000081529051600092600160a060020a031691636c9c2faf91600480830192602092919082900301818787803b15801561097657600080fd5b505af1158015610851573d6000803e3d6000fd5b600081565b60075481565b60008333600160a060020a03821614806109b95750600454600160a060020a031633145b1515610a3a5760408051600080516020612522833981519152815260206004820152603460248201527f6569746865722063616c6c6572206d7573742062652073656e646572206f722060448201527f63616c6c696e67207669612066726f6e74656e64000000000000000000000000606482015290519081900360840190fd5b84610a4481610b63565b1515610a9f5760408051600080516020612522833981519152815260206004820152601860248201527f6d75737420626520612073797374656d206163636f756e740000000000000000604482015290519081900360640190fd5b610aa885611de4565b600354604080517fb0c29c74000000000000000000000000000000000000000000000000000000008152600160a060020a0392831660048201529187166024830152604482018690525173__MintableTokenLib______________________9163b0c29c74916064808301926020929190829003018186803b158015610b2d57600080fd5b505af4158015610b41573d6000803e3d6000fd5b505050506040513d6020811015610b5757600080fd5b50519695505050505050565b6000610b75818363ffffffff611f8516565b92915050565b600354600160a060020a031690565b60008733600160a060020a0382161480610bae5750600454600160a060020a031633145b1515610c2f5760408051600080516020612522833981519152815260206004820152603460248201527f6569746865722063616c6c6572206d7573742062652073656e646572206f722060448201527f63616c6c696e67207669612066726f6e74656e64000000000000000000000000606482015290519081900360840190fd5b88610c3981610b63565b1515610c945760408051600080516020612522833981519152815260206004820152601860248201527f6d75737420626520612073797374656d206163636f756e740000000000000000604482015290519081900360640190fd5b610c9d88611de4565b600354604080517f8f722734000000000000000000000000000000000000000000000000000000008152600160a060020a0392831660048201528b83166024820152918a1660448301526064820189905260ff8816608483015260a4820187905260c482018690525173__SmartTokenLib_________________________91638f7227349160e4808301926020929190829003018186803b158015610d4157600080fd5b505af4158015610d55573d6000803e3d6000fd5b505050506040513d6020811015610d6b57600080fd5b50519a9950505050505050505050565b600154600160a060020a03163314610d9257600080fd5b60015474010000000000000000000000000000000000000000900460ff161515610dbb57600080fd5b6001805474ff0000000000000000000000000000000000000000191690556040517f7805862f689e2f13df9f062ff482ad3ad112aca9e0847911ed832e158c525b3390600090a1565b600254600160a060020a03163314610e1b57600080fd5b600254600154604051600160a060020a0392831692909116907f8be0079c531659141344cd1fd0a4f28419497f9722a3daafe3b4186f6b6457e090600090a3600280546001805473ffffffffffffffffffffffffffffffffffffffff19908116600160a060020a03841617909155169055565b60008733600160a060020a0382161480610eb25750600454600160a060020a031633145b1515610f335760408051600080516020612522833981519152815260206004820152603460248201527f6569746865722063616c6c6572206d7573742062652073656e646572206f722060448201527f63616c6c696e67207669612066726f6e74656e64000000000000000000000000606482015290519081900360840190fd5b88610f3d81610b63565b1515610f985760408051600080516020612522833981519152815260206004820152601860248201527f6d75737420626520612073797374656d206163636f756e740000000000000000604482015290519081900360640190fd5b600354604080517f799639d4000000000000000000000000000000000000000000000000000000008152600160a060020a039283166004820152918b166024830152604482018a90526064820189905260ff8816608483015260a4820187905260c482018690525173__MintableTokenLib______________________9163799639d49160e4808301926020929190829003018186803b158015610d4157600080fd5b60015474010000000000000000000000000000000000000000900460ff1681565b600154600160a060020a0316331461107357600080fd5b600454604051600160a060020a038084169216907fcb01f884fc4203d4c1643cb0e126faeb397682c122ca8c0433776d42cdc0060a90600090a36004805473ffffffffffffffffffffffffffffffffffffffff1916600160a060020a0392909216919091179055565b600354604080517ff8b2cb4f000000000000000000000000000000000000000000000000000000008152600160a060020a0384811660048301529151600093929092169163f8b2cb4f9160248082019260209290919082900301818787803b15801561114757600080fd5b505af115801561115b573d6000803e3d6000fd5b505050506040513d602081101561117157600080fd5b505192915050565b600154600160a060020a0316331461119057600080fd5b600154604051600160a060020a03909116907ff8df31144d9c2f0f6b59d69b8b98abd5459d07f2742c4df920b25aae33c6482090600090a26001805473ffffffffffffffffffffffffffffffffffffffff19169055565b60008333600160a060020a038216148061120b5750600454600160a060020a031633145b151561128c5760408051600080516020612522833981519152815260206004820152603460248201527f6569746865722063616c6c6572206d7573742062652073656e646572206f722060448201527f63616c6c696e67207669612066726f6e74656e64000000000000000000000000606482015290519081900360840190fd5b60015474010000000000000000000000000000000000000000900460ff16156112b457600080fd5b600354604080517f365feff1000000000000000000000000000000000000000000000000000000008152600160a060020a03928316600482015287831660248201529186166044830152606482018590525173__ERC20Lib______________________________9163365feff1916084808301926020929190829003018186803b15801561134157600080fd5b505af4158015611355573d6000803e3d6000fd5b505050506040513d602081101561136b57600080fd5b505195945050505050565b600154600160a060020a0316331461138d57600080fd5b600154600160a060020a0316ff5b600154600160a060020a031633146113b257600080fd5b60015474010000000000000000000000000000000000000000900460ff16156113da57600080fd5b6001805474ff00000000000000000000000000000000000000001916740100000000000000000000000000000000000000001790556040517f6985a02210a168e66602d3235cb6db0e70f92b3ba4d376a33c0f3d9434bff62590600090a1565b6009547d0100000000000000000000000000000000000000000000000000000000000281565b600154600160a060020a031681565b600154600160a060020a0316331461148657600080fd5b600354604051600160a060020a038084169216907fdaaa9d417a3107fd3d9db02eba3eeafbae2b8af16ee08c534f5bc449054c1c4c90600090a36003805473ffffffffffffffffffffffffffffffffffffffff1916600160a060020a0392909216919091179055565b6006805460408051602060026001851615610100026000190190941693909304601f810184900484028201840190925281815292918301828280156107c55780601f1061079a576101008083540402835291602001916107c5565b60008433600160a060020a038216148061156e5750600454600160a060020a031633145b15156115ef5760408051600080516020612522833981519152815260206004820152603460248201527f6569746865722063616c6c6572206d7573742062652073656e646572206f722060448201527f63616c6c696e67207669612066726f6e74656e64000000000000000000000000606482015290519081900360840190fd5b60015474010000000000000000000000000000000000000000900460ff161561161757600080fd5b604080517f32c5a6eb00000000000000000000000000000000000000000000000000000000815260086004820152600160a060020a0380891660248301528716604482015260648101869052905173__SmartTokenLib_________________________916332c5a6eb916084808301926020929190829003018186803b1580156116a057600080fd5b505af41580156116b4573d6000803e3d6000fd5b505050506040513d60208110156116ca57600080fd5b5051151561174d5760408051600080516020612522833981519152815260206004820152602160248201527f7472616e73666572416e6443616c6c2072657175657374206e6f742076616c6960448201527f6400000000000000000000000000000000000000000000000000000000000000606482015290519081900360840190fd5b61175986868686611fa4565b9695505050505050565b600154600160a060020a0316331461177a57600080fd5b6117838161217c565b50565b600154600160a060020a0316331461179d57600080fd5b600360009054906101000a9004600160a060020a0316600160a060020a0316634e71e0c86040518163ffffffff167c0100000000000000000000000000000000000000000000000000000000028152600401600060405180830381600087803b15801561180957600080fd5b505af115801561181d573d6000803e3d6000fd5b50505050565b600354604080517f1045d7ce000000000000000000000000000000000000000000000000000000008152600160a060020a039283166004820152848316602482015291831660448301525160009173__ERC20Lib______________________________91631045d7ce91606480820192602092909190829003018186803b1580156118ad57600080fd5b505af41580156118c1573d6000803e3d6000fd5b505050506040513d60208110156118d757600080fd5b50519392505050565b60008333600160a060020a03821614806119045750600454600160a060020a031633145b15156119855760408051600080516020612522833981519152815260206004820152603460248201527f6569746865722063616c6c6572206d7573742062652073656e646572206f722060448201527f63616c6c696e67207669612066726f6e74656e64000000000000000000000000606482015290519081900360840190fd5b60015474010000000000000000000000000000000000000000900460ff16156119ad57600080fd5b604080517f32c5a6eb00000000000000000000000000000000000000000000000000000000815260086004820152600160a060020a0380881660248301528616604482015260648101859052905173__SmartTokenLib_________________________916332c5a6eb916084808301926020929190829003018186803b158015611a3657600080fd5b505af4158015611a4a573d6000803e3d6000fd5b505050506040513d6020811015611a6057600080fd5b50511515611abd5760408051600080516020612522833981519152815260206004820152601a60248201527f7472616e736665722072657175657374206e6f742076616c6964000000000000604482015290519081900360640190fd5b611ac88585856121c4565b95945050505050565b600254600160a060020a031681565b60008433600160a060020a0382161480611b045750600454600160a060020a031633145b1515611b855760408051600080516020612522833981519152815260206004820152603460248201527f6569746865722063616c6c6572206d7573742062652073656e646572206f722060448201527f63616c6c696e67207669612066726f6e74656e64000000000000000000000000606482015290519081900360840190fd5b60015474010000000000000000000000000000000000000000900460ff1615611bad57600080fd5b604080517f32c5a6eb00000000000000000000000000000000000000000000000000000000815260086004820152600160a060020a0380881660248301528616604482015260648101859052905173__SmartTokenLib_________________________916332c5a6eb916084808301926020929190829003018186803b158015611c3657600080fd5b505af4158015611c4a573d6000803e3d6000fd5b505050506040513d6020811015611c6057600080fd5b50511515611cbd5760408051600080516020612522833981519152815260206004820152601e60248201527f7472616e7366657246726f6d2072657175657374206e6f742076616c69640000604482015290519081900360640190fd5b61175986868686612327565b600154600160a060020a03163314611ce057600080fd5b61178381612492565b600154600160a060020a03163314611d0057600080fd5b600354604080517ff2fde38b000000000000000000000000000000000000000000000000000000008152600160a060020a0384811660048301529151919092169163f2fde38b91602480830192600092919082900301818387803b158015611d6757600080fd5b505af1158015610910573d6000803e3d6000fd5b600154600160a060020a03163314611d9257600080fd5b6002805473ffffffffffffffffffffffffffffffffffffffff1916600160a060020a0392909216919091179055565b600154600160a060020a03163314611dd857600080fd5b80600160a060020a0316ff5b600160a060020a0381161515611e495760408051600080516020612522833981519152815260206004820152601460248201527f6d757374206e6f742073656e6420746f20307830000000000000000000000000604482015290519081900360640190fd5b600160a060020a038116301415611eaf5760408051600080516020612522833981519152815260206004820152601b60248201527f6d757374206e6f742073656e6420746f20636f6e74726f6c6c65720000000000604482015290519081900360640190fd5b600354600160a060020a0382811691161415611f1a5760408051600080516020612522833981519152815260206004820152601e60248201527f6d757374206e6f742073656e6420746f20746f6b656e2073746f726167650000604482015290519081900360640190fd5b600454600160a060020a03828116911614156117835760408051600080516020612522833981519152815260206004820152601960248201527f6d757374206e6f742073656e6420746f2066726f6e74656e6400000000000000604482015290519081900360640190fd5b600160a060020a03166000908152602091909152604090205460ff1690565b60008433600160a060020a0382161480611fc85750600454600160a060020a031633145b15156120495760408051600080516020612522833981519152815260206004820152603460248201527f6569746865722063616c6c6572206d7573742062652073656e646572206f722060448201527f63616c6c696e67207669612066726f6e74656e64000000000000000000000000606482015290519081900360840190fd5b60015474010000000000000000000000000000000000000000900460ff161561207157600080fd5b61207a85611de4565b6003546040517f1eb8bccb000000000000000000000000000000000000000000000000000000008152600160a060020a0391821660048201818152898416602484015292881660448301526064820187905260a060848301908152865160a4840152865173__ERC677Lib_____________________________94631eb8bccb948c938c938c938c9390929160c490910190602085019080838360005b8381101561212e578181015183820152602001612116565b50505050905090810190601f16801561215b5780820380516001836020036101000a031916815260200191505b50965050505050505060206040518083038186803b158015610b2d57600080fd5b61218d60008263ffffffff6124da16565b604051600160a060020a038216907fdfb5b1167ef9eadf5cac67570f1a2971a6f6175303b9d4166a65a11d0a294e3490600090a250565b60008333600160a060020a03821614806121e85750600454600160a060020a031633145b15156122695760408051600080516020612522833981519152815260206004820152603460248201527f6569746865722063616c6c6572206d7573742062652073656e646572206f722060448201527f63616c6c696e67207669612066726f6e74656e64000000000000000000000000606482015290519081900360840190fd5b60015474010000000000000000000000000000000000000000900460ff161561229157600080fd5b61229a84611de4565b600354604080517f44ded8ba000000000000000000000000000000000000000000000000000000008152600160a060020a03928316600482015287831660248201529186166044830152606482018590525173__ERC20Lib______________________________916344ded8ba916084808301926020929190829003018186803b15801561134157600080fd5b60008433600160a060020a038216148061234b5750600454600160a060020a031633145b15156123cc5760408051600080516020612522833981519152815260206004820152603460248201527f6569746865722063616c6c6572206d7573742062652073656e646572206f722060448201527f63616c6c696e67207669612066726f6e74656e64000000000000000000000000606482015290519081900360840190fd5b60015474010000000000000000000000000000000000000000900460ff16156123f457600080fd5b6123fd84611de4565b600354604080517ff3a0ddf9000000000000000000000000000000000000000000000000000000008152600160a060020a039283166004820152888316602482015287831660448201529186166064830152608482018590525173__ERC20Lib______________________________9163f3a0ddf99160a4808301926020929190829003018186803b158015610b2d57600080fd5b6124a360008263ffffffff6124ff16565b604051600160a060020a038216907f21bfb3de07221bc6197a8c23f7a059308b7a741f259cf4ef3b519cde0fde7ac390600090a250565b600160a060020a0316600090815260209190915260409020805460ff19166001179055565b600160a060020a0316600090815260209190915260409020805460ff19169055560008c379a000000000000000000000000000000000000000000000000000000000a165627a7a723058208cc8bc84e57cf87be91dcffb9fabeb54db855d68b61e968967f69d5e5ca48e110029608060405234801561001057600080fd5b506040516020806107ef833981016040525160008054600160a060020a03191633179055341561003f57600080fd5b60018054911515740100000000000000000000000000000000000000000260a060020a60ff02199092169190911790556107718061007e6000396000f3006080604052600436106100a35763ffffffff7c010000000000000000000000000000000000000000000000000000000060003504166317ffc32081146100b25780632aed7f3f146100e25780634e71e0c814610110578063715018a6146101255780638da5cb5b1461013a5780639f727c2714610178578063aa3ad4e41461018d578063c0ee0b8a146101d8578063e30c397814610216578063f2fde38b1461022b575b3480156100af57600080fd5b50005b3480156100be57600080fd5b506100e073ffffffffffffffffffffffffffffffffffffffff60043516610259565b005b3480156100ee57600080fd5b506100e073ffffffffffffffffffffffffffffffffffffffff6004351661034c565b34801561011c57600080fd5b506100e0610400565b34801561013157600080fd5b506100e06104af565b34801561014657600080fd5b5061014f610535565b6040805173ffffffffffffffffffffffffffffffffffffffff9092168252519081900360200190f35b34801561018457600080fd5b506100e0610551565b34801561019957600080fd5b506101c473ffffffffffffffffffffffffffffffffffffffff600435811690602435166044356105c0565b604080519115158252519081900360200190f35b3480156101e457600080fd5b506100e06004803573ffffffffffffffffffffffffffffffffffffffff169060248035916044359182019101356105e5565b34801561022257600080fd5b5061014f6105ea565b34801561023757600080fd5b506100e073ffffffffffffffffffffffffffffffffffffffff60043516610606565b6000805473ffffffffffffffffffffffffffffffffffffffff16331461027e57600080fd5b604080517f70a08231000000000000000000000000000000000000000000000000000000008152306004820152905173ffffffffffffffffffffffffffffffffffffffff8416916370a082319160248083019260209291908290030181600087803b1580156102ec57600080fd5b505af1158015610300573d6000803e3d6000fd5b505050506040513d602081101561031657600080fd5b50516000549091506103489073ffffffffffffffffffffffffffffffffffffffff84811691168363ffffffff61066616565b5050565b6000805473ffffffffffffffffffffffffffffffffffffffff16331461037157600080fd5b5060008054604080517ff2fde38b00000000000000000000000000000000000000000000000000000000815273ffffffffffffffffffffffffffffffffffffffff9283166004820152905184939284169263f2fde38b926024808201939182900301818387803b1580156103e457600080fd5b505af11580156103f8573d6000803e3d6000fd5b505050505050565b60015473ffffffffffffffffffffffffffffffffffffffff16331461042457600080fd5b6001546000805460405173ffffffffffffffffffffffffffffffffffffffff93841693909116917f8be0079c531659141344cd1fd0a4f28419497f9722a3daafe3b4186f6b6457e091a3600180546000805473ffffffffffffffffffffffffffffffffffffffff1990811673ffffffffffffffffffffffffffffffffffffffff841617909155169055565b60005473ffffffffffffffffffffffffffffffffffffffff1633146104d357600080fd5b6000805460405173ffffffffffffffffffffffffffffffffffffffff909116917ff8df31144d9c2f0f6b59d69b8b98abd5459d07f2742c4df920b25aae33c6482091a26000805473ffffffffffffffffffffffffffffffffffffffff19169055565b60005473ffffffffffffffffffffffffffffffffffffffff1681565b60005473ffffffffffffffffffffffffffffffffffffffff16331461057557600080fd5b6000805460405173ffffffffffffffffffffffffffffffffffffffff90911691303180156108fc02929091818181858888f193505050501580156105bd573d6000803e3d6000fd5b50565b505060015474010000000000000000000000000000000000000000900460ff16919050565b600080fd5b60015473ffffffffffffffffffffffffffffffffffffffff1681565b60005473ffffffffffffffffffffffffffffffffffffffff16331461062a57600080fd5b6001805473ffffffffffffffffffffffffffffffffffffffff191673ffffffffffffffffffffffffffffffffffffffff92909216919091179055565b8273ffffffffffffffffffffffffffffffffffffffff1663a9059cbb83836040518363ffffffff167c0100000000000000000000000000000000000000000000000000000000028152600401808373ffffffffffffffffffffffffffffffffffffffff1673ffffffffffffffffffffffffffffffffffffffff16815260200182815260200192505050602060405180830381600087803b15801561070957600080fd5b505af115801561071d573d6000803e3d6000fd5b505050506040513d602081101561073357600080fd5b5051151561074057600080fd5b5050505600a165627a7a7230582076e331c2f829fbd7f22c0d936139d55de076859ed1f9cdbd04d46873e66dfe1d0029608060405260008054600160a060020a03191633179055341561002157600080fd5b610aec806100306000396000f3006080604052600436106100da5763ffffffff7c010000000000000000000000000000000000000000000000000000000060003504166317ffc32081146100e957806321e5383a1461010c5780632aed7f3f1461013057806333dd1b8a146101515780634e71e0c81461017b5780636c9c2faf14610190578063715018a6146101b75780638da5cb5b146101cc5780639f727c27146101fd578063c0ee0b8a14610212578063c7c7e9ea14610243578063cf8eeb7e1461026a578063e30c39781461028e578063f2fde38b146102a3578063f8b2cb4f146102c4575b3480156100e657600080fd5b50005b3480156100f557600080fd5b5061010a600160a060020a03600435166102e5565b005b34801561011857600080fd5b5061010a600160a060020a03600435166024356103b1565b34801561013c57600080fd5b5061010a600160a060020a0360043516610465565b34801561015d57600080fd5b5061010a600160a060020a03600435811690602435166044356104f7565b34801561018757600080fd5b5061010a6105b4565b34801561019c57600080fd5b506101a561063c565b60408051918252519081900360200190f35b3480156101c357600080fd5b5061010a6106dd565b3480156101d857600080fd5b506101e1610749565b60408051600160a060020a039092168252519081900360200190f35b34801561020957600080fd5b5061010a610758565b34801561021e57600080fd5b5061010a60048035600160a060020a03169060248035916044359182019101356107ad565b34801561024f57600080fd5b506101a5600160a060020a03600435811690602435166107b2565b34801561027657600080fd5b5061010a600160a060020a036004351660243561086b565b34801561029a57600080fd5b506101e1610903565b3480156102af57600080fd5b5061010a600160a060020a0360043516610912565b3480156102d057600080fd5b506101a5600160a060020a0360043516610958565b60008054600160a060020a031633146102fd57600080fd5b604080517f70a082310000000000000000000000000000000000000000000000000000000081523060048201529051600160a060020a038416916370a082319160248083019260209291908290030181600087803b15801561035e57600080fd5b505af1158015610372573d6000803e3d6000fd5b505050506040513d602081101561038857600080fd5b50516000549091506103ad90600160a060020a0384811691168363ffffffff610a0816565b5050565b600054600160a060020a031633146103c857600080fd5b604080517f7aeb0ed500000000000000000000000000000000000000000000000000000000815260026004820152600160a060020a038416602482015260448101839052905173__TokenStorageLib_______________________91637aeb0ed5916064808301926000929190829003018186803b15801561044957600080fd5b505af415801561045d573d6000803e3d6000fd5b505050505050565b60008054600160a060020a0316331461047d57600080fd5b5060008054604080517ff2fde38b000000000000000000000000000000000000000000000000000000008152600160a060020a039283166004820152905184939284169263f2fde38b926024808201939182900301818387803b1580156104e357600080fd5b505af115801561045d573d6000803e3d6000fd5b600054600160a060020a0316331461050e57600080fd5b604080517f5599b4b700000000000000000000000000000000000000000000000000000000815260026004820152600160a060020a0380861660248301528416604482015260648101839052905173__TokenStorageLib_______________________91635599b4b7916084808301926000929190829003018186803b15801561059757600080fd5b505af41580156105ab573d6000803e3d6000fd5b50505050505050565b600154600160a060020a031633146105cb57600080fd5b60015460008054604051600160a060020a0393841693909116917f8be0079c531659141344cd1fd0a4f28419497f9722a3daafe3b4186f6b6457e091a3600180546000805473ffffffffffffffffffffffffffffffffffffffff19908116600160a060020a03841617909155169055565b6000600273__TokenStorageLib_______________________63072f9a5090916040518263ffffffff167c01000000000000000000000000000000000000000000000000000000000281526004018082815260200191505060206040518083038186803b1580156106ac57600080fd5b505af41580156106c0573d6000803e3d6000fd5b505050506040513d60208110156106d657600080fd5b5051905090565b600054600160a060020a031633146106f457600080fd5b60008054604051600160a060020a03909116917ff8df31144d9c2f0f6b59d69b8b98abd5459d07f2742c4df920b25aae33c6482091a26000805473ffffffffffffffffffffffffffffffffffffffff19169055565b600054600160a060020a031681565b600054600160a060020a0316331461076f57600080fd5b60008054604051600160a060020a0390911691303180156108fc02929091818181858888f193505050501580156107aa573d6000803e3d6000fd5b50565b600080fd5b604080517f9daeae1e00000000000000000000000000000000000000000000000000000000815260026004820152600160a060020a03808516602483015283166044820152905160009173__TokenStorageLib_______________________91639daeae1e91606480820192602092909190829003018186803b15801561083857600080fd5b505af415801561084c573d6000803e3d6000fd5b505050506040513d602081101561086257600080fd5b50519392505050565b600054600160a060020a0316331461088257600080fd5b604080517fd9c7339e00000000000000000000000000000000000000000000000000000000815260026004820152600160a060020a038416602482015260448101839052905173__TokenStorageLib_______________________9163d9c7339e916064808301926000929190829003018186803b15801561044957600080fd5b600154600160a060020a031681565b600054600160a060020a0316331461092957600080fd5b6001805473ffffffffffffffffffffffffffffffffffffffff1916600160a060020a0392909216919091179055565b604080517fb0aacf2400000000000000000000000000000000000000000000000000000000815260026004820152600160a060020a0383166024820152905160009173__TokenStorageLib_______________________9163b0aacf2491604480820192602092909190829003018186803b1580156109d657600080fd5b505af41580156109ea573d6000803e3d6000fd5b505050506040513d6020811015610a0057600080fd5b505192915050565b82600160a060020a031663a9059cbb83836040518363ffffffff167c01000000000000000000000000000000000000000000000000000000000281526004018083600160a060020a0316600160a060020a0316815260200182815260200192505050602060405180830381600087803b158015610a8457600080fd5b505af1158015610a98573d6000803e3d6000fd5b505050506040513d6020811015610aae57600080fd5b50511515610abb57600080fd5b5050505600a165627a7a72305820fd58eddb64be65e7eb4d8f6b3ff3cd939241a5a576964eacb63ef4615a655d870029",
  "source": "/**\n * Copyright 2019 Monerium ehf.\n *\n * Licensed under the Apache License, Version 2.0 (the \"License\");\n * you may not use this file except in compliance with the License.\n * You may obtain a copy of the License at\n *\n *     http://www.apache.org/licenses/LICENSE-2.0\n *\n * Unless required by applicable law or agreed to in writing, software\n * distributed under the License is distributed on an \"AS IS\" BASIS,\n * WITHOUT WARRANTIES OR CONDITIONS OF ANY KIND, either express or implied.\n * See the License for the specific language governing permissions and\n * limitations under the License.\n */\n\npragma solidity 0.4.24;\n\nimport \"./ConstantValidator.sol\";\nimport \"./SmartController.sol\";\n\n/**\n * @title ConstantSmartController\n * @dev Constantly rejects token transfers by using a rejecting validator.\n */\ncontract ConstantSmartController is SmartController {\n\n    /**\n     * @dev Contract constructor.\n     * @param storage_ Address of the new storage.\n     * @param ticker 3 letter currency ticker.\n     */\n    constructor(address storage_, bytes3 ticker)\n        public\n        SmartController(storage_, new ConstantValidator(false), ticker, 0x0)\n    { }\n\n}\n",
  "sourcePath": "/Users/gislik/Code/smart-contracts/contracts/ConstantSmartController.sol",
  "compiler": {
    "name": "solc",
    "version": "0.4.24+commit.e67f0147.Emscripten.clang"
  },
  "schemaVersion": "2.0.1",
  "updatedAt": "2019-11-11T09:22:18.320Z"
}