{
  "contractName": "ConstantValidator",
  "abi": [
    {
      "inputs": [
        {
          "internalType": "bool",
          "name": "valid_",
          "type": "bool"
        }
      ],
      "stateMutability": "nonpayable",
      "type": "constructor"
    },
    {
      "anonymous": false,
      "inputs": [
        {
          "indexed": true,
          "internalType": "address",
          "name": "from",
          "type": "address"
        },
        {
          "indexed": true,
          "internalType": "address",
          "name": "to",
          "type": "address"
        },
        {
          "indexed": false,
          "internalType": "uint256",
          "name": "amount",
          "type": "uint256"
        },
        {
          "indexed": false,
          "internalType": "bool",
          "name": "valid",
          "type": "bool"
        }
      ],
      "name": "Decision",
      "type": "event"
    },
    {
      "anonymous": false,
      "inputs": [
        {
          "indexed": true,
          "internalType": "address",
          "name": "previousOwner",
          "type": "address"
        }
      ],
      "name": "OwnershipRenounced",
      "type": "event"
    },
    {
      "anonymous": false,
      "inputs": [
        {
          "indexed": true,
          "internalType": "address",
          "name": "previousOwner",
          "type": "address"
        },
        {
          "indexed": true,
          "internalType": "address",
          "name": "newOwner",
          "type": "address"
        }
      ],
      "name": "OwnershipTransferred",
      "type": "event"
    },
    {
      "stateMutability": "nonpayable",
      "type": "fallback"
    },
    {
      "inputs": [],
      "name": "claimOwnership",
      "outputs": [],
      "stateMutability": "nonpayable",
      "type": "function"
    },
    {
      "inputs": [],
      "name": "owner",
      "outputs": [
        {
          "internalType": "address",
          "name": "",
          "type": "address"
        }
      ],
      "stateMutability": "view",
      "type": "function"
    },
    {
      "inputs": [],
      "name": "pendingOwner",
      "outputs": [
        {
          "internalType": "address",
          "name": "",
          "type": "address"
        }
      ],
      "stateMutability": "view",
      "type": "function"
    },
    {
      "inputs": [
        {
          "internalType": "address",
          "name": "_contractAddr",
          "type": "address"
        }
      ],
      "name": "reclaimContract",
      "outputs": [],
      "stateMutability": "nonpayable",
      "type": "function"
    },
    {
      "inputs": [],
      "name": "reclaimEther",
      "outputs": [],
      "stateMutability": "nonpayable",
      "type": "function"
    },
    {
      "inputs": [
        {
          "internalType": "contract ERC20Basic",
          "name": "_token",
          "type": "address"
        }
      ],
      "name": "reclaimToken",
      "outputs": [],
      "stateMutability": "nonpayable",
      "type": "function"
    },
    {
      "inputs": [],
      "name": "renounceOwnership",
      "outputs": [],
      "stateMutability": "nonpayable",
      "type": "function"
    },
    {
      "inputs": [
        {
          "internalType": "address",
          "name": "_from",
          "type": "address"
        },
        {
          "internalType": "uint256",
          "name": "_value",
          "type": "uint256"
        },
        {
          "internalType": "bytes",
          "name": "_data",
          "type": "bytes"
        }
      ],
      "name": "tokenFallback",
      "outputs": [],
      "stateMutability": "pure",
      "type": "function"
    },
    {
      "inputs": [
        {
          "internalType": "address",
          "name": "",
          "type": "address"
        },
        {
          "internalType": "address",
          "name": "",
          "type": "address"
        },
        {
          "internalType": "uint256",
          "name": "",
          "type": "uint256"
        }
      ],
      "name": "validate",
      "outputs": [
        {
          "internalType": "bool",
          "name": "",
          "type": "bool"
        }
      ],
      "stateMutability": "view",
      "type": "function"
    },
    {
      "inputs": [
        {
          "internalType": "address",
          "name": "newOwner",
          "type": "address"
        }
      ],
      "name": "transferOwnership",
      "outputs": [],
      "stateMutability": "nonpayable",
      "type": "function"
    }
  ],
  "bytecode": "0x608060405234801561001057600080fd5b5060405161073b38038061073b83398101604081905261002f9161006d565b600080546001600160a01b03191633179055341561004c57600080fd5b60018054911515600160a01b0260ff60a01b19909216919091179055610096565b60006020828403121561007f57600080fd5b8151801515811461008f57600080fd5b9392505050565b610696806100a56000396000f3fe608060405234801561001057600080fd5b50600436106100b55760003560e01c80639f727c2711610070578063c0ee0b8a11610058578063c0ee0b8a14610168578063e30c39781461017b578063f2fde38b1461018e57005b80639f727c271461011d578063aa3ad4e41461012557005b80634e71e0c81161009e5780634e71e0c8146100dd578063715018a6146100e55780638da5cb5b146100ed57005b806317ffc320146100b75780632aed7f3f146100ca575b005b6100b56100c5366004610537565b6101a1565b6100b56100d8366004610537565b61025d565b6100b56102f1565b6100b5610379565b600054610100906001600160a01b031681565b6040516001600160a01b0390911681526020015b60405180910390f35b6100b56103e5565b61015861013336600461055b565b505060015474010000000000000000000000000000000000000000900460ff16919050565b6040519015158152602001610114565b6100b561017636600461059c565b600080fd5b600154610100906001600160a01b031681565b6100b561019c366004610537565b610439565b6000546001600160a01b031633146101b857600080fd5b6040517f70a082310000000000000000000000000000000000000000000000000000000081523060048201526000906001600160a01b038316906370a0823190602401602060405180830381865afa158015610218573d6000803e3d6000fd5b505050506040513d601f19601f8201168201806040525081019061023c9190610625565b600054909150610259906001600160a01b03848116911683610442565b5050565b6000546001600160a01b0316331461027457600080fd5b6000546040517ff2fde38b0000000000000000000000000000000000000000000000000000000081526001600160a01b039182166004820152829182169063f2fde38b90602401600060405180830381600087803b1580156102d557600080fd5b505af11580156102e9573d6000803e3d6000fd5b505050505050565b6001546001600160a01b0316331461030857600080fd5b600154600080546040516001600160a01b0393841693909116917f8be0079c531659141344cd1fd0a4f28419497f9722a3daafe3b4186f6b6457e091a3600180546000805473ffffffffffffffffffffffffffffffffffffffff199081166001600160a01b03841617909155169055565b6000546001600160a01b0316331461039057600080fd5b600080546040516001600160a01b03909116917ff8df31144d9c2f0f6b59d69b8b98abd5459d07f2742c4df920b25aae33c6482091a26000805473ffffffffffffffffffffffffffffffffffffffff19169055565b6000546001600160a01b031633146103fc57600080fd5b600080546040516001600160a01b03909116914780156108fc02929091818181858888f19350505050158015610436573d6000803e3d6000fd5b50565b610436816104dc565b6040517fa9059cbb0000000000000000000000000000000000000000000000000000000081526001600160a01b0383811660048301526024820183905284169063a9059cbb906044016020604051808303816000875af11580156104aa573d6000803e3d6000fd5b505050506040513d601f19601f820116820180604052508101906104ce919061063e565b6104d757600080fd5b505050565b6000546001600160a01b031633146104f357600080fd5b6001805473ffffffffffffffffffffffffffffffffffffffff19166001600160a01b0392909216919091179055565b6001600160a01b038116811461043657600080fd5b60006020828403121561054957600080fd5b813561055481610522565b9392505050565b60008060006060848603121561057057600080fd5b833561057b81610522565b9250602084013561058b81610522565b929592945050506040919091013590565b600080600080606085870312156105b257600080fd5b84356105bd81610522565b935060208501359250604085013567ffffffffffffffff808211156105e157600080fd5b818701915087601f8301126105f557600080fd5b81358181111561060457600080fd5b88602082850101111561061657600080fd5b95989497505060200194505050565b60006020828403121561063757600080fd5b5051919050565b60006020828403121561065057600080fd5b8151801515811461055457600080fdfea2646970667358221220a94225ebef816f4869aa48f8c22e9bf3610bfdab6f73257a1bfcedb10013b8d264736f6c634300080b0033",
  "immutableReferences": {},
  "source": "/* SPDX-License-Identifier: apache-2.0 */\n/**\n * Copyright 2019 Monerium ehf.\n *\n * Licensed under the Apache License, Version 2.0 (the \"License\");\n * you may not use this file except in compliance with the License.\n * You may obtain a copy of the License at\n *\n *     http://www.apache.org/licenses/LICENSE-2.0\n *\n * Unless required by applicable law or agreed to in writing, software\n * distributed under the License is distributed on an \"AS IS\" BASIS,\n * WITHOUT WARRANTIES OR CONDITIONS OF ANY KIND, either express or implied.\n * See the License for the specific language governing permissions and\n * limitations under the License.\n */\n\npragma solidity 0.8.11;\n\nimport \"./ownership/Claimable.sol\";\nimport \"./ownership/NoOwner.sol\";\nimport \"./ownership/CanReclaimToken.sol\";\nimport \"./IValidator.sol\";\n\n/**\n * @title ConstantValidator\n * @dev Constantly validates token transfers based on the constructor value.\n */\ncontract ConstantValidator is IValidator, Claimable, CanReclaimToken, NoOwner {\n\n    bool internal valid;\n\n    /**\n     * @dev Contract constructor.\n     * @param valid_ Always return this value when validating.\n     */\n    constructor(bool valid_) {\n        valid = valid_;\n    }\n\n    /**\n     * @dev Validates token transfer.\n     * Implements IValidator interface.\n     */\n    function validate(address, address, uint) external view returns (bool) {\n        return valid;\n    }\n\n    /**\n     * @dev Explicit override of transferOwnership from Claimable and Ownable\n     * @param newOwner Address to transfer ownership to.\n     */\n    function transferOwnership(address newOwner) public override(Claimable, Ownable) {\n      Claimable.transferOwnership(newOwner);\n    }\n}\n",
  "sourcePath": "/Users/kristen/work/monerium/smart-contracts-private/contracts/ConstantValidator.sol",
  "compiler": {
    "name": "solc",
    "version": "0.8.11+commit.d7f03943.Emscripten.clang"
  },
  "schemaVersion": "3.4.4",
  "updatedAt": "2022-04-28T11:58:59.837Z",
  "networkType": "ethereum",
  "devdoc": {
    "details": "Constantly validates token transfers based on the constructor value.",
    "kind": "dev",
    "methods": {
      "claimOwnership()": {
        "details": "Allows the pendingOwner address to finalize the transfer."
      },
      "constructor": {
        "details": "Contract constructor.",
        "params": {
          "valid_": "Always return this value when validating."
        }
      },
      "reclaimContract(address)": {
        "details": "Reclaim ownership of Ownable contracts",
        "params": {
          "_contractAddr": "The address of the Ownable to be reclaimed."
        }
      },
      "reclaimEther()": {
        "details": "Transfer all Ether held by the contract to the owner."
      },
      "reclaimToken(address)": {
        "details": "Reclaim all ERC20Basic compatible tokens",
        "params": {
          "_token": "ERC20Basic The address of the token contract"
        }
      },
      "renounceOwnership()": {
        "details": "Allows the current owner to relinquish control of the contract."
      },
      "tokenFallback(address,uint256,bytes)": {
        "details": "Reject all ERC223 compatible tokens",
        "params": {
          "_data": "Bytes The data passed from the caller.",
          "_from": "address The address that is transferring the tokens",
          "_value": "uint256 the amount of the specified token"
        }
      },
      "transferOwnership(address)": {
        "details": "Explicit override of transferOwnership from Claimable and Ownable",
        "params": {
          "newOwner": "Address to transfer ownership to."
        }
      },
      "validate(address,address,uint256)": {
        "details": "Validates token transfer. Implements IValidator interface."
      }
    },
    "title": "ConstantValidator",
    "version": 1
  },
  "userdoc": {
    "kind": "user",
    "methods": {
      "renounceOwnership()": {
        "notice": "Renouncing to ownership will leave the contract without an owner. It will not be possible to call the functions with the `onlyOwner` modifier anymore."
      }
    },
    "version": 1
  }
}