{
  "contractName": "ERC223TokenMock",
  "abi": [
    {
      "inputs": [
        {
          "internalType": "address",
          "name": "initialAccount",
          "type": "address"
        },
        {
          "internalType": "uint256",
          "name": "initialBalance",
          "type": "uint256"
        }
      ],
      "stateMutability": "nonpayable",
      "type": "constructor"
    },
    {
      "anonymous": false,
      "inputs": [
        {
          "indexed": true,
          "internalType": "address",
          "name": "from",
          "type": "address"
        },
        {
          "indexed": true,
          "internalType": "address",
          "name": "to",
          "type": "address"
        },
        {
          "indexed": false,
          "internalType": "uint256",
          "name": "value",
          "type": "uint256"
        }
      ],
      "name": "Transfer",
      "type": "event"
    },
    {
      "inputs": [
        {
          "internalType": "address",
          "name": "_owner",
          "type": "address"
        }
      ],
      "name": "balanceOf",
      "outputs": [
        {
          "internalType": "uint256",
          "name": "",
          "type": "uint256"
        }
      ],
      "stateMutability": "view",
      "type": "function"
    },
    {
      "inputs": [],
      "name": "totalSupply",
      "outputs": [
        {
          "internalType": "uint256",
          "name": "",
          "type": "uint256"
        }
      ],
      "stateMutability": "view",
      "type": "function"
    },
    {
      "inputs": [
        {
          "internalType": "address",
          "name": "_to",
          "type": "address"
        },
        {
          "internalType": "uint256",
          "name": "_value",
          "type": "uint256"
        }
      ],
      "name": "transfer",
      "outputs": [
        {
          "internalType": "bool",
          "name": "",
          "type": "bool"
        }
      ],
      "stateMutability": "nonpayable",
      "type": "function"
    },
    {
      "inputs": [
        {
          "internalType": "address",
          "name": "_to",
          "type": "address"
        },
        {
          "internalType": "uint256",
          "name": "_value",
          "type": "uint256"
        },
        {
          "internalType": "bytes",
          "name": "_data",
          "type": "bytes"
        }
      ],
      "name": "transferERC223",
      "outputs": [
        {
          "internalType": "bool",
          "name": "success",
          "type": "bool"
        }
      ],
      "stateMutability": "nonpayable",
      "type": "function"
    }
  ],
  "bytecode": "0x608060405234801561001057600080fd5b5060405161051c38038061051c83398101604081905261002f91610053565b6001600160a01b03909116600090815260208190526040902081905560015561008d565b6000806040838503121561006657600080fd5b82516001600160a01b038116811461007d57600080fd5b6020939093015192949293505050565b6104808061009c6000396000f3fe608060405234801561001057600080fd5b506004361061004c5760003560e01c806303bad56e1461005157806318160ddd1461007957806370a082311461008b578063a9059cbb146100b4575b600080fd5b61006461005f366004610288565b6100c7565b60405190151581526020015b60405180910390f35b6001545b604051908152602001610070565b61007d610099366004610353565b6001600160a01b031660009081526020819052604090205490565b6100646100c236600461036e565b610168565b60006100d38484610168565b50833b1519801561015d576040517fc0ee0b8a00000000000000000000000000000000000000000000000000000000815285906001600160a01b0382169063c0ee0b8a9061012990339089908990600401610398565b600060405180830381600087803b15801561014357600080fd5b505af1158015610157573d6000803e3d6000fd5b50505050505b506001949350505050565b3360009081526020819052604081205482111561018457600080fd5b6001600160a01b03831661019757600080fd5b336000908152602081905260409020546101b19083610237565b33600090815260208190526040808220929092556001600160a01b038516815220546101dd908361024a565b6001600160a01b038416600081815260208181526040918290209390935551848152909133917fddf252ad1be2c89b69c2b068fc378daa952ba7f163c4a11628f55a4df523b3ef910160405180910390a350600192915050565b6000610243828461041b565b9392505050565b60006102438284610432565b80356001600160a01b038116811461026d57600080fd5b919050565b634e487b7160e01b600052604160045260246000fd5b60008060006060848603121561029d57600080fd5b6102a684610256565b925060208401359150604084013567ffffffffffffffff808211156102ca57600080fd5b818601915086601f8301126102de57600080fd5b8135818111156102f0576102f0610272565b604051601f8201601f19908116603f0116810190838211818310171561031857610318610272565b8160405282815289602084870101111561033157600080fd5b8260208601602083013760006020848301015280955050505050509250925092565b60006020828403121561036557600080fd5b61024382610256565b6000806040838503121561038157600080fd5b61038a83610256565b946020939093013593505050565b6001600160a01b038416815260006020848184015260606040840152835180606085015260005b818110156103db578581018301518582016080015282016103bf565b818111156103ed576000608083870101525b50601f01601f19169290920160800195945050505050565b634e487b7160e01b600052601160045260246000fd5b60008282101561042d5761042d610405565b500390565b6000821982111561044557610445610405565b50019056fea2646970667358221220f4aeaad0bbd6bb79f6e10d6cf2c73a28d05a7aa76d91d513f24304941356504e64736f6c634300080b0033",
  "immutableReferences": {},
  "source": "// SPDX-License-Identifier: UNLICENSED\npragma solidity ^0.8.0;\n\nimport \"../../token/ERC20/BasicToken.sol\";\n\n\ninterface ERC223ContractInterface {\n  function tokenFallback(address _from, uint256 _value, bytes memory _data) external;\n}\n\n\ncontract ERC223TokenMock is BasicToken {\n\n  constructor(address initialAccount, uint256 initialBalance){\n    balances[initialAccount] = initialBalance;\n    totalSupply_ = initialBalance;\n  }\n\n  // ERC223 compatible transfer function (except the name)\n  function transferERC223(address _to, uint256 _value, bytes memory _data) public\n    returns (bool success)\n  {\n    transfer(_to, _value);\n    bool isContract = false;\n    // solium-disable-next-line security/no-inline-assembly\n    assembly {\n      isContract := not(iszero(extcodesize(_to)))\n    }\n    if (isContract) {\n      ERC223ContractInterface receiver = ERC223ContractInterface(_to);\n      receiver.tokenFallback(msg.sender, _value, _data);\n    }\n    return true;\n  }\n}\n",
  "sourcePath": "/Users/gislik/Code/smart-contracts-private/contracts/ownership/mocks/ERC223TokenMock.sol",
  "compiler": {
    "name": "solc",
    "version": "0.8.11+commit.d7f03943.Emscripten.clang"
  },
  "schemaVersion": "3.4.6",
  "updatedAt": "2022-11-15T22:20:58.316Z",
  "devdoc": {
    "kind": "dev",
    "methods": {
      "balanceOf(address)": {
        "details": "Gets the balance of the specified address.",
        "params": {
          "_owner": "The address to query the the balance of."
        },
        "returns": {
          "_0": "An uint256 representing the amount owned by the passed address."
        }
      },
      "totalSupply()": {
        "details": "Total number of tokens in existence"
      },
      "transfer(address,uint256)": {
        "details": "Transfer token for a specified address",
        "params": {
          "_to": "The address to transfer to.",
          "_value": "The amount to be transferred."
        }
      }
    },
    "version": 1
  },
  "userdoc": {
    "kind": "user",
    "methods": {},
    "version": 1
  }
}