{
  "contractName": "ERC20Lib",
  "abi": [
    {
      "inputs": [
        {
          "internalType": "contract TokenStorage",
          "name": "db",
          "type": "TokenStorage"
        },
        {
          "internalType": "address",
          "name": "who",
          "type": "address"
        }
      ],
      "name": "balanceOf",
      "outputs": [
        {
          "internalType": "uint256",
          "name": "balance",
          "type": "uint256"
        }
      ],
      "stateMutability": "view",
      "type": "function",
      "constant": true
    },
    {
      "inputs": [
        {
          "internalType": "contract TokenStorage",
          "name": "db",
          "type": "TokenStorage"
        },
        {
          "internalType": "address",
          "name": "owner",
          "type": "address"
        },
        {
          "internalType": "address",
          "name": "spender",
          "type": "address"
        }
      ],
      "name": "allowance",
      "outputs": [
        {
          "internalType": "uint256",
          "name": "remaining",
          "type": "uint256"
        }
      ],
      "stateMutability": "view",
      "type": "function",
      "constant": true
    }
  ],
  "bytecode": "0x61072a61003a600b82828239805160001a60731461002d57634e487b7160e01b600052600060045260246000fd5b30600052607381538281f3fe73000000000000000000000000000000000000000030146080604052600436106100715760003560e01c8063365feff11161005a578063365feff1146100af57806344ded8ba146100df578063f3a0ddf9146100ff57600080fd5b80631045d7ce14610076578063188b48671461009c575b600080fd5b610089610084366004610564565b61011f565b6040519081526020015b60405180910390f35b6100896100aa3660046105af565b61019d565b8180156100bb57600080fd5b506100cf6100ca3660046105e8565b61022b565b6040519015158152602001610093565b8180156100eb57600080fd5b506100cf6100fa3660046105e8565b6102be565b81801561010b57600080fd5b506100cf61011a366004610639565b610359565b6040516363e3f4f560e11b81526001600160a01b03838116600483015282811660248301526000919085169063c7c7e9ea90604401602060405180830381865afa158015610171573d6000803e3d6000fd5b505050506040513d601f19601f82011682018060405250810190610195919061069d565b949350505050565b6040517ff8b2cb4f0000000000000000000000000000000000000000000000000000000081526001600160a01b0382811660048301526000919084169063f8b2cb4f90602401602060405180830381865afa158015610200573d6000803e3d6000fd5b505050506040513d601f19601f82011682018060405250810190610224919061069d565b9392505050565b6040517f33dd1b8a0000000000000000000000000000000000000000000000000000000081526001600160a01b038481166004830152838116602483015260448201839052600091908616906333dd1b8a906064015b600060405180830381600087803b15801561029b57600080fd5b505af11580156102af573d6000803e3d6000fd5b50600198975050505050505050565b6040516367c775bf60e11b81526001600160a01b038481166004830152602482018390526000919086169063cf8eeb7e90604401600060405180830381600087803b15801561030c57600080fd5b505af1158015610320573d6000803e3d6000fd5b50506040516310f29c1d60e11b81526001600160a01b03868116600483015260248201869052881692506321e5383a9150604401610281565b6040516363e3f4f560e11b81526001600160a01b0384811660048301528581166024830152600091829188169063c7c7e9ea90604401602060405180830381865afa1580156103ac573d6000803e3d6000fd5b505050506040513d601f19601f820116820180604052508101906103d0919061069d565b6040516367c775bf60e11b81526001600160a01b038781166004830152602482018690529192509088169063cf8eeb7e90604401600060405180830381600087803b15801561041e57600080fd5b505af1158015610432573d6000803e3d6000fd5b50506040516310f29c1d60e11b81526001600160a01b038781166004830152602482018790528a1692506321e5383a9150604401600060405180830381600087803b15801561048057600080fd5b505af1158015610494573d6000803e3d6000fd5b5050506001600160a01b03881690506333dd1b8a86886104b48588610540565b6040517fffffffff0000000000000000000000000000000000000000000000000000000060e086901b1681526001600160a01b0393841660048201529290911660248301526044820152606401600060405180830381600087803b15801561051b57600080fd5b505af115801561052f573d6000803e3d6000fd5b5060019a9950505050505050505050565b600061022482846106b6565b6001600160a01b038116811461056157600080fd5b50565b60008060006060848603121561057957600080fd5b83356105848161054c565b925060208401356105948161054c565b915060408401356105a48161054c565b809150509250925092565b600080604083850312156105c257600080fd5b82356105cd8161054c565b915060208301356105dd8161054c565b809150509250929050565b600080600080608085870312156105fe57600080fd5b84356106098161054c565b935060208501356106198161054c565b925060408501356106298161054c565b9396929550929360600135925050565b600080600080600060a0868803121561065157600080fd5b853561065c8161054c565b9450602086013561066c8161054c565b9350604086013561067c8161054c565b9250606086013561068c8161054c565b949793965091946080013592915050565b6000602082840312156106af57600080fd5b5051919050565b6000828210156106ef577f4e487b7100000000000000000000000000000000000000000000000000000000600052601160045260246000fd5b50039056fea264697066735822122082743add365a626802b8e65235dbf8faa9ceacaddf407562e78806fdc25c019164736f6c634300080b0033",
  "immutableReferences": {},
  "source": "/* SPDX-License-Identifier: apache-2.0 */\n/**\n * Copyright 2022 Monerium ehf.\n *\n * Licensed under the Apache License, Version 2.0 (the \"License\");\n * you may not use this file except in compliance with the License.\n * You may obtain a copy of the License at\n *\n *     http://www.apache.org/licenses/LICENSE-2.0\n *\n * Unless required by applicable law or agreed to in writing, software\n * distributed under the License is distributed on an \"AS IS\" BASIS,\n * WITHOUT WARRANTIES OR CONDITIONS OF ANY KIND, either express or implied.\n * See the License for the specific language governing permissions and\n * limitations under the License.\n */\n\npragma solidity 0.8.11;\n\nimport \"@openzeppelin/contracts/utils/math/SafeMath.sol\";\nimport \"./TokenStorage.sol\";\n\n/**\n * @title ERC20Lib\n * @dev Standard ERC20 token functionality.\n * https://github.com/ethereum/EIPs/issues/20\n */\nlibrary ERC20Lib {\n\n    using SafeMath for uint;\n\n    /**\n     * @dev Transfers tokens [ERC20].\n     * @param db Token storage to operate on.\n     * @param caller Address of the caller passed through the frontend.\n     * @param to Recipient address.\n     * @param amount Number of tokens to transfer.\n     */\n    function transfer(TokenStorage db, address caller, address to, uint amount)\n        external\n        returns (bool success)\n    {\n        db.subBalance(caller, amount);\n        db.addBalance(to, amount);\n        return true;\n    }\n\n    /**\n     * @dev Transfers tokens from a specific address [ERC20].\n     * The address owner has to approve the spender beforehand.\n     * @param db Token storage to operate on.\n     * @param caller Address of the caller passed through the frontend.\n     * @param from Address to debet the tokens from.\n     * @param to Recipient address.\n     * @param amount Number of tokens to transfer.\n     */\n    function transferFrom(\n        TokenStorage db,\n        address caller,\n        address from,\n        address to,\n        uint amount\n    )\n        external\n        returns (bool success)\n    {\n        uint allowance_ = db.getAllowed(from, caller);\n        db.subBalance(from, amount);\n        db.addBalance(to, amount);\n        db.setAllowed(from, caller, allowance_.sub(amount));\n        return true;\n    }\n\n    /**\n     * @dev Approves a spender [ERC20].\n     * Note that using the approve/transferFrom presents a possible\n     * security vulnerability described in:\n     * https://docs.google.com/document/d/1YLPtQxZu1UAvO9cZ1O2RPXBbT0mooh4DYKjA_jp-RLM/edit#heading=h.quou09mcbpzw\n     * Use transferAndCall to mitigate.\n     * @param db Token storage to operate on.\n     * @param caller Address of the caller passed through the frontend.\n     * @param spender The address of the future spender.\n     * @param amount The allowance of the spender.\n     */\n    function approve(TokenStorage db, address caller, address spender, uint amount)\n        public\n        returns (bool success)\n    {\n        db.setAllowed(caller, spender, amount);\n        return true;\n    }\n\n    /**\n     * @dev Returns the number tokens associated with an address.\n     * @param db Token storage to operate on.\n     * @param who Address to lookup.\n     * @return balance Balance of address.\n     */\n    function balanceOf(TokenStorage db, address who)\n        external\n        view\n        returns (uint balance)\n    {\n        return db.getBalance(who);\n    }\n\n    /**\n     * @dev Returns the allowance for a spender\n     * @param db Token storage to operate on.\n     * @param owner The address of the owner of the tokens.\n     * @param spender The address of the spender.\n     * @return remaining Number of tokens the spender is allowed to spend.\n     */\n    function allowance(TokenStorage db, address owner, address spender)\n        external\n        view\n        returns (uint remaining)\n    {\n        return db.getAllowed(owner, spender);\n    }\n\n}\n",
  "sourcePath": "/Users/gislik/Code/smart-contracts-private/contracts/ERC20Lib.sol",
  "compiler": {
    "name": "solc",
    "version": "0.8.11+commit.d7f03943.Emscripten.clang"
  },
  "schemaVersion": "3.4.10",
  "updatedAt": "2022-11-30T00:08:46.950Z",
  "networkType": "ethereum",
  "devdoc": {
    "details": "Standard ERC20 token functionality. https://github.com/ethereum/EIPs/issues/20",
    "kind": "dev",
    "methods": {
      "allowance(TokenStorage,address,address)": {
        "details": "Returns the allowance for a spender",
        "params": {
          "db": "Token storage to operate on.",
          "owner": "The address of the owner of the tokens.",
          "spender": "The address of the spender."
        },
        "returns": {
          "remaining": "Number of tokens the spender is allowed to spend."
        }
      },
      "approve(TokenStorage,address,address,uint256)": {
        "details": "Approves a spender [ERC20]. Note that using the approve/transferFrom presents a possible security vulnerability described in: https://docs.google.com/document/d/1YLPtQxZu1UAvO9cZ1O2RPXBbT0mooh4DYKjA_jp-RLM/edit#heading=h.quou09mcbpzw Use transferAndCall to mitigate.",
        "params": {
          "amount": "The allowance of the spender.",
          "caller": "Address of the caller passed through the frontend.",
          "db": "Token storage to operate on.",
          "spender": "The address of the future spender."
        }
      },
      "balanceOf(TokenStorage,address)": {
        "details": "Returns the number tokens associated with an address.",
        "params": {
          "db": "Token storage to operate on.",
          "who": "Address to lookup."
        },
        "returns": {
          "balance": "Balance of address."
        }
      },
      "transfer(TokenStorage,address,address,uint256)": {
        "details": "Transfers tokens [ERC20].",
        "params": {
          "amount": "Number of tokens to transfer.",
          "caller": "Address of the caller passed through the frontend.",
          "db": "Token storage to operate on.",
          "to": "Recipient address."
        }
      },
      "transferFrom(TokenStorage,address,address,address,uint256)": {
        "details": "Transfers tokens from a specific address [ERC20]. The address owner has to approve the spender beforehand.",
        "params": {
          "amount": "Number of tokens to transfer.",
          "caller": "Address of the caller passed through the frontend.",
          "db": "Token storage to operate on.",
          "from": "Address to debet the tokens from.",
          "to": "Recipient address."
        }
      }
    },
    "title": "ERC20Lib",
    "version": 1
  },
  "userdoc": {
    "kind": "user",
    "methods": {},
    "version": 1
  }
}