{
  "contractName": "ERC20Lib",
  "abi": [
    {
      "constant": false,
      "inputs": [
        {
          "name": "db",
          "type": "TokenStorage"
        },
        {
          "name": "caller",
          "type": "address"
        },
        {
          "name": "to",
          "type": "address"
        },
        {
          "name": "amount",
          "type": "uint256"
        }
      ],
      "name": "transfer",
      "outputs": [
        {
          "name": "success",
          "type": "bool"
        }
      ],
      "payable": false,
      "stateMutability": "nonpayable",
      "type": "function"
    },
    {
      "constant": false,
      "inputs": [
        {
          "name": "db",
          "type": "TokenStorage"
        },
        {
          "name": "caller",
          "type": "address"
        },
        {
          "name": "from",
          "type": "address"
        },
        {
          "name": "to",
          "type": "address"
        },
        {
          "name": "amount",
          "type": "uint256"
        }
      ],
      "name": "transferFrom",
      "outputs": [
        {
          "name": "success",
          "type": "bool"
        }
      ],
      "payable": false,
      "stateMutability": "nonpayable",
      "type": "function"
    },
    {
      "constant": false,
      "inputs": [
        {
          "name": "db",
          "type": "TokenStorage"
        },
        {
          "name": "caller",
          "type": "address"
        },
        {
          "name": "spender",
          "type": "address"
        },
        {
          "name": "amount",
          "type": "uint256"
        }
      ],
      "name": "approve",
      "outputs": [
        {
          "name": "success",
          "type": "bool"
        }
      ],
      "payable": false,
      "stateMutability": "nonpayable",
      "type": "function"
    },
    {
      "constant": true,
      "inputs": [
        {
          "name": "db",
          "type": "TokenStorage"
        },
        {
          "name": "who",
          "type": "address"
        }
      ],
      "name": "balanceOf",
      "outputs": [
        {
          "name": "balance",
          "type": "uint256"
        }
      ],
      "payable": false,
      "stateMutability": "view",
      "type": "function"
    },
    {
      "constant": true,
      "inputs": [
        {
          "name": "db",
          "type": "TokenStorage"
        },
        {
          "name": "owner",
          "type": "address"
        },
        {
          "name": "spender",
          "type": "address"
        }
      ],
      "name": "allowance",
      "outputs": [
        {
          "name": "remaining",
          "type": "uint256"
        }
      ],
      "payable": false,
      "stateMutability": "view",
      "type": "function"
    }
  ],
  "bytecode": "0x610810610030600b82828239805160001a6073146000811461002057610022565bfe5b5030600052607381538281f30073000000000000000000000000000000000000000030146080604052600436106100835763ffffffff7c01000000000000000000000000000000000000000000000000000000006000350416631045d7ce8114610088578063188b4867146100c7578063365feff1146100ee57806344ded8ba1461013f578063f3a0ddf91461017c575b600080fd5b6100b573ffffffffffffffffffffffffffffffffffffffff600435811690602435811690604435166101bf565b60408051918252519081900360200190f35b6100b573ffffffffffffffffffffffffffffffffffffffff6004358116906024351661026d565b8180156100fa57600080fd5b5061012b73ffffffffffffffffffffffffffffffffffffffff6004358116906024358116906044351660643561033d565b604080519115158252519081900360200190f35b81801561014b57600080fd5b5061012b73ffffffffffffffffffffffffffffffffffffffff600435811690602435811690604435166064356103e0565b81801561018857600080fd5b5061012b73ffffffffffffffffffffffffffffffffffffffff60043581169060243581169060443581169060643516608435610513565b604080517fc7c7e9ea00000000000000000000000000000000000000000000000000000000815273ffffffffffffffffffffffffffffffffffffffff84811660048301528381166024830152915160009286169163c7c7e9ea91604480830192602092919082900301818787803b15801561023957600080fd5b505af115801561024d573d6000803e3d6000fd5b505050506040513d602081101561026357600080fd5b5051949350505050565b60008273ffffffffffffffffffffffffffffffffffffffff1663f8b2cb4f836040518263ffffffff167c0100000000000000000000000000000000000000000000000000000000028152600401808273ffffffffffffffffffffffffffffffffffffffff1673ffffffffffffffffffffffffffffffffffffffff168152602001915050602060405180830381600087803b15801561030a57600080fd5b505af115801561031e573d6000803e3d6000fd5b505050506040513d602081101561033457600080fd5b50519392505050565b604080517f33dd1b8a00000000000000000000000000000000000000000000000000000000815273ffffffffffffffffffffffffffffffffffffffff858116600483015284811660248301526044820184905291516000928716916333dd1b8a916064808301928692919082900301818387803b1580156103bd57600080fd5b505af11580156103d1573d6000803e3d6000fd5b50600198975050505050505050565b604080517fcf8eeb7e00000000000000000000000000000000000000000000000000000000815273ffffffffffffffffffffffffffffffffffffffff858116600483015260248201849052915160009287169163cf8eeb7e916044808301928692919082900301818387803b15801561045857600080fd5b505af115801561046c573d6000803e3d6000fd5b505050508473ffffffffffffffffffffffffffffffffffffffff166321e5383a84846040518363ffffffff167c0100000000000000000000000000000000000000000000000000000000028152600401808373ffffffffffffffffffffffffffffffffffffffff1673ffffffffffffffffffffffffffffffffffffffff16815260200182815260200192505050600060405180830381600087803b1580156103bd57600080fd5b604080517fc7c7e9ea00000000000000000000000000000000000000000000000000000000815273ffffffffffffffffffffffffffffffffffffffff85811660048301528681166024830152915160009283929089169163c7c7e9ea9160448082019260209290919082900301818787803b15801561059157600080fd5b505af11580156105a5573d6000803e3d6000fd5b505050506040513d60208110156105bb57600080fd5b5051604080517fcf8eeb7e00000000000000000000000000000000000000000000000000000000815273ffffffffffffffffffffffffffffffffffffffff88811660048301526024820187905291519293509089169163cf8eeb7e9160448082019260009290919082900301818387803b15801561063857600080fd5b505af115801561064c573d6000803e3d6000fd5b505050508673ffffffffffffffffffffffffffffffffffffffff166321e5383a85856040518363ffffffff167c0100000000000000000000000000000000000000000000000000000000028152600401808373ffffffffffffffffffffffffffffffffffffffff1673ffffffffffffffffffffffffffffffffffffffff16815260200182815260200192505050600060405180830381600087803b1580156106f357600080fd5b505af1158015610707573d6000803e3d6000fd5b50505073ffffffffffffffffffffffffffffffffffffffff881690506333dd1b8a868861073485886107d2565b604080517c010000000000000000000000000000000000000000000000000000000063ffffffff871602815273ffffffffffffffffffffffffffffffffffffffff948516600482015292909316602483015260448201529051606480830192600092919082900301818387803b1580156107ad57600080fd5b505af11580156107c1573d6000803e3d6000fd5b5060019a9950505050505050505050565b6000828211156107de57fe5b509003905600a165627a7a7230582067d643ff40e9ac2fb2d9cba05001bb0ce9fdbced9754dd6069c20dd525db2d370029",
  "source": "/**\n * Copyright 2019 Monerium ehf.\n *\n * Licensed under the Apache License, Version 2.0 (the \"License\");\n * you may not use this file except in compliance with the License.\n * You may obtain a copy of the License at\n *\n *     http://www.apache.org/licenses/LICENSE-2.0\n *\n * Unless required by applicable law or agreed to in writing, software\n * distributed under the License is distributed on an \"AS IS\" BASIS,\n * WITHOUT WARRANTIES OR CONDITIONS OF ANY KIND, either express or implied.\n * See the License for the specific language governing permissions and\n * limitations under the License.\n */\n\npragma solidity 0.4.24;\n\nimport \"openzeppelin-solidity/contracts/math/SafeMath.sol\";\nimport \"./TokenStorage.sol\";\n\n/**\n * @title ERC20Lib\n * @dev Standard ERC20 token functionality.\n * https://github.com/ethereum/EIPs/issues/20\n */\nlibrary ERC20Lib {\n\n    using SafeMath for uint;\n\n    /**\n     * @dev Transfers tokens [ERC20].\n     * @param db Token storage to operate on.\n     * @param caller Address of the caller passed through the frontend.\n     * @param to Recipient address.\n     * @param amount Number of tokens to transfer.\n     */\n    function transfer(TokenStorage db, address caller, address to, uint amount)\n        external\n        returns (bool success)\n    {\n        db.subBalance(caller, amount);\n        db.addBalance(to, amount);\n        return true;\n    }\n\n    /**\n     * @dev Transfers tokens from a specific address [ERC20].\n     * The address owner has to approve the spender beforehand.\n     * @param db Token storage to operate on.\n     * @param caller Address of the caller passed through the frontend.\n     * @param from Address to debet the tokens from.\n     * @param to Recipient address.\n     * @param amount Number of tokens to transfer.\n     */\n    function transferFrom(\n        TokenStorage db,\n        address caller,\n        address from,\n        address to,\n        uint amount\n    )\n        external\n        returns (bool success)\n    {\n        uint allowance = db.getAllowed(from, caller);\n        db.subBalance(from, amount);\n        db.addBalance(to, amount);\n        db.setAllowed(from, caller, allowance.sub(amount));\n        return true;\n    }\n\n    /**\n     * @dev Approves a spender [ERC20].\n     * Note that using the approve/transferFrom presents a possible\n     * security vulnerability described in:\n     * https://docs.google.com/document/d/1YLPtQxZu1UAvO9cZ1O2RPXBbT0mooh4DYKjA_jp-RLM/edit#heading=h.quou09mcbpzw\n     * Use transferAndCall to mitigate.\n     * @param db Token storage to operate on.\n     * @param caller Address of the caller passed through the frontend.\n     * @param spender The address of the future spender.\n     * @param amount The allowance of the spender.\n     */\n    function approve(TokenStorage db, address caller, address spender, uint amount)\n        public\n        returns (bool success)\n    {\n        db.setAllowed(caller, spender, amount);\n        return true;\n    }\n\n    /**\n     * @dev Returns the number tokens associated with an address.\n     * @param db Token storage to operate on.\n     * @param who Address to lookup.\n     * @return Balance of address.\n     */\n    function balanceOf(TokenStorage db, address who)\n        external\n        view\n        returns (uint balance)\n    {\n        return db.getBalance(who);\n    }\n\n    /**\n     * @dev Returns the allowance for a spender\n     * @param db Token storage to operate on.\n     * @param owner The address of the owner of the tokens.\n     * @param spender The address of the spender.\n     * @return Number of tokens the spender is allowed to spend.\n     */\n    function allowance(TokenStorage db, address owner, address spender)\n        external\n        view\n        returns (uint remaining)\n    {\n        return db.getAllowed(owner, spender);\n    }\n\n}\n",
  "sourcePath": "/Users/gislik/Code/smart-contracts/contracts/ERC20Lib.sol",
  "compiler": {
    "name": "solc",
    "version": "0.4.24+commit.e67f0147.Emscripten.clang"
  },
  "schemaVersion": "2.0.1",
  "updatedAt": "2019-11-11T09:22:18.331Z"
}