{
  "contractName": "EUR",
  "abi": [
    {
      "inputs": [],
      "stateMutability": "nonpayable",
      "type": "constructor"
    },
    {
      "anonymous": false,
      "inputs": [
        {
          "indexed": true,
          "internalType": "address",
          "name": "owner",
          "type": "address"
        },
        {
          "indexed": true,
          "internalType": "address",
          "name": "spender",
          "type": "address"
        },
        {
          "indexed": false,
          "internalType": "uint256",
          "name": "value",
          "type": "uint256"
        }
      ],
      "name": "Approval",
      "type": "event"
    },
    {
      "anonymous": false,
      "inputs": [
        {
          "indexed": true,
          "internalType": "bytes3",
          "name": "ticker",
          "type": "bytes3"
        },
        {
          "indexed": true,
          "internalType": "address",
          "name": "old",
          "type": "address"
        },
        {
          "indexed": true,
          "internalType": "address",
          "name": "current",
          "type": "address"
        }
      ],
      "name": "Controller",
      "type": "event"
    },
    {
      "anonymous": false,
      "inputs": [
        {
          "indexed": true,
          "internalType": "address",
          "name": "previousOwner",
          "type": "address"
        }
      ],
      "name": "OwnershipRenounced",
      "type": "event"
    },
    {
      "anonymous": false,
      "inputs": [
        {
          "indexed": true,
          "internalType": "address",
          "name": "previousOwner",
          "type": "address"
        },
        {
          "indexed": true,
          "internalType": "address",
          "name": "newOwner",
          "type": "address"
        }
      ],
      "name": "OwnershipTransferred",
      "type": "event"
    },
    {
      "anonymous": false,
      "inputs": [
        {
          "indexed": true,
          "internalType": "bytes32",
          "name": "role",
          "type": "bytes32"
        },
        {
          "indexed": true,
          "internalType": "bytes32",
          "name": "previousAdminRole",
          "type": "bytes32"
        },
        {
          "indexed": true,
          "internalType": "bytes32",
          "name": "newAdminRole",
          "type": "bytes32"
        }
      ],
      "name": "RoleAdminChanged",
      "type": "event"
    },
    {
      "anonymous": false,
      "inputs": [
        {
          "indexed": true,
          "internalType": "bytes32",
          "name": "role",
          "type": "bytes32"
        },
        {
          "indexed": true,
          "internalType": "address",
          "name": "account",
          "type": "address"
        },
        {
          "indexed": true,
          "internalType": "address",
          "name": "sender",
          "type": "address"
        }
      ],
      "name": "RoleGranted",
      "type": "event"
    },
    {
      "anonymous": false,
      "inputs": [
        {
          "indexed": true,
          "internalType": "bytes32",
          "name": "role",
          "type": "bytes32"
        },
        {
          "indexed": true,
          "internalType": "address",
          "name": "account",
          "type": "address"
        },
        {
          "indexed": true,
          "internalType": "address",
          "name": "sender",
          "type": "address"
        }
      ],
      "name": "RoleRevoked",
      "type": "event"
    },
    {
      "anonymous": false,
      "inputs": [
        {
          "indexed": true,
          "internalType": "address",
          "name": "from",
          "type": "address"
        },
        {
          "indexed": true,
          "internalType": "address",
          "name": "to",
          "type": "address"
        },
        {
          "indexed": false,
          "internalType": "uint256",
          "name": "amount",
          "type": "uint256"
        },
        {
          "indexed": false,
          "internalType": "bytes",
          "name": "data",
          "type": "bytes"
        }
      ],
      "name": "Transfer",
      "type": "event"
    },
    {
      "anonymous": false,
      "inputs": [
        {
          "indexed": true,
          "internalType": "address",
          "name": "from",
          "type": "address"
        },
        {
          "indexed": true,
          "internalType": "address",
          "name": "to",
          "type": "address"
        },
        {
          "indexed": false,
          "internalType": "uint256",
          "name": "value",
          "type": "uint256"
        }
      ],
      "name": "Transfer",
      "type": "event"
    },
    {
      "stateMutability": "nonpayable",
      "type": "fallback"
    },
    {
      "inputs": [],
      "name": "DEFAULT_ADMIN_ROLE",
      "outputs": [
        {
          "internalType": "bytes32",
          "name": "",
          "type": "bytes32"
        }
      ],
      "stateMutability": "view",
      "type": "function",
      "constant": true
    },
    {
      "inputs": [],
      "name": "PREDICATE_ROLE",
      "outputs": [
        {
          "internalType": "bytes32",
          "name": "",
          "type": "bytes32"
        }
      ],
      "stateMutability": "view",
      "type": "function",
      "constant": true
    },
    {
      "inputs": [
        {
          "internalType": "address",
          "name": "owner",
          "type": "address"
        },
        {
          "internalType": "address",
          "name": "spender",
          "type": "address"
        }
      ],
      "name": "allowance",
      "outputs": [
        {
          "internalType": "uint256",
          "name": "",
          "type": "uint256"
        }
      ],
      "stateMutability": "view",
      "type": "function",
      "constant": true
    },
    {
      "inputs": [
        {
          "internalType": "address",
          "name": "spender",
          "type": "address"
        },
        {
          "internalType": "uint256",
          "name": "amount",
          "type": "uint256"
        }
      ],
      "name": "approve",
      "outputs": [
        {
          "internalType": "bool",
          "name": "ok",
          "type": "bool"
        }
      ],
      "stateMutability": "nonpayable",
      "type": "function"
    },
    {
      "inputs": [
        {
          "internalType": "address",
          "name": "who",
          "type": "address"
        }
      ],
      "name": "balanceOf",
      "outputs": [
        {
          "internalType": "uint256",
          "name": "",
          "type": "uint256"
        }
      ],
      "stateMutability": "view",
      "type": "function",
      "constant": true
    },
    {
      "inputs": [
        {
          "internalType": "address",
          "name": "from",
          "type": "address"
        },
        {
          "internalType": "uint256",
          "name": "amount",
          "type": "uint256"
        },
        {
          "internalType": "bytes32",
          "name": "h",
          "type": "bytes32"
        },
        {
          "internalType": "uint8",
          "name": "v",
          "type": "uint8"
        },
        {
          "internalType": "bytes32",
          "name": "r",
          "type": "bytes32"
        },
        {
          "internalType": "bytes32",
          "name": "s",
          "type": "bytes32"
        }
      ],
      "name": "burnFrom",
      "outputs": [
        {
          "internalType": "bool",
          "name": "ok",
          "type": "bool"
        }
      ],
      "stateMutability": "nonpayable",
      "type": "function"
    },
    {
      "inputs": [],
      "name": "claimOwnership",
      "outputs": [],
      "stateMutability": "nonpayable",
      "type": "function"
    },
    {
      "inputs": [],
      "name": "decimals",
      "outputs": [
        {
          "internalType": "uint256",
          "name": "",
          "type": "uint256"
        }
      ],
      "stateMutability": "view",
      "type": "function",
      "constant": true
    },
    {
      "inputs": [],
      "name": "getController",
      "outputs": [
        {
          "internalType": "address",
          "name": "",
          "type": "address"
        }
      ],
      "stateMutability": "view",
      "type": "function",
      "constant": true
    },
    {
      "inputs": [
        {
          "internalType": "bytes32",
          "name": "role",
          "type": "bytes32"
        }
      ],
      "name": "getRoleAdmin",
      "outputs": [
        {
          "internalType": "bytes32",
          "name": "",
          "type": "bytes32"
        }
      ],
      "stateMutability": "view",
      "type": "function",
      "constant": true
    },
    {
      "inputs": [
        {
          "internalType": "bytes32",
          "name": "role",
          "type": "bytes32"
        },
        {
          "internalType": "address",
          "name": "account",
          "type": "address"
        }
      ],
      "name": "grantRole",
      "outputs": [],
      "stateMutability": "nonpayable",
      "type": "function"
    },
    {
      "inputs": [
        {
          "internalType": "bytes32",
          "name": "role",
          "type": "bytes32"
        },
        {
          "internalType": "address",
          "name": "account",
          "type": "address"
        }
      ],
      "name": "hasRole",
      "outputs": [
        {
          "internalType": "bool",
          "name": "",
          "type": "bool"
        }
      ],
      "stateMutability": "view",
      "type": "function",
      "constant": true
    },
    {
      "inputs": [
        {
          "internalType": "address",
          "name": "to",
          "type": "address"
        },
        {
          "internalType": "uint256",
          "name": "amount",
          "type": "uint256"
        }
      ],
      "name": "mint",
      "outputs": [
        {
          "internalType": "bool",
          "name": "ok",
          "type": "bool"
        }
      ],
      "stateMutability": "nonpayable",
      "type": "function"
    },
    {
      "inputs": [
        {
          "internalType": "address",
          "name": "to",
          "type": "address"
        },
        {
          "internalType": "uint256",
          "name": "amount",
          "type": "uint256"
        }
      ],
      "name": "mintTo",
      "outputs": [
        {
          "internalType": "bool",
          "name": "ok",
          "type": "bool"
        }
      ],
      "stateMutability": "nonpayable",
      "type": "function"
    },
    {
      "inputs": [],
      "name": "name",
      "outputs": [
        {
          "internalType": "string",
          "name": "",
          "type": "string"
        }
      ],
      "stateMutability": "view",
      "type": "function",
      "constant": true
    },
    {
      "inputs": [],
      "name": "owner",
      "outputs": [
        {
          "internalType": "address",
          "name": "",
          "type": "address"
        }
      ],
      "stateMutability": "view",
      "type": "function",
      "constant": true
    },
    {
      "inputs": [],
      "name": "pendingOwner",
      "outputs": [
        {
          "internalType": "address",
          "name": "",
          "type": "address"
        }
      ],
      "stateMutability": "view",
      "type": "function",
      "constant": true
    },
    {
      "inputs": [
        {
          "internalType": "address",
          "name": "_contractAddr",
          "type": "address"
        }
      ],
      "name": "reclaimContract",
      "outputs": [],
      "stateMutability": "nonpayable",
      "type": "function"
    },
    {
      "inputs": [],
      "name": "reclaimEther",
      "outputs": [],
      "stateMutability": "nonpayable",
      "type": "function"
    },
    {
      "inputs": [
        {
          "internalType": "contract ERC20Basic",
          "name": "_token",
          "type": "address"
        }
      ],
      "name": "reclaimToken",
      "outputs": [],
      "stateMutability": "nonpayable",
      "type": "function"
    },
    {
      "inputs": [
        {
          "internalType": "address",
          "name": "from",
          "type": "address"
        },
        {
          "internalType": "address",
          "name": "to",
          "type": "address"
        },
        {
          "internalType": "bytes32",
          "name": "h",
          "type": "bytes32"
        },
        {
          "internalType": "uint8",
          "name": "v",
          "type": "uint8"
        },
        {
          "internalType": "bytes32",
          "name": "r",
          "type": "bytes32"
        },
        {
          "internalType": "bytes32",
          "name": "s",
          "type": "bytes32"
        }
      ],
      "name": "recover",
      "outputs": [
        {
          "internalType": "uint256",
          "name": "amount",
          "type": "uint256"
        }
      ],
      "stateMutability": "nonpayable",
      "type": "function"
    },
    {
      "inputs": [],
      "name": "renounceOwnership",
      "outputs": [],
      "stateMutability": "nonpayable",
      "type": "function"
    },
    {
      "inputs": [
        {
          "internalType": "bytes32",
          "name": "role",
          "type": "bytes32"
        },
        {
          "internalType": "address",
          "name": "account",
          "type": "address"
        }
      ],
      "name": "renounceRole",
      "outputs": [],
      "stateMutability": "nonpayable",
      "type": "function"
    },
    {
      "inputs": [
        {
          "internalType": "bytes32",
          "name": "role",
          "type": "bytes32"
        },
        {
          "internalType": "address",
          "name": "account",
          "type": "address"
        }
      ],
      "name": "revokeRole",
      "outputs": [],
      "stateMutability": "nonpayable",
      "type": "function"
    },
    {
      "inputs": [
        {
          "internalType": "address",
          "name": "address_",
          "type": "address"
        }
      ],
      "name": "setController",
      "outputs": [],
      "stateMutability": "nonpayable",
      "type": "function"
    },
    {
      "inputs": [
        {
          "internalType": "bytes4",
          "name": "interfaceId",
          "type": "bytes4"
        }
      ],
      "name": "supportsInterface",
      "outputs": [
        {
          "internalType": "bool",
          "name": "",
          "type": "bool"
        }
      ],
      "stateMutability": "view",
      "type": "function",
      "constant": true
    },
    {
      "inputs": [],
      "name": "symbol",
      "outputs": [
        {
          "internalType": "string",
          "name": "",
          "type": "string"
        }
      ],
      "stateMutability": "view",
      "type": "function",
      "constant": true
    },
    {
      "inputs": [],
      "name": "ticker",
      "outputs": [
        {
          "internalType": "bytes3",
          "name": "",
          "type": "bytes3"
        }
      ],
      "stateMutability": "view",
      "type": "function",
      "constant": true
    },
    {
      "inputs": [
        {
          "internalType": "address",
          "name": "_from",
          "type": "address"
        },
        {
          "internalType": "uint256",
          "name": "_value",
          "type": "uint256"
        },
        {
          "internalType": "bytes",
          "name": "_data",
          "type": "bytes"
        }
      ],
      "name": "tokenFallback",
      "outputs": [],
      "stateMutability": "pure",
      "type": "function",
      "constant": true
    },
    {
      "inputs": [],
      "name": "totalSupply",
      "outputs": [
        {
          "internalType": "uint256",
          "name": "",
          "type": "uint256"
        }
      ],
      "stateMutability": "view",
      "type": "function",
      "constant": true
    },
    {
      "inputs": [
        {
          "internalType": "address",
          "name": "to",
          "type": "address"
        },
        {
          "internalType": "uint256",
          "name": "amount",
          "type": "uint256"
        }
      ],
      "name": "transfer",
      "outputs": [
        {
          "internalType": "bool",
          "name": "ok",
          "type": "bool"
        }
      ],
      "stateMutability": "nonpayable",
      "type": "function"
    },
    {
      "inputs": [
        {
          "internalType": "address",
          "name": "to",
          "type": "address"
        },
        {
          "internalType": "uint256",
          "name": "amount",
          "type": "uint256"
        },
        {
          "internalType": "bytes",
          "name": "data",
          "type": "bytes"
        }
      ],
      "name": "transferAndCall",
      "outputs": [
        {
          "internalType": "bool",
          "name": "ok",
          "type": "bool"
        }
      ],
      "stateMutability": "nonpayable",
      "type": "function"
    },
    {
      "inputs": [
        {
          "internalType": "address",
          "name": "from",
          "type": "address"
        },
        {
          "internalType": "address",
          "name": "to",
          "type": "address"
        },
        {
          "internalType": "uint256",
          "name": "amount",
          "type": "uint256"
        }
      ],
      "name": "transferFrom",
      "outputs": [
        {
          "internalType": "bool",
          "name": "ok",
          "type": "bool"
        }
      ],
      "stateMutability": "nonpayable",
      "type": "function"
    },
    {
      "inputs": [
        {
          "internalType": "address",
          "name": "newOwner",
          "type": "address"
        }
      ],
      "name": "transferOwnership",
      "outputs": [],
      "stateMutability": "nonpayable",
      "type": "function"
    }
  ],
  "bytecode": "0x60806040523480156200001157600080fd5b50604080518082018252601381527f4d6f6e657269756d2045555220656d6f6e657900000000000000000000000000602080830191909152825180840190935260048352634555526560e01b90830152600080546001600160a01b03191633179055906222aaa960e91b34156200008757600080fd5b82516200009c9060049060208601906200018f565b508151620000b29060059060208501906200018f565b506006805462ffffff191660e883901c179055620000d2600033620000db565b50505062000272565b620000e78282620000eb565b5050565b60008281526002602090815260408083206001600160a01b038516845290915290205460ff16620000e75760008281526002602090815260408083206001600160a01b03851684529091529020805460ff191660011790556200014b3390565b6001600160a01b0316816001600160a01b0316837f2f8788117e7eff1d82e926ec794901d17c78024a50270940304540a733656f0d60405160405180910390a45050565b8280546200019d9062000235565b90600052602060002090601f016020900481019282620001c157600085556200020c565b82601f10620001dc57805160ff19168380011785556200020c565b828001600101855582156200020c579182015b828111156200020c578251825591602001919060010190620001ef565b506200021a9291506200021e565b5090565b5b808211156200021a57600081556001016200021f565b600181811c908216806200024a57607f821691505b602082108114156200026c57634e487b7160e01b600052602260045260246000fd5b50919050565b61205780620002826000396000f3fe608060405234801561001057600080fd5b506004361061020b5760003560e01c80636eb4c6091161011b5780639f727c27116100b4578063d547741f11610086578063e30c39781161006e578063e30c39781461048d578063e72db5fd146104a0578063f2fde38b146104c757005b8063d547741f14610467578063dd62ed3e1461047a57005b80639f727c2714610431578063a217fddf14610439578063a9059cbb14610441578063c0ee0b8a1461045457005b80638da5cb5b116100ed5780638da5cb5b146103ca57806391d14854146103dd57806392eefe9b1461041657806395d89b411461042957005b80636eb4c6091461037657806370a0823114610389578063715018a61461039c5780638ba47bdd146103a457005b80632f2ff15d116101a55780633823caec1161017757806340c10f191161015f57806340c10f1914610348578063449a52f81461035b5780634e71e0c81461036e57005b80633823caec146103225780634000aea01461033557005b80632f2ff15d146102cf5780633018205f146102e2578063313ce5671461030757806336568abe1461030f57005b806318160ddd116101de57806318160ddd1461027057806323b872dd14610286578063248a9ca3146102995780632aed7f3f146102bc57005b806301ffc9a71461020d57806306fdde0314610235578063095ea7b31461024a57806317ffc3201461025d575b005b61022061021b366004611acc565b6104da565b60405190151581526020015b60405180910390f35b61023d610573565b60405161022c9190611b3e565b610220610258366004611b86565b610601565b61020b61026b366004611bb2565b6106ed565b610278610790565b60405190815260200161022c565b610220610294366004611bcf565b61081c565b6102786102a7366004611c10565b60009081526002602052604090206001015490565b61020b6102ca366004611bb2565b610911565b61020b6102dd366004611c29565b6109a5565b6003546001600160a01b03165b6040516001600160a01b03909116815260200161022c565b6102786109d0565b61020b61031d366004611c29565b610a33565b610220610330366004611c6f565b610ac0565b610220610343366004611cc9565b610bcf565b610220610356366004611b86565b610d0a565b610220610369366004611b86565b610e19565b61020b610ef8565b610278610384366004611d52565b610f80565b610278610397366004611bb2565b61107d565b61020b6110ec565b6006546103b19060e81b81565b6040516001600160e81b0319909116815260200161022c565b6000546102ef906001600160a01b031681565b6102206103eb366004611c29565b60009182526002602090815260408084206001600160a01b0393909316845291905290205460ff1690565b61020b610424366004611bb2565b611158565b61023d611470565b61020b61147d565b610278600081565b61022061044f366004611b86565b6114ce565b61020b610462366004611cc9565b600080fd5b61020b610475366004611c29565b6115ac565b610278610488366004611d9b565b6115d2565b6001546102ef906001600160a01b031681565b6102787f12ff340d0cd9c652c747ca35727e68c547d0f0bfa7758d2e77f75acef481b4f281565b61020b6104d5366004611bb2565b611662565b60007fffffffff0000000000000000000000000000000000000000000000000000000082167f7965db0b00000000000000000000000000000000000000000000000000000000148061056d57507f01ffc9a7000000000000000000000000000000000000000000000000000000007fffffffff000000000000000000000000000000000000000000000000000000008316145b92915050565b6004805461058090611dc9565b80601f01602080910402602001604051908101604052809291908181526020018280546105ac90611dc9565b80156105f95780601f106105ce576101008083540402835291602001916105f9565b820191906000526020600020905b8154815290600101906020018083116105dc57829003601f168201915b505050505081565b6003546040517f774d54090000000000000000000000000000000000000000000000000000000081523360048201526001600160a01b03848116602483015260448201849052600092169063774d5409906064016020604051808303816000875af1158015610674573d6000803e3d6000fd5b505050506040513d601f19601f820116820180604052508101906106989190611e04565b9050826001600160a01b0316336001600160a01b03167f8c5be1e5ebec7d5bd14f71427d1e84f3dd0314c0f7b2291e5b200ac8c7c3b925846040516106df91815260200190565b60405180910390a392915050565b6000546001600160a01b0316331461070457600080fd5b6040516370a0823160e01b81523060048201526000906001600160a01b038316906370a0823190602401602060405180830381865afa15801561074b573d6000803e3d6000fd5b505050506040513d601f19601f8201168201806040525081019061076f9190611e26565b60005490915061078c906001600160a01b0384811691168361166b565b5050565b600354604080517f18160ddd00000000000000000000000000000000000000000000000000000000815290516000926001600160a01b0316916318160ddd9160048083019260209291908290030181865afa1580156107f3573d6000803e3d6000fd5b505050506040513d601f19601f820116820180604052508101906108179190611e26565b905090565b6003546040517fe974fee90000000000000000000000000000000000000000000000000000000081523360048201526001600160a01b038581166024830152848116604483015260648201849052600092169063e974fee9906084016020604051808303816000875af1158015610897573d6000803e3d6000fd5b505050506040513d601f19601f820116820180604052508101906108bb9190611e04565b9050826001600160a01b0316846001600160a01b03167fddf252ad1be2c89b69c2b068fc378daa952ba7f163c4a11628f55a4df523b3ef8460405161090291815260200190565b60405180910390a39392505050565b6000546001600160a01b0316331461092857600080fd5b6000546040517ff2fde38b0000000000000000000000000000000000000000000000000000000081526001600160a01b039182166004820152829182169063f2fde38b90602401600060405180830381600087803b15801561098957600080fd5b505af115801561099d573d6000803e3d6000fd5b505050505050565b6000828152600260205260409020600101546109c18133611700565b6109cb8383611780565b505050565b600354604080517f313ce56700000000000000000000000000000000000000000000000000000000815290516000926001600160a01b03169163313ce5679160048083019260209291908290030181865afa1580156107f3573d6000803e3d6000fd5b6001600160a01b0381163314610ab65760405162461bcd60e51b815260206004820152602f60248201527f416363657373436f6e74726f6c3a2063616e206f6e6c792072656e6f756e636560448201527f20726f6c657320666f722073656c66000000000000000000000000000000000060648201526084015b60405180910390fd5b61078c8282611822565b6003546040517f4eb007540000000000000000000000000000000000000000000000000000000081523360048201526001600160a01b038881166024830152604482018890526064820187905260ff8616608483015260a4820185905260c482018490526000921690634eb007549060e4016020604051808303816000875af1158015610b51573d6000803e3d6000fd5b505050506040513d601f19601f82011682018060405250810190610b759190611e04565b905060006001600160a01b0316876001600160a01b03167fddf252ad1be2c89b69c2b068fc378daa952ba7f163c4a11628f55a4df523b3ef88604051610bbd91815260200190565b60405180910390a39695505050505050565b6003546040517f9e7f43ca0000000000000000000000000000000000000000000000000000000081526000916001600160a01b031690639e7f43ca90610c219033908990899089908990600401611e68565b6020604051808303816000875af1158015610c40573d6000803e3d6000fd5b505050506040513d601f19601f82011682018060405250810190610c649190611e04565b9050846001600160a01b0316336001600160a01b03167fddf252ad1be2c89b69c2b068fc378daa952ba7f163c4a11628f55a4df523b3ef86604051610cab91815260200190565b60405180910390a3846001600160a01b0316336001600160a01b03167fe19260aff97b920c7df27010903aeb9c8d2be5d310a2c67824cf3f15396e4c16868686604051610cfa93929190611ea6565b60405180910390a3949350505050565b3360009081527f01fe8a47b306d7a52efb17b73cdfe0b3311b7856a8f6b264a0f03659201b1e9e602052604081205460ff16610d885760405162461bcd60e51b815260206004820152601760248201527f63616c6c6572206973206e6f74205052454449434154450000000000000000006044820152606401610aad565b6040517f449a52f80000000000000000000000000000000000000000000000000000000081526001600160a01b038416600482015260248101839052309063449a52f8906044016020604051808303816000875af1158015610dee573d6000803e3d6000fd5b505050506040513d601f19601f82011682018060405250810190610e129190611e04565b9392505050565b6003546040517f322ec0fb0000000000000000000000000000000000000000000000000000000081523360048201526001600160a01b03848116602483015260448201849052600092169063322ec0fb906064016020604051808303816000875af1158015610e8c573d6000803e3d6000fd5b505050506040513d601f19601f82011682018060405250810190610eb09190611e04565b9050826001600160a01b031660006001600160a01b03167fddf252ad1be2c89b69c2b068fc378daa952ba7f163c4a11628f55a4df523b3ef846040516106df91815260200190565b6001546001600160a01b03163314610f0f57600080fd5b600154600080546040516001600160a01b0393841693909116917f8be0079c531659141344cd1fd0a4f28419497f9722a3daafe3b4186f6b6457e091a3600180546000805473ffffffffffffffffffffffffffffffffffffffff199081166001600160a01b03841617909155169055565b6003546040517f3cd1570f0000000000000000000000000000000000000000000000000000000081523360048201526001600160a01b03888116602483015287811660448301526064820187905260ff8616608483015260a4820185905260c482018490526000921690633cd1570f9060e4016020604051808303816000875af1158015611012573d6000803e3d6000fd5b505050506040513d601f19601f820116820180604052508101906110369190611e26565b9050856001600160a01b0316876001600160a01b03167fddf252ad1be2c89b69c2b068fc378daa952ba7f163c4a11628f55a4df523b3ef83604051610bbd91815260200190565b6003546040516370a0823160e01b81526001600160a01b03838116600483015260009216906370a0823190602401602060405180830381865afa1580156110c8573d6000803e3d6000fd5b505050506040513d601f19601f8201168201806040525081019061056d9190611e26565b6000546001600160a01b0316331461110357600080fd5b600080546040516001600160a01b03909116917ff8df31144d9c2f0f6b59d69b8b98abd5459d07f2742c4df920b25aae33c6482091a26000805473ffffffffffffffffffffffffffffffffffffffff19169055565b6000546001600160a01b0316331461116f57600080fd5b6001600160a01b0381166111eb5760405162461bcd60e51b815260206004820152602d60248201527f636f6e74726f6c6c657220616464726573732063616e6e6f742062652074686560448201527f206e756c6c2061646472657373000000000000000000000000000000000000006064820152608401610aad565b6003546006546040516001600160a01b0384811693169160e81b6001600160e81b031916907f2ce3a3a1c097de2b147145a1e6f236b569e75e7310e3b0b436d5dea8f60e35dc90600090a46003805473ffffffffffffffffffffffffffffffffffffffff19166001600160a01b038316908117909155604080517e3074ff0000000000000000000000000000000000000000000000000000000081529051309291623074ff9160048083019260209291908290030181865afa1580156112b5573d6000803e3d6000fd5b505050506040513d601f19601f820116820180604052508101906112d99190611ec9565b6001600160a01b0316146113555760405162461bcd60e51b815260206004820152602760248201527f636f6e74726f6c6c65722066726f6e74656e6420646f6573206e6f7420706f6960448201527f6e74206261636b000000000000000000000000000000000000000000000000006064820152608401610aad565b600654600354604080517f8ba47bdd000000000000000000000000000000000000000000000000000000008152905160e89390931b6001600160e81b031916926001600160a01b0390921691638ba47bdd916004808201926020929091908290030181865afa1580156113cc573d6000803e3d6000fd5b505050506040513d601f19601f820116820180604052508101906113f09190611ee6565b6001600160e81b0319161461146d5760405162461bcd60e51b815260206004820152602760248201527f7469636b657220646f6573206e6f74206d6174636820636f6e74726f6c6c657260448201527f207469636b6574000000000000000000000000000000000000000000000000006064820152608401610aad565b50565b6005805461058090611dc9565b6000546001600160a01b0316331461149457600080fd5b600080546040516001600160a01b03909116914780156108fc02929091818181858888f1935050505015801561146d573d6000803e3d6000fd5b6003546040517fe174fd940000000000000000000000000000000000000000000000000000000081523360048201526001600160a01b03848116602483015260448201849052600092169063e174fd94906064016020604051808303816000875af1158015611541573d6000803e3d6000fd5b505050506040513d601f19601f820116820180604052508101906115659190611e04565b9050826001600160a01b0316336001600160a01b03167fddf252ad1be2c89b69c2b068fc378daa952ba7f163c4a11628f55a4df523b3ef846040516106df91815260200190565b6000828152600260205260409020600101546115c88133611700565b6109cb8383611822565b6003546040517fdd62ed3e0000000000000000000000000000000000000000000000000000000081526001600160a01b0384811660048301528381166024830152600092169063dd62ed3e90604401602060405180830381865afa15801561163e573d6000803e3d6000fd5b505050506040513d601f19601f82011682018060405250810190610e129190611e26565b61146d816118a5565b6040517fa9059cbb0000000000000000000000000000000000000000000000000000000081526001600160a01b0383811660048301526024820183905284169063a9059cbb906044016020604051808303816000875af11580156116d3573d6000803e3d6000fd5b505050506040513d601f19601f820116820180604052508101906116f79190611e04565b6109cb57600080fd5b60008281526002602090815260408083206001600160a01b038516845290915290205460ff1661078c5761173e816001600160a01b031660146118eb565b6117498360206118eb565b60405160200161175a929190611f10565b60408051601f198184030181529082905262461bcd60e51b8252610aad91600401611b3e565b60008281526002602090815260408083206001600160a01b038516845290915290205460ff1661078c5760008281526002602090815260408083206001600160a01b03851684529091529020805460ff191660011790556117de3390565b6001600160a01b0316816001600160a01b0316837f2f8788117e7eff1d82e926ec794901d17c78024a50270940304540a733656f0d60405160405180910390a45050565b60008281526002602090815260408083206001600160a01b038516845290915290205460ff161561078c5760008281526002602090815260408083206001600160a01b0385168085529252808320805460ff1916905551339285917ff6391f5c32d9c69d2a47ea670b442974b53935d1edc7fd64eb21e047a839171b9190a45050565b6000546001600160a01b031633146118bc57600080fd5b6001805473ffffffffffffffffffffffffffffffffffffffff19166001600160a01b0392909216919091179055565b606060006118fa836002611fa7565b611905906002611fc6565b67ffffffffffffffff81111561191d5761191d611fde565b6040519080825280601f01601f191660200182016040528015611947576020820181803683370190505b5090507f30000000000000000000000000000000000000000000000000000000000000008160008151811061197e5761197e611ff4565b60200101906001600160f81b031916908160001a9053507f7800000000000000000000000000000000000000000000000000000000000000816001815181106119c9576119c9611ff4565b60200101906001600160f81b031916908160001a90535060006119ed846002611fa7565b6119f8906001611fc6565b90505b6001811115611a7d577f303132333435363738396162636465660000000000000000000000000000000085600f1660108110611a3957611a39611ff4565b1a60f81b828281518110611a4f57611a4f611ff4565b60200101906001600160f81b031916908160001a90535060049490941c93611a768161200a565b90506119fb565b508315610e125760405162461bcd60e51b815260206004820181905260248201527f537472696e67733a20686578206c656e67746820696e73756666696369656e746044820152606401610aad565b600060208284031215611ade57600080fd5b81357fffffffff0000000000000000000000000000000000000000000000000000000081168114610e1257600080fd5b60005b83811015611b29578181015183820152602001611b11565b83811115611b38576000848401525b50505050565b6020815260008251806020840152611b5d816040850160208701611b0e565b601f01601f19169190910160400192915050565b6001600160a01b038116811461146d57600080fd5b60008060408385031215611b9957600080fd5b8235611ba481611b71565b946020939093013593505050565b600060208284031215611bc457600080fd5b8135610e1281611b71565b600080600060608486031215611be457600080fd5b8335611bef81611b71565b92506020840135611bff81611b71565b929592945050506040919091013590565b600060208284031215611c2257600080fd5b5035919050565b60008060408385031215611c3c57600080fd5b823591506020830135611c4e81611b71565b809150509250929050565b803560ff81168114611c6a57600080fd5b919050565b60008060008060008060c08789031215611c8857600080fd5b8635611c9381611b71565b95506020870135945060408701359350611caf60608801611c59565b92506080870135915060a087013590509295509295509295565b60008060008060608587031215611cdf57600080fd5b8435611cea81611b71565b935060208501359250604085013567ffffffffffffffff80821115611d0e57600080fd5b818701915087601f830112611d2257600080fd5b813581811115611d3157600080fd5b886020828501011115611d4357600080fd5b95989497505060200194505050565b60008060008060008060c08789031215611d6b57600080fd5b8635611d7681611b71565b95506020870135611d8681611b71565b945060408701359350611caf60608801611c59565b60008060408385031215611dae57600080fd5b8235611db981611b71565b91506020830135611c4e81611b71565b600181811c90821680611ddd57607f821691505b60208210811415611dfe57634e487b7160e01b600052602260045260246000fd5b50919050565b600060208284031215611e1657600080fd5b81518015158114610e1257600080fd5b600060208284031215611e3857600080fd5b5051919050565b81835281816020850137506000828201602090810191909152601f909101601f19169091010190565b60006001600160a01b03808816835280871660208401525084604083015260806060830152611e9b608083018486611e3f565b979650505050505050565b838152604060208201526000611ec0604083018486611e3f565b95945050505050565b600060208284031215611edb57600080fd5b8151610e1281611b71565b600060208284031215611ef857600080fd5b81516001600160e81b031981168114610e1257600080fd5b7f416363657373436f6e74726f6c3a206163636f756e7420000000000000000000815260008351611f48816017850160208801611b0e565b7f206973206d697373696e6720726f6c65200000000000000000000000000000006017918401918201528351611f85816028840160208801611b0e565b01602801949350505050565b634e487b7160e01b600052601160045260246000fd5b6000816000190483118215151615611fc157611fc1611f91565b500290565b60008219821115611fd957611fd9611f91565b500190565b634e487b7160e01b600052604160045260246000fd5b634e487b7160e01b600052603260045260246000fd5b60008161201957612019611f91565b50600019019056fea2646970667358221220f32be5ddedcbdc7cf7818ded69af00bc765ab2898b24892d8164fe91f562286264736f6c634300080b0033",
  "immutableReferences": {},
  "source": "/* SPDX-License-Identifier: apache-2.0 */\n/**\n * Copyright 2019 Monerium ehf.\n *\n * Licensed under the Apache License, Version 2.0 (the \"License\");\n * you may not use this file except in compliance with the License.\n * You may obtain a copy of the License at\n *\n *     http://www.apache.org/licenses/LICENSE-2.0\n *\n * Unless required by applicable law or agreed to in writing, software\n * distributed under the License is distributed on an \"AS IS\" BASIS,\n * WITHOUT WARRANTIES OR CONDITIONS OF ANY KIND, either express or implied.\n * See the License for the specific language governing permissions and\n * limitations under the License.\n */\n\npragma solidity 0.8.11;\n\nimport \"./TokenFrontend.sol\";\n\ncontract EUR is TokenFrontend {\n\n    constructor()\n        TokenFrontend(\"Monerium EUR emoney\", \"EURe\", \"EUR\")\n    { }\n\n}\n",
  "sourcePath": "/Users/kristen/work/monerium/smart-contracts-private/contracts/EUR.sol",
  "compiler": {
    "name": "solc",
    "version": "0.8.11+commit.d7f03943.Emscripten.clang"
  },
  "schemaVersion": "3.4.4",
  "updatedAt": "2022-04-28T12:25:53.847Z",
  "networkType": "ethereum",
  "devdoc": {
    "kind": "dev",
    "methods": {
      "allowance(address,address)": {
        "details": "Returns the allowance for a spender",
        "params": {
          "owner": "The address of the owner of the tokens.",
          "spender": "The address of the spender."
        },
        "returns": {
          "_0": "Number of tokens the spender is allowed to spend."
        }
      },
      "approve(address,uint256)": {
        "details": "Approves a spender [ERC20]. Note that using the approve/transferFrom presents a possible security vulnerability described in: https://docs.google.com/document/d/1YLPtQxZu1UAvO9cZ1O2RPXBbT0mooh4DYKjA_jp-RLM/edit#heading=h.quou09mcbpzw Use transferAndCall to mitigate.",
        "params": {
          "amount": "The allowance of the spender.",
          "spender": "The address of the future spender."
        }
      },
      "balanceOf(address)": {
        "details": "Returns the number tokens associated with an address.",
        "params": {
          "who": "Address to lookup."
        },
        "returns": {
          "_0": "Balance of address."
        }
      },
      "burnFrom(address,uint256,bytes32,uint8,bytes32,bytes32)": {
        "details": "Burns tokens from token owner. This removfes the burned tokens from circulation.",
        "params": {
          "amount": "Number of tokens to burn.",
          "from": "Address of the token owner.",
          "h": "Hash which the token owner signed.",
          "r": "Signature component.",
          "s": "Sigature component.",
          "v": "Signature component."
        }
      },
      "claimOwnership()": {
        "details": "Allows the pendingOwner address to finalize the transfer."
      },
      "decimals()": {
        "details": "Returns the number of decimals in one token.",
        "returns": {
          "_0": "Number of decimals."
        }
      },
      "getController()": {
        "details": "Gets the current controller.",
        "returns": {
          "_0": "Address of the controller."
        }
      },
      "getRoleAdmin(bytes32)": {
        "details": "Returns the admin role that controls `role`. See {grantRole} and {revokeRole}. To change a role's admin, use {_setRoleAdmin}."
      },
      "grantRole(bytes32,address)": {
        "details": "Grants `role` to `account`. If `account` had not been already granted `role`, emits a {RoleGranted} event. Requirements: - the caller must have ``role``'s admin role."
      },
      "hasRole(bytes32,address)": {
        "details": "Returns `true` if `account` has been granted `role`."
      },
      "mint(address,uint256)": {
        "details": "Should be callable only by Matic's Predicate contract. Should handle deposit by minting the required amount for user.",
        "params": {
          "amount": "Number of tokens to mint.",
          "to": "Address to credit the tokens."
        }
      },
      "mintTo(address,uint256)": {
        "details": "Mints new tokens.",
        "params": {
          "amount": "Number of tokens to mint.",
          "to": "Address to credit the tokens."
        }
      },
      "reclaimContract(address)": {
        "details": "Reclaim ownership of Ownable contracts",
        "params": {
          "_contractAddr": "The address of the Ownable to be reclaimed."
        }
      },
      "reclaimEther()": {
        "details": "Transfer all Ether held by the contract to the owner."
      },
      "reclaimToken(address)": {
        "details": "Reclaim all ERC20Basic compatible tokens",
        "params": {
          "_token": "ERC20Basic The address of the token contract"
        }
      },
      "recover(address,address,bytes32,uint8,bytes32,bytes32)": {
        "details": "Recovers tokens from an address and reissues them to another address. In case a user loses its private key the tokens can be recovered by burning the tokens from that address and reissuing to a new address. To recover tokens the contract owner needs to provide a signature proving that the token owner has authorized the owner to do so.",
        "params": {
          "from": "Address to burn tokens from.",
          "h": "Hash which the token owner signed.",
          "r": "Signature component.",
          "s": "Sigature component.",
          "to": "Address to mint tokens to.",
          "v": "Signature component."
        },
        "returns": {
          "amount": "Amount recovered."
        }
      },
      "renounceOwnership()": {
        "details": "Allows the current owner to relinquish control of the contract."
      },
      "renounceRole(bytes32,address)": {
        "details": "Revokes `role` from the calling account. Roles are often managed via {grantRole} and {revokeRole}: this function's purpose is to provide a mechanism for accounts to lose their privileges if they are compromised (such as when a trusted device is misplaced). If the calling account had been revoked `role`, emits a {RoleRevoked} event. Requirements: - the caller must be `account`."
      },
      "revokeRole(bytes32,address)": {
        "details": "Revokes `role` from `account`. If `account` had been granted `role`, emits a {RoleRevoked} event. Requirements: - the caller must have ``role``'s admin role."
      },
      "setController(address)": {
        "details": "Sets a new controller.",
        "params": {
          "address_": "Address of the controller."
        }
      },
      "supportsInterface(bytes4)": {
        "details": "See {IERC165-supportsInterface}."
      },
      "tokenFallback(address,uint256,bytes)": {
        "details": "Reject all ERC223 compatible tokens",
        "params": {
          "_data": "Bytes The data passed from the caller.",
          "_from": "address The address that is transferring the tokens",
          "_value": "uint256 the amount of the specified token"
        }
      },
      "totalSupply()": {
        "details": "Returns the total supply.",
        "returns": {
          "_0": "Number of tokens."
        }
      },
      "transfer(address,uint256)": {
        "details": "Transfers tokens [ERC20].",
        "params": {
          "amount": "Number of tokens to transfer.",
          "to": "Recipient address."
        }
      },
      "transferAndCall(address,uint256,bytes)": {
        "details": "Transfers tokens and subsequently calls a method on the recipient [ERC677]. If the recipient is a non-contract address this method behaves just like transfer.",
        "params": {
          "amount": "Number of tokens to transfer.",
          "data": "Additional data passed to the recipient's tokenFallback method.",
          "to": "Recipient address."
        }
      },
      "transferFrom(address,address,uint256)": {
        "details": "Transfers tokens from a specific address [ERC20]. The address owner has to approve the spender beforehand.",
        "params": {
          "amount": "Number of tokens to transfer.",
          "from": "Address to debet the tokens from.",
          "to": "Recipient address."
        }
      },
      "transferOwnership(address)": {
        "details": "Explicit override of transferOwnership from Claimable and Ownable",
        "params": {
          "newOwner": "Address to transfer ownership to."
        }
      }
    },
    "version": 1
  },
  "userdoc": {
    "kind": "user",
    "methods": {
      "mint(address,uint256)": {
        "notice": "Polygon Bridge Mechanism. Called when token is withdrawn from child chain."
      },
      "renounceOwnership()": {
        "notice": "Renouncing to ownership will leave the contract without an owner. It will not be possible to call the functions with the `onlyOwner` modifier anymore."
      }
    },
    "version": 1
  }
}