{
  "contractName": "HasNoTokens",
  "abi": [
    {
      "anonymous": false,
      "inputs": [
        {
          "indexed": true,
          "internalType": "address",
          "name": "previousOwner",
          "type": "address"
        }
      ],
      "name": "OwnershipRenounced",
      "type": "event"
    },
    {
      "anonymous": false,
      "inputs": [
        {
          "indexed": true,
          "internalType": "address",
          "name": "previousOwner",
          "type": "address"
        },
        {
          "indexed": true,
          "internalType": "address",
          "name": "newOwner",
          "type": "address"
        }
      ],
      "name": "OwnershipTransferred",
      "type": "event"
    },
    {
      "inputs": [],
      "name": "owner",
      "outputs": [
        {
          "internalType": "address",
          "name": "",
          "type": "address"
        }
      ],
      "stateMutability": "view",
      "type": "function"
    },
    {
      "inputs": [
        {
          "internalType": "contract ERC20Basic",
          "name": "_token",
          "type": "address"
        }
      ],
      "name": "reclaimToken",
      "outputs": [],
      "stateMutability": "nonpayable",
      "type": "function"
    },
    {
      "inputs": [],
      "name": "renounceOwnership",
      "outputs": [],
      "stateMutability": "nonpayable",
      "type": "function"
    },
    {
      "inputs": [
        {
          "internalType": "address",
          "name": "_newOwner",
          "type": "address"
        }
      ],
      "name": "transferOwnership",
      "outputs": [],
      "stateMutability": "nonpayable",
      "type": "function"
    },
    {
      "inputs": [
        {
          "internalType": "address",
          "name": "_from",
          "type": "address"
        },
        {
          "internalType": "uint256",
          "name": "_value",
          "type": "uint256"
        },
        {
          "internalType": "bytes",
          "name": "_data",
          "type": "bytes"
        }
      ],
      "name": "tokenFallback",
      "outputs": [],
      "stateMutability": "pure",
      "type": "function"
    }
  ],
  "bytecode": "0x608060405234801561001057600080fd5b50600080546001600160a01b0319163317905561046c806100326000396000f3fe608060405234801561001057600080fd5b50600436106100675760003560e01c80638da5cb5b116100505780638da5cb5b14610089578063c0ee0b8a146100b8578063f2fde38b146100c657600080fd5b806317ffc3201461006c578063715018a614610081575b600080fd5b61007f61007a36600461034e565b6100d9565b005b61007f610195565b60005461009c906001600160a01b031681565b6040516001600160a01b03909116815260200160405180910390f35b61007f610067366004610372565b61007f6100d436600461034e565b610201565b6000546001600160a01b031633146100f057600080fd5b6040517f70a082310000000000000000000000000000000000000000000000000000000081523060048201526000906001600160a01b038316906370a0823190602401602060405180830381865afa158015610150573d6000803e3d6000fd5b505050506040513d601f19601f8201168201806040525081019061017491906103fb565b600054909150610191906001600160a01b03848116911683610224565b5050565b6000546001600160a01b031633146101ac57600080fd5b600080546040516001600160a01b03909116917ff8df31144d9c2f0f6b59d69b8b98abd5459d07f2742c4df920b25aae33c6482091a26000805473ffffffffffffffffffffffffffffffffffffffff19169055565b6000546001600160a01b0316331461021857600080fd5b610221816102be565b50565b6040517fa9059cbb0000000000000000000000000000000000000000000000000000000081526001600160a01b0383811660048301526024820183905284169063a9059cbb906044016020604051808303816000875af115801561028c573d6000803e3d6000fd5b505050506040513d601f19601f820116820180604052508101906102b09190610414565b6102b957600080fd5b505050565b6001600160a01b0381166102d157600080fd5b600080546040516001600160a01b03808516939216917f8be0079c531659141344cd1fd0a4f28419497f9722a3daafe3b4186f6b6457e091a36000805473ffffffffffffffffffffffffffffffffffffffff19166001600160a01b0392909216919091179055565b6001600160a01b038116811461022157600080fd5b60006020828403121561036057600080fd5b813561036b81610339565b9392505050565b6000806000806060858703121561038857600080fd5b843561039381610339565b935060208501359250604085013567ffffffffffffffff808211156103b757600080fd5b818701915087601f8301126103cb57600080fd5b8135818111156103da57600080fd5b8860208285010111156103ec57600080fd5b95989497505060200194505050565b60006020828403121561040d57600080fd5b5051919050565b60006020828403121561042657600080fd5b8151801515811461036b57600080fdfea264697066735822122048a3af69f0bb2d2f6b71d5d21393daa248aeacae5841726565588b4a6c7ad4fb64736f6c634300080b0033",
  "immutableReferences": {},
  "source": "// SPDX-License-Identifier: MIT\npragma solidity ^0.8.0;\n\nimport \"./CanReclaimToken.sol\";\n\n/**\n * @title Contracts that should not own Tokens\n * @author Remco Bloemen <remco@2.com>\n * @dev This blocks incoming ERC223 tokens to prevent accidental loss of tokens.\n * Should tokens (any ERC20Basic compatible) end up in the contract, it allows the\n * owner to reclaim the tokens.\n */\ncontract HasNoTokens is CanReclaimToken {\n\n /**\n  * @dev Reject all ERC223 compatible tokens\n  * @param _from address The address that is transferring the tokens\n  * @param _value uint256 the amount of the specified token\n  * @param _data Bytes The data passed from the caller.\n  */\n  function tokenFallback(\n    address _from,\n    uint256 _value,\n    bytes calldata _data\n  )\n    external\n    pure\n  {\n    _from;\n    _value;\n    _data;\n    revert();\n  }\n\n}\n",
  "sourcePath": "/Users/gislik/Code/smart-contracts-private/contracts/ownership/HasNoTokens.sol",
  "compiler": {
    "name": "solc",
    "version": "0.8.11+commit.d7f03943.Emscripten.clang"
  },
  "schemaVersion": "3.4.6",
  "updatedAt": "2022-11-15T22:20:58.311Z",
  "devdoc": {
    "author": "Remco Bloemen <remco@2.com>",
    "details": "This blocks incoming ERC223 tokens to prevent accidental loss of tokens. Should tokens (any ERC20Basic compatible) end up in the contract, it allows the owner to reclaim the tokens.",
    "kind": "dev",
    "methods": {
      "reclaimToken(address)": {
        "details": "Reclaim all ERC20Basic compatible tokens",
        "params": {
          "_token": "ERC20Basic The address of the token contract"
        }
      },
      "renounceOwnership()": {
        "details": "Allows the current owner to relinquish control of the contract."
      },
      "tokenFallback(address,uint256,bytes)": {
        "details": "Reject all ERC223 compatible tokens",
        "params": {
          "_data": "Bytes The data passed from the caller.",
          "_from": "address The address that is transferring the tokens",
          "_value": "uint256 the amount of the specified token"
        }
      },
      "transferOwnership(address)": {
        "details": "Allows the current owner to transfer control of the contract to a newOwner.",
        "params": {
          "_newOwner": "The address to transfer ownership to."
        }
      }
    },
    "title": "Contracts that should not own Tokens",
    "version": 1
  },
  "userdoc": {
    "kind": "user",
    "methods": {
      "renounceOwnership()": {
        "notice": "Renouncing to ownership will leave the contract without an owner. It will not be possible to call the functions with the `onlyOwner` modifier anymore."
      }
    },
    "version": 1
  }
}