{
  "contractName": "HasNoContracts",
  "abi": [
    {
      "constant": false,
      "inputs": [],
      "name": "renounceOwnership",
      "outputs": [],
      "payable": false,
      "stateMutability": "nonpayable",
      "type": "function"
    },
    {
      "constant": true,
      "inputs": [],
      "name": "owner",
      "outputs": [
        {
          "name": "",
          "type": "address"
        }
      ],
      "payable": false,
      "stateMutability": "view",
      "type": "function"
    },
    {
      "constant": false,
      "inputs": [
        {
          "name": "_newOwner",
          "type": "address"
        }
      ],
      "name": "transferOwnership",
      "outputs": [],
      "payable": false,
      "stateMutability": "nonpayable",
      "type": "function"
    },
    {
      "anonymous": false,
      "inputs": [
        {
          "indexed": true,
          "name": "previousOwner",
          "type": "address"
        }
      ],
      "name": "OwnershipRenounced",
      "type": "event"
    },
    {
      "anonymous": false,
      "inputs": [
        {
          "indexed": true,
          "name": "previousOwner",
          "type": "address"
        },
        {
          "indexed": true,
          "name": "newOwner",
          "type": "address"
        }
      ],
      "name": "OwnershipTransferred",
      "type": "event"
    },
    {
      "constant": false,
      "inputs": [
        {
          "name": "_contractAddr",
          "type": "address"
        }
      ],
      "name": "reclaimContract",
      "outputs": [],
      "payable": false,
      "stateMutability": "nonpayable",
      "type": "function"
    }
  ],
  "bytecode": "0x608060405260008054600160a060020a0319163317905561036d806100256000396000f3006080604052600436106100615763ffffffff7c01000000000000000000000000000000000000000000000000000000006000350416632aed7f3f8114610066578063715018a6146100965780638da5cb5b146100ab578063f2fde38b146100e9575b600080fd5b34801561007257600080fd5b5061009473ffffffffffffffffffffffffffffffffffffffff60043516610117565b005b3480156100a257600080fd5b506100946101cb565b3480156100b757600080fd5b506100c0610251565b6040805173ffffffffffffffffffffffffffffffffffffffff9092168252519081900360200190f35b3480156100f557600080fd5b5061009473ffffffffffffffffffffffffffffffffffffffff6004351661026d565b6000805473ffffffffffffffffffffffffffffffffffffffff16331461013c57600080fd5b5060008054604080517ff2fde38b00000000000000000000000000000000000000000000000000000000815273ffffffffffffffffffffffffffffffffffffffff9283166004820152905184939284169263f2fde38b926024808201939182900301818387803b1580156101af57600080fd5b505af11580156101c3573d6000803e3d6000fd5b505050505050565b60005473ffffffffffffffffffffffffffffffffffffffff1633146101ef57600080fd5b6000805460405173ffffffffffffffffffffffffffffffffffffffff909116917ff8df31144d9c2f0f6b59d69b8b98abd5459d07f2742c4df920b25aae33c6482091a26000805473ffffffffffffffffffffffffffffffffffffffff19169055565b60005473ffffffffffffffffffffffffffffffffffffffff1681565b60005473ffffffffffffffffffffffffffffffffffffffff16331461029157600080fd5b61029a8161029d565b50565b73ffffffffffffffffffffffffffffffffffffffff811615156102bf57600080fd5b6000805460405173ffffffffffffffffffffffffffffffffffffffff808516939216917f8be0079c531659141344cd1fd0a4f28419497f9722a3daafe3b4186f6b6457e091a36000805473ffffffffffffffffffffffffffffffffffffffff191673ffffffffffffffffffffffffffffffffffffffff929092169190911790555600a165627a7a72305820c714725b1a33a258ae0b73f51d297c00777bd957a5e746b07585e2e1e1214af30029",
  "immutableReferences": {},
  "source": "pragma solidity ^0.4.24;\n\nimport \"./Ownable.sol\";\n\n\n/**\n * @title Contracts that should not own Contracts\n * @author Remco Bloemen <remco@2π.com>\n * @dev Should contracts (anything Ownable) end up being owned by this contract, it allows the owner\n * of this contract to reclaim ownership of the contracts.\n */\ncontract HasNoContracts is Ownable {\n\n  /**\n   * @dev Reclaim ownership of Ownable contracts\n   * @param _contractAddr The address of the Ownable to be reclaimed.\n   */\n  function reclaimContract(address _contractAddr) external onlyOwner {\n    Ownable contractInst = Ownable(_contractAddr);\n    contractInst.transferOwnership(owner);\n  }\n}\n",
  "sourcePath": "openzeppelin-solidity/contracts/ownership/HasNoContracts.sol",
  "compiler": {
    "name": "solc",
    "version": "0.4.24+commit.e67f0147.Emscripten.clang"
  },
  "schemaVersion": "2.0.1",
  "updatedAt": "2020-01-08T13:39:11.481Z",
  "devdoc": {
    "author": "Remco Bloemen <remco@2π.com>",
    "details": "Should contracts (anything Ownable) end up being owned by this contract, it allows the owner of this contract to reclaim ownership of the contracts.",
    "kind": "dev",
    "methods": {
      "reclaimContract(address)": {
        "details": "Reclaim ownership of Ownable contracts",
        "params": {
          "_contractAddr": "The address of the Ownable to be reclaimed."
        }
      },
      "renounceOwnership()": {
        "details": "Allows the current owner to relinquish control of the contract."
      },
      "transferOwnership(address)": {
        "details": "Allows the current owner to transfer control of the contract to a newOwner.",
        "params": {
          "_newOwner": "The address to transfer ownership to."
        }
      }
    },
    "title": "Contracts that should not own Contracts",
    "version": 1
  },
  "userdoc": {
    "kind": "user",
    "methods": {
      "renounceOwnership()": {
        "notice": "Renouncing to ownership will leave the contract without an owner. It will not be possible to call the functions with the `onlyOwner` modifier anymore."
      }
    },
    "version": 1
  }
}