{
  "contractName": "HasNoTokens",
  "abi": [
    {
      "constant": false,
      "inputs": [
        {
          "name": "_token",
          "type": "address"
        }
      ],
      "name": "reclaimToken",
      "outputs": [],
      "payable": false,
      "stateMutability": "nonpayable",
      "type": "function"
    },
    {
      "constant": false,
      "inputs": [],
      "name": "renounceOwnership",
      "outputs": [],
      "payable": false,
      "stateMutability": "nonpayable",
      "type": "function"
    },
    {
      "constant": true,
      "inputs": [],
      "name": "owner",
      "outputs": [
        {
          "name": "",
          "type": "address"
        }
      ],
      "payable": false,
      "stateMutability": "view",
      "type": "function"
    },
    {
      "constant": false,
      "inputs": [
        {
          "name": "_newOwner",
          "type": "address"
        }
      ],
      "name": "transferOwnership",
      "outputs": [],
      "payable": false,
      "stateMutability": "nonpayable",
      "type": "function"
    },
    {
      "anonymous": false,
      "inputs": [
        {
          "indexed": true,
          "name": "previousOwner",
          "type": "address"
        }
      ],
      "name": "OwnershipRenounced",
      "type": "event"
    },
    {
      "anonymous": false,
      "inputs": [
        {
          "indexed": true,
          "name": "previousOwner",
          "type": "address"
        },
        {
          "indexed": true,
          "name": "newOwner",
          "type": "address"
        }
      ],
      "name": "OwnershipTransferred",
      "type": "event"
    },
    {
      "constant": true,
      "inputs": [
        {
          "name": "_from",
          "type": "address"
        },
        {
          "name": "_value",
          "type": "uint256"
        },
        {
          "name": "_data",
          "type": "bytes"
        }
      ],
      "name": "tokenFallback",
      "outputs": [],
      "payable": false,
      "stateMutability": "pure",
      "type": "function"
    }
  ],
  "bytecode": "0x608060405260008054600160a060020a031916331790556104d4806100256000396000f30060806040526004361061006c5763ffffffff7c010000000000000000000000000000000000000000000000000000000060003504166317ffc3208114610071578063715018a6146100a15780638da5cb5b146100b6578063c0ee0b8a146100f4578063f2fde38b14610132575b600080fd5b34801561007d57600080fd5b5061009f73ffffffffffffffffffffffffffffffffffffffff60043516610160565b005b3480156100ad57600080fd5b5061009f610253565b3480156100c257600080fd5b506100cb6102d9565b6040805173ffffffffffffffffffffffffffffffffffffffff9092168252519081900360200190f35b34801561010057600080fd5b5061009f6004803573ffffffffffffffffffffffffffffffffffffffff1690602480359160443591820191013561006c565b34801561013e57600080fd5b5061009f73ffffffffffffffffffffffffffffffffffffffff600435166102f5565b6000805473ffffffffffffffffffffffffffffffffffffffff16331461018557600080fd5b604080517f70a08231000000000000000000000000000000000000000000000000000000008152306004820152905173ffffffffffffffffffffffffffffffffffffffff8416916370a082319160248083019260209291908290030181600087803b1580156101f357600080fd5b505af1158015610207573d6000803e3d6000fd5b505050506040513d602081101561021d57600080fd5b505160005490915061024f9073ffffffffffffffffffffffffffffffffffffffff84811691168363ffffffff61032516565b5050565b60005473ffffffffffffffffffffffffffffffffffffffff16331461027757600080fd5b6000805460405173ffffffffffffffffffffffffffffffffffffffff909116917ff8df31144d9c2f0f6b59d69b8b98abd5459d07f2742c4df920b25aae33c6482091a26000805473ffffffffffffffffffffffffffffffffffffffff19169055565b60005473ffffffffffffffffffffffffffffffffffffffff1681565b60005473ffffffffffffffffffffffffffffffffffffffff16331461031957600080fd5b61032281610404565b50565b8273ffffffffffffffffffffffffffffffffffffffff1663a9059cbb83836040518363ffffffff167c0100000000000000000000000000000000000000000000000000000000028152600401808373ffffffffffffffffffffffffffffffffffffffff1673ffffffffffffffffffffffffffffffffffffffff16815260200182815260200192505050602060405180830381600087803b1580156103c857600080fd5b505af11580156103dc573d6000803e3d6000fd5b505050506040513d60208110156103f257600080fd5b505115156103ff57600080fd5b505050565b73ffffffffffffffffffffffffffffffffffffffff8116151561042657600080fd5b6000805460405173ffffffffffffffffffffffffffffffffffffffff808516939216917f8be0079c531659141344cd1fd0a4f28419497f9722a3daafe3b4186f6b6457e091a36000805473ffffffffffffffffffffffffffffffffffffffff191673ffffffffffffffffffffffffffffffffffffffff929092169190911790555600a165627a7a723058204cb1deeb7e6dd4ea5646f5dcc7f67ffc3fb0a5cf3b03804fdb446cbd8f0fcf2c0029",
  "source": "pragma solidity ^0.4.24;\n\nimport \"./CanReclaimToken.sol\";\n\n\n/**\n * @title Contracts that should not own Tokens\n * @author Remco Bloemen <remco@2π.com>\n * @dev This blocks incoming ERC223 tokens to prevent accidental loss of tokens.\n * Should tokens (any ERC20Basic compatible) end up in the contract, it allows the\n * owner to reclaim the tokens.\n */\ncontract HasNoTokens is CanReclaimToken {\n\n /**\n  * @dev Reject all ERC223 compatible tokens\n  * @param _from address The address that is transferring the tokens\n  * @param _value uint256 the amount of the specified token\n  * @param _data Bytes The data passed from the caller.\n  */\n  function tokenFallback(\n    address _from,\n    uint256 _value,\n    bytes _data\n  )\n    external\n    pure\n  {\n    _from;\n    _value;\n    _data;\n    revert();\n  }\n\n}\n",
  "sourcePath": "openzeppelin-solidity/contracts/ownership/HasNoTokens.sol",
  "compiler": {
    "name": "solc",
    "version": "0.4.24+commit.e67f0147.Emscripten.clang"
  },
  "schemaVersion": "2.0.1",
  "updatedAt": "2020-01-08T13:39:11.486Z"
}