{
  "contractName": "ISK",
  "abi": [
    {
      "constant": true,
      "inputs": [],
      "name": "name",
      "outputs": [
        {
          "name": "",
          "type": "string"
        }
      ],
      "payable": false,
      "stateMutability": "view",
      "type": "function"
    },
    {
      "constant": false,
      "inputs": [
        {
          "name": "spender",
          "type": "address"
        },
        {
          "name": "amount",
          "type": "uint256"
        }
      ],
      "name": "approve",
      "outputs": [
        {
          "name": "ok",
          "type": "bool"
        }
      ],
      "payable": false,
      "stateMutability": "nonpayable",
      "type": "function"
    },
    {
      "constant": false,
      "inputs": [
        {
          "name": "_token",
          "type": "address"
        }
      ],
      "name": "reclaimToken",
      "outputs": [],
      "payable": false,
      "stateMutability": "nonpayable",
      "type": "function"
    },
    {
      "constant": true,
      "inputs": [],
      "name": "totalSupply",
      "outputs": [
        {
          "name": "",
          "type": "uint256"
        }
      ],
      "payable": false,
      "stateMutability": "view",
      "type": "function"
    },
    {
      "constant": false,
      "inputs": [
        {
          "name": "from",
          "type": "address"
        },
        {
          "name": "to",
          "type": "address"
        },
        {
          "name": "amount",
          "type": "uint256"
        }
      ],
      "name": "transferFrom",
      "outputs": [
        {
          "name": "ok",
          "type": "bool"
        }
      ],
      "payable": false,
      "stateMutability": "nonpayable",
      "type": "function"
    },
    {
      "constant": false,
      "inputs": [
        {
          "name": "_contractAddr",
          "type": "address"
        }
      ],
      "name": "reclaimContract",
      "outputs": [],
      "payable": false,
      "stateMutability": "nonpayable",
      "type": "function"
    },
    {
      "constant": true,
      "inputs": [],
      "name": "getController",
      "outputs": [
        {
          "name": "",
          "type": "address"
        }
      ],
      "payable": false,
      "stateMutability": "view",
      "type": "function"
    },
    {
      "constant": true,
      "inputs": [],
      "name": "decimals",
      "outputs": [
        {
          "name": "",
          "type": "uint256"
        }
      ],
      "payable": false,
      "stateMutability": "view",
      "type": "function"
    },
    {
      "constant": false,
      "inputs": [
        {
          "name": "from",
          "type": "address"
        },
        {
          "name": "amount",
          "type": "uint256"
        },
        {
          "name": "h",
          "type": "bytes32"
        },
        {
          "name": "v",
          "type": "uint8"
        },
        {
          "name": "r",
          "type": "bytes32"
        },
        {
          "name": "s",
          "type": "bytes32"
        }
      ],
      "name": "burnFrom",
      "outputs": [
        {
          "name": "ok",
          "type": "bool"
        }
      ],
      "payable": false,
      "stateMutability": "nonpayable",
      "type": "function"
    },
    {
      "constant": false,
      "inputs": [
        {
          "name": "to",
          "type": "address"
        },
        {
          "name": "amount",
          "type": "uint256"
        },
        {
          "name": "data",
          "type": "bytes"
        }
      ],
      "name": "transferAndCall",
      "outputs": [
        {
          "name": "ok",
          "type": "bool"
        }
      ],
      "payable": false,
      "stateMutability": "nonpayable",
      "type": "function"
    },
    {
      "constant": false,
      "inputs": [
        {
          "name": "to",
          "type": "address"
        },
        {
          "name": "amount",
          "type": "uint256"
        }
      ],
      "name": "mintTo",
      "outputs": [
        {
          "name": "ok",
          "type": "bool"
        }
      ],
      "payable": false,
      "stateMutability": "nonpayable",
      "type": "function"
    },
    {
      "constant": false,
      "inputs": [],
      "name": "claimOwnership",
      "outputs": [],
      "payable": false,
      "stateMutability": "nonpayable",
      "type": "function"
    },
    {
      "constant": false,
      "inputs": [
        {
          "name": "from",
          "type": "address"
        },
        {
          "name": "to",
          "type": "address"
        },
        {
          "name": "h",
          "type": "bytes32"
        },
        {
          "name": "v",
          "type": "uint8"
        },
        {
          "name": "r",
          "type": "bytes32"
        },
        {
          "name": "s",
          "type": "bytes32"
        }
      ],
      "name": "recover",
      "outputs": [
        {
          "name": "amount",
          "type": "uint256"
        }
      ],
      "payable": false,
      "stateMutability": "nonpayable",
      "type": "function"
    },
    {
      "constant": true,
      "inputs": [
        {
          "name": "who",
          "type": "address"
        }
      ],
      "name": "balanceOf",
      "outputs": [
        {
          "name": "",
          "type": "uint256"
        }
      ],
      "payable": false,
      "stateMutability": "view",
      "type": "function"
    },
    {
      "constant": false,
      "inputs": [],
      "name": "renounceOwnership",
      "outputs": [],
      "payable": false,
      "stateMutability": "nonpayable",
      "type": "function"
    },
    {
      "constant": false,
      "inputs": [],
      "name": "destroy",
      "outputs": [],
      "payable": false,
      "stateMutability": "nonpayable",
      "type": "function"
    },
    {
      "constant": true,
      "inputs": [],
      "name": "ticker",
      "outputs": [
        {
          "name": "",
          "type": "bytes3"
        }
      ],
      "payable": false,
      "stateMutability": "view",
      "type": "function"
    },
    {
      "constant": true,
      "inputs": [],
      "name": "owner",
      "outputs": [
        {
          "name": "",
          "type": "address"
        }
      ],
      "payable": false,
      "stateMutability": "view",
      "type": "function"
    },
    {
      "constant": false,
      "inputs": [
        {
          "name": "address_",
          "type": "address"
        }
      ],
      "name": "setController",
      "outputs": [],
      "payable": false,
      "stateMutability": "nonpayable",
      "type": "function"
    },
    {
      "constant": true,
      "inputs": [],
      "name": "symbol",
      "outputs": [
        {
          "name": "",
          "type": "string"
        }
      ],
      "payable": false,
      "stateMutability": "view",
      "type": "function"
    },
    {
      "constant": false,
      "inputs": [],
      "name": "reclaimEther",
      "outputs": [],
      "payable": false,
      "stateMutability": "nonpayable",
      "type": "function"
    },
    {
      "constant": false,
      "inputs": [
        {
          "name": "to",
          "type": "address"
        },
        {
          "name": "amount",
          "type": "uint256"
        }
      ],
      "name": "transfer",
      "outputs": [
        {
          "name": "ok",
          "type": "bool"
        }
      ],
      "payable": false,
      "stateMutability": "nonpayable",
      "type": "function"
    },
    {
      "constant": true,
      "inputs": [
        {
          "name": "_from",
          "type": "address"
        },
        {
          "name": "_value",
          "type": "uint256"
        },
        {
          "name": "_data",
          "type": "bytes"
        }
      ],
      "name": "tokenFallback",
      "outputs": [],
      "payable": false,
      "stateMutability": "pure",
      "type": "function"
    },
    {
      "constant": true,
      "inputs": [
        {
          "name": "owner",
          "type": "address"
        },
        {
          "name": "spender",
          "type": "address"
        }
      ],
      "name": "allowance",
      "outputs": [
        {
          "name": "",
          "type": "uint256"
        }
      ],
      "payable": false,
      "stateMutability": "view",
      "type": "function"
    },
    {
      "constant": true,
      "inputs": [],
      "name": "pendingOwner",
      "outputs": [
        {
          "name": "",
          "type": "address"
        }
      ],
      "payable": false,
      "stateMutability": "view",
      "type": "function"
    },
    {
      "constant": false,
      "inputs": [
        {
          "name": "newOwner",
          "type": "address"
        }
      ],
      "name": "transferOwnership",
      "outputs": [],
      "payable": false,
      "stateMutability": "nonpayable",
      "type": "function"
    },
    {
      "constant": false,
      "inputs": [
        {
          "name": "_recipient",
          "type": "address"
        }
      ],
      "name": "destroyAndSend",
      "outputs": [],
      "payable": false,
      "stateMutability": "nonpayable",
      "type": "function"
    },
    {
      "inputs": [],
      "payable": false,
      "stateMutability": "nonpayable",
      "type": "constructor"
    },
    {
      "payable": false,
      "stateMutability": "nonpayable",
      "type": "fallback"
    },
    {
      "anonymous": false,
      "inputs": [
        {
          "indexed": true,
          "name": "from",
          "type": "address"
        },
        {
          "indexed": true,
          "name": "to",
          "type": "address"
        },
        {
          "indexed": false,
          "name": "amount",
          "type": "uint256"
        }
      ],
      "name": "Transfer",
      "type": "event"
    },
    {
      "anonymous": false,
      "inputs": [
        {
          "indexed": true,
          "name": "from",
          "type": "address"
        },
        {
          "indexed": true,
          "name": "to",
          "type": "address"
        },
        {
          "indexed": false,
          "name": "amount",
          "type": "uint256"
        },
        {
          "indexed": false,
          "name": "data",
          "type": "bytes"
        }
      ],
      "name": "Transfer",
      "type": "event"
    },
    {
      "anonymous": false,
      "inputs": [
        {
          "indexed": true,
          "name": "owner",
          "type": "address"
        },
        {
          "indexed": true,
          "name": "spender",
          "type": "address"
        },
        {
          "indexed": false,
          "name": "amount",
          "type": "uint256"
        }
      ],
      "name": "Approval",
      "type": "event"
    },
    {
      "anonymous": false,
      "inputs": [
        {
          "indexed": true,
          "name": "ticker",
          "type": "bytes3"
        },
        {
          "indexed": true,
          "name": "old",
          "type": "address"
        },
        {
          "indexed": true,
          "name": "current",
          "type": "address"
        }
      ],
      "name": "Controller",
      "type": "event"
    },
    {
      "anonymous": false,
      "inputs": [
        {
          "indexed": true,
          "name": "previousOwner",
          "type": "address"
        }
      ],
      "name": "OwnershipRenounced",
      "type": "event"
    },
    {
      "anonymous": false,
      "inputs": [
        {
          "indexed": true,
          "name": "previousOwner",
          "type": "address"
        },
        {
          "indexed": true,
          "name": "newOwner",
          "type": "address"
        }
      ],
      "name": "OwnershipTransferred",
      "type": "event"
    }
  ],
  "bytecode": "0x60806040523480156200001157600080fd5b50604080518082018252601381527f4d6f6e657269756d2049534b20656d6f6e6579000000000000000000000000006020808301919091528251808401909352600483527f49534b65000000000000000000000000000000000000000000000000000000009083015260008054600160a060020a03191633179055907f49534b00000000000000000000000000000000000000000000000000000000003415620000ba57600080fd5b8251620000cf90600390602086019062000121565b508151620000e590600490602085019062000121565b506005805462ffffff19167d01000000000000000000000000000000000000000000000000000000000090920491909117905550620001c69050565b828054600181600116156101000203166002900490600052602060002090601f016020900481019282601f106200016457805160ff191683800117855562000194565b8280016001018555821562000194579182015b828111156200019457825182559160200191906001019062000177565b50620001a2929150620001a6565b5090565b620001c391905b80821115620001a25760008155600101620001ad565b90565b6118ae80620001d66000396000f30060806040526004361061015e5763ffffffff7c010000000000000000000000000000000000000000000000000000000060003504166306fdde03811461016d578063095ea7b3146101f757806317ffc3201461022f57806318160ddd1461025257806323b872dd146102795780632aed7f3f146102a35780633018205f146102c4578063313ce567146102f55780633823caec1461030a5780634000aea01461033d578063449a52f81461036e5780634e71e0c8146103925780636eb4c609146103a757806370a08231146103dd578063715018a6146103fe57806383197ef0146104135780638ba47bdd146104285780638da5cb5b1461047257806392eefe9b1461048757806395d89b41146104a85780639f727c27146104bd578063a9059cbb146104d2578063c0ee0b8a146104f6578063dd62ed3e14610527578063e30c39781461054e578063f2fde38b14610563578063f5074f4114610584575b34801561016a57600080fd5b50005b34801561017957600080fd5b506101826105a5565b6040805160208082528351818301528351919283929083019185019080838360005b838110156101bc5781810151838201526020016101a4565b50505050905090810190601f1680156101e95780820380516001836020036101000a031916815260200191505b509250505060405180910390f35b34801561020357600080fd5b5061021b600160a060020a0360043516602435610633565b604080519115158252519081900360200190f35b34801561023b57600080fd5b50610250600160a060020a0360043516610721565b005b34801561025e57600080fd5b506102676107ed565b60408051918252519081900360200190f35b34801561028557600080fd5b5061021b600160a060020a036004358116906024351660443561087d565b3480156102af57600080fd5b50610250600160a060020a0360043516610977565b3480156102d057600080fd5b506102d9610a11565b60408051600160a060020a039092168252519081900360200190f35b34801561030157600080fd5b50610267610a20565b34801561031657600080fd5b5061021b600160a060020a036004351660243560443560ff6064351660843560a435610a7f565b34801561034957600080fd5b5061021b60048035600160a060020a0316906024803591604435918201910135610b90565b34801561037a57600080fd5b5061021b600160a060020a0360043516602435610d15565b34801561039e57600080fd5b50610250610e04565b3480156103b357600080fd5b50610267600160a060020a036004358116906024351660443560ff6064351660843560a435610e8c565b3480156103e957600080fd5b50610267600160a060020a0360043516610fa0565b34801561040a57600080fd5b5061025061103d565b34801561041f57600080fd5b506102506110a9565b34801561043457600080fd5b5061043d6110ce565b604080517fffffff00000000000000000000000000000000000000000000000000000000009092168252519081900360200190f35b34801561047e57600080fd5b506102d96110f4565b34801561049357600080fd5b50610250600160a060020a0360043516611103565b3480156104b457600080fd5b5061018261150c565b3480156104c957600080fd5b50610250611567565b3480156104de57600080fd5b5061021b600160a060020a03600435166024356115b9565b34801561050257600080fd5b5061025060048035600160a060020a03169060248035916044359182019101356116a7565b34801561053357600080fd5b50610267600160a060020a03600435811690602435166116ac565b34801561055a57600080fd5b506102d9611752565b34801561056f57600080fd5b50610250600160a060020a0360043516611761565b34801561059057600080fd5b50610250600160a060020a03600435166117a7565b6003805460408051602060026001851615610100026000190190941693909304601f8101849004840282018401909252818152929183018282801561062b5780601f106106005761010080835404028352916020019161062b565b820191906000526020600020905b81548152906001019060200180831161060e57829003601f168201915b505050505081565b600254604080517f774d5409000000000000000000000000000000000000000000000000000000008152336004820152600160a060020a038581166024830152604482018590529151600093929092169163774d54099160648082019260209290919082900301818787803b1580156106ab57600080fd5b505af11580156106bf573d6000803e3d6000fd5b505050506040513d60208110156106d557600080fd5b5051604080518481529051919250600160a060020a0385169133917f8c5be1e5ebec7d5bd14f71427d1e84f3dd0314c0f7b2291e5b200ac8c7c3b925919081900360200190a392915050565b60008054600160a060020a0316331461073957600080fd5b604080517f70a082310000000000000000000000000000000000000000000000000000000081523060048201529051600160a060020a038416916370a082319160248083019260209291908290030181600087803b15801561079a57600080fd5b505af11580156107ae573d6000803e3d6000fd5b505050506040513d60208110156107c457600080fd5b50516000549091506107e990600160a060020a0384811691168363ffffffff6117ca16565b5050565b600254604080517f18160ddd0000000000000000000000000000000000000000000000000000000081529051600092600160a060020a0316916318160ddd91600480830192602092919082900301818787803b15801561084c57600080fd5b505af1158015610860573d6000803e3d6000fd5b505050506040513d602081101561087657600080fd5b5051905090565b600254604080517fe974fee9000000000000000000000000000000000000000000000000000000008152336004820152600160a060020a0386811660248301528581166044830152606482018590529151600093929092169163e974fee99160848082019260209290919082900301818787803b1580156108fd57600080fd5b505af1158015610911573d6000803e3d6000fd5b505050506040513d602081101561092757600080fd5b5051604080518481529051919250600160a060020a0380861692908716917fddf252ad1be2c89b69c2b068fc378daa952ba7f163c4a11628f55a4df523b3ef919081900360200190a39392505050565b60008054600160a060020a0316331461098f57600080fd5b5060008054604080517ff2fde38b000000000000000000000000000000000000000000000000000000008152600160a060020a039283166004820152905184939284169263f2fde38b926024808201939182900301818387803b1580156109f557600080fd5b505af1158015610a09573d6000803e3d6000fd5b505050505050565b600254600160a060020a031690565b600254604080517f313ce5670000000000000000000000000000000000000000000000000000000081529051600092600160a060020a03169163313ce56791600480830192602092919082900301818787803b15801561084c57600080fd5b600254604080517f4eb00754000000000000000000000000000000000000000000000000000000008152336004820152600160a060020a038981166024830152604482018990526064820188905260ff8716608483015260a4820186905260c4820185905291516000939290921691634eb007549160e48082019260209290919082900301818787803b158015610b1557600080fd5b505af1158015610b29573d6000803e3d6000fd5b505050506040513d6020811015610b3f57600080fd5b5051604080518881529051919250600091600160a060020a038a16917fddf252ad1be2c89b69c2b068fc378daa952ba7f163c4a11628f55a4df523b3ef919081900360200190a39695505050505050565b6002546040517f9e7f43ca0000000000000000000000000000000000000000000000000000000081523360048201818152600160a060020a03888116602485015260448401889052608060648501908152608485018790526000959190911693639e7f43ca93928a928a928a928a92909160a40184848082843782019150509650505050505050602060405180830381600087803b158015610c3157600080fd5b505af1158015610c45573d6000803e3d6000fd5b505050506040513d6020811015610c5b57600080fd5b5051604080518681529051919250600160a060020a0387169133917fddf252ad1be2c89b69c2b068fc378daa952ba7f163c4a11628f55a4df523b3ef919081900360200190a384600160a060020a031633600160a060020a03167fe19260aff97b920c7df27010903aeb9c8d2be5d310a2c67824cf3f15396e4c16868686604051808481526020018060200182810382528484828181526020019250808284376040519201829003965090945050505050a3949350505050565b600254604080517f322ec0fb000000000000000000000000000000000000000000000000000000008152336004820152600160a060020a038581166024830152604482018590529151600093929092169163322ec0fb9160648082019260209290919082900301818787803b158015610d8d57600080fd5b505af1158015610da1573d6000803e3d6000fd5b505050506040513d6020811015610db757600080fd5b5051604080518481529051919250600160a060020a038516916000917fddf252ad1be2c89b69c2b068fc378daa952ba7f163c4a11628f55a4df523b3ef919081900360200190a392915050565b600154600160a060020a03163314610e1b57600080fd5b60015460008054604051600160a060020a0393841693909116917f8be0079c531659141344cd1fd0a4f28419497f9722a3daafe3b4186f6b6457e091a3600180546000805473ffffffffffffffffffffffffffffffffffffffff19908116600160a060020a03841617909155169055565b600254604080517f3cd1570f000000000000000000000000000000000000000000000000000000008152336004820152600160a060020a03898116602483015288811660448301526064820188905260ff8716608483015260a4820186905260c4820185905291516000939290921691633cd1570f9160e48082019260209290919082900301818787803b158015610f2357600080fd5b505af1158015610f37573d6000803e3d6000fd5b505050506040513d6020811015610f4d57600080fd5b5051604080518281529051919250600160a060020a0380891692908a16917fddf252ad1be2c89b69c2b068fc378daa952ba7f163c4a11628f55a4df523b3ef919081900360200190a39695505050505050565b600254604080517f70a08231000000000000000000000000000000000000000000000000000000008152600160a060020a038481166004830152915160009392909216916370a082319160248082019260209290919082900301818787803b15801561100b57600080fd5b505af115801561101f573d6000803e3d6000fd5b505050506040513d602081101561103557600080fd5b505192915050565b600054600160a060020a0316331461105457600080fd5b60008054604051600160a060020a03909116917ff8df31144d9c2f0f6b59d69b8b98abd5459d07f2742c4df920b25aae33c6482091a26000805473ffffffffffffffffffffffffffffffffffffffff19169055565b600054600160a060020a031633146110c057600080fd5b600054600160a060020a0316ff5b6005547d0100000000000000000000000000000000000000000000000000000000000281565b600054600160a060020a031681565b600054600160a060020a0316331461111a57600080fd5b600160a060020a03811615156111b757604080517f08c379a000000000000000000000000000000000000000000000000000000000815260206004820152602d60248201527f636f6e74726f6c6c657220616464726573732063616e6e6f742062652074686560448201527f206e756c6c206164647265737300000000000000000000000000000000000000606482015290519081900360840190fd5b600254600554604051600160a060020a038481169316917d010000000000000000000000000000000000000000000000000000000000027fffffff000000000000000000000000000000000000000000000000000000000016907f2ce3a3a1c097de2b147145a1e6f236b569e75e7310e3b0b436d5dea8f60e35dc90600090a46002805473ffffffffffffffffffffffffffffffffffffffff1916600160a060020a038381169190911791829055604080517e3074ff0000000000000000000000000000000000000000000000000000000081529051309390921691623074ff916004808201926020929091908290030181600087803b1580156112ba57600080fd5b505af11580156112ce573d6000803e3d6000fd5b505050506040513d60208110156112e457600080fd5b5051600160a060020a03161461138157604080517f08c379a000000000000000000000000000000000000000000000000000000000815260206004820152602760248201527f636f6e74726f6c6c65722066726f6e74656e6420646f6573206e6f7420706f6960448201527f6e74206261636b00000000000000000000000000000000000000000000000000606482015290519081900360840190fd5b600554600254604080517f8ba47bdd00000000000000000000000000000000000000000000000000000000815290517d0100000000000000000000000000000000000000000000000000000000009093027fffffff00000000000000000000000000000000000000000000000000000000001692600160a060020a0390921691638ba47bdd916004808201926020929091908290030181600087803b15801561142957600080fd5b505af115801561143d573d6000803e3d6000fd5b505050506040513d602081101561145357600080fd5b50517fffffff0000000000000000000000000000000000000000000000000000000000161461150957604080517f08c379a000000000000000000000000000000000000000000000000000000000815260206004820152602760248201527f7469636b657220646f6573206e6f74206d6174636820636f6e74726f6c6c657260448201527f207469636b657400000000000000000000000000000000000000000000000000606482015290519081900360840190fd5b50565b6004805460408051602060026001851615610100026000190190941693909304601f8101849004840282018401909252818152929183018282801561062b5780601f106106005761010080835404028352916020019161062b565b600054600160a060020a0316331461157e57600080fd5b60008054604051600160a060020a0390911691303180156108fc02929091818181858888f19350505050158015611509573d6000803e3d6000fd5b600254604080517fe174fd94000000000000000000000000000000000000000000000000000000008152336004820152600160a060020a038581166024830152604482018590529151600093929092169163e174fd949160648082019260209290919082900301818787803b15801561163157600080fd5b505af1158015611645573d6000803e3d6000fd5b505050506040513d602081101561165b57600080fd5b5051604080518481529051919250600160a060020a0385169133917fddf252ad1be2c89b69c2b068fc378daa952ba7f163c4a11628f55a4df523b3ef919081900360200190a392915050565b600080fd5b600254604080517fdd62ed3e000000000000000000000000000000000000000000000000000000008152600160a060020a03858116600483015284811660248301529151600093929092169163dd62ed3e9160448082019260209290919082900301818787803b15801561171f57600080fd5b505af1158015611733573d6000803e3d6000fd5b505050506040513d602081101561174957600080fd5b50519392505050565b600154600160a060020a031681565b600054600160a060020a0316331461177857600080fd5b6001805473ffffffffffffffffffffffffffffffffffffffff1916600160a060020a0392909216919091179055565b600054600160a060020a031633146117be57600080fd5b80600160a060020a0316ff5b82600160a060020a031663a9059cbb83836040518363ffffffff167c01000000000000000000000000000000000000000000000000000000000281526004018083600160a060020a0316600160a060020a0316815260200182815260200192505050602060405180830381600087803b15801561184657600080fd5b505af115801561185a573d6000803e3d6000fd5b505050506040513d602081101561187057600080fd5b5051151561187d57600080fd5b5050505600a165627a7a72305820abe16e913cdd049798c284112f33407f02a334fb084259b44575459a4a5a24560029",
  "source": "/**\n * Copyright 2019 Monerium ehf.\n *\n * Licensed under the Apache License, Version 2.0 (the \"License\");\n * you may not use this file except in compliance with the License.\n * You may obtain a copy of the License at\n *\n *     http://www.apache.org/licenses/LICENSE-2.0\n *\n * Unless required by applicable law or agreed to in writing, software\n * distributed under the License is distributed on an \"AS IS\" BASIS,\n * WITHOUT WARRANTIES OR CONDITIONS OF ANY KIND, either express or implied.\n * See the License for the specific language governing permissions and\n * limitations under the License.\n */\n\npragma solidity 0.4.24;\n\nimport \"./TokenFrontend.sol\";\n\ncontract ISK is TokenFrontend {\n\n    constructor()\n        public\n        TokenFrontend(\"Monerium ISK emoney\", \"ISKe\", \"ISK\")\n    { }\n\n}\n",
  "sourcePath": "/Users/gislik/Code/smart-contracts/contracts/ISK.sol",
  "compiler": {
    "name": "solc",
    "version": "0.4.24+commit.e67f0147.Emscripten.clang"
  },
  "schemaVersion": "2.0.1",
  "updatedAt": "2019-11-11T09:22:18.305Z"
}