{
  "contractName": "MintableTokenLib",
  "abi": [
    {
      "constant": false,
      "inputs": [
        {
          "name": "db",
          "type": "TokenStorage"
        },
        {
          "name": "to",
          "type": "address"
        },
        {
          "name": "amount",
          "type": "uint256"
        }
      ],
      "name": "mint",
      "outputs": [
        {
          "name": "",
          "type": "bool"
        }
      ],
      "payable": false,
      "stateMutability": "nonpayable",
      "type": "function"
    },
    {
      "constant": false,
      "inputs": [
        {
          "name": "db",
          "type": "TokenStorage"
        },
        {
          "name": "from",
          "type": "address"
        },
        {
          "name": "amount",
          "type": "uint256"
        },
        {
          "name": "h",
          "type": "bytes32"
        },
        {
          "name": "v",
          "type": "uint8"
        },
        {
          "name": "r",
          "type": "bytes32"
        },
        {
          "name": "s",
          "type": "bytes32"
        }
      ],
      "name": "burn",
      "outputs": [
        {
          "name": "",
          "type": "bool"
        }
      ],
      "payable": false,
      "stateMutability": "nonpayable",
      "type": "function"
    },
    {
      "constant": false,
      "inputs": [
        {
          "name": "db",
          "type": "TokenStorage"
        },
        {
          "name": "from",
          "type": "address"
        },
        {
          "name": "amount",
          "type": "uint256"
        }
      ],
      "name": "burn",
      "outputs": [
        {
          "name": "",
          "type": "bool"
        }
      ],
      "payable": false,
      "stateMutability": "nonpayable",
      "type": "function"
    }
  ],
  "bytecode": "0x610390610030600b82828239805160001a6073146000811461002057610022565bfe5b5030600052607381538281f300730000000000000000000000000000000000000000301460806040526004361061006d5763ffffffff7c0100000000000000000000000000000000000000000000000000000000600035041663799639d48114610072578063a6c9ac28146100cc578063b0c29c7414610103575b600080fd5b81801561007e57600080fd5b506100b873ffffffffffffffffffffffffffffffffffffffff6004358116906024351660443560643560ff6084351660a43560c43561013a565b604080519115158252519081900360200190f35b8180156100d857600080fd5b506100b873ffffffffffffffffffffffffffffffffffffffff60043581169060243516604435610252565b81801561010f57600080fd5b506100b873ffffffffffffffffffffffffffffffffffffffff600435811690602435166044356102ec565b604080516000808252602080830180855288905260ff87168385015260608301869052608083018590529251909273ffffffffffffffffffffffffffffffffffffffff8a169260019260a08083019392601f19830192908190039091019087865af11580156101ad573d6000803e3d6000fd5b5050506020604051035173ffffffffffffffffffffffffffffffffffffffff1614151561023b57604080517f08c379a000000000000000000000000000000000000000000000000000000000815260206004820152601d60248201527f7369676e61747572652f6861736820646f6573206e6f74206d61746368000000604482015290519081900360640190fd5b610246888888610252565b98975050505050505050565b604080517fcf8eeb7e00000000000000000000000000000000000000000000000000000000815273ffffffffffffffffffffffffffffffffffffffff848116600483015260248201849052915160009286169163cf8eeb7e916044808301928692919082900301818387803b1580156102ca57600080fd5b505af11580156102de573d6000803e3d6000fd5b506001979650505050505050565b604080517f21e5383a00000000000000000000000000000000000000000000000000000000815273ffffffffffffffffffffffffffffffffffffffff84811660048301526024820184905291516000928616916321e5383a916044808301928692919082900301818387803b1580156102ca57600080fd00a165627a7a72305820ce0c83cbde0134296040d5e1570692a0bfdaeb8cc1e5ffd172709274e6c216640029",
  "immutableReferences": {},
  "source": "/**\n * Copyright 2019 Monerium ehf.\n *\n * Licensed under the Apache License, Version 2.0 (the \"License\");\n * you may not use this file except in compliance with the License.\n * You may obtain a copy of the License at\n *\n *     http://www.apache.org/licenses/LICENSE-2.0\n *\n * Unless required by applicable law or agreed to in writing, software\n * distributed under the License is distributed on an \"AS IS\" BASIS,\n * WITHOUT WARRANTIES OR CONDITIONS OF ANY KIND, either express or implied.\n * See the License for the specific language governing permissions and\n * limitations under the License.\n */\n\npragma solidity 0.4.24;\n\nimport \"openzeppelin-solidity/contracts/math/SafeMath.sol\";\nimport \"./ERC20Lib.sol\";\nimport \"./TokenStorage.sol\";\n\n/**\n * @title Mintable token\n * @dev Simple ERC20 Token example, with mintable token creation\n * @dev Issue: * https://github.com/OpenZeppelin/openzeppelin-solidity/issues/120\n * Based on code by TokenMarketNet: https://github.com/TokenMarketNet/ico/blob/master/contracts/MintableToken.sol\n */\n\nlibrary MintableTokenLib {\n\n    using SafeMath for uint;\n\n    /**\n     * @dev Mints new tokens.\n     * @param db Token storage to operate on.\n     * @param to The address that will recieve the minted tokens.\n     * @param amount The amount of tokens to mint.\n     */\n    function mint(\n        TokenStorage db,\n        address to,\n        uint amount\n    )\n        external\n        returns (bool)\n    {\n        db.addBalance(to, amount);\n        return true;\n    }\n\n    /**\n     * @dev Burns tokens.\n     * @param db Token storage to operate on.\n     * @param from The address holding tokens.\n     * @param amount The amount of tokens to burn.\n     */\n    function burn(\n        TokenStorage db,\n        address from,\n        uint amount\n    )\n        public\n        returns (bool)\n    {\n        db.subBalance(from, amount);\n        return true;\n    }\n\n    /**\n     * @dev Burns tokens from a specific address.\n     * To burn the tokens the caller needs to provide a signature\n     * proving that the caller is authorized by the token owner to do so.\n     * @param db Token storage to operate on.\n     * @param from The address holding tokens.\n     * @param amount The amount of tokens to burn.\n     * @param h Hash which the token owner signed.\n     * @param v Signature component.\n     * @param r Signature component.\n     * @param s Sigature component.\n     */\n    function burn(\n        TokenStorage db,\n        address from,\n        uint amount,\n        bytes32 h,\n        uint8 v,\n        bytes32 r,\n        bytes32 s\n    )\n        external\n        returns (bool)\n    {\n        require(\n            ecrecover(h, v, r, s) == from,\n            \"signature/hash does not match\"\n        );\n        return burn(db, from, amount);\n    }\n\n}\n",
  "sourcePath": "/Users/gislik/Code/smart-contracts/contracts/MintableTokenLib.sol",
  "compiler": {
    "name": "solc",
    "version": "0.4.24+commit.e67f0147.Emscripten.clang"
  },
  "schemaVersion": "2.0.1",
  "updatedAt": "2020-01-08T13:39:11.537Z",
  "networkType": "ethereum",
  "devdoc": {
    "details": "Simple ERC20 Token example, with mintable token creationIssue: * https://github.com/OpenZeppelin/openzeppelin-solidity/issues/120 Based on code by TokenMarketNet: https://github.com/TokenMarketNet/ico/blob/master/contracts/MintableToken.sol",
    "kind": "dev",
    "methods": {
      "burn(TokenStorage,address,uint256)": {
        "details": "Burns tokens.",
        "params": {
          "amount": "The amount of tokens to burn.",
          "db": "Token storage to operate on.",
          "from": "The address holding tokens."
        }
      },
      "burn(TokenStorage,address,uint256,bytes32,uint8,bytes32,bytes32)": {
        "details": "Burns tokens from a specific address. To burn the tokens the caller needs to provide a signature proving that the caller is authorized by the token owner to do so.",
        "params": {
          "amount": "The amount of tokens to burn.",
          "db": "Token storage to operate on.",
          "from": "The address holding tokens.",
          "h": "Hash which the token owner signed.",
          "r": "Signature component.",
          "s": "Sigature component.",
          "v": "Signature component."
        }
      },
      "mint(TokenStorage,address,uint256)": {
        "details": "Mints new tokens.",
        "params": {
          "amount": "The amount of tokens to mint.",
          "db": "Token storage to operate on.",
          "to": "The address that will recieve the minted tokens."
        }
      }
    },
    "title": "Mintable token",
    "version": 1
  },
  "userdoc": {
    "kind": "user",
    "methods": {},
    "version": 1
  }
}