{
  "contractName": "MintableController",
  "abi": [
    {
      "inputs": [
        {
          "internalType": "address",
          "name": "storage_",
          "type": "address"
        },
        {
          "internalType": "uint256",
          "name": "initialSupply",
          "type": "uint256"
        },
        {
          "internalType": "address",
          "name": "frontend_",
          "type": "address"
        }
      ],
      "stateMutability": "nonpayable",
      "type": "constructor"
    },
    {
      "anonymous": false,
      "inputs": [
        {
          "indexed": true,
          "internalType": "address",
          "name": "frontend",
          "type": "address"
        },
        {
          "indexed": true,
          "internalType": "string",
          "name": "title",
          "type": "string"
        }
      ],
      "name": "BridgeFrontend",
      "type": "event"
    },
    {
      "anonymous": false,
      "inputs": [
        {
          "indexed": true,
          "internalType": "address",
          "name": "old",
          "type": "address"
        },
        {
          "indexed": true,
          "internalType": "address",
          "name": "current",
          "type": "address"
        }
      ],
      "name": "Frontend",
      "type": "event"
    },
    {
      "anonymous": false,
      "inputs": [
        {
          "indexed": true,
          "internalType": "address",
          "name": "previousOwner",
          "type": "address"
        }
      ],
      "name": "OwnershipRenounced",
      "type": "event"
    },
    {
      "anonymous": false,
      "inputs": [
        {
          "indexed": true,
          "internalType": "address",
          "name": "previousOwner",
          "type": "address"
        },
        {
          "indexed": true,
          "internalType": "address",
          "name": "newOwner",
          "type": "address"
        }
      ],
      "name": "OwnershipTransferred",
      "type": "event"
    },
    {
      "anonymous": false,
      "inputs": [
        {
          "indexed": false,
          "internalType": "address",
          "name": "account",
          "type": "address"
        }
      ],
      "name": "Paused",
      "type": "event"
    },
    {
      "anonymous": false,
      "inputs": [
        {
          "indexed": true,
          "internalType": "address",
          "name": "old",
          "type": "address"
        },
        {
          "indexed": true,
          "internalType": "address",
          "name": "current",
          "type": "address"
        }
      ],
      "name": "Storage",
      "type": "event"
    },
    {
      "anonymous": false,
      "inputs": [
        {
          "indexed": true,
          "internalType": "address",
          "name": "account",
          "type": "address"
        }
      ],
      "name": "SystemAccountAdded",
      "type": "event"
    },
    {
      "anonymous": false,
      "inputs": [
        {
          "indexed": true,
          "internalType": "address",
          "name": "account",
          "type": "address"
        }
      ],
      "name": "SystemAccountRemoved",
      "type": "event"
    },
    {
      "anonymous": false,
      "inputs": [
        {
          "indexed": false,
          "internalType": "address",
          "name": "account",
          "type": "address"
        }
      ],
      "name": "Unpaused",
      "type": "event"
    },
    {
      "inputs": [
        {
          "internalType": "address",
          "name": "owner",
          "type": "address"
        },
        {
          "internalType": "address",
          "name": "spender",
          "type": "address"
        }
      ],
      "name": "allowance",
      "outputs": [
        {
          "internalType": "uint256",
          "name": "",
          "type": "uint256"
        }
      ],
      "stateMutability": "view",
      "type": "function",
      "constant": true
    },
    {
      "inputs": [
        {
          "internalType": "address",
          "name": "caller",
          "type": "address"
        },
        {
          "internalType": "address",
          "name": "spender",
          "type": "address"
        },
        {
          "internalType": "uint256",
          "name": "amount",
          "type": "uint256"
        }
      ],
      "name": "approve_withCaller",
      "outputs": [
        {
          "internalType": "bool",
          "name": "ok",
          "type": "bool"
        }
      ],
      "stateMutability": "nonpayable",
      "type": "function"
    },
    {
      "inputs": [
        {
          "internalType": "address",
          "name": "who",
          "type": "address"
        }
      ],
      "name": "balanceOf",
      "outputs": [
        {
          "internalType": "uint256",
          "name": "",
          "type": "uint256"
        }
      ],
      "stateMutability": "view",
      "type": "function",
      "constant": true
    },
    {
      "inputs": [],
      "name": "claimOwnership",
      "outputs": [],
      "stateMutability": "nonpayable",
      "type": "function"
    },
    {
      "inputs": [],
      "name": "claimStorageOwnership",
      "outputs": [],
      "stateMutability": "nonpayable",
      "type": "function"
    },
    {
      "inputs": [],
      "name": "decimals",
      "outputs": [
        {
          "internalType": "uint256",
          "name": "",
          "type": "uint256"
        }
      ],
      "stateMutability": "view",
      "type": "function",
      "constant": true
    },
    {
      "inputs": [],
      "name": "getFrontend",
      "outputs": [
        {
          "internalType": "address",
          "name": "",
          "type": "address"
        }
      ],
      "stateMutability": "view",
      "type": "function",
      "constant": true
    },
    {
      "inputs": [],
      "name": "getStorage",
      "outputs": [
        {
          "internalType": "address",
          "name": "",
          "type": "address"
        }
      ],
      "stateMutability": "view",
      "type": "function",
      "constant": true
    },
    {
      "inputs": [
        {
          "internalType": "address",
          "name": "frontend_",
          "type": "address"
        }
      ],
      "name": "isFrontend",
      "outputs": [
        {
          "internalType": "bool",
          "name": "",
          "type": "bool"
        }
      ],
      "stateMutability": "view",
      "type": "function",
      "constant": true
    },
    {
      "inputs": [
        {
          "internalType": "address",
          "name": "account",
          "type": "address"
        }
      ],
      "name": "isSystemAccount",
      "outputs": [
        {
          "internalType": "bool",
          "name": "",
          "type": "bool"
        }
      ],
      "stateMutability": "view",
      "type": "function",
      "constant": true
    },
    {
      "inputs": [],
      "name": "name",
      "outputs": [
        {
          "internalType": "string",
          "name": "",
          "type": "string"
        }
      ],
      "stateMutability": "view",
      "type": "function",
      "constant": true
    },
    {
      "inputs": [],
      "name": "owner",
      "outputs": [
        {
          "internalType": "address",
          "name": "",
          "type": "address"
        }
      ],
      "stateMutability": "view",
      "type": "function",
      "constant": true
    },
    {
      "inputs": [],
      "name": "pause",
      "outputs": [],
      "stateMutability": "nonpayable",
      "type": "function"
    },
    {
      "inputs": [],
      "name": "paused",
      "outputs": [
        {
          "internalType": "bool",
          "name": "",
          "type": "bool"
        }
      ],
      "stateMutability": "view",
      "type": "function",
      "constant": true
    },
    {
      "inputs": [],
      "name": "pendingOwner",
      "outputs": [
        {
          "internalType": "address",
          "name": "",
          "type": "address"
        }
      ],
      "stateMutability": "view",
      "type": "function",
      "constant": true
    },
    {
      "inputs": [],
      "name": "renounceOwnership",
      "outputs": [],
      "stateMutability": "nonpayable",
      "type": "function"
    },
    {
      "inputs": [
        {
          "internalType": "address",
          "name": "frontend_",
          "type": "address"
        },
        {
          "internalType": "string",
          "name": "title",
          "type": "string"
        }
      ],
      "name": "setBridgeFrontend",
      "outputs": [],
      "stateMutability": "nonpayable",
      "type": "function"
    },
    {
      "inputs": [
        {
          "internalType": "address",
          "name": "frontend_",
          "type": "address"
        }
      ],
      "name": "setFrontend",
      "outputs": [],
      "stateMutability": "nonpayable",
      "type": "function"
    },
    {
      "inputs": [
        {
          "internalType": "address",
          "name": "storage_",
          "type": "address"
        }
      ],
      "name": "setStorage",
      "outputs": [],
      "stateMutability": "nonpayable",
      "type": "function"
    },
    {
      "inputs": [],
      "name": "symbol",
      "outputs": [
        {
          "internalType": "string",
          "name": "",
          "type": "string"
        }
      ],
      "stateMutability": "view",
      "type": "function",
      "constant": true
    },
    {
      "inputs": [],
      "name": "totalSupply",
      "outputs": [
        {
          "internalType": "uint256",
          "name": "",
          "type": "uint256"
        }
      ],
      "stateMutability": "view",
      "type": "function",
      "constant": true
    },
    {
      "inputs": [
        {
          "internalType": "address",
          "name": "caller",
          "type": "address"
        },
        {
          "internalType": "address",
          "name": "to",
          "type": "address"
        },
        {
          "internalType": "uint256",
          "name": "amount",
          "type": "uint256"
        },
        {
          "internalType": "bytes",
          "name": "data",
          "type": "bytes"
        }
      ],
      "name": "transferAndCall_withCaller",
      "outputs": [
        {
          "internalType": "bool",
          "name": "ok",
          "type": "bool"
        }
      ],
      "stateMutability": "nonpayable",
      "type": "function"
    },
    {
      "inputs": [
        {
          "internalType": "address",
          "name": "caller",
          "type": "address"
        },
        {
          "internalType": "address",
          "name": "from",
          "type": "address"
        },
        {
          "internalType": "address",
          "name": "to",
          "type": "address"
        },
        {
          "internalType": "uint256",
          "name": "amount",
          "type": "uint256"
        }
      ],
      "name": "transferFrom_withCaller",
      "outputs": [
        {
          "internalType": "bool",
          "name": "ok",
          "type": "bool"
        }
      ],
      "stateMutability": "nonpayable",
      "type": "function"
    },
    {
      "inputs": [
        {
          "internalType": "address",
          "name": "newOwner",
          "type": "address"
        }
      ],
      "name": "transferOwnership",
      "outputs": [],
      "stateMutability": "nonpayable",
      "type": "function"
    },
    {
      "inputs": [
        {
          "internalType": "address",
          "name": "newOwner",
          "type": "address"
        }
      ],
      "name": "transferStorageOwnership",
      "outputs": [],
      "stateMutability": "nonpayable",
      "type": "function"
    },
    {
      "inputs": [
        {
          "internalType": "address",
          "name": "caller",
          "type": "address"
        },
        {
          "internalType": "address",
          "name": "to",
          "type": "address"
        },
        {
          "internalType": "uint256",
          "name": "amount",
          "type": "uint256"
        }
      ],
      "name": "transfer_withCaller",
      "outputs": [
        {
          "internalType": "bool",
          "name": "ok",
          "type": "bool"
        }
      ],
      "stateMutability": "nonpayable",
      "type": "function"
    },
    {
      "inputs": [],
      "name": "unpause",
      "outputs": [],
      "stateMutability": "nonpayable",
      "type": "function"
    },
    {
      "inputs": [
        {
          "internalType": "address",
          "name": "account",
          "type": "address"
        }
      ],
      "name": "addSystemAccount",
      "outputs": [],
      "stateMutability": "nonpayable",
      "type": "function"
    },
    {
      "inputs": [
        {
          "internalType": "address",
          "name": "account",
          "type": "address"
        }
      ],
      "name": "removeSystemAccount",
      "outputs": [],
      "stateMutability": "nonpayable",
      "type": "function"
    },
    {
      "inputs": [
        {
          "internalType": "address",
          "name": "caller",
          "type": "address"
        },
        {
          "internalType": "address",
          "name": "to",
          "type": "address"
        },
        {
          "internalType": "uint256",
          "name": "amount",
          "type": "uint256"
        }
      ],
      "name": "mintTo_withCaller",
      "outputs": [
        {
          "internalType": "bool",
          "name": "",
          "type": "bool"
        }
      ],
      "stateMutability": "nonpayable",
      "type": "function"
    },
    {
      "inputs": [
        {
          "internalType": "address",
          "name": "caller",
          "type": "address"
        },
        {
          "internalType": "address",
          "name": "from",
          "type": "address"
        },
        {
          "internalType": "uint256",
          "name": "amount",
          "type": "uint256"
        },
        {
          "internalType": "bytes32",
          "name": "h",
          "type": "bytes32"
        },
        {
          "internalType": "uint8",
          "name": "v",
          "type": "uint8"
        },
        {
          "internalType": "bytes32",
          "name": "r",
          "type": "bytes32"
        },
        {
          "internalType": "bytes32",
          "name": "s",
          "type": "bytes32"
        }
      ],
      "name": "burnFrom_withCaller",
      "outputs": [
        {
          "internalType": "bool",
          "name": "",
          "type": "bool"
        }
      ],
      "stateMutability": "nonpayable",
      "type": "function"
    },
    {
      "inputs": [
        {
          "internalType": "address",
          "name": "from",
          "type": "address"
        },
        {
          "internalType": "uint256",
          "name": "amount",
          "type": "uint256"
        }
      ],
      "name": "burnFrom",
      "outputs": [
        {
          "internalType": "bool",
          "name": "",
          "type": "bool"
        }
      ],
      "stateMutability": "nonpayable",
      "type": "function"
    }
  ],
  "bytecode": "0x608060405260126008553480156200001657600080fd5b5060405162002a0f38038062002a0f833981016040819052620000399162000208565b600180546001600160a81b03191661010033021790558282826001600160a01b038316158062000067575081155b620000de5760405162461bcd60e51b815260206004820152603f60248201527f656974686572206120746f6b656e2073746f72616765206d757374206265206960448201527f6e697469616c697a6564206f72206e6f20696e697469616c20737570706c7900606482015260840160405180910390fd5b6001600160a01b0383166200019557604051620000fb90620001dd565b604051809103906000f08015801562000118573d6000803e3d6000fd5b50600380546001600160a01b0319166001600160a01b039290921691821790556040516310f29c1d60e11b8152336004820152602481018490526321e5383a90604401600060405180830381600087803b1580156200017657600080fd5b505af11580156200018b573d6000803e3d6000fd5b50505050620001b1565b600380546001600160a01b0319166001600160a01b0385161790555b600480546001600160a01b0319166001600160a01b039290921691909117905550620002499350505050565b610b5c8062001eb383390190565b80516001600160a01b03811681146200020357600080fd5b919050565b6000806000606084860312156200021e57600080fd5b6200022984620001eb565b9250602084015191506200024060408501620001eb565b90509250925092565b611c5a80620002596000396000f3fe608060405234801561001057600080fd5b50600436106101ef5760003560e01c806379cc67901161010f578063b516af70116100a2578063e974fee911610071578063e974fee9146103e5578063ebbc3d46146103f8578063ee0b54451461040b578063f2fde38b1461041e57600080fd5b8063b516af70146103a4578063dd62ed3e146103ac578063e174fd94146103bf578063e30c3978146103d257600080fd5b80639137c1a7116100de5780639137c1a71461036357806395d89b41146103765780639e7f43ca1461037e578063a84c56d01461039157600080fd5b806379cc67901461031d5780638456cb59146103305780638da5cb5b146103385780638fb81d981461035057600080fd5b80633f4ba83a1161018757806369569a511161015657806369569a51146102dc57806370a08231146102ef578063715018a614610302578063774d54091461030a57600080fd5b80633f4ba83a146102ac5780634e71e0c8146102b65780634eb00754146102be5780635c975abb146102d157600080fd5b8063313ce567116101c3578063313ce5671461026c578063322ec0fb14610275578063326ecb05146102885780633408f73a1461029b57600080fd5b80623074ff146101f457806306fdde031461021e57806318160ddd1461023357806325ec2eb014610249575b600080fd5b6004546001600160a01b03165b6040516001600160a01b0390911681526020015b60405180910390f35b610226610431565b604051610215919061183a565b61023b6104bf565b604051908152602001610215565b61025c6102573660046118ab565b61054b565b6040519015158152602001610215565b61023b60085481565b61025c6102833660046118c6565b610588565b61025c6102963660046118ab565b610725565b6003546001600160a01b0316610201565b6102b4610746565b005b6102b461076c565b61025c6102cc366004611902565b610814565b60015460ff1661025c565b6102b46102ea3660046118ab565b6109c5565b61023b6102fd3660046118ab565b610a4a565b6102b4610ad2565b61025c6103183660046118c6565b610b4a565b61025c61032b366004611975565b610c93565b6102b4610d70565b6001546102019061010090046001600160a01b031681565b6102b461035e3660046119e8565b610d94565b6102b46103713660046118ab565b610e21565b610226610ea6565b61025c61038c366004611a3b565b610eb3565b6102b461039f3660046118ab565b610ffc565b6102b4611024565b61023b6103ba366004611aaa565b6110aa565b61025c6103cd3660046118c6565b61115d565b600254610201906001600160a01b031681565b61025c6103f3366004611add565b611269565b6102b46104063660046118ab565b611395565b6102b46104193660046118ab565b6113ba565b6102b461042c3660046118ab565b611451565b6006805461043e90611b28565b80601f016020809104026020016040519081016040528092919081815260200182805461046a90611b28565b80156104b75780601f1061048c576101008083540402835291602001916104b7565b820191906000526020600020905b81548152906001019060200180831161049a57829003601f168201915b505050505081565b600354604080517f6c9c2faf00000000000000000000000000000000000000000000000000000000815290516000926001600160a01b031691636c9c2faf9160048083019260209291908290030181865afa158015610522573d6000803e3d6000fd5b505050506040513d601f19601f820116820180604052508101906105469190611b7c565b905090565b6004546000906001600160a01b038381169116148061058257506001600160a01b03821660009081526005602052604090205460ff165b92915050565b600083336001600160a01b03821614806105a657506105a63361054b565b6106145760405162461bcd60e51b815260206004820152603460248201527f6569746865722063616c6c6572206d7573742062652073656e646572206f722060448201527318d85b1b1a5b99c81d9a5848199c9bdb9d195b9960621b60648201526084015b60405180910390fd5b8461061e81610725565b61066a5760405162461bcd60e51b815260206004820152601860248201527f6d75737420626520612073797374656d206163636f756e740000000000000000604482015260640161060b565b6106738561149c565b6003546040517fb0c29c740000000000000000000000000000000000000000000000000000000081526001600160a01b03918216600482015290861660248201526044810185905273__MintableTokenLib______________________9063b0c29c7490606401602060405180830381865af41580156106f7573d6000803e3d6000fd5b505050506040513d601f19601f8201168201806040525081019061071b9190611b95565b9695505050505050565b6001600160a01b03811660009081526020819052604081205460ff16610582565b60015461010090046001600160a01b0316331461076257600080fd5b61076a61165d565b565b6002546001600160a01b0316331461078357600080fd5b6002546001546040516001600160a01b0392831692610100909204909116907f8be0079c531659141344cd1fd0a4f28419497f9722a3daafe3b4186f6b6457e090600090a3600280546001805474ffffffffffffffffffffffffffffffffffffffff0019166101006001600160a01b0384160217905573ffffffffffffffffffffffffffffffffffffffff19169055565b600087336001600160a01b038216148061083257506108323361054b565b61089b5760405162461bcd60e51b815260206004820152603460248201527f6569746865722063616c6c6572206d7573742062652073656e646572206f722060448201527318d85b1b1a5b99c81d9a5848199c9bdb9d195b9960621b606482015260840161060b565b886108a581610725565b6108f15760405162461bcd60e51b815260206004820152601860248201527f6d75737420626520612073797374656d206163636f756e740000000000000000604482015260640161060b565b6003546040517f799639d40000000000000000000000000000000000000000000000000000000081526001600160a01b039182166004820152908a166024820152604481018990526064810188905260ff8716608482015260a4810186905260c4810185905273__MintableTokenLib______________________9063799639d49060e401602060405180830381865af4158015610993573d6000803e3d6000fd5b505050506040513d601f19601f820116820180604052508101906109b79190611b95565b9a9950505050505050505050565b60015461010090046001600160a01b031633146109e157600080fd5b6004546040516001600160a01b038084169216907fcb01f884fc4203d4c1643cb0e126faeb397682c122ca8c0433776d42cdc0060a90600090a36004805473ffffffffffffffffffffffffffffffffffffffff19166001600160a01b0392909216919091179055565b6003546040517ff8b2cb4f0000000000000000000000000000000000000000000000000000000081526001600160a01b038381166004830152600092169063f8b2cb4f90602401602060405180830381865afa158015610aae573d6000803e3d6000fd5b505050506040513d601f19601f820116820180604052508101906105829190611b7c565b60015461010090046001600160a01b03163314610aee57600080fd5b6001546040516101009091046001600160a01b0316907ff8df31144d9c2f0f6b59d69b8b98abd5459d07f2742c4df920b25aae33c6482090600090a26001805474ffffffffffffffffffffffffffffffffffffffff0019169055565b600083336001600160a01b0382161480610b685750610b683361054b565b610bd15760405162461bcd60e51b815260206004820152603460248201527f6569746865722063616c6c6572206d7573742062652073656e646572206f722060448201527318d85b1b1a5b99c81d9a5848199c9bdb9d195b9960621b606482015260840161060b565b610bd96116af565b6003546040517f365feff10000000000000000000000000000000000000000000000000000000081526001600160a01b039182166004820152868216602482015290851660448201526064810184905273__ERC20Lib______________________________9063365feff1906084015b602060405180830381865af4158015610c66573d6000803e3d6000fd5b505050506040513d601f19601f82011682018060405250810190610c8a9190611b95565b95945050505050565b60003333610ca081610725565b610cec5760405162461bcd60e51b815260206004820152601860248201527f6d75737420626520612073797374656d206163636f756e740000000000000000604482015260640161060b565b6003546040517fa6c9ac280000000000000000000000000000000000000000000000000000000081526001600160a01b03918216600482015290861660248201526044810185905273__MintableTokenLib______________________9063a6c9ac2890606401602060405180830381865af4158015610c66573d6000803e3d6000fd5b60015461010090046001600160a01b03163314610d8c57600080fd5b61076a611702565b60015461010090046001600160a01b03163314610db057600080fd5b8181604051610dc0929190611bb7565b604051908190038120906001600160a01b038516907fec75908259de4d038ff5f2b6b99e3725bc21871f4d2a44adeff9bb814afbc9f790600090a350506001600160a01b03166000908152600560205260409020805460ff19166001179055565b60015461010090046001600160a01b03163314610e3d57600080fd5b6003546040516001600160a01b038084169216907fdaaa9d417a3107fd3d9db02eba3eeafbae2b8af16ee08c534f5bc449054c1c4c90600090a36003805473ffffffffffffffffffffffffffffffffffffffff19166001600160a01b0392909216919091179055565b6007805461043e90611b28565b600085336001600160a01b0382161480610ed15750610ed13361054b565b610f3a5760405162461bcd60e51b815260206004820152603460248201527f6569746865722063616c6c6572206d7573742062652073656e646572206f722060448201527318d85b1b1a5b99c81d9a5848199c9bdb9d195b9960621b606482015260840161060b565b610f426116af565b610f4b8661149c565b6003546040517f1eb8bccb00000000000000000000000000000000000000000000000000000000815273__ERC677Lib_____________________________91631eb8bccb91610fb0916001600160a01b0316908b908b908b908b908b90600401611bc7565b602060405180830381865af4158015610fcd573d6000803e3d6000fd5b505050506040513d601f19601f82011682018060405250810190610ff19190611b95565b979650505050505050565b60015461010090046001600160a01b0316331461101857600080fd5b6110218161173d565b50565b60015461010090046001600160a01b0316331461104057600080fd5b600360009054906101000a90046001600160a01b03166001600160a01b0316634e71e0c86040518163ffffffff1660e01b8152600401600060405180830381600087803b15801561109057600080fd5b505af11580156110a4573d6000803e3d6000fd5b50505050565b6003546040517f1045d7ce0000000000000000000000000000000000000000000000000000000081526001600160a01b0391821660048201528382166024820152908216604482015260009073__ERC20Lib______________________________90631045d7ce90606401602060405180830381865af4158015611132573d6000803e3d6000fd5b505050506040513d601f19601f820116820180604052508101906111569190611b7c565b9392505050565b600083336001600160a01b038216148061117b575061117b3361054b565b6111e45760405162461bcd60e51b815260206004820152603460248201527f6569746865722063616c6c6572206d7573742062652073656e646572206f722060448201527318d85b1b1a5b99c81d9a5848199c9bdb9d195b9960621b606482015260840161060b565b6111ec6116af565b6111f58461149c565b6003546040517f44ded8ba0000000000000000000000000000000000000000000000000000000081526001600160a01b039182166004820152868216602482015290851660448201526064810184905273__ERC20Lib______________________________906344ded8ba90608401610c49565b600084336001600160a01b038216148061128757506112873361054b565b6112f05760405162461bcd60e51b815260206004820152603460248201527f6569746865722063616c6c6572206d7573742062652073656e646572206f722060448201527318d85b1b1a5b99c81d9a5848199c9bdb9d195b9960621b606482015260840161060b565b6112f86116af565b6113018461149c565b6003546040517ff3a0ddf90000000000000000000000000000000000000000000000000000000081526001600160a01b0391821660048201528782166024820152868216604482015290851660648201526084810184905273__ERC20Lib______________________________9063f3a0ddf99060a401602060405180830381865af41580156106f7573d6000803e3d6000fd5b60015461010090046001600160a01b031633146113b157600080fd5b6110218161179f565b60015461010090046001600160a01b031633146113d657600080fd5b6003546040517ff2fde38b0000000000000000000000000000000000000000000000000000000081526001600160a01b0383811660048301529091169063f2fde38b90602401600060405180830381600087803b15801561143657600080fd5b505af115801561144a573d6000803e3d6000fd5b5050505050565b60015461010090046001600160a01b0316331461146d57600080fd5b6002805473ffffffffffffffffffffffffffffffffffffffff19166001600160a01b0392909216919091179055565b6001600160a01b0381166114f25760405162461bcd60e51b815260206004820152601460248201527f6d757374206e6f742073656e6420746f20307830000000000000000000000000604482015260640161060b565b6001600160a01b03811630141561154b5760405162461bcd60e51b815260206004820152601b60248201527f6d757374206e6f742073656e6420746f20636f6e74726f6c6c65720000000000604482015260640161060b565b6003546001600160a01b03828116911614156115a95760405162461bcd60e51b815260206004820152601e60248201527f6d757374206e6f742073656e6420746f20746f6b656e2073746f726167650000604482015260640161060b565b6004546001600160a01b03828116911614156116075760405162461bcd60e51b815260206004820152601960248201527f6d757374206e6f742073656e6420746f2066726f6e74656e6400000000000000604482015260640161060b565b6116108161054b565b156110215760405162461bcd60e51b815260206004820181905260248201527f6d757374206e6f742073656e6420746f2062726964676546726f6e74656e6473604482015260640161060b565b6116656117e8565b6001805460ff191690557f5db9ee0a495bf2e6ff9c91a7834c1ba4fdd244a5e8aa4e537bd38aeae4b073aa335b6040516001600160a01b03909116815260200160405180910390a1565b60015460ff161561076a5760405162461bcd60e51b815260206004820152601060248201527f5061757361626c653a2070617573656400000000000000000000000000000000604482015260640161060b565b61170a6116af565b6001805460ff1916811790557f62e78cea01bee320cd4e420270b5ea74000d11b0c9f74754ebdbfc544b05a25833611692565b6117686000826001600160a01b0316600090815260209190915260409020805460ff19166001179055565b6040516001600160a01b038216907fdfb5b1167ef9eadf5cac67570f1a2971a6f6175303b9d4166a65a11d0a294e3490600090a250565b6001600160a01b038116600081815260208190526040808220805460ff19169055517f21bfb3de07221bc6197a8c23f7a059308b7a741f259cf4ef3b519cde0fde7ac39190a250565b60015460ff1661076a5760405162461bcd60e51b815260206004820152601460248201527f5061757361626c653a206e6f7420706175736564000000000000000000000000604482015260640161060b565b600060208083528351808285015260005b818110156118675785810183015185820160400152820161184b565b81811115611879576000604083870101525b50601f01601f1916929092016040019392505050565b80356001600160a01b03811681146118a657600080fd5b919050565b6000602082840312156118bd57600080fd5b6111568261188f565b6000806000606084860312156118db57600080fd5b6118e48461188f565b92506118f26020850161188f565b9150604084013590509250925092565b600080600080600080600060e0888a03121561191d57600080fd5b6119268861188f565b96506119346020890161188f565b95506040880135945060608801359350608088013560ff8116811461195857600080fd5b9699959850939692959460a0840135945060c09093013592915050565b6000806040838503121561198857600080fd5b6119918361188f565b946020939093013593505050565b60008083601f8401126119b157600080fd5b50813567ffffffffffffffff8111156119c957600080fd5b6020830191508360208285010111156119e157600080fd5b9250929050565b6000806000604084860312156119fd57600080fd5b611a068461188f565b9250602084013567ffffffffffffffff811115611a2257600080fd5b611a2e8682870161199f565b9497909650939450505050565b600080600080600060808688031215611a5357600080fd5b611a5c8661188f565b9450611a6a6020870161188f565b935060408601359250606086013567ffffffffffffffff811115611a8d57600080fd5b611a998882890161199f565b969995985093965092949392505050565b60008060408385031215611abd57600080fd5b611ac68361188f565b9150611ad46020840161188f565b90509250929050565b60008060008060808587031215611af357600080fd5b611afc8561188f565b9350611b0a6020860161188f565b9250611b186040860161188f565b9396929550929360600135925050565b600181811c90821680611b3c57607f821691505b60208210811415611b76577f4e487b7100000000000000000000000000000000000000000000000000000000600052602260045260246000fd5b50919050565b600060208284031215611b8e57600080fd5b5051919050565b600060208284031215611ba757600080fd5b8151801515811461115657600080fd5b8183823760009101908152919050565b60006001600160a01b038089168352808816602084015280871660408401525084606083015260a060808301528260a0830152828460c0840137600060c0848401015260c0601f19601f850116830101905097965050505050505056fea2646970667358221220a8be2ca79e0caddf2ca397b6a90ba458a806346aedf211058b1b504d329dfd7964736f6c634300080b0033608060405234801561001057600080fd5b50600080546001600160a01b03191633179055341561002e57600080fd5b610b1f8061003d6000396000f3fe608060405234801561001057600080fd5b50600436106100ec5760003560e01c80638da5cb5b11610091578063cf8eeb7e11610063578063cf8eeb7e146101be578063e30c3978146101d1578063f2fde38b146101e4578063f8b2cb4f146101f757005b80638da5cb5b146101655780639f727c2714610190578063c0ee0b8a14610198578063c7c7e9ea146101ab57005b806333dd1b8a116100ca57806333dd1b8a146101275780634e71e0c81461013a5780636c9c2faf14610142578063715018a61461015d57005b806317ffc320146100ee57806321e5383a146101015780632aed7f3f14610114575b005b6100ec6100fc366004610962565b61020a565b6100ec61010f36600461097f565b6102c6565b6100ec610122366004610962565b610374565b6100ec6101353660046109ab565b610400565b6100ec6104b6565b61014a61053e565b6040519081526020015b60405180910390f35b6100ec6105d3565b600054610178906001600160a01b031681565b6040516001600160a01b039091168152602001610154565b6100ec61063f565b6100ec6101a63660046109ec565b600080fd5b61014a6101b9366004610a75565b610693565b6100ec6101cc36600461097f565b610741565b600154610178906001600160a01b031681565b6100ec6101f2366004610962565b6107bf565b61014a610205366004610962565b6107c8565b6000546001600160a01b0316331461022157600080fd5b6040517f70a082310000000000000000000000000000000000000000000000000000000081523060048201526000906001600160a01b038316906370a0823190602401602060405180830381865afa158015610281573d6000803e3d6000fd5b505050506040513d601f19601f820116820180604052508101906102a59190610aae565b6000549091506102c2906001600160a01b0384811691168361086d565b5050565b6000546001600160a01b031633146102dd57600080fd5b6040517f7aeb0ed5000000000000000000000000000000000000000000000000000000008152600260048201526001600160a01b03831660248201526044810182905273__TokenStorageLib_______________________90637aeb0ed5906064015b60006040518083038186803b15801561035857600080fd5b505af415801561036c573d6000803e3d6000fd5b505050505050565b6000546001600160a01b0316331461038b57600080fd5b6000546040517ff2fde38b0000000000000000000000000000000000000000000000000000000081526001600160a01b039182166004820152829182169063f2fde38b90602401600060405180830381600087803b1580156103ec57600080fd5b505af115801561036c573d6000803e3d6000fd5b6000546001600160a01b0316331461041757600080fd5b6040517f5599b4b7000000000000000000000000000000000000000000000000000000008152600260048201526001600160a01b038085166024830152831660448201526064810182905273__TokenStorageLib_______________________90635599b4b79060840160006040518083038186803b15801561049957600080fd5b505af41580156104ad573d6000803e3d6000fd5b50505050505050565b6001546001600160a01b031633146104cd57600080fd5b600154600080546040516001600160a01b0393841693909116917f8be0079c531659141344cd1fd0a4f28419497f9722a3daafe3b4186f6b6457e091a3600180546000805473ffffffffffffffffffffffffffffffffffffffff199081166001600160a01b03841617909155169055565b6040517f072f9a500000000000000000000000000000000000000000000000000000000081526002600482015260009073__TokenStorageLib_______________________9063072f9a5090602401602060405180830381865af41580156105aa573d6000803e3d6000fd5b505050506040513d601f19601f820116820180604052508101906105ce9190610aae565b905090565b6000546001600160a01b031633146105ea57600080fd5b600080546040516001600160a01b03909116917ff8df31144d9c2f0f6b59d69b8b98abd5459d07f2742c4df920b25aae33c6482091a26000805473ffffffffffffffffffffffffffffffffffffffff19169055565b6000546001600160a01b0316331461065657600080fd5b600080546040516001600160a01b03909116914780156108fc02929091818181858888f19350505050158015610690573d6000803e3d6000fd5b50565b6040517f9daeae1e000000000000000000000000000000000000000000000000000000008152600260048201526001600160a01b0380841660248301528216604482015260009073__TokenStorageLib_______________________90639daeae1e90606401602060405180830381865af4158015610716573d6000803e3d6000fd5b505050506040513d601f19601f8201168201806040525081019061073a9190610aae565b9392505050565b6000546001600160a01b0316331461075857600080fd5b6040517fd9c7339e000000000000000000000000000000000000000000000000000000008152600260048201526001600160a01b03831660248201526044810182905273__TokenStorageLib_______________________9063d9c7339e90606401610340565b61069081610907565b6040517fb0aacf24000000000000000000000000000000000000000000000000000000008152600260048201526001600160a01b038216602482015260009073__TokenStorageLib_______________________9063b0aacf2490604401602060405180830381865af4158015610843573d6000803e3d6000fd5b505050506040513d601f19601f820116820180604052508101906108679190610aae565b92915050565b6040517fa9059cbb0000000000000000000000000000000000000000000000000000000081526001600160a01b0383811660048301526024820183905284169063a9059cbb906044016020604051808303816000875af11580156108d5573d6000803e3d6000fd5b505050506040513d601f19601f820116820180604052508101906108f99190610ac7565b61090257600080fd5b505050565b6000546001600160a01b0316331461091e57600080fd5b6001805473ffffffffffffffffffffffffffffffffffffffff19166001600160a01b0392909216919091179055565b6001600160a01b038116811461069057600080fd5b60006020828403121561097457600080fd5b813561073a8161094d565b6000806040838503121561099257600080fd5b823561099d8161094d565b946020939093013593505050565b6000806000606084860312156109c057600080fd5b83356109cb8161094d565b925060208401356109db8161094d565b929592945050506040919091013590565b60008060008060608587031215610a0257600080fd5b8435610a0d8161094d565b935060208501359250604085013567ffffffffffffffff80821115610a3157600080fd5b818701915087601f830112610a4557600080fd5b813581811115610a5457600080fd5b886020828501011115610a6657600080fd5b95989497505060200194505050565b60008060408385031215610a8857600080fd5b8235610a938161094d565b91506020830135610aa38161094d565b809150509250929050565b600060208284031215610ac057600080fd5b5051919050565b600060208284031215610ad957600080fd5b8151801515811461073a57600080fdfea264697066735822122090bbaf6a983f554be7623edb20f67f8b2a7b1fe5ebd324d5e34239852b81e66564736f6c634300080b0033",
  "immutableReferences": {},
  "source": "/* SPDX-License-Identifier: apache-2.0 */\n/**\n * Copyright 2022 Monerium ehf.\n *\n * Licensed under the Apache License, Version 2.0 (the \"License\");\n * you may not use this file except in compliance with the License.\n * You may obtain a copy of the License at\n *\n *     http://www.apache.org/licenses/LICENSE-2.0\n *\n * Unless required by applicable law or agreed to in writing, software\n * distributed under the License is distributed on an \"AS IS\" BASIS,\n * WITHOUT WARRANTIES OR CONDITIONS OF ANY KIND, either express or implied.\n * See the License for the specific language governing permissions and\n * limitations under the License.\n */\n\npragma solidity 0.8.11;\n\nimport \"./StandardController.sol\";\nimport \"./MintableTokenLib.sol\";\nimport \"./SystemRole.sol\";\n\n/**\n* @title MintableController\n* @dev This contracts implements functionality allowing for minting and burning of tokens.\n*/\ncontract MintableController is SystemRole, StandardController {\n\n  using MintableTokenLib for TokenStorage;\n\n  /**\n   * @dev Contract constructor.\n   * @param storage_ Address of the token storage for the controller.\n   * @param initialSupply The amount of tokens to mint upon creation.\n   * @param frontend_ Address of the authorized frontend.\n   */\n  constructor(address storage_, uint initialSupply, address frontend_)\n    StandardController(storage_, initialSupply, frontend_)\n    { }\n\n  /**\n   * @dev Assigns the system role to an account.\n   */\n  function addSystemAccount(address account) public override onlyOwner {\n    super.addSystemAccount(account);\n  }\n\n  /**\n   * @dev Removes the system role from an account.\n   */\n  function removeSystemAccount(address account) public override onlyOwner {\n    super.removeSystemAccount(account);\n  }\n\n  /**\n   * @dev Mints new tokens.\n   * @param caller Address of the caller passed through the frontend.\n   * @param to Address to credit the tokens.\n   * @param amount Number of tokens to mint.\n   */\n  function mintTo_withCaller(address caller, address to, uint amount)\n    public\n    guarded(caller)\n    onlySystemAccount(caller)\n    returns (bool)\n  {\n    avoidBlackholes(to);\n    return token.mint(to, amount);\n  }\n\n  /**\n   * @dev Burns tokens from token owner.\n   * This removes the burned tokens from circulation.\n   * @param caller Address of the caller passed through the frontend.\n   * @param from Address of the token owner.\n   * @param amount Number of tokens to burn.\n   * @param h Hash which the token owner signed.\n   * @param v Signature component.\n   * @param r Signature component.\n   * @param s Sigature component.\n   */\n  function burnFrom_withCaller(address caller, address from, uint amount, bytes32 h, uint8 v, bytes32 r, bytes32 s)\n    public\n    guarded(caller)\n    onlySystemAccount(caller)\n    returns (bool)\n  {\n    return token.burn(from, amount, h, v, r, s);\n  }\n\n  /**\n   * @dev Burns tokens from token owner.\n   * This removes the burned tokens from circulation.\n   * @param from Address of the token owner.\n   * @param amount Number of tokens to burn.\n   */\n  function burnFrom(address from, uint amount)\n    public\n    guarded(msg.sender)\n    onlySystemAccount(msg.sender)\n    returns (bool)\n  {\n    return token.burn(from, amount);\n  }\n\n}\n",
  "sourcePath": "/Users/gislik/Code/smart-contracts-private/contracts/MintableController.sol",
  "compiler": {
    "name": "solc",
    "version": "0.8.11+commit.d7f03943.Emscripten.clang"
  },
  "schemaVersion": "3.4.10",
  "updatedAt": "2022-11-29T23:17:50.926Z",
  "networkType": "ethereum",
  "devdoc": {
    "details": "This contracts implements functionality allowing for minting and burning of tokens.",
    "kind": "dev",
    "methods": {
      "addSystemAccount(address)": {
        "details": "Assigns the system role to an account."
      },
      "allowance(address,address)": {
        "details": "Returns the allowance for a spender",
        "params": {
          "owner": "The address of the owner of the tokens.",
          "spender": "The address of the spender."
        },
        "returns": {
          "_0": "Number of tokens the spender is allowed to spend."
        }
      },
      "approve_withCaller(address,address,uint256)": {
        "details": "Approves a spender [ERC20]. Note that using the approve/transferFrom presents a possible security vulnerability described in: https://docs.google.com/document/d/1YLPtQxZu1UAvO9cZ1O2RPXBbT0mooh4DYKjA_jp-RLM/edit#heading=h.quou09mcbpzw Use transferAndCall to mitigate.",
        "params": {
          "amount": "The allowance of the spender.",
          "caller": "Address of the caller passed through the frontend.",
          "spender": "The address of the future spender."
        }
      },
      "balanceOf(address)": {
        "details": "Returns the number tokens associated with an address.",
        "params": {
          "who": "Address to lookup."
        },
        "returns": {
          "_0": "Balance of address."
        }
      },
      "burnFrom(address,uint256)": {
        "details": "Burns tokens from token owner. This removes the burned tokens from circulation.",
        "params": {
          "amount": "Number of tokens to burn.",
          "from": "Address of the token owner."
        }
      },
      "burnFrom_withCaller(address,address,uint256,bytes32,uint8,bytes32,bytes32)": {
        "details": "Burns tokens from token owner. This removes the burned tokens from circulation.",
        "params": {
          "amount": "Number of tokens to burn.",
          "caller": "Address of the caller passed through the frontend.",
          "from": "Address of the token owner.",
          "h": "Hash which the token owner signed.",
          "r": "Signature component.",
          "s": "Sigature component.",
          "v": "Signature component."
        }
      },
      "claimOwnership()": {
        "details": "Allows the pendingOwner address to finalize the transfer."
      },
      "claimStorageOwnership()": {
        "details": "Claims the ownership of the storage."
      },
      "constructor": {
        "details": "Contract constructor.",
        "params": {
          "frontend_": "Address of the authorized frontend.",
          "initialSupply": "The amount of tokens to mint upon creation.",
          "storage_": "Address of the token storage for the controller."
        }
      },
      "getFrontend()": {
        "details": "Returns the current frontend.",
        "returns": {
          "_0": "Address of the frontend."
        }
      },
      "getStorage()": {
        "details": "Returns the current storage.",
        "returns": {
          "_0": "Address of the storage."
        }
      },
      "isFrontend(address)": {
        "details": "Checks wether an address is a frontend.",
        "params": {
          "frontend_": "Address of the frontend candidate."
        }
      },
      "isSystemAccount(address)": {
        "details": "Checks whether an address is a system account.",
        "params": {
          "account": "the address to check."
        },
        "returns": {
          "_0": "true if system account."
        }
      },
      "mintTo_withCaller(address,address,uint256)": {
        "details": "Mints new tokens.",
        "params": {
          "amount": "Number of tokens to mint.",
          "caller": "Address of the caller passed through the frontend.",
          "to": "Address to credit the tokens."
        }
      },
      "pause()": {
        "details": "Pause the function protected by Pausable modifier."
      },
      "paused()": {
        "details": "Returns true if the contract is paused, and false otherwise."
      },
      "removeSystemAccount(address)": {
        "details": "Removes the system role from an account."
      },
      "renounceOwnership()": {
        "details": "Allows the current owner to relinquish control of the contract."
      },
      "setBridgeFrontend(address,string)": {
        "details": "Set a new bridge frontend.",
        "params": {
          "frontend_": "Address of the new bridge frontend.",
          "title": "Keccack256 hash of the frontend title."
        }
      },
      "setFrontend(address)": {
        "details": "Sets a new frontend.",
        "params": {
          "frontend_": "Address of the new frontend."
        }
      },
      "setStorage(address)": {
        "details": "Sets a new storage.",
        "params": {
          "storage_": "Address of the new storage."
        }
      },
      "totalSupply()": {
        "details": "Returns the total supply.",
        "returns": {
          "_0": "Number of tokens."
        }
      },
      "transferAndCall_withCaller(address,address,uint256,bytes)": {
        "details": "Transfers tokens and subsequently calls a method on the recipient [ERC677]. If the recipient is a non-contract address this method behaves just like transfer.",
        "params": {
          "amount": "Number of tokens to transfer.",
          "caller": "Address of the caller passed through the frontend.",
          "data": "Additional data passed to the recipient's tokenFallback method.",
          "to": "Recipient address."
        }
      },
      "transferFrom_withCaller(address,address,address,uint256)": {
        "details": "Transfers tokens from a specific address [ERC20]. The address owner has to approve the spender beforehand.",
        "params": {
          "amount": "Number of tokens to transfer.",
          "caller": "Address of the caller passed through the frontend.",
          "from": "Address to debet the tokens from.",
          "to": "Recipient address."
        }
      },
      "transferOwnership(address)": {
        "details": "Allows the current owner to set the pendingOwner address.",
        "params": {
          "newOwner": "The address to transfer ownership to."
        }
      },
      "transferStorageOwnership(address)": {
        "details": "Transfers the ownership of the storage.",
        "params": {
          "newOwner": "Address of the new storage owner."
        }
      },
      "transfer_withCaller(address,address,uint256)": {
        "details": "Transfers tokens [ERC20].",
        "params": {
          "amount": "Number of tokens to transfer.",
          "caller": "Address of the caller passed through the frontend.",
          "to": "Recipient address."
        }
      },
      "unpause()": {
        "details": "Unpause the function protected by Pausable modifier."
      }
    },
    "title": "MintableController",
    "version": 1
  },
  "userdoc": {
    "kind": "user",
    "methods": {
      "renounceOwnership()": {
        "notice": "Renouncing to ownership will leave the contract without an owner. It will not be possible to call the functions with the `onlyOwner` modifier anymore."
      }
    },
    "version": 1
  }
}