{
  "contractName": "NewControllerAndBridgeFrontend",
  "abi": [
    {
      "inputs": [
        {
          "internalType": "address",
          "name": "old_",
          "type": "address"
        },
        {
          "internalType": "address",
          "name": "frontend_",
          "type": "address"
        },
        {
          "internalType": "address",
          "name": "storage_",
          "type": "address"
        },
        {
          "internalType": "address",
          "name": "validator_",
          "type": "address"
        },
        {
          "internalType": "bytes3",
          "name": "ticker_",
          "type": "bytes3"
        }
      ],
      "name": "launch",
      "outputs": [],
      "stateMutability": "nonpayable",
      "type": "function"
    },
    {
      "inputs": [],
      "name": "getBridge",
      "outputs": [
        {
          "internalType": "address",
          "name": "",
          "type": "address"
        }
      ],
      "stateMutability": "view",
      "type": "function"
    },
    {
      "inputs": [],
      "name": "getController",
      "outputs": [
        {
          "internalType": "address",
          "name": "",
          "type": "address"
        }
      ],
      "stateMutability": "view",
      "type": "function"
    }
  ],
  "bytecode": "0x608060405234801561001057600080fd5b50615deb806100206000396000f3fe608060405234801561001057600080fd5b50600436106100415760003560e01c80630fffbaf3146100465780633018205f1461006f5780637ef8f14b14610080575b600080fd5b6001546001600160a01b03165b6040516001600160a01b03909116815260200160405180910390f35b6000546001600160a01b0316610053565b61009361008e366004610640565b610095565b005b60008590506000859050816001600160a01b0316634e71e0c86040518163ffffffff1660e01b8152600401600060405180830381600087803b1580156100da57600080fd5b505af11580156100ee573d6000803e3d6000fd5b50505050806001600160a01b0316634e71e0c86040518163ffffffff1660e01b8152600401600060405180830381600087803b15801561012d57600080fd5b505af1158015610141573d6000803e3d6000fd5b5050505060405161015190610608565b604051809103906000f08015801561016d573d6000803e3d6000fd5b50600160006101000a8154816001600160a01b0302191690836001600160a01b03160217905550848484886040516101a490610616565b6001600160a01b03948516815292841660208401527fffffff00000000000000000000000000000000000000000000000000000000009091166040830152919091166060820152608001604051809103906000f08015801561020a573d6000803e3d6000fd5b50600080547fffffffffffffffffffffffff0000000000000000000000000000000000000000166001600160a01b039283169081179091556040517fee0b544500000000000000000000000000000000000000000000000000000000815260048101919091529083169063ee0b544590602401600060405180830381600087803b15801561029757600080fd5b505af11580156102ab573d6000803e3d6000fd5b505060008054604080517fb516af7000000000000000000000000000000000000000000000000000000000815290516001600160a01b03909216945063b516af709350600480820193929182900301818387803b15801561030b57600080fd5b505af115801561031f573d6000803e3d6000fd5b5050600054600154604080517f8fb81d980000000000000000000000000000000000000000000000000000000081526001600160a01b0392831660048201526024810191909152600e60448201527f506f6c79676f6e20427269646765000000000000000000000000000000000000606482015291169250638fb81d989150608401600060405180830381600087803b1580156103bb57600080fd5b505af11580156103cf573d6000803e3d6000fd5b50506000546040516392eefe9b60e01b81526001600160a01b03918216600482015290841692506392eefe9b9150602401600060405180830381600087803b15801561041a57600080fd5b505af115801561042e573d6000803e3d6000fd5b50506001546000546040516392eefe9b60e01b81526001600160a01b039182166004820152911692506392eefe9b9150602401600060405180830381600087803b15801561047b57600080fd5b505af115801561048f573d6000803e3d6000fd5b505060005460405163f2fde38b60e01b81523360048201526001600160a01b03909116925063f2fde38b9150602401600060405180830381600087803b1580156104d857600080fd5b505af11580156104ec573d6000803e3d6000fd5b505060405163f2fde38b60e01b81523360048201526001600160a01b038416925063f2fde38b9150602401600060405180830381600087803b15801561053157600080fd5b505af1158015610545573d6000803e3d6000fd5b505060015460405163f2fde38b60e01b81523360048201526001600160a01b03909116925063f2fde38b9150602401600060405180830381600087803b15801561058e57600080fd5b505af11580156105a2573d6000803e3d6000fd5b505060405163f2fde38b60e01b81523360048201526001600160a01b038516925063f2fde38b9150602401600060405180830381600087803b1580156105e757600080fd5b505af11580156105fb573d6000803e3d6000fd5b5050505050505050505050565b6122bf80620006cf83390190565b613428806200298e83390190565b80356001600160a01b038116811461063b57600080fd5b919050565b600080600080600060a0868803121561065857600080fd5b61066186610624565b945061066f60208701610624565b935061067d60408701610624565b925061068b60608701610624565b915060808601357fffffff0000000000000000000000000000000000000000000000000000000000811681146106c057600080fd5b80915050929550929590935056fe60806040523480156200001157600080fd5b50604080518082018252601381527f4d6f6e657269756d2045555220656d6f6e657900000000000000000000000000602080830191909152825180840190935260048352634555526560e01b90830152600080546001600160a01b03191633179055906222aaa960e91b34156200008757600080fd5b82516200009c9060049060208601906200018f565b508151620000b29060059060208501906200018f565b506006805462ffffff191660e883901c179055620000d2600033620000db565b50505062000272565b620000e78282620000eb565b5050565b60008281526002602090815260408083206001600160a01b038516845290915290205460ff16620000e75760008281526002602090815260408083206001600160a01b03851684529091529020805460ff191660011790556200014b3390565b6001600160a01b0316816001600160a01b0316837f2f8788117e7eff1d82e926ec794901d17c78024a50270940304540a733656f0d60405160405180910390a45050565b8280546200019d9062000235565b90600052602060002090601f016020900481019282620001c157600085556200020c565b82601f10620001dc57805160ff19168380011785556200020c565b828001600101855582156200020c579182015b828111156200020c578251825591602001919060010190620001ef565b506200021a9291506200021e565b5090565b5b808211156200021a57600081556001016200021f565b600181811c908216806200024a57607f821691505b602082108114156200026c57634e487b7160e01b600052602260045260246000fd5b50919050565b61203d80620002826000396000f3fe608060405234801561001057600080fd5b506004361061020b5760003560e01c80636eb4c6091161011b5780639f727c27116100b4578063d547741f11610086578063e30c39781161006e578063e30c39781461048d578063e72db5fd146104a0578063f2fde38b146104c757005b8063d547741f14610467578063dd62ed3e1461047a57005b80639f727c2714610431578063a217fddf14610439578063a9059cbb14610441578063c0ee0b8a1461045457005b80638da5cb5b116100ed5780638da5cb5b146103ca57806391d14854146103dd57806392eefe9b1461041657806395d89b411461042957005b80636eb4c6091461037657806370a0823114610389578063715018a61461039c5780638ba47bdd146103a457005b80632f2ff15d116101a55780633823caec1161017757806340c10f191161015f57806340c10f1914610348578063449a52f81461035b5780634e71e0c81461036e57005b80633823caec146103225780634000aea01461033557005b80632f2ff15d146102cf5780633018205f146102e2578063313ce5671461030757806336568abe1461030f57005b806318160ddd116101de57806318160ddd1461027057806323b872dd14610286578063248a9ca3146102995780632aed7f3f146102bc57005b806301ffc9a71461020d57806306fdde0314610235578063095ea7b31461024a57806317ffc3201461025d575b005b61022061021b366004611acf565b6104da565b60405190151581526020015b60405180910390f35b61023d610573565b60405161022c9190611b41565b610220610258366004611b89565b610601565b61020b61026b366004611bb5565b6106ed565b610278610790565b60405190815260200161022c565b610220610294366004611bd2565b61081c565b6102786102a7366004611c13565b60009081526002602052604090206001015490565b61020b6102ca366004611bb5565b610911565b61020b6102dd366004611c2c565b6109a5565b6003546001600160a01b03165b6040516001600160a01b03909116815260200161022c565b6102786109cf565b61020b61031d366004611c2c565b610a32565b610220610330366004611c72565b610abf565b610220610343366004611ccc565b610bce565b610220610356366004611b89565b610d09565b610220610369366004611b89565b610e18565b61020b610ef7565b610278610384366004611d55565b610f7f565b610278610397366004611bb5565b61107c565b61020b6110eb565b6006546103b19060e81b81565b6040516001600160e81b0319909116815260200161022c565b6000546102ef906001600160a01b031681565b6102206103eb366004611c2c565b60009182526002602090815260408084206001600160a01b0393909316845291905290205460ff1690565b61020b610424366004611bb5565b611157565b61023d611463565b61020b611470565b610278600081565b61022061044f366004611b89565b6114c1565b61020b610462366004611ccc565b600080fd5b61020b610475366004611c2c565b61159f565b610278610488366004611d9e565b6115c4565b6001546102ef906001600160a01b031681565b6102787f12ff340d0cd9c652c747ca35727e68c547d0f0bfa7758d2e77f75acef481b4f281565b61020b6104d5366004611bb5565b611654565b60007fffffffff0000000000000000000000000000000000000000000000000000000082167f7965db0b00000000000000000000000000000000000000000000000000000000148061056d57507f01ffc9a7000000000000000000000000000000000000000000000000000000007fffffffff000000000000000000000000000000000000000000000000000000008316145b92915050565b6004805461058090611dcc565b80601f01602080910402602001604051908101604052809291908181526020018280546105ac90611dcc565b80156105f95780601f106105ce576101008083540402835291602001916105f9565b820191906000526020600020905b8154815290600101906020018083116105dc57829003601f168201915b505050505081565b6003546040517f774d54090000000000000000000000000000000000000000000000000000000081523360048201526001600160a01b03848116602483015260448201849052600092169063774d5409906064016020604051808303816000875af1158015610674573d6000803e3d6000fd5b505050506040513d601f19601f820116820180604052508101906106989190611e07565b9050826001600160a01b0316336001600160a01b03167f8c5be1e5ebec7d5bd14f71427d1e84f3dd0314c0f7b2291e5b200ac8c7c3b925846040516106df91815260200190565b60405180910390a392915050565b6000546001600160a01b0316331461070457600080fd5b6040516370a0823160e01b81523060048201526000906001600160a01b038316906370a0823190602401602060405180830381865afa15801561074b573d6000803e3d6000fd5b505050506040513d601f19601f8201168201806040525081019061076f9190611e29565b60005490915061078c906001600160a01b0384811691168361165d565b5050565b600354604080517f18160ddd00000000000000000000000000000000000000000000000000000000815290516000926001600160a01b0316916318160ddd9160048083019260209291908290030181865afa1580156107f3573d6000803e3d6000fd5b505050506040513d601f19601f820116820180604052508101906108179190611e29565b905090565b6003546040517fe974fee90000000000000000000000000000000000000000000000000000000081523360048201526001600160a01b038581166024830152848116604483015260648201849052600092169063e974fee9906084016020604051808303816000875af1158015610897573d6000803e3d6000fd5b505050506040513d601f19601f820116820180604052508101906108bb9190611e07565b9050826001600160a01b0316846001600160a01b03167fddf252ad1be2c89b69c2b068fc378daa952ba7f163c4a11628f55a4df523b3ef8460405161090291815260200190565b60405180910390a39392505050565b6000546001600160a01b0316331461092857600080fd5b6000546040517ff2fde38b0000000000000000000000000000000000000000000000000000000081526001600160a01b039182166004820152829182169063f2fde38b90602401600060405180830381600087803b15801561098957600080fd5b505af115801561099d573d6000803e3d6000fd5b505050505050565b6000828152600260205260409020600101546109c0816116f2565b6109ca83836116fc565b505050565b600354604080517f313ce56700000000000000000000000000000000000000000000000000000000815290516000926001600160a01b03169163313ce5679160048083019260209291908290030181865afa1580156107f3573d6000803e3d6000fd5b6001600160a01b0381163314610ab55760405162461bcd60e51b815260206004820152602f60248201527f416363657373436f6e74726f6c3a2063616e206f6e6c792072656e6f756e636560448201527f20726f6c657320666f722073656c66000000000000000000000000000000000060648201526084015b60405180910390fd5b61078c828261179e565b6003546040517f4eb007540000000000000000000000000000000000000000000000000000000081523360048201526001600160a01b038881166024830152604482018890526064820187905260ff8616608483015260a4820185905260c482018490526000921690634eb007549060e4016020604051808303816000875af1158015610b50573d6000803e3d6000fd5b505050506040513d601f19601f82011682018060405250810190610b749190611e07565b905060006001600160a01b0316876001600160a01b03167fddf252ad1be2c89b69c2b068fc378daa952ba7f163c4a11628f55a4df523b3ef88604051610bbc91815260200190565b60405180910390a39695505050505050565b6003546040517f9e7f43ca0000000000000000000000000000000000000000000000000000000081526000916001600160a01b031690639e7f43ca90610c209033908990899089908990600401611e6b565b6020604051808303816000875af1158015610c3f573d6000803e3d6000fd5b505050506040513d601f19601f82011682018060405250810190610c639190611e07565b9050846001600160a01b0316336001600160a01b03167fddf252ad1be2c89b69c2b068fc378daa952ba7f163c4a11628f55a4df523b3ef86604051610caa91815260200190565b60405180910390a3846001600160a01b0316336001600160a01b03167fe19260aff97b920c7df27010903aeb9c8d2be5d310a2c67824cf3f15396e4c16868686604051610cf993929190611ea9565b60405180910390a3949350505050565b3360009081527f01fe8a47b306d7a52efb17b73cdfe0b3311b7856a8f6b264a0f03659201b1e9e602052604081205460ff16610d875760405162461bcd60e51b815260206004820152601760248201527f63616c6c6572206973206e6f74205052454449434154450000000000000000006044820152606401610aac565b6040517f449a52f80000000000000000000000000000000000000000000000000000000081526001600160a01b038416600482015260248101839052309063449a52f8906044016020604051808303816000875af1158015610ded573d6000803e3d6000fd5b505050506040513d601f19601f82011682018060405250810190610e119190611e07565b9392505050565b6003546040517f322ec0fb0000000000000000000000000000000000000000000000000000000081523360048201526001600160a01b03848116602483015260448201849052600092169063322ec0fb906064016020604051808303816000875af1158015610e8b573d6000803e3d6000fd5b505050506040513d601f19601f82011682018060405250810190610eaf9190611e07565b9050826001600160a01b031660006001600160a01b03167fddf252ad1be2c89b69c2b068fc378daa952ba7f163c4a11628f55a4df523b3ef846040516106df91815260200190565b6001546001600160a01b03163314610f0e57600080fd5b600154600080546040516001600160a01b0393841693909116917f8be0079c531659141344cd1fd0a4f28419497f9722a3daafe3b4186f6b6457e091a3600180546000805473ffffffffffffffffffffffffffffffffffffffff199081166001600160a01b03841617909155169055565b6003546040517f3cd1570f0000000000000000000000000000000000000000000000000000000081523360048201526001600160a01b03888116602483015287811660448301526064820187905260ff8616608483015260a4820185905260c482018490526000921690633cd1570f9060e4016020604051808303816000875af1158015611011573d6000803e3d6000fd5b505050506040513d601f19601f820116820180604052508101906110359190611e29565b9050856001600160a01b0316876001600160a01b03167fddf252ad1be2c89b69c2b068fc378daa952ba7f163c4a11628f55a4df523b3ef83604051610bbc91815260200190565b6003546040516370a0823160e01b81526001600160a01b03838116600483015260009216906370a0823190602401602060405180830381865afa1580156110c7573d6000803e3d6000fd5b505050506040513d601f19601f8201168201806040525081019061056d9190611e29565b6000546001600160a01b0316331461110257600080fd5b600080546040516001600160a01b03909116917ff8df31144d9c2f0f6b59d69b8b98abd5459d07f2742c4df920b25aae33c6482091a26000805473ffffffffffffffffffffffffffffffffffffffff19169055565b6000546001600160a01b0316331461116e57600080fd5b6001600160a01b0381166111ea5760405162461bcd60e51b815260206004820152602d60248201527f636f6e74726f6c6c657220616464726573732063616e6e6f742062652074686560448201527f206e756c6c2061646472657373000000000000000000000000000000000000006064820152608401610aac565b6003546006546040516001600160a01b0384811693169160e81b6001600160e81b031916907f2ce3a3a1c097de2b147145a1e6f236b569e75e7310e3b0b436d5dea8f60e35dc90600090a46003805473ffffffffffffffffffffffffffffffffffffffff19166001600160a01b0383169081179091556040517f25ec2eb00000000000000000000000000000000000000000000000000000000081523060048201526325ec2eb090602401602060405180830381865afa1580156112b2573d6000803e3d6000fd5b505050506040513d601f19601f820116820180604052508101906112d69190611e07565b6113485760405162461bcd60e51b815260206004820152602760248201527f636f6e74726f6c6c65722066726f6e74656e6420646f6573206e6f7420706f6960448201527f6e74206261636b000000000000000000000000000000000000000000000000006064820152608401610aac565b600654600354604080517f8ba47bdd000000000000000000000000000000000000000000000000000000008152905160e89390931b6001600160e81b031916926001600160a01b0390921691638ba47bdd916004808201926020929091908290030181865afa1580156113bf573d6000803e3d6000fd5b505050506040513d601f19601f820116820180604052508101906113e39190611ecc565b6001600160e81b031916146114605760405162461bcd60e51b815260206004820152602760248201527f7469636b657220646f6573206e6f74206d6174636820636f6e74726f6c6c657260448201527f207469636b6574000000000000000000000000000000000000000000000000006064820152608401610aac565b50565b6005805461058090611dcc565b6000546001600160a01b0316331461148757600080fd5b600080546040516001600160a01b03909116914780156108fc02929091818181858888f19350505050158015611460573d6000803e3d6000fd5b6003546040517fe174fd940000000000000000000000000000000000000000000000000000000081523360048201526001600160a01b03848116602483015260448201849052600092169063e174fd94906064016020604051808303816000875af1158015611534573d6000803e3d6000fd5b505050506040513d601f19601f820116820180604052508101906115589190611e07565b9050826001600160a01b0316336001600160a01b03167fddf252ad1be2c89b69c2b068fc378daa952ba7f163c4a11628f55a4df523b3ef846040516106df91815260200190565b6000828152600260205260409020600101546115ba816116f2565b6109ca838361179e565b6003546040517fdd62ed3e0000000000000000000000000000000000000000000000000000000081526001600160a01b0384811660048301528381166024830152600092169063dd62ed3e90604401602060405180830381865afa158015611630573d6000803e3d6000fd5b505050506040513d601f19601f82011682018060405250810190610e119190611e29565b61146081611821565b6040517fa9059cbb0000000000000000000000000000000000000000000000000000000081526001600160a01b0383811660048301526024820183905284169063a9059cbb906044016020604051808303816000875af11580156116c5573d6000803e3d6000fd5b505050506040513d601f19601f820116820180604052508101906116e99190611e07565b6109ca57600080fd5b6114608133611867565b60008281526002602090815260408083206001600160a01b038516845290915290205460ff1661078c5760008281526002602090815260408083206001600160a01b03851684529091529020805460ff1916600117905561175a3390565b6001600160a01b0316816001600160a01b0316837f2f8788117e7eff1d82e926ec794901d17c78024a50270940304540a733656f0d60405160405180910390a45050565b60008281526002602090815260408083206001600160a01b038516845290915290205460ff161561078c5760008281526002602090815260408083206001600160a01b0385168085529252808320805460ff1916905551339285917ff6391f5c32d9c69d2a47ea670b442974b53935d1edc7fd64eb21e047a839171b9190a45050565b6000546001600160a01b0316331461183857600080fd5b6001805473ffffffffffffffffffffffffffffffffffffffff19166001600160a01b0392909216919091179055565b60008281526002602090815260408083206001600160a01b038516845290915290205460ff1661078c5761189a816118dc565b6118a58360206118ee565b6040516020016118b6929190611ef6565b60408051601f198184030181529082905262461bcd60e51b8252610aac91600401611b41565b606061056d6001600160a01b03831660145b606060006118fd836002611f8d565b611908906002611fac565b67ffffffffffffffff81111561192057611920611fc4565b6040519080825280601f01601f19166020018201604052801561194a576020820181803683370190505b5090507f30000000000000000000000000000000000000000000000000000000000000008160008151811061198157611981611fda565b60200101906001600160f81b031916908160001a9053507f7800000000000000000000000000000000000000000000000000000000000000816001815181106119cc576119cc611fda565b60200101906001600160f81b031916908160001a90535060006119f0846002611f8d565b6119fb906001611fac565b90505b6001811115611a80577f303132333435363738396162636465660000000000000000000000000000000085600f1660108110611a3c57611a3c611fda565b1a60f81b828281518110611a5257611a52611fda565b60200101906001600160f81b031916908160001a90535060049490941c93611a7981611ff0565b90506119fe565b508315610e115760405162461bcd60e51b815260206004820181905260248201527f537472696e67733a20686578206c656e67746820696e73756666696369656e746044820152606401610aac565b600060208284031215611ae157600080fd5b81357fffffffff0000000000000000000000000000000000000000000000000000000081168114610e1157600080fd5b60005b83811015611b2c578181015183820152602001611b14565b83811115611b3b576000848401525b50505050565b6020815260008251806020840152611b60816040850160208701611b11565b601f01601f19169190910160400192915050565b6001600160a01b038116811461146057600080fd5b60008060408385031215611b9c57600080fd5b8235611ba781611b74565b946020939093013593505050565b600060208284031215611bc757600080fd5b8135610e1181611b74565b600080600060608486031215611be757600080fd5b8335611bf281611b74565b92506020840135611c0281611b74565b929592945050506040919091013590565b600060208284031215611c2557600080fd5b5035919050565b60008060408385031215611c3f57600080fd5b823591506020830135611c5181611b74565b809150509250929050565b803560ff81168114611c6d57600080fd5b919050565b60008060008060008060c08789031215611c8b57600080fd5b8635611c9681611b74565b95506020870135945060408701359350611cb260608801611c5c565b92506080870135915060a087013590509295509295509295565b60008060008060608587031215611ce257600080fd5b8435611ced81611b74565b935060208501359250604085013567ffffffffffffffff80821115611d1157600080fd5b818701915087601f830112611d2557600080fd5b813581811115611d3457600080fd5b886020828501011115611d4657600080fd5b95989497505060200194505050565b60008060008060008060c08789031215611d6e57600080fd5b8635611d7981611b74565b95506020870135611d8981611b74565b945060408701359350611cb260608801611c5c565b60008060408385031215611db157600080fd5b8235611dbc81611b74565b91506020830135611c5181611b74565b600181811c90821680611de057607f821691505b60208210811415611e0157634e487b7160e01b600052602260045260246000fd5b50919050565b600060208284031215611e1957600080fd5b81518015158114610e1157600080fd5b600060208284031215611e3b57600080fd5b5051919050565b81835281816020850137506000828201602090810191909152601f909101601f19169091010190565b60006001600160a01b03808816835280871660208401525084604083015260806060830152611e9e608083018486611e42565b979650505050505050565b838152604060208201526000611ec3604083018486611e42565b95945050505050565b600060208284031215611ede57600080fd5b81516001600160e81b031981168114610e1157600080fd5b7f416363657373436f6e74726f6c3a206163636f756e7420000000000000000000815260008351611f2e816017850160208801611b11565b7f206973206d697373696e6720726f6c65200000000000000000000000000000006017918401918201528351611f6b816028840160208801611b11565b01602801949350505050565b634e487b7160e01b600052601160045260246000fd5b6000816000190483118215151615611fa757611fa7611f77565b500290565b60008219821115611fbf57611fbf611f77565b500190565b634e487b7160e01b600052604160045260246000fd5b634e487b7160e01b600052603260045260246000fd5b600081611fff57611fff611f77565b50600019019056fea2646970667358221220db036e3771ffb75648d01ed03d21f0990f1711e94fc789b770a2d1e10d1bcecd64736f6c634300080b0033608060405260126008553480156200001657600080fd5b5060405162003428380380620034288339810160408190526200003991620002f7565b600180546001600160a81b0319166101003302179055836000828282826001600160a01b03831615806200006b575081155b620000e35760405162461bcd60e51b815260206004820152603f60248201527f656974686572206120746f6b656e2073746f72616765206d757374206265206960448201527f6e697469616c697a6564206f72206e6f20696e697469616c20737570706c790060648201526084015b60405180910390fd5b6001600160a01b0383166200019a576040516200010090620002cc565b604051809103906000f0801580156200011d573d6000803e3d6000fd5b50600380546001600160a01b0319166001600160a01b039290921691821790556040516310f29c1d60e11b8152336004820152602481018490526321e5383a90604401600060405180830381600087803b1580156200017b57600080fd5b505af115801562000190573d6000803e3d6000fd5b50505050620001b6565b600380546001600160a01b0319166001600160a01b0385161790555b600480546001600160a01b0319166001600160a01b039283161790558816151594506200023793505050505760405162461bcd60e51b8152602060048201526024808201527f76616c696461746f722063616e6e6f7420626520746865206e756c6c206164646044820152637265737360e01b6064820152608401620000da565b60405163ad41534960e01b8152600960048201526001600160a01b038416602482015273__SmartTokenLib_________________________9063ad4153499060440160006040518083038186803b1580156200029257600080fd5b505af4158015620002a7573d6000803e3d6000fd5b5050600a805462ffffff191660e89590951c9490941790935550620003639350505050565b610b5c80620028cc83390190565b80516001600160a01b0381168114620002f257600080fd5b919050565b600080600080608085870312156200030e57600080fd5b6200031985620002da565b93506200032960208601620002da565b60408601519093506001600160e81b0319811681146200034857600080fd5b91506200035860608601620002da565b905092959194509250565b61255980620003736000396000f3fe608060405234801561001057600080fd5b50600436106102765760003560e01c8063715018a6116101605780639e7f43ca116100d8578063e30c39781161008c578063ebbc3d4611610071578063ebbc3d46146104f3578063ee0b544514610506578063f2fde38b1461051957600080fd5b8063e30c3978146104cd578063e974fee9146104e057600080fd5b8063b516af70116100bd578063b516af701461049f578063dd62ed3e146104a7578063e174fd94146104ba57600080fd5b80639e7f43ca14610479578063a84c56d01461048c57600080fd5b80638ba47bdd1161012f5780638fb81d98116101145780638fb81d981461044b5780639137c1a71461045e57806395d89b411461047157600080fd5b80638ba47bdd146103f55780638da5cb5b1461043357600080fd5b8063715018a6146103bf578063774d5409146103c757806379cc6790146103da5780638456cb59146103ed57600080fd5b8063326ecb05116101f35780634e71e0c8116101c25780635c975abb116101a75780635c975abb1461038e57806369569a511461039957806370a08231146103ac57600080fd5b80634e71e0c8146103735780634eb007541461037b57600080fd5b8063326ecb05146103345780633408f73a146103475780633cd1570f146103585780633f4ba83a1461036b57600080fd5b806318160ddd1161024a5780632ff2e9dc1161022f5780632ff2e9dc14610310578063313ce56714610318578063322ec0fb1461032157600080fd5b806318160ddd146102d757806325ec2eb0146102ed57600080fd5b80623074ff1461027b57806306fdde03146102a55780631195e07e146102ba5780631327d3d8146102c2575b600080fd5b6004546001600160a01b03165b6040516001600160a01b0390911681526020015b60405180910390f35b6102ad61052c565b60405161029c919061209c565b6102886105ba565b6102d56102d0366004612106565b61064f565b005b6102df6106ef565b60405190815260200161029c565b6103006102fb366004612106565b610776565b604051901515815260200161029c565b6102df600081565b6102df60085481565b61030061032f366004612123565b6107b3565b610300610342366004612106565b610950565b6003546001600160a01b0316610288565b6102df61036636600461217a565b610971565b6102d5610b2c565b6102d5610b52565b6103006103893660046121f1565b610bfa565b60015460ff16610300565b6102d56103a7366004612106565b610d9d565b6102df6103ba366004612106565b610e22565b6102d5610eaa565b6103006103d5366004612123565b610f22565b6103006103e8366004612243565b61106b565b6102d5611148565b600a546104029060e81b81565b6040517fffffff0000000000000000000000000000000000000000000000000000000000909116815260200161029c565b6001546102889061010090046001600160a01b031681565b6102d56104593660046122b8565b61116c565b6102d561046c366004612106565b6111f9565b6102ad61127e565b61030061048736600461230d565b61128b565b6102d561049a366004612106565b611436565b6102d561145e565b6102df6104b5366004612380565b6114e4565b6103006104c8366004612123565b611597565b600254610288906001600160a01b031681565b6103006104ee3660046123b9565b61170f565b6102d5610501366004612106565b611888565b6102d5610514366004612106565b6118ad565b6102d5610527366004612106565b61193d565b600680546105399061240a565b80601f01602080910402602001604051908101604052809291908181526020018280546105659061240a565b80156105b25780601f10610587576101008083540402835291602001916105b2565b820191906000526020600020905b81548152906001019060200180831161059557829003601f168201915b505050505081565b6040517f6271970c0000000000000000000000000000000000000000000000000000000081526009600482015260009073__SmartTokenLib_________________________90636271970c90602401602060405180830381865af4158015610626573d6000803e3d6000fd5b505050506040513d601f19601f8201168201806040525081019061064a919061245e565b905090565b61065833610950565b61066157600080fd5b6040517fad415349000000000000000000000000000000000000000000000000000000008152600960048201526001600160a01b038216602482015273__SmartTokenLib_________________________9063ad4153499060440160006040518083038186803b1580156106d457600080fd5b505af41580156106e8573d6000803e3d6000fd5b5050505050565b600354604080517f6c9c2faf00000000000000000000000000000000000000000000000000000000815290516000926001600160a01b031691636c9c2faf9160048083019260209291908290030181865afa158015610752573d6000803e3d6000fd5b505050506040513d601f19601f8201168201806040525081019061064a919061247b565b6004546000906001600160a01b03838116911614806107ad57506001600160a01b03821660009081526005602052604090205460ff165b92915050565b600083336001600160a01b03821614806107d157506107d133610776565b61083f5760405162461bcd60e51b815260206004820152603460248201527f6569746865722063616c6c6572206d7573742062652073656e646572206f722060448201527318d85b1b1a5b99c81d9a5848199c9bdb9d195b9960621b60648201526084015b60405180910390fd5b8461084981610950565b6108955760405162461bcd60e51b815260206004820152601860248201527f6d75737420626520612073797374656d206163636f756e7400000000000000006044820152606401610836565b61089e85611988565b6003546040517fb0c29c740000000000000000000000000000000000000000000000000000000081526001600160a01b03918216600482015290861660248201526044810185905273__MintableTokenLib______________________9063b0c29c7490606401602060405180830381865af4158015610922573d6000803e3d6000fd5b505050506040513d601f19601f820116820180604052508101906109469190612494565b9695505050505050565b6001600160a01b03811660009081526020819052604081205460ff166107ad565b600087336001600160a01b038216148061098f575061098f33610776565b6109f85760405162461bcd60e51b815260206004820152603460248201527f6569746865722063616c6c6572206d7573742062652073656e646572206f722060448201527318d85b1b1a5b99c81d9a5848199c9bdb9d195b9960621b6064820152608401610836565b88610a0281610950565b610a4e5760405162461bcd60e51b815260206004820152601860248201527f6d75737420626520612073797374656d206163636f756e7400000000000000006044820152606401610836565b610a5788611988565b6003546040517f8f7227340000000000000000000000000000000000000000000000000000000081526001600160a01b0391821660048201528a8216602482015290891660448201526064810188905260ff8716608482015260a4810186905260c4810185905273__SmartTokenLib_________________________90638f7227349060e401602060405180830381865af4158015610afa573d6000803e3d6000fd5b505050506040513d601f19601f82011682018060405250810190610b1e919061247b565b9a9950505050505050505050565b60015461010090046001600160a01b03163314610b4857600080fd5b610b50611b49565b565b6002546001600160a01b03163314610b6957600080fd5b6002546001546040516001600160a01b0392831692610100909204909116907f8be0079c531659141344cd1fd0a4f28419497f9722a3daafe3b4186f6b6457e090600090a3600280546001805474ffffffffffffffffffffffffffffffffffffffff0019166101006001600160a01b0384160217905573ffffffffffffffffffffffffffffffffffffffff19169055565b600087336001600160a01b0382161480610c185750610c1833610776565b610c815760405162461bcd60e51b815260206004820152603460248201527f6569746865722063616c6c6572206d7573742062652073656e646572206f722060448201527318d85b1b1a5b99c81d9a5848199c9bdb9d195b9960621b6064820152608401610836565b88610c8b81610950565b610cd75760405162461bcd60e51b815260206004820152601860248201527f6d75737420626520612073797374656d206163636f756e7400000000000000006044820152606401610836565b6003546040517f799639d40000000000000000000000000000000000000000000000000000000081526001600160a01b039182166004820152908a166024820152604481018990526064810188905260ff8716608482015260a4810186905260c4810185905273__MintableTokenLib______________________9063799639d49060e401602060405180830381865af4158015610d79573d6000803e3d6000fd5b505050506040513d601f19601f82011682018060405250810190610b1e9190612494565b60015461010090046001600160a01b03163314610db957600080fd5b6004546040516001600160a01b038084169216907fcb01f884fc4203d4c1643cb0e126faeb397682c122ca8c0433776d42cdc0060a90600090a36004805473ffffffffffffffffffffffffffffffffffffffff19166001600160a01b0392909216919091179055565b6003546040517ff8b2cb4f0000000000000000000000000000000000000000000000000000000081526001600160a01b038381166004830152600092169063f8b2cb4f90602401602060405180830381865afa158015610e86573d6000803e3d6000fd5b505050506040513d601f19601f820116820180604052508101906107ad919061247b565b60015461010090046001600160a01b03163314610ec657600080fd5b6001546040516101009091046001600160a01b0316907ff8df31144d9c2f0f6b59d69b8b98abd5459d07f2742c4df920b25aae33c6482090600090a26001805474ffffffffffffffffffffffffffffffffffffffff0019169055565b600083336001600160a01b0382161480610f405750610f4033610776565b610fa95760405162461bcd60e51b815260206004820152603460248201527f6569746865722063616c6c6572206d7573742062652073656e646572206f722060448201527318d85b1b1a5b99c81d9a5848199c9bdb9d195b9960621b6064820152608401610836565b610fb1611b9b565b6003546040517f365feff10000000000000000000000000000000000000000000000000000000081526001600160a01b039182166004820152868216602482015290851660448201526064810184905273__ERC20Lib______________________________9063365feff1906084015b602060405180830381865af415801561103e573d6000803e3d6000fd5b505050506040513d601f19601f820116820180604052508101906110629190612494565b95945050505050565b6000333361107881610950565b6110c45760405162461bcd60e51b815260206004820152601860248201527f6d75737420626520612073797374656d206163636f756e7400000000000000006044820152606401610836565b6003546040517fa6c9ac280000000000000000000000000000000000000000000000000000000081526001600160a01b03918216600482015290861660248201526044810185905273__MintableTokenLib______________________9063a6c9ac2890606401602060405180830381865af415801561103e573d6000803e3d6000fd5b60015461010090046001600160a01b0316331461116457600080fd5b610b50611bee565b60015461010090046001600160a01b0316331461118857600080fd5b81816040516111989291906124b6565b604051908190038120906001600160a01b038516907fec75908259de4d038ff5f2b6b99e3725bc21871f4d2a44adeff9bb814afbc9f790600090a350506001600160a01b03166000908152600560205260409020805460ff19166001179055565b60015461010090046001600160a01b0316331461121557600080fd5b6003546040516001600160a01b038084169216907fdaaa9d417a3107fd3d9db02eba3eeafbae2b8af16ee08c534f5bc449054c1c4c90600090a36003805473ffffffffffffffffffffffffffffffffffffffff19166001600160a01b0392909216919091179055565b600780546105399061240a565b600085336001600160a01b03821614806112a957506112a933610776565b6113125760405162461bcd60e51b815260206004820152603460248201527f6569746865722063616c6c6572206d7573742062652073656e646572206f722060448201527318d85b1b1a5b99c81d9a5848199c9bdb9d195b9960621b6064820152608401610836565b61131a611b9b565b6040516332c5a6eb60e01b8152600960048201526001600160a01b038089166024830152871660448201526064810186905273__SmartTokenLib_________________________906332c5a6eb90608401602060405180830381865af4158015611388573d6000803e3d6000fd5b505050506040513d601f19601f820116820180604052508101906113ac9190612494565b61141e5760405162461bcd60e51b815260206004820152602160248201527f7472616e73666572416e6443616c6c2072657175657374206e6f742076616c6960448201527f64000000000000000000000000000000000000000000000000000000000000006064820152608401610836565b61142b8787878787611c29565b979650505050505050565b60015461010090046001600160a01b0316331461145257600080fd5b61145b81611d67565b50565b60015461010090046001600160a01b0316331461147a57600080fd5b600360009054906101000a90046001600160a01b03166001600160a01b0316634e71e0c86040518163ffffffff1660e01b8152600401600060405180830381600087803b1580156114ca57600080fd5b505af11580156114de573d6000803e3d6000fd5b50505050565b6003546040517f1045d7ce0000000000000000000000000000000000000000000000000000000081526001600160a01b0391821660048201528382166024820152908216604482015260009073__ERC20Lib______________________________90631045d7ce90606401602060405180830381865af415801561156c573d6000803e3d6000fd5b505050506040513d601f19601f82011682018060405250810190611590919061247b565b9392505050565b600083336001600160a01b03821614806115b557506115b533610776565b61161e5760405162461bcd60e51b815260206004820152603460248201527f6569746865722063616c6c6572206d7573742062652073656e646572206f722060448201527318d85b1b1a5b99c81d9a5848199c9bdb9d195b9960621b6064820152608401610836565b611626611b9b565b6040516332c5a6eb60e01b8152600960048201526001600160a01b038087166024830152851660448201526064810184905273__SmartTokenLib_________________________906332c5a6eb90608401602060405180830381865af4158015611694573d6000803e3d6000fd5b505050506040513d601f19601f820116820180604052508101906116b89190612494565b6117045760405162461bcd60e51b815260206004820152601a60248201527f7472616e736665722072657175657374206e6f742076616c69640000000000006044820152606401610836565b611062858585611dc9565b600084336001600160a01b038216148061172d575061172d33610776565b6117965760405162461bcd60e51b815260206004820152603460248201527f6569746865722063616c6c6572206d7573742062652073656e646572206f722060448201527318d85b1b1a5b99c81d9a5848199c9bdb9d195b9960621b6064820152608401610836565b61179e611b9b565b6040516332c5a6eb60e01b8152600960048201526001600160a01b038087166024830152851660448201526064810184905273__SmartTokenLib_________________________906332c5a6eb90608401602060405180830381865af415801561180c573d6000803e3d6000fd5b505050506040513d601f19601f820116820180604052508101906118309190612494565b61187c5760405162461bcd60e51b815260206004820152601e60248201527f7472616e7366657246726f6d2072657175657374206e6f742076616c696400006044820152606401610836565b61094686868686611ed5565b60015461010090046001600160a01b031633146118a457600080fd5b61145b81612001565b60015461010090046001600160a01b031633146118c957600080fd5b6003546040517ff2fde38b0000000000000000000000000000000000000000000000000000000081526001600160a01b0383811660048301529091169063f2fde38b90602401600060405180830381600087803b15801561192957600080fd5b505af11580156106e8573d6000803e3d6000fd5b60015461010090046001600160a01b0316331461195957600080fd5b6002805473ffffffffffffffffffffffffffffffffffffffff19166001600160a01b0392909216919091179055565b6001600160a01b0381166119de5760405162461bcd60e51b815260206004820152601460248201527f6d757374206e6f742073656e6420746f203078300000000000000000000000006044820152606401610836565b6001600160a01b038116301415611a375760405162461bcd60e51b815260206004820152601b60248201527f6d757374206e6f742073656e6420746f20636f6e74726f6c6c657200000000006044820152606401610836565b6003546001600160a01b0382811691161415611a955760405162461bcd60e51b815260206004820152601e60248201527f6d757374206e6f742073656e6420746f20746f6b656e2073746f7261676500006044820152606401610836565b6004546001600160a01b0382811691161415611af35760405162461bcd60e51b815260206004820152601960248201527f6d757374206e6f742073656e6420746f2066726f6e74656e64000000000000006044820152606401610836565b611afc81610776565b1561145b5760405162461bcd60e51b815260206004820181905260248201527f6d757374206e6f742073656e6420746f2062726964676546726f6e74656e64736044820152606401610836565b611b5161204a565b6001805460ff191690557f5db9ee0a495bf2e6ff9c91a7834c1ba4fdd244a5e8aa4e537bd38aeae4b073aa335b6040516001600160a01b03909116815260200160405180910390a1565b60015460ff1615610b505760405162461bcd60e51b815260206004820152601060248201527f5061757361626c653a20706175736564000000000000000000000000000000006044820152606401610836565b611bf6611b9b565b6001805460ff1916811790557f62e78cea01bee320cd4e420270b5ea74000d11b0c9f74754ebdbfc544b05a25833611b7e565b600085336001600160a01b0382161480611c475750611c4733610776565b611cb05760405162461bcd60e51b815260206004820152603460248201527f6569746865722063616c6c6572206d7573742062652073656e646572206f722060448201527318d85b1b1a5b99c81d9a5848199c9bdb9d195b9960621b6064820152608401610836565b611cb8611b9b565b611cc186611988565b6003546040517f1eb8bccb00000000000000000000000000000000000000000000000000000000815273__ERC677Lib_____________________________91631eb8bccb91611d26916001600160a01b0316908b908b908b908b908b906004016124c6565b602060405180830381865af4158015611d43573d6000803e3d6000fd5b505050506040513d601f19601f8201168201806040525081019061142b9190612494565b611d926000826001600160a01b0316600090815260209190915260409020805460ff19166001179055565b6040516001600160a01b038216907fdfb5b1167ef9eadf5cac67570f1a2971a6f6175303b9d4166a65a11d0a294e3490600090a250565b600083336001600160a01b0382161480611de75750611de733610776565b611e505760405162461bcd60e51b815260206004820152603460248201527f6569746865722063616c6c6572206d7573742062652073656e646572206f722060448201527318d85b1b1a5b99c81d9a5848199c9bdb9d195b9960621b6064820152608401610836565b611e58611b9b565b611e6184611988565b6003546040517f44ded8ba0000000000000000000000000000000000000000000000000000000081526001600160a01b039182166004820152868216602482015290851660448201526064810184905273__ERC20Lib______________________________906344ded8ba90608401611021565b600084336001600160a01b0382161480611ef35750611ef333610776565b611f5c5760405162461bcd60e51b815260206004820152603460248201527f6569746865722063616c6c6572206d7573742062652073656e646572206f722060448201527318d85b1b1a5b99c81d9a5848199c9bdb9d195b9960621b6064820152608401610836565b611f64611b9b565b611f6d84611988565b6003546040517ff3a0ddf90000000000000000000000000000000000000000000000000000000081526001600160a01b0391821660048201528782166024820152868216604482015290851660648201526084810184905273__ERC20Lib______________________________9063f3a0ddf99060a401602060405180830381865af4158015610922573d6000803e3d6000fd5b6001600160a01b038116600081815260208190526040808220805460ff19169055517f21bfb3de07221bc6197a8c23f7a059308b7a741f259cf4ef3b519cde0fde7ac39190a250565b60015460ff16610b505760405162461bcd60e51b815260206004820152601460248201527f5061757361626c653a206e6f74207061757365640000000000000000000000006044820152606401610836565b600060208083528351808285015260005b818110156120c9578581018301518582016040015282016120ad565b818111156120db576000604083870101525b50601f01601f1916929092016040019392505050565b6001600160a01b038116811461145b57600080fd5b60006020828403121561211857600080fd5b8135611590816120f1565b60008060006060848603121561213857600080fd5b8335612143816120f1565b92506020840135612153816120f1565b929592945050506040919091013590565b803560ff8116811461217557600080fd5b919050565b600080600080600080600060e0888a03121561219557600080fd5b87356121a0816120f1565b965060208801356121b0816120f1565b955060408801356121c0816120f1565b9450606088013593506121d560808901612164565b925060a0880135915060c0880135905092959891949750929550565b600080600080600080600060e0888a03121561220c57600080fd5b8735612217816120f1565b96506020880135612227816120f1565b955060408801359450606088013593506121d560808901612164565b6000806040838503121561225657600080fd5b8235612261816120f1565b946020939093013593505050565b60008083601f84011261228157600080fd5b50813567ffffffffffffffff81111561229957600080fd5b6020830191508360208285010111156122b157600080fd5b9250929050565b6000806000604084860312156122cd57600080fd5b83356122d8816120f1565b9250602084013567ffffffffffffffff8111156122f457600080fd5b6123008682870161226f565b9497909650939450505050565b60008060008060006080868803121561232557600080fd5b8535612330816120f1565b94506020860135612340816120f1565b935060408601359250606086013567ffffffffffffffff81111561236357600080fd5b61236f8882890161226f565b969995985093965092949392505050565b6000806040838503121561239357600080fd5b823561239e816120f1565b915060208301356123ae816120f1565b809150509250929050565b600080600080608085870312156123cf57600080fd5b84356123da816120f1565b935060208501356123ea816120f1565b925060408501356123fa816120f1565b9396929550929360600135925050565b600181811c9082168061241e57607f821691505b60208210811415612458577f4e487b7100000000000000000000000000000000000000000000000000000000600052602260045260246000fd5b50919050565b60006020828403121561247057600080fd5b8151611590816120f1565b60006020828403121561248d57600080fd5b5051919050565b6000602082840312156124a657600080fd5b8151801515811461159057600080fd5b8183823760009101908152919050565b60006001600160a01b038089168352808816602084015280871660408401525084606083015260a060808301528260a0830152828460c0840137600060c0848401015260c0601f19601f850116830101905097965050505050505056fea26469706673582212203134fbd17d46221ab8ec07c548300354df0fb9c36514fa18eceb2e607a41984f64736f6c634300080b0033608060405234801561001057600080fd5b50600080546001600160a01b03191633179055341561002e57600080fd5b610b1f8061003d6000396000f3fe608060405234801561001057600080fd5b50600436106100ec5760003560e01c80638da5cb5b11610091578063cf8eeb7e11610063578063cf8eeb7e146101be578063e30c3978146101d1578063f2fde38b146101e4578063f8b2cb4f146101f757005b80638da5cb5b146101655780639f727c2714610190578063c0ee0b8a14610198578063c7c7e9ea146101ab57005b806333dd1b8a116100ca57806333dd1b8a146101275780634e71e0c81461013a5780636c9c2faf14610142578063715018a61461015d57005b806317ffc320146100ee57806321e5383a146101015780632aed7f3f14610114575b005b6100ec6100fc366004610962565b61020a565b6100ec61010f36600461097f565b6102c6565b6100ec610122366004610962565b610374565b6100ec6101353660046109ab565b610400565b6100ec6104b6565b61014a61053e565b6040519081526020015b60405180910390f35b6100ec6105d3565b600054610178906001600160a01b031681565b6040516001600160a01b039091168152602001610154565b6100ec61063f565b6100ec6101a63660046109ec565b600080fd5b61014a6101b9366004610a75565b610693565b6100ec6101cc36600461097f565b610741565b600154610178906001600160a01b031681565b6100ec6101f2366004610962565b6107bf565b61014a610205366004610962565b6107c8565b6000546001600160a01b0316331461022157600080fd5b6040517f70a082310000000000000000000000000000000000000000000000000000000081523060048201526000906001600160a01b038316906370a0823190602401602060405180830381865afa158015610281573d6000803e3d6000fd5b505050506040513d601f19601f820116820180604052508101906102a59190610aae565b6000549091506102c2906001600160a01b0384811691168361086d565b5050565b6000546001600160a01b031633146102dd57600080fd5b6040517f7aeb0ed5000000000000000000000000000000000000000000000000000000008152600260048201526001600160a01b03831660248201526044810182905273__TokenStorageLib_______________________90637aeb0ed5906064015b60006040518083038186803b15801561035857600080fd5b505af415801561036c573d6000803e3d6000fd5b505050505050565b6000546001600160a01b0316331461038b57600080fd5b6000546040517ff2fde38b0000000000000000000000000000000000000000000000000000000081526001600160a01b039182166004820152829182169063f2fde38b90602401600060405180830381600087803b1580156103ec57600080fd5b505af115801561036c573d6000803e3d6000fd5b6000546001600160a01b0316331461041757600080fd5b6040517f5599b4b7000000000000000000000000000000000000000000000000000000008152600260048201526001600160a01b038085166024830152831660448201526064810182905273__TokenStorageLib_______________________90635599b4b79060840160006040518083038186803b15801561049957600080fd5b505af41580156104ad573d6000803e3d6000fd5b50505050505050565b6001546001600160a01b031633146104cd57600080fd5b600154600080546040516001600160a01b0393841693909116917f8be0079c531659141344cd1fd0a4f28419497f9722a3daafe3b4186f6b6457e091a3600180546000805473ffffffffffffffffffffffffffffffffffffffff199081166001600160a01b03841617909155169055565b6040517f072f9a500000000000000000000000000000000000000000000000000000000081526002600482015260009073__TokenStorageLib_______________________9063072f9a5090602401602060405180830381865af41580156105aa573d6000803e3d6000fd5b505050506040513d601f19601f820116820180604052508101906105ce9190610aae565b905090565b6000546001600160a01b031633146105ea57600080fd5b600080546040516001600160a01b03909116917ff8df31144d9c2f0f6b59d69b8b98abd5459d07f2742c4df920b25aae33c6482091a26000805473ffffffffffffffffffffffffffffffffffffffff19169055565b6000546001600160a01b0316331461065657600080fd5b600080546040516001600160a01b03909116914780156108fc02929091818181858888f19350505050158015610690573d6000803e3d6000fd5b50565b6040517f9daeae1e000000000000000000000000000000000000000000000000000000008152600260048201526001600160a01b0380841660248301528216604482015260009073__TokenStorageLib_______________________90639daeae1e90606401602060405180830381865af4158015610716573d6000803e3d6000fd5b505050506040513d601f19601f8201168201806040525081019061073a9190610aae565b9392505050565b6000546001600160a01b0316331461075857600080fd5b6040517fd9c7339e000000000000000000000000000000000000000000000000000000008152600260048201526001600160a01b03831660248201526044810182905273__TokenStorageLib_______________________9063d9c7339e90606401610340565b61069081610907565b6040517fb0aacf24000000000000000000000000000000000000000000000000000000008152600260048201526001600160a01b038216602482015260009073__TokenStorageLib_______________________9063b0aacf2490604401602060405180830381865af4158015610843573d6000803e3d6000fd5b505050506040513d601f19601f820116820180604052508101906108679190610aae565b92915050565b6040517fa9059cbb0000000000000000000000000000000000000000000000000000000081526001600160a01b0383811660048301526024820183905284169063a9059cbb906044016020604051808303816000875af11580156108d5573d6000803e3d6000fd5b505050506040513d601f19601f820116820180604052508101906108f99190610ac7565b61090257600080fd5b505050565b6000546001600160a01b0316331461091e57600080fd5b6001805473ffffffffffffffffffffffffffffffffffffffff19166001600160a01b0392909216919091179055565b6001600160a01b038116811461069057600080fd5b60006020828403121561097457600080fd5b813561073a8161094d565b6000806040838503121561099257600080fd5b823561099d8161094d565b946020939093013593505050565b6000806000606084860312156109c057600080fd5b83356109cb8161094d565b925060208401356109db8161094d565b929592945050506040919091013590565b60008060008060608587031215610a0257600080fd5b8435610a0d8161094d565b935060208501359250604085013567ffffffffffffffff80821115610a3157600080fd5b818701915087601f830112610a4557600080fd5b813581811115610a5457600080fd5b886020828501011115610a6657600080fd5b95989497505060200194505050565b60008060408385031215610a8857600080fd5b8235610a938161094d565b91506020830135610aa38161094d565b809150509250929050565b600060208284031215610ac057600080fd5b5051919050565b600060208284031215610ad957600080fd5b8151801515811461073a57600080fdfea264697066735822122090bbaf6a983f554be7623edb20f67f8b2a7b1fe5ebd324d5e34239852b81e66564736f6c634300080b0033a264697066735822122016525128647e74f23bc201ddf75790430c272a0c2b38bf9cf72fb7d1b710eeae64736f6c634300080b0033",
  "immutableReferences": {},
  "source": "/* SPDX-License-Identifier: apache-2.0 */\npragma solidity 0.8.11;\n\nimport \"./SmartController.sol\";\nimport \"./EUR.sol\";\n\ncontract NewControllerAndBridgeFrontend {\n  SmartController internal controller;\n  EUR internal bridge;\n\n  function launch(address old_, address frontend_, address storage_, address validator_, bytes3 ticker_) public {\n    SmartController oldController = SmartController(old_);\n    EUR frontend = EUR(frontend_);\n    // #1 Claiming ownership\n    oldController.claimOwnership();\n    frontend.claimOwnership();\n    // #2 Deploying new smart-contracts\n    bridge = new EUR();\n    controller = new SmartController(storage_, validator_, ticker_, frontend_);\n    // #3 Transfering storage ownership to new controller\n    oldController.transferStorageOwnership(address(controller));\n    controller.claimStorageOwnership();\n    // #4 Connect the new controller to both frontend\n    controller.setBridgeFrontend(address(bridge), \"Polygon Bridge\");\n    frontend.setController(address(controller));\n    bridge.setController(address(controller));\n    // #5 Transfer ownership back to owner key (msg.sender)\n    controller.transferOwnership(msg.sender);\n    frontend.transferOwnership(msg.sender);\n    bridge.transferOwnership(msg.sender);\n    oldController.transferOwnership(msg.sender);\n  }\n\n  function getBridge() public view returns(address){\n    return address(bridge);\n  }\n\n  function getController() public view returns(address){\n    return address(controller);\n  }\n}\n",
  "sourcePath": "/Users/gislik/Code/smart-contracts-private/contracts/newControllerAndBridgeFrontend.sol",
  "compiler": {
    "name": "solc",
    "version": "0.8.11+commit.d7f03943.Emscripten.clang"
  },
  "schemaVersion": "3.4.10",
  "updatedAt": "2022-11-29T22:36:59.542Z",
  "devdoc": {
    "kind": "dev",
    "methods": {},
    "version": 1
  },
  "userdoc": {
    "kind": "user",
    "methods": {},
    "version": 1
  }
}