{
  "contractName": "NoOwner",
  "abi": [
    {
      "constant": false,
      "inputs": [
        {
          "name": "_token",
          "type": "address"
        }
      ],
      "name": "reclaimToken",
      "outputs": [],
      "payable": false,
      "stateMutability": "nonpayable",
      "type": "function"
    },
    {
      "constant": false,
      "inputs": [
        {
          "name": "_contractAddr",
          "type": "address"
        }
      ],
      "name": "reclaimContract",
      "outputs": [],
      "payable": false,
      "stateMutability": "nonpayable",
      "type": "function"
    },
    {
      "constant": false,
      "inputs": [],
      "name": "renounceOwnership",
      "outputs": [],
      "payable": false,
      "stateMutability": "nonpayable",
      "type": "function"
    },
    {
      "constant": true,
      "inputs": [],
      "name": "owner",
      "outputs": [
        {
          "name": "",
          "type": "address"
        }
      ],
      "payable": false,
      "stateMutability": "view",
      "type": "function"
    },
    {
      "constant": false,
      "inputs": [],
      "name": "reclaimEther",
      "outputs": [],
      "payable": false,
      "stateMutability": "nonpayable",
      "type": "function"
    },
    {
      "constant": true,
      "inputs": [
        {
          "name": "_from",
          "type": "address"
        },
        {
          "name": "_value",
          "type": "uint256"
        },
        {
          "name": "_data",
          "type": "bytes"
        }
      ],
      "name": "tokenFallback",
      "outputs": [],
      "payable": false,
      "stateMutability": "pure",
      "type": "function"
    },
    {
      "constant": false,
      "inputs": [
        {
          "name": "_newOwner",
          "type": "address"
        }
      ],
      "name": "transferOwnership",
      "outputs": [],
      "payable": false,
      "stateMutability": "nonpayable",
      "type": "function"
    },
    {
      "payable": false,
      "stateMutability": "nonpayable",
      "type": "fallback"
    },
    {
      "anonymous": false,
      "inputs": [
        {
          "indexed": true,
          "name": "previousOwner",
          "type": "address"
        }
      ],
      "name": "OwnershipRenounced",
      "type": "event"
    },
    {
      "anonymous": false,
      "inputs": [
        {
          "indexed": true,
          "name": "previousOwner",
          "type": "address"
        },
        {
          "indexed": true,
          "name": "newOwner",
          "type": "address"
        }
      ],
      "name": "OwnershipTransferred",
      "type": "event"
    }
  ],
  "bytecode": "0x608060405260008054600160a060020a03191633179055341561002157600080fd5b61065c806100306000396000f3006080604052600436106100825763ffffffff7c010000000000000000000000000000000000000000000000000000000060003504166317ffc32081146100915780632aed7f3f146100c1578063715018a6146100ef5780638da5cb5b146101045780639f727c2714610142578063c0ee0b8a14610157578063f2fde38b14610195575b34801561008e57600080fd5b50005b34801561009d57600080fd5b506100bf73ffffffffffffffffffffffffffffffffffffffff600435166101c3565b005b3480156100cd57600080fd5b506100bf73ffffffffffffffffffffffffffffffffffffffff600435166102b6565b3480156100fb57600080fd5b506100bf61036a565b34801561011057600080fd5b506101196103f0565b6040805173ffffffffffffffffffffffffffffffffffffffff9092168252519081900360200190f35b34801561014e57600080fd5b506100bf61040c565b34801561016357600080fd5b506100bf6004803573ffffffffffffffffffffffffffffffffffffffff1690602480359160443591820191013561047b565b3480156101a157600080fd5b506100bf73ffffffffffffffffffffffffffffffffffffffff60043516610480565b6000805473ffffffffffffffffffffffffffffffffffffffff1633146101e857600080fd5b604080517f70a08231000000000000000000000000000000000000000000000000000000008152306004820152905173ffffffffffffffffffffffffffffffffffffffff8416916370a082319160248083019260209291908290030181600087803b15801561025657600080fd5b505af115801561026a573d6000803e3d6000fd5b505050506040513d602081101561028057600080fd5b50516000549091506102b29073ffffffffffffffffffffffffffffffffffffffff84811691168363ffffffff6104ad16565b5050565b6000805473ffffffffffffffffffffffffffffffffffffffff1633146102db57600080fd5b5060008054604080517ff2fde38b00000000000000000000000000000000000000000000000000000000815273ffffffffffffffffffffffffffffffffffffffff9283166004820152905184939284169263f2fde38b926024808201939182900301818387803b15801561034e57600080fd5b505af1158015610362573d6000803e3d6000fd5b505050505050565b60005473ffffffffffffffffffffffffffffffffffffffff16331461038e57600080fd5b6000805460405173ffffffffffffffffffffffffffffffffffffffff909116917ff8df31144d9c2f0f6b59d69b8b98abd5459d07f2742c4df920b25aae33c6482091a26000805473ffffffffffffffffffffffffffffffffffffffff19169055565b60005473ffffffffffffffffffffffffffffffffffffffff1681565b60005473ffffffffffffffffffffffffffffffffffffffff16331461043057600080fd5b6000805460405173ffffffffffffffffffffffffffffffffffffffff90911691303180156108fc02929091818181858888f19350505050158015610478573d6000803e3d6000fd5b50565b600080fd5b60005473ffffffffffffffffffffffffffffffffffffffff1633146104a457600080fd5b6104788161058c565b8273ffffffffffffffffffffffffffffffffffffffff1663a9059cbb83836040518363ffffffff167c0100000000000000000000000000000000000000000000000000000000028152600401808373ffffffffffffffffffffffffffffffffffffffff1673ffffffffffffffffffffffffffffffffffffffff16815260200182815260200192505050602060405180830381600087803b15801561055057600080fd5b505af1158015610564573d6000803e3d6000fd5b505050506040513d602081101561057a57600080fd5b5051151561058757600080fd5b505050565b73ffffffffffffffffffffffffffffffffffffffff811615156105ae57600080fd5b6000805460405173ffffffffffffffffffffffffffffffffffffffff808516939216917f8be0079c531659141344cd1fd0a4f28419497f9722a3daafe3b4186f6b6457e091a36000805473ffffffffffffffffffffffffffffffffffffffff191673ffffffffffffffffffffffffffffffffffffffff929092169190911790555600a165627a7a723058200bf56ae27c330ad00d4f8fe39eeb0c04d3e6a3e948ef46af39f75f28533322240029",
  "source": "pragma solidity ^0.4.24;\n\nimport \"./HasNoEther.sol\";\nimport \"./HasNoTokens.sol\";\nimport \"./HasNoContracts.sol\";\n\n\n/**\n * @title Base contract for contracts that should not own things.\n * @author Remco Bloemen <remco@2π.com>\n * @dev Solves a class of errors where a contract accidentally becomes owner of Ether, Tokens or\n * Owned contracts. See respective base contracts for details.\n */\ncontract NoOwner is HasNoEther, HasNoTokens, HasNoContracts {\n}\n",
  "sourcePath": "openzeppelin-solidity/contracts/ownership/NoOwner.sol",
  "compiler": {
    "name": "solc",
    "version": "0.4.24+commit.e67f0147.Emscripten.clang"
  },
  "schemaVersion": "2.0.1",
  "updatedAt": "2019-11-11T09:22:18.260Z"
}