{
  "contractName": "NoOwner",
  "abi": [
    {
      "anonymous": false,
      "inputs": [
        {
          "indexed": true,
          "internalType": "address",
          "name": "previousOwner",
          "type": "address"
        }
      ],
      "name": "OwnershipRenounced",
      "type": "event"
    },
    {
      "anonymous": false,
      "inputs": [
        {
          "indexed": true,
          "internalType": "address",
          "name": "previousOwner",
          "type": "address"
        },
        {
          "indexed": true,
          "internalType": "address",
          "name": "newOwner",
          "type": "address"
        }
      ],
      "name": "OwnershipTransferred",
      "type": "event"
    },
    {
      "stateMutability": "nonpayable",
      "type": "fallback"
    },
    {
      "inputs": [],
      "name": "owner",
      "outputs": [
        {
          "internalType": "address",
          "name": "",
          "type": "address"
        }
      ],
      "stateMutability": "view",
      "type": "function"
    },
    {
      "inputs": [
        {
          "internalType": "address",
          "name": "_contractAddr",
          "type": "address"
        }
      ],
      "name": "reclaimContract",
      "outputs": [],
      "stateMutability": "nonpayable",
      "type": "function"
    },
    {
      "inputs": [],
      "name": "reclaimEther",
      "outputs": [],
      "stateMutability": "nonpayable",
      "type": "function"
    },
    {
      "inputs": [
        {
          "internalType": "contract ERC20Basic",
          "name": "_token",
          "type": "address"
        }
      ],
      "name": "reclaimToken",
      "outputs": [],
      "stateMutability": "nonpayable",
      "type": "function"
    },
    {
      "inputs": [],
      "name": "renounceOwnership",
      "outputs": [],
      "stateMutability": "nonpayable",
      "type": "function"
    },
    {
      "inputs": [
        {
          "internalType": "address",
          "name": "_from",
          "type": "address"
        },
        {
          "internalType": "uint256",
          "name": "_value",
          "type": "uint256"
        },
        {
          "internalType": "bytes",
          "name": "_data",
          "type": "bytes"
        }
      ],
      "name": "tokenFallback",
      "outputs": [],
      "stateMutability": "pure",
      "type": "function"
    },
    {
      "inputs": [
        {
          "internalType": "address",
          "name": "_newOwner",
          "type": "address"
        }
      ],
      "name": "transferOwnership",
      "outputs": [],
      "stateMutability": "nonpayable",
      "type": "function"
    }
  ],
  "bytecode": "0x608060405234801561001057600080fd5b50600080546001600160a01b03191633179055341561002e57600080fd5b61057f8061003d6000396000f3fe608060405234801561001057600080fd5b506004361061007a5760003560e01c80638da5cb5b116100585780638da5cb5b146100aa5780639f727c27146100d9578063c0ee0b8a146100e1578063f2fde38b146100f457005b806317ffc3201461007c5780632aed7f3f1461008f578063715018a6146100a2575b005b61007a61008a366004610461565b610107565b61007a61009d366004610461565b6101c3565b61007a610257565b6000546100bd906001600160a01b031681565b6040516001600160a01b03909116815260200160405180910390f35b61007a6102c3565b61007a6100ef366004610485565b600080fd5b61007a610102366004610461565b610317565b6000546001600160a01b0316331461011e57600080fd5b6040517f70a082310000000000000000000000000000000000000000000000000000000081523060048201526000906001600160a01b038316906370a0823190602401602060405180830381865afa15801561017e573d6000803e3d6000fd5b505050506040513d601f19601f820116820180604052508101906101a2919061050e565b6000549091506101bf906001600160a01b03848116911683610337565b5050565b6000546001600160a01b031633146101da57600080fd5b6000546040517ff2fde38b0000000000000000000000000000000000000000000000000000000081526001600160a01b039182166004820152829182169063f2fde38b90602401600060405180830381600087803b15801561023b57600080fd5b505af115801561024f573d6000803e3d6000fd5b505050505050565b6000546001600160a01b0316331461026e57600080fd5b600080546040516001600160a01b03909116917ff8df31144d9c2f0f6b59d69b8b98abd5459d07f2742c4df920b25aae33c6482091a26000805473ffffffffffffffffffffffffffffffffffffffff19169055565b6000546001600160a01b031633146102da57600080fd5b600080546040516001600160a01b03909116914780156108fc02929091818181858888f19350505050158015610314573d6000803e3d6000fd5b50565b6000546001600160a01b0316331461032e57600080fd5b610314816103d1565b6040517fa9059cbb0000000000000000000000000000000000000000000000000000000081526001600160a01b0383811660048301526024820183905284169063a9059cbb906044016020604051808303816000875af115801561039f573d6000803e3d6000fd5b505050506040513d601f19601f820116820180604052508101906103c39190610527565b6103cc57600080fd5b505050565b6001600160a01b0381166103e457600080fd5b600080546040516001600160a01b03808516939216917f8be0079c531659141344cd1fd0a4f28419497f9722a3daafe3b4186f6b6457e091a36000805473ffffffffffffffffffffffffffffffffffffffff19166001600160a01b0392909216919091179055565b6001600160a01b038116811461031457600080fd5b60006020828403121561047357600080fd5b813561047e8161044c565b9392505050565b6000806000806060858703121561049b57600080fd5b84356104a68161044c565b935060208501359250604085013567ffffffffffffffff808211156104ca57600080fd5b818701915087601f8301126104de57600080fd5b8135818111156104ed57600080fd5b8860208285010111156104ff57600080fd5b95989497505060200194505050565b60006020828403121561052057600080fd5b5051919050565b60006020828403121561053957600080fd5b8151801515811461047e57600080fdfea264697066735822122079c45029e68aa926884d27140096b642b981721664b1a3e18edc4accbd3f347964736f6c634300080b0033",
  "immutableReferences": {},
  "source": "// SPDX-License-Identifier: MIT\npragma solidity ^0.8.0;\n\nimport \"./HasNoEther.sol\";\nimport \"./HasNoTokens.sol\";\nimport \"./HasNoContracts.sol\";\n\n/**\n * @title Base contract for contracts that should not own things.\n * @author Remco Bloemen <remco@2.com>\n * @dev Solves a class of errors where a contract accidentally becomes owner of Ether, Tokens or\n * Owned contracts. See respective base contracts for details.\n */\ncontract NoOwner is HasNoEther, HasNoTokens, HasNoContracts {\n}\n",
  "sourcePath": "/Users/gislik/Code/smart-contracts-private/contracts/ownership/NoOwner.sol",
  "compiler": {
    "name": "solc",
    "version": "0.8.11+commit.d7f03943.Emscripten.clang"
  },
  "schemaVersion": "3.4.6",
  "updatedAt": "2022-11-15T22:20:58.312Z",
  "devdoc": {
    "author": "Remco Bloemen <remco@2.com>",
    "details": "Solves a class of errors where a contract accidentally becomes owner of Ether, Tokens or Owned contracts. See respective base contracts for details.",
    "kind": "dev",
    "methods": {
      "reclaimContract(address)": {
        "details": "Reclaim ownership of Ownable contracts",
        "params": {
          "_contractAddr": "The address of the Ownable to be reclaimed."
        }
      },
      "reclaimEther()": {
        "details": "Transfer all Ether held by the contract to the owner."
      },
      "reclaimToken(address)": {
        "details": "Reclaim all ERC20Basic compatible tokens",
        "params": {
          "_token": "ERC20Basic The address of the token contract"
        }
      },
      "renounceOwnership()": {
        "details": "Allows the current owner to relinquish control of the contract."
      },
      "tokenFallback(address,uint256,bytes)": {
        "details": "Reject all ERC223 compatible tokens",
        "params": {
          "_data": "Bytes The data passed from the caller.",
          "_from": "address The address that is transferring the tokens",
          "_value": "uint256 the amount of the specified token"
        }
      },
      "transferOwnership(address)": {
        "details": "Allows the current owner to transfer control of the contract to a newOwner.",
        "params": {
          "_newOwner": "The address to transfer ownership to."
        }
      }
    },
    "title": "Base contract for contracts that should not own things.",
    "version": 1
  },
  "userdoc": {
    "kind": "user",
    "methods": {
      "renounceOwnership()": {
        "notice": "Renouncing to ownership will leave the contract without an owner. It will not be possible to call the functions with the `onlyOwner` modifier anymore."
      }
    },
    "version": 1
  }
}