{
  "contractName": "Pausable",
  "abi": [
    {
      "constant": true,
      "inputs": [],
      "name": "paused",
      "outputs": [
        {
          "name": "",
          "type": "bool"
        }
      ],
      "payable": false,
      "stateMutability": "view",
      "type": "function"
    },
    {
      "constant": false,
      "inputs": [],
      "name": "renounceOwnership",
      "outputs": [],
      "payable": false,
      "stateMutability": "nonpayable",
      "type": "function"
    },
    {
      "constant": true,
      "inputs": [],
      "name": "owner",
      "outputs": [
        {
          "name": "",
          "type": "address"
        }
      ],
      "payable": false,
      "stateMutability": "view",
      "type": "function"
    },
    {
      "constant": false,
      "inputs": [
        {
          "name": "_newOwner",
          "type": "address"
        }
      ],
      "name": "transferOwnership",
      "outputs": [],
      "payable": false,
      "stateMutability": "nonpayable",
      "type": "function"
    },
    {
      "anonymous": false,
      "inputs": [],
      "name": "Pause",
      "type": "event"
    },
    {
      "anonymous": false,
      "inputs": [],
      "name": "Unpause",
      "type": "event"
    },
    {
      "anonymous": false,
      "inputs": [
        {
          "indexed": true,
          "name": "previousOwner",
          "type": "address"
        }
      ],
      "name": "OwnershipRenounced",
      "type": "event"
    },
    {
      "anonymous": false,
      "inputs": [
        {
          "indexed": true,
          "name": "previousOwner",
          "type": "address"
        },
        {
          "indexed": true,
          "name": "newOwner",
          "type": "address"
        }
      ],
      "name": "OwnershipTransferred",
      "type": "event"
    },
    {
      "constant": false,
      "inputs": [],
      "name": "pause",
      "outputs": [],
      "payable": false,
      "stateMutability": "nonpayable",
      "type": "function"
    },
    {
      "constant": false,
      "inputs": [],
      "name": "unpause",
      "outputs": [],
      "payable": false,
      "stateMutability": "nonpayable",
      "type": "function"
    }
  ],
  "bytecode": "0x608060405260008054600160a860020a03191633179055610453806100256000396000f3006080604052600436106100775763ffffffff7c01000000000000000000000000000000000000000000000000000000006000350416633f4ba83a811461007c5780635c975abb14610093578063715018a6146100bc5780638456cb59146100d15780638da5cb5b146100e6578063f2fde38b14610124575b600080fd5b34801561008857600080fd5b50610091610152565b005b34801561009f57600080fd5b506100a86101e6565b604080519115158252519081900360200190f35b3480156100c857600080fd5b50610091610207565b3480156100dd57600080fd5b5061009161028d565b3480156100f257600080fd5b506100fb610337565b6040805173ffffffffffffffffffffffffffffffffffffffff9092168252519081900360200190f35b34801561013057600080fd5b5061009173ffffffffffffffffffffffffffffffffffffffff60043516610353565b60005473ffffffffffffffffffffffffffffffffffffffff16331461017657600080fd5b60005474010000000000000000000000000000000000000000900460ff16151561019f57600080fd5b6000805474ff0000000000000000000000000000000000000000191681556040517f7805862f689e2f13df9f062ff482ad3ad112aca9e0847911ed832e158c525b339190a1565b60005474010000000000000000000000000000000000000000900460ff1681565b60005473ffffffffffffffffffffffffffffffffffffffff16331461022b57600080fd5b6000805460405173ffffffffffffffffffffffffffffffffffffffff909116917ff8df31144d9c2f0f6b59d69b8b98abd5459d07f2742c4df920b25aae33c6482091a26000805473ffffffffffffffffffffffffffffffffffffffff19169055565b60005473ffffffffffffffffffffffffffffffffffffffff1633146102b157600080fd5b60005474010000000000000000000000000000000000000000900460ff16156102d957600080fd5b6000805474ff00000000000000000000000000000000000000001916740100000000000000000000000000000000000000001781556040517f6985a02210a168e66602d3235cb6db0e70f92b3ba4d376a33c0f3d9434bff6259190a1565b60005473ffffffffffffffffffffffffffffffffffffffff1681565b60005473ffffffffffffffffffffffffffffffffffffffff16331461037757600080fd5b61038081610383565b50565b73ffffffffffffffffffffffffffffffffffffffff811615156103a557600080fd5b6000805460405173ffffffffffffffffffffffffffffffffffffffff808516939216917f8be0079c531659141344cd1fd0a4f28419497f9722a3daafe3b4186f6b6457e091a36000805473ffffffffffffffffffffffffffffffffffffffff191673ffffffffffffffffffffffffffffffffffffffff929092169190911790555600a165627a7a723058206028ef1ee2b7043fffe3de53c67ef4a343faf5d397d5a0e09e6eda0cf54dab2c0029",
  "immutableReferences": {},
  "source": "pragma solidity ^0.4.24;\n\n\nimport \"../ownership/Ownable.sol\";\n\n\n/**\n * @title Pausable\n * @dev Base contract which allows children to implement an emergency stop mechanism.\n */\ncontract Pausable is Ownable {\n  event Pause();\n  event Unpause();\n\n  bool public paused = false;\n\n\n  /**\n   * @dev Modifier to make a function callable only when the contract is not paused.\n   */\n  modifier whenNotPaused() {\n    require(!paused);\n    _;\n  }\n\n  /**\n   * @dev Modifier to make a function callable only when the contract is paused.\n   */\n  modifier whenPaused() {\n    require(paused);\n    _;\n  }\n\n  /**\n   * @dev called by the owner to pause, triggers stopped state\n   */\n  function pause() public onlyOwner whenNotPaused {\n    paused = true;\n    emit Pause();\n  }\n\n  /**\n   * @dev called by the owner to unpause, returns to normal state\n   */\n  function unpause() public onlyOwner whenPaused {\n    paused = false;\n    emit Unpause();\n  }\n}\n",
  "sourcePath": "openzeppelin-solidity/contracts/lifecycle/Pausable.sol",
  "compiler": {
    "name": "solc",
    "version": "0.4.24+commit.e67f0147.Emscripten.clang"
  },
  "schemaVersion": "2.0.1",
  "updatedAt": "2020-01-08T13:39:11.503Z",
  "devdoc": {
    "details": "Contract module which allows children to implement an emergency stop mechanism that can be triggered by an authorized account. This module is used through inheritance. It will make available the modifiers `whenNotPaused` and `whenPaused`, which can be applied to the functions of your contract. Note that they will not be pausable by simply including this module, only once the modifiers are put in place.",
    "events": {
      "Paused(address)": {
        "details": "Emitted when the pause is triggered by `account`."
      },
      "Unpaused(address)": {
        "details": "Emitted when the pause is lifted by `account`."
      }
    },
    "kind": "dev",
    "methods": {
      "constructor": {
        "details": "Initializes the contract in unpaused state."
      },
      "paused()": {
        "details": "Returns true if the contract is paused, and false otherwise."
      }
    },
    "version": 1
  },
  "userdoc": {
    "kind": "user",
    "methods": {},
    "version": 1
  }
}