{
  "contractName": "PolygonPosISK",
  "abi": [
    {
      "inputs": [
        {
          "internalType": "address",
          "name": "childChainManagerProxy",
          "type": "address"
        }
      ],
      "stateMutability": "nonpayable",
      "type": "constructor"
    },
    {
      "anonymous": false,
      "inputs": [
        {
          "indexed": true,
          "internalType": "address",
          "name": "owner",
          "type": "address"
        },
        {
          "indexed": true,
          "internalType": "address",
          "name": "spender",
          "type": "address"
        },
        {
          "indexed": false,
          "internalType": "uint256",
          "name": "value",
          "type": "uint256"
        }
      ],
      "name": "Approval",
      "type": "event"
    },
    {
      "anonymous": false,
      "inputs": [
        {
          "indexed": true,
          "internalType": "bytes3",
          "name": "ticker",
          "type": "bytes3"
        },
        {
          "indexed": true,
          "internalType": "address",
          "name": "old",
          "type": "address"
        },
        {
          "indexed": true,
          "internalType": "address",
          "name": "current",
          "type": "address"
        }
      ],
      "name": "Controller",
      "type": "event"
    },
    {
      "anonymous": false,
      "inputs": [
        {
          "indexed": true,
          "internalType": "address",
          "name": "previousOwner",
          "type": "address"
        }
      ],
      "name": "OwnershipRenounced",
      "type": "event"
    },
    {
      "anonymous": false,
      "inputs": [
        {
          "indexed": true,
          "internalType": "address",
          "name": "previousOwner",
          "type": "address"
        },
        {
          "indexed": true,
          "internalType": "address",
          "name": "newOwner",
          "type": "address"
        }
      ],
      "name": "OwnershipTransferred",
      "type": "event"
    },
    {
      "anonymous": false,
      "inputs": [
        {
          "indexed": true,
          "internalType": "bytes32",
          "name": "role",
          "type": "bytes32"
        },
        {
          "indexed": true,
          "internalType": "bytes32",
          "name": "previousAdminRole",
          "type": "bytes32"
        },
        {
          "indexed": true,
          "internalType": "bytes32",
          "name": "newAdminRole",
          "type": "bytes32"
        }
      ],
      "name": "RoleAdminChanged",
      "type": "event"
    },
    {
      "anonymous": false,
      "inputs": [
        {
          "indexed": true,
          "internalType": "bytes32",
          "name": "role",
          "type": "bytes32"
        },
        {
          "indexed": true,
          "internalType": "address",
          "name": "account",
          "type": "address"
        },
        {
          "indexed": true,
          "internalType": "address",
          "name": "sender",
          "type": "address"
        }
      ],
      "name": "RoleGranted",
      "type": "event"
    },
    {
      "anonymous": false,
      "inputs": [
        {
          "indexed": true,
          "internalType": "bytes32",
          "name": "role",
          "type": "bytes32"
        },
        {
          "indexed": true,
          "internalType": "address",
          "name": "account",
          "type": "address"
        },
        {
          "indexed": true,
          "internalType": "address",
          "name": "sender",
          "type": "address"
        }
      ],
      "name": "RoleRevoked",
      "type": "event"
    },
    {
      "anonymous": false,
      "inputs": [
        {
          "indexed": true,
          "internalType": "address",
          "name": "from",
          "type": "address"
        },
        {
          "indexed": true,
          "internalType": "address",
          "name": "to",
          "type": "address"
        },
        {
          "indexed": false,
          "internalType": "uint256",
          "name": "amount",
          "type": "uint256"
        },
        {
          "indexed": false,
          "internalType": "bytes",
          "name": "data",
          "type": "bytes"
        }
      ],
      "name": "Transfer",
      "type": "event"
    },
    {
      "anonymous": false,
      "inputs": [
        {
          "indexed": true,
          "internalType": "address",
          "name": "from",
          "type": "address"
        },
        {
          "indexed": true,
          "internalType": "address",
          "name": "to",
          "type": "address"
        },
        {
          "indexed": false,
          "internalType": "uint256",
          "name": "value",
          "type": "uint256"
        }
      ],
      "name": "Transfer",
      "type": "event"
    },
    {
      "stateMutability": "nonpayable",
      "type": "fallback"
    },
    {
      "inputs": [],
      "name": "DEFAULT_ADMIN_ROLE",
      "outputs": [
        {
          "internalType": "bytes32",
          "name": "",
          "type": "bytes32"
        }
      ],
      "stateMutability": "view",
      "type": "function"
    },
    {
      "inputs": [],
      "name": "DEPOSITOR_ROLE",
      "outputs": [
        {
          "internalType": "bytes32",
          "name": "",
          "type": "bytes32"
        }
      ],
      "stateMutability": "view",
      "type": "function"
    },
    {
      "inputs": [],
      "name": "PREDICATE_ROLE",
      "outputs": [
        {
          "internalType": "bytes32",
          "name": "",
          "type": "bytes32"
        }
      ],
      "stateMutability": "view",
      "type": "function"
    },
    {
      "inputs": [
        {
          "internalType": "address",
          "name": "owner",
          "type": "address"
        },
        {
          "internalType": "address",
          "name": "spender",
          "type": "address"
        }
      ],
      "name": "allowance",
      "outputs": [
        {
          "internalType": "uint256",
          "name": "",
          "type": "uint256"
        }
      ],
      "stateMutability": "view",
      "type": "function"
    },
    {
      "inputs": [
        {
          "internalType": "address",
          "name": "spender",
          "type": "address"
        },
        {
          "internalType": "uint256",
          "name": "amount",
          "type": "uint256"
        }
      ],
      "name": "approve",
      "outputs": [
        {
          "internalType": "bool",
          "name": "ok",
          "type": "bool"
        }
      ],
      "stateMutability": "nonpayable",
      "type": "function"
    },
    {
      "inputs": [
        {
          "internalType": "address",
          "name": "who",
          "type": "address"
        }
      ],
      "name": "balanceOf",
      "outputs": [
        {
          "internalType": "uint256",
          "name": "",
          "type": "uint256"
        }
      ],
      "stateMutability": "view",
      "type": "function"
    },
    {
      "inputs": [
        {
          "internalType": "address",
          "name": "from",
          "type": "address"
        },
        {
          "internalType": "uint256",
          "name": "amount",
          "type": "uint256"
        },
        {
          "internalType": "bytes32",
          "name": "h",
          "type": "bytes32"
        },
        {
          "internalType": "uint8",
          "name": "v",
          "type": "uint8"
        },
        {
          "internalType": "bytes32",
          "name": "r",
          "type": "bytes32"
        },
        {
          "internalType": "bytes32",
          "name": "s",
          "type": "bytes32"
        }
      ],
      "name": "burnFrom",
      "outputs": [
        {
          "internalType": "bool",
          "name": "ok",
          "type": "bool"
        }
      ],
      "stateMutability": "nonpayable",
      "type": "function"
    },
    {
      "inputs": [],
      "name": "claimOwnership",
      "outputs": [],
      "stateMutability": "nonpayable",
      "type": "function"
    },
    {
      "inputs": [],
      "name": "decimals",
      "outputs": [
        {
          "internalType": "uint256",
          "name": "",
          "type": "uint256"
        }
      ],
      "stateMutability": "view",
      "type": "function"
    },
    {
      "inputs": [
        {
          "internalType": "address",
          "name": "user",
          "type": "address"
        },
        {
          "internalType": "bytes",
          "name": "depositData",
          "type": "bytes"
        }
      ],
      "name": "deposit",
      "outputs": [],
      "stateMutability": "nonpayable",
      "type": "function"
    },
    {
      "inputs": [],
      "name": "getController",
      "outputs": [
        {
          "internalType": "address",
          "name": "",
          "type": "address"
        }
      ],
      "stateMutability": "view",
      "type": "function"
    },
    {
      "inputs": [
        {
          "internalType": "bytes32",
          "name": "role",
          "type": "bytes32"
        }
      ],
      "name": "getRoleAdmin",
      "outputs": [
        {
          "internalType": "bytes32",
          "name": "",
          "type": "bytes32"
        }
      ],
      "stateMutability": "view",
      "type": "function"
    },
    {
      "inputs": [
        {
          "internalType": "bytes32",
          "name": "role",
          "type": "bytes32"
        },
        {
          "internalType": "address",
          "name": "account",
          "type": "address"
        }
      ],
      "name": "grantRole",
      "outputs": [],
      "stateMutability": "nonpayable",
      "type": "function"
    },
    {
      "inputs": [
        {
          "internalType": "bytes32",
          "name": "role",
          "type": "bytes32"
        },
        {
          "internalType": "address",
          "name": "account",
          "type": "address"
        }
      ],
      "name": "hasRole",
      "outputs": [
        {
          "internalType": "bool",
          "name": "",
          "type": "bool"
        }
      ],
      "stateMutability": "view",
      "type": "function"
    },
    {
      "inputs": [
        {
          "internalType": "address",
          "name": "to",
          "type": "address"
        },
        {
          "internalType": "uint256",
          "name": "amount",
          "type": "uint256"
        }
      ],
      "name": "mint",
      "outputs": [
        {
          "internalType": "bool",
          "name": "ok",
          "type": "bool"
        }
      ],
      "stateMutability": "nonpayable",
      "type": "function"
    },
    {
      "inputs": [
        {
          "internalType": "address",
          "name": "to",
          "type": "address"
        },
        {
          "internalType": "uint256",
          "name": "amount",
          "type": "uint256"
        }
      ],
      "name": "mintTo",
      "outputs": [
        {
          "internalType": "bool",
          "name": "ok",
          "type": "bool"
        }
      ],
      "stateMutability": "nonpayable",
      "type": "function"
    },
    {
      "inputs": [],
      "name": "name",
      "outputs": [
        {
          "internalType": "string",
          "name": "",
          "type": "string"
        }
      ],
      "stateMutability": "view",
      "type": "function"
    },
    {
      "inputs": [],
      "name": "owner",
      "outputs": [
        {
          "internalType": "address",
          "name": "",
          "type": "address"
        }
      ],
      "stateMutability": "view",
      "type": "function"
    },
    {
      "inputs": [],
      "name": "pendingOwner",
      "outputs": [
        {
          "internalType": "address",
          "name": "",
          "type": "address"
        }
      ],
      "stateMutability": "view",
      "type": "function"
    },
    {
      "inputs": [
        {
          "internalType": "address",
          "name": "_contractAddr",
          "type": "address"
        }
      ],
      "name": "reclaimContract",
      "outputs": [],
      "stateMutability": "nonpayable",
      "type": "function"
    },
    {
      "inputs": [],
      "name": "reclaimEther",
      "outputs": [],
      "stateMutability": "nonpayable",
      "type": "function"
    },
    {
      "inputs": [
        {
          "internalType": "contract ERC20Basic",
          "name": "_token",
          "type": "address"
        }
      ],
      "name": "reclaimToken",
      "outputs": [],
      "stateMutability": "nonpayable",
      "type": "function"
    },
    {
      "inputs": [
        {
          "internalType": "address",
          "name": "from",
          "type": "address"
        },
        {
          "internalType": "address",
          "name": "to",
          "type": "address"
        },
        {
          "internalType": "bytes32",
          "name": "h",
          "type": "bytes32"
        },
        {
          "internalType": "uint8",
          "name": "v",
          "type": "uint8"
        },
        {
          "internalType": "bytes32",
          "name": "r",
          "type": "bytes32"
        },
        {
          "internalType": "bytes32",
          "name": "s",
          "type": "bytes32"
        }
      ],
      "name": "recover",
      "outputs": [
        {
          "internalType": "uint256",
          "name": "amount",
          "type": "uint256"
        }
      ],
      "stateMutability": "nonpayable",
      "type": "function"
    },
    {
      "inputs": [],
      "name": "renounceOwnership",
      "outputs": [],
      "stateMutability": "nonpayable",
      "type": "function"
    },
    {
      "inputs": [
        {
          "internalType": "bytes32",
          "name": "role",
          "type": "bytes32"
        },
        {
          "internalType": "address",
          "name": "account",
          "type": "address"
        }
      ],
      "name": "renounceRole",
      "outputs": [],
      "stateMutability": "nonpayable",
      "type": "function"
    },
    {
      "inputs": [
        {
          "internalType": "bytes32",
          "name": "role",
          "type": "bytes32"
        },
        {
          "internalType": "address",
          "name": "account",
          "type": "address"
        }
      ],
      "name": "revokeRole",
      "outputs": [],
      "stateMutability": "nonpayable",
      "type": "function"
    },
    {
      "inputs": [
        {
          "internalType": "address",
          "name": "address_",
          "type": "address"
        }
      ],
      "name": "setController",
      "outputs": [],
      "stateMutability": "nonpayable",
      "type": "function"
    },
    {
      "inputs": [
        {
          "internalType": "bytes4",
          "name": "interfaceId",
          "type": "bytes4"
        }
      ],
      "name": "supportsInterface",
      "outputs": [
        {
          "internalType": "bool",
          "name": "",
          "type": "bool"
        }
      ],
      "stateMutability": "view",
      "type": "function"
    },
    {
      "inputs": [],
      "name": "symbol",
      "outputs": [
        {
          "internalType": "string",
          "name": "",
          "type": "string"
        }
      ],
      "stateMutability": "view",
      "type": "function"
    },
    {
      "inputs": [],
      "name": "ticker",
      "outputs": [
        {
          "internalType": "bytes3",
          "name": "",
          "type": "bytes3"
        }
      ],
      "stateMutability": "view",
      "type": "function"
    },
    {
      "inputs": [
        {
          "internalType": "address",
          "name": "_from",
          "type": "address"
        },
        {
          "internalType": "uint256",
          "name": "_value",
          "type": "uint256"
        },
        {
          "internalType": "bytes",
          "name": "_data",
          "type": "bytes"
        }
      ],
      "name": "tokenFallback",
      "outputs": [],
      "stateMutability": "pure",
      "type": "function"
    },
    {
      "inputs": [],
      "name": "totalSupply",
      "outputs": [
        {
          "internalType": "uint256",
          "name": "",
          "type": "uint256"
        }
      ],
      "stateMutability": "view",
      "type": "function"
    },
    {
      "inputs": [
        {
          "internalType": "address",
          "name": "to",
          "type": "address"
        },
        {
          "internalType": "uint256",
          "name": "amount",
          "type": "uint256"
        }
      ],
      "name": "transfer",
      "outputs": [
        {
          "internalType": "bool",
          "name": "ok",
          "type": "bool"
        }
      ],
      "stateMutability": "nonpayable",
      "type": "function"
    },
    {
      "inputs": [
        {
          "internalType": "address",
          "name": "to",
          "type": "address"
        },
        {
          "internalType": "uint256",
          "name": "amount",
          "type": "uint256"
        },
        {
          "internalType": "bytes",
          "name": "data",
          "type": "bytes"
        }
      ],
      "name": "transferAndCall",
      "outputs": [
        {
          "internalType": "bool",
          "name": "ok",
          "type": "bool"
        }
      ],
      "stateMutability": "nonpayable",
      "type": "function"
    },
    {
      "inputs": [
        {
          "internalType": "address",
          "name": "from",
          "type": "address"
        },
        {
          "internalType": "address",
          "name": "to",
          "type": "address"
        },
        {
          "internalType": "uint256",
          "name": "amount",
          "type": "uint256"
        }
      ],
      "name": "transferFrom",
      "outputs": [
        {
          "internalType": "bool",
          "name": "ok",
          "type": "bool"
        }
      ],
      "stateMutability": "nonpayable",
      "type": "function"
    },
    {
      "inputs": [
        {
          "internalType": "address",
          "name": "newOwner",
          "type": "address"
        }
      ],
      "name": "transferOwnership",
      "outputs": [],
      "stateMutability": "nonpayable",
      "type": "function"
    },
    {
      "inputs": [
        {
          "internalType": "uint256",
          "name": "amount",
          "type": "uint256"
        }
      ],
      "name": "withdraw",
      "outputs": [],
      "stateMutability": "nonpayable",
      "type": "function"
    }
  ],
  "bytecode": "0x60806040523480156200001157600080fd5b50604051620026153803806200261583398101604081905262000034916200029b565b604080518082018252601381527f4d6f6e657269756d2049534b20656d6f6e6579000000000000000000000000006020808301919091528251808401909352600483526349534b6560e01b90830152600080546001600160a01b03191633179055906249534b60e81b838383833415620000ad57600080fd5b8251620000c2906004906020860190620001f5565b508151620000d8906005906020850190620001f5565b506006805462ffffff191660e883901c179055620000f860003362000141565b506200010a9150600090503362000141565b620001367f8f4f2da22e8ac8f11e15f9fc141cddbb5deea8800186560abb6e68c5496619a98262000141565b50505050506200030a565b6200014d828262000151565b5050565b60008281526002602090815260408083206001600160a01b038516845290915290205460ff166200014d5760008281526002602090815260408083206001600160a01b03851684529091529020805460ff19166001179055620001b13390565b6001600160a01b0316816001600160a01b0316837f2f8788117e7eff1d82e926ec794901d17c78024a50270940304540a733656f0d60405160405180910390a45050565b8280546200020390620002cd565b90600052602060002090601f01602090048101928262000227576000855562000272565b82601f106200024257805160ff191683800117855562000272565b8280016001018555821562000272579182015b828111156200027257825182559160200191906001019062000255565b506200028092915062000284565b5090565b5b8082111562000280576000815560010162000285565b600060208284031215620002ae57600080fd5b81516001600160a01b0381168114620002c657600080fd5b9392505050565b600181811c90821680620002e257607f821691505b602082108114156200030457634e487b7160e01b600052602260045260246000fd5b50919050565b6122fb806200031a6000396000f3fe608060405234801561001057600080fd5b50600436106102535760003560e01c80636eb4c6091161014b578063a217fddf116100cc578063d547741f11610086578063e30c39781161006e578063e30c397814610522578063e72db5fd14610535578063f2fde38b1461055c57005b8063d547741f146104fc578063dd62ed3e1461050f57005b8063a9059cbb116100b4578063a9059cbb146104c3578063c0ee0b8a146104d6578063cf2c52cb146104e957005b8063a217fddf14610494578063a3b0b5a31461049c57005b80638da5cb5b1161011d57806392eefe9b1161010557806392eefe9b1461047157806395d89b41146104845780639f727c271461048c57005b80638da5cb5b1461042557806391d148541461043857005b80636eb4c609146103d157806370a08231146103e4578063715018a6146103f75780638ba47bdd146103ff57005b80632f2ff15d116101d55780633823caec116101a757806340c10f191161018f57806340c10f19146103a3578063449a52f8146103b65780634e71e0c8146103c957005b80633823caec1461037d5780634000aea01461039057005b80632f2ff15d1461032a5780633018205f1461033d578063313ce5671461036257806336568abe1461036a57005b806318160ddd11610226578063248a9ca31161020e578063248a9ca3146102e15780632aed7f3f146103045780632e1a7d4d1461031757005b806318160ddd146102b857806323b872dd146102ce57005b806301ffc9a71461025557806306fdde031461027d578063095ea7b31461029257806317ffc320146102a5575b005b610268610263366004611d1c565b61056f565b60405190151581526020015b60405180910390f35b610285610608565b6040516102749190611d8e565b6102686102a0366004611dd6565b610696565b6102536102b3366004611e02565b610782565b6102c0610825565b604051908152602001610274565b6102686102dc366004611e1f565b6108b1565b6102c06102ef366004611e60565b60009081526002602052604090206001015490565b610253610312366004611e02565b6109a6565b610253610325366004611e60565b610a3a565b610253610338366004611e79565b610b04565b6003546001600160a01b03165b6040516001600160a01b039091168152602001610274565b6102c0610b2e565b610253610378366004611e79565b610b91565b61026861038b366004611ebf565b610c1e565b61026861039e366004611f62565b610d2d565b6102686103b1366004611dd6565b610e68565b6102686103c4366004611dd6565b610f5e565b61025361103d565b6102c06103df366004611fbe565b6110c5565b6102c06103f2366004611e02565b6111c2565b610253611231565b60065461040c9060e81b81565b6040516001600160e81b03199091168152602001610274565b60005461034a906001600160a01b031681565b610268610446366004611e79565b60009182526002602090815260408084206001600160a01b0393909316845291905290205460ff1690565b61025361047f366004611e02565b61129d565b6102856115a9565b6102536115b6565b6102c0600081565b6102c07f8f4f2da22e8ac8f11e15f9fc141cddbb5deea8800186560abb6e68c5496619a981565b6102686104d1366004611dd6565b611607565b6102536104e4366004611f62565b600080fd5b6102536104f7366004612007565b6116e5565b61025361050a366004611e79565b6117ec565b6102c061051d36600461205c565b611811565b60015461034a906001600160a01b031681565b6102c07f12ff340d0cd9c652c747ca35727e68c547d0f0bfa7758d2e77f75acef481b4f281565b61025361056a366004611e02565b6118a1565b60007fffffffff0000000000000000000000000000000000000000000000000000000082167f7965db0b00000000000000000000000000000000000000000000000000000000148061060257507f01ffc9a7000000000000000000000000000000000000000000000000000000007fffffffff000000000000000000000000000000000000000000000000000000008316145b92915050565b600480546106159061208a565b80601f01602080910402602001604051908101604052809291908181526020018280546106419061208a565b801561068e5780601f106106635761010080835404028352916020019161068e565b820191906000526020600020905b81548152906001019060200180831161067157829003601f168201915b505050505081565b6003546040517f774d54090000000000000000000000000000000000000000000000000000000081523360048201526001600160a01b03848116602483015260448201849052600092169063774d5409906064016020604051808303816000875af1158015610709573d6000803e3d6000fd5b505050506040513d601f19601f8201168201806040525081019061072d91906120c5565b9050826001600160a01b0316336001600160a01b03167f8c5be1e5ebec7d5bd14f71427d1e84f3dd0314c0f7b2291e5b200ac8c7c3b9258460405161077491815260200190565b60405180910390a392915050565b6000546001600160a01b0316331461079957600080fd5b6040516370a0823160e01b81523060048201526000906001600160a01b038316906370a0823190602401602060405180830381865afa1580156107e0573d6000803e3d6000fd5b505050506040513d601f19601f8201168201806040525081019061080491906120e7565b600054909150610821906001600160a01b038481169116836118aa565b5050565b600354604080517f18160ddd00000000000000000000000000000000000000000000000000000000815290516000926001600160a01b0316916318160ddd9160048083019260209291908290030181865afa158015610888573d6000803e3d6000fd5b505050506040513d601f19601f820116820180604052508101906108ac91906120e7565b905090565b6003546040517fe974fee90000000000000000000000000000000000000000000000000000000081523360048201526001600160a01b038581166024830152848116604483015260648201849052600092169063e974fee9906084016020604051808303816000875af115801561092c573d6000803e3d6000fd5b505050506040513d601f19601f8201168201806040525081019061095091906120c5565b9050826001600160a01b0316846001600160a01b03167fddf252ad1be2c89b69c2b068fc378daa952ba7f163c4a11628f55a4df523b3ef8460405161099791815260200190565b60405180910390a39392505050565b6000546001600160a01b031633146109bd57600080fd5b6000546040517ff2fde38b0000000000000000000000000000000000000000000000000000000081526001600160a01b039182166004820152829182169063f2fde38b90602401600060405180830381600087803b158015610a1e57600080fd5b505af1158015610a32573d6000803e3d6000fd5b505050505050565b6003546040517f79cc6790000000000000000000000000000000000000000000000000000000008152336004820152602481018390526001600160a01b03909116906379cc6790906044016020604051808303816000875af1158015610aa4573d6000803e3d6000fd5b505050506040513d601f19601f82011682018060405250810190610ac891906120c5565b5060405181815260009033907fddf252ad1be2c89b69c2b068fc378daa952ba7f163c4a11628f55a4df523b3ef9060200160405180910390a350565b600082815260026020526040902060010154610b1f8161193f565b610b298383611949565b505050565b600354604080517f313ce56700000000000000000000000000000000000000000000000000000000815290516000926001600160a01b03169163313ce5679160048083019260209291908290030181865afa158015610888573d6000803e3d6000fd5b6001600160a01b0381163314610c145760405162461bcd60e51b815260206004820152602f60248201527f416363657373436f6e74726f6c3a2063616e206f6e6c792072656e6f756e636560448201527f20726f6c657320666f722073656c66000000000000000000000000000000000060648201526084015b60405180910390fd5b61082182826119eb565b6003546040517f4eb007540000000000000000000000000000000000000000000000000000000081523360048201526001600160a01b038881166024830152604482018890526064820187905260ff8616608483015260a4820185905260c482018490526000921690634eb007549060e4016020604051808303816000875af1158015610caf573d6000803e3d6000fd5b505050506040513d601f19601f82011682018060405250810190610cd391906120c5565b905060006001600160a01b0316876001600160a01b03167fddf252ad1be2c89b69c2b068fc378daa952ba7f163c4a11628f55a4df523b3ef88604051610d1b91815260200190565b60405180910390a39695505050505050565b6003546040517f9e7f43ca0000000000000000000000000000000000000000000000000000000081526000916001600160a01b031690639e7f43ca90610d7f9033908990899089908990600401612129565b6020604051808303816000875af1158015610d9e573d6000803e3d6000fd5b505050506040513d601f19601f82011682018060405250810190610dc291906120c5565b9050846001600160a01b0316336001600160a01b03167fddf252ad1be2c89b69c2b068fc378daa952ba7f163c4a11628f55a4df523b3ef86604051610e0991815260200190565b60405180910390a3846001600160a01b0316336001600160a01b03167fe19260aff97b920c7df27010903aeb9c8d2be5d310a2c67824cf3f15396e4c16868686604051610e5893929190612167565b60405180910390a3949350505050565b3360009081527f01fe8a47b306d7a52efb17b73cdfe0b3311b7856a8f6b264a0f03659201b1e9e602052604081205460ff16610ee65760405162461bcd60e51b815260206004820152601760248201527f63616c6c6572206973206e6f74205052454449434154450000000000000000006044820152606401610c0b565b6040516308934a5f60e31b81526001600160a01b038416600482015260248101839052309063449a52f8906044016020604051808303816000875af1158015610f33573d6000803e3d6000fd5b505050506040513d601f19601f82011682018060405250810190610f5791906120c5565b9392505050565b6003546040517f322ec0fb0000000000000000000000000000000000000000000000000000000081523360048201526001600160a01b03848116602483015260448201849052600092169063322ec0fb906064016020604051808303816000875af1158015610fd1573d6000803e3d6000fd5b505050506040513d601f19601f82011682018060405250810190610ff591906120c5565b9050826001600160a01b031660006001600160a01b03167fddf252ad1be2c89b69c2b068fc378daa952ba7f163c4a11628f55a4df523b3ef8460405161077491815260200190565b6001546001600160a01b0316331461105457600080fd5b600154600080546040516001600160a01b0393841693909116917f8be0079c531659141344cd1fd0a4f28419497f9722a3daafe3b4186f6b6457e091a3600180546000805473ffffffffffffffffffffffffffffffffffffffff199081166001600160a01b03841617909155169055565b6003546040517f3cd1570f0000000000000000000000000000000000000000000000000000000081523360048201526001600160a01b03888116602483015287811660448301526064820187905260ff8616608483015260a4820185905260c482018490526000921690633cd1570f9060e4016020604051808303816000875af1158015611157573d6000803e3d6000fd5b505050506040513d601f19601f8201168201806040525081019061117b91906120e7565b9050856001600160a01b0316876001600160a01b03167fddf252ad1be2c89b69c2b068fc378daa952ba7f163c4a11628f55a4df523b3ef83604051610d1b91815260200190565b6003546040516370a0823160e01b81526001600160a01b03838116600483015260009216906370a0823190602401602060405180830381865afa15801561120d573d6000803e3d6000fd5b505050506040513d601f19601f8201168201806040525081019061060291906120e7565b6000546001600160a01b0316331461124857600080fd5b600080546040516001600160a01b03909116917ff8df31144d9c2f0f6b59d69b8b98abd5459d07f2742c4df920b25aae33c6482091a26000805473ffffffffffffffffffffffffffffffffffffffff19169055565b6000546001600160a01b031633146112b457600080fd5b6001600160a01b0381166113305760405162461bcd60e51b815260206004820152602d60248201527f636f6e74726f6c6c657220616464726573732063616e6e6f742062652074686560448201527f206e756c6c2061646472657373000000000000000000000000000000000000006064820152608401610c0b565b6003546006546040516001600160a01b0384811693169160e81b6001600160e81b031916907f2ce3a3a1c097de2b147145a1e6f236b569e75e7310e3b0b436d5dea8f60e35dc90600090a46003805473ffffffffffffffffffffffffffffffffffffffff19166001600160a01b0383169081179091556040517f25ec2eb00000000000000000000000000000000000000000000000000000000081523060048201526325ec2eb090602401602060405180830381865afa1580156113f8573d6000803e3d6000fd5b505050506040513d601f19601f8201168201806040525081019061141c91906120c5565b61148e5760405162461bcd60e51b815260206004820152602760248201527f636f6e74726f6c6c65722066726f6e74656e6420646f6573206e6f7420706f6960448201527f6e74206261636b000000000000000000000000000000000000000000000000006064820152608401610c0b565b600654600354604080517f8ba47bdd000000000000000000000000000000000000000000000000000000008152905160e89390931b6001600160e81b031916926001600160a01b0390921691638ba47bdd916004808201926020929091908290030181865afa158015611505573d6000803e3d6000fd5b505050506040513d601f19601f82011682018060405250810190611529919061218a565b6001600160e81b031916146115a65760405162461bcd60e51b815260206004820152602760248201527f7469636b657220646f6573206e6f74206d6174636820636f6e74726f6c6c657260448201527f207469636b6574000000000000000000000000000000000000000000000000006064820152608401610c0b565b50565b600580546106159061208a565b6000546001600160a01b031633146115cd57600080fd5b600080546040516001600160a01b03909116914780156108fc02929091818181858888f193505050501580156115a6573d6000803e3d6000fd5b6003546040517fe174fd940000000000000000000000000000000000000000000000000000000081523360048201526001600160a01b03848116602483015260448201849052600092169063e174fd94906064016020604051808303816000875af115801561167a573d6000803e3d6000fd5b505050506040513d601f19601f8201168201806040525081019061169e91906120c5565b9050826001600160a01b0316336001600160a01b03167fddf252ad1be2c89b69c2b068fc378daa952ba7f163c4a11628f55a4df523b3ef8460405161077491815260200190565b3360009081527f9cd58e85166b00f2c5084ab3c52b6a5cfc82b0f8dcb5209201f73c0cff91daff602052604090205460ff166117635760405162461bcd60e51b815260206004820152601960248201527f63616c6c6572206973206e6f742061204445504f5349544f52000000000000006044820152606401610c0b565b600061177182840184611e60565b6040516308934a5f60e31b81526001600160a01b038616600482015260248101829052909150309063449a52f8906044016020604051808303816000875af11580156117c1573d6000803e3d6000fd5b505050506040513d601f19601f820116820180604052508101906117e591906120c5565b5050505050565b6000828152600260205260409020600101546118078161193f565b610b2983836119eb565b6003546040517fdd62ed3e0000000000000000000000000000000000000000000000000000000081526001600160a01b0384811660048301528381166024830152600092169063dd62ed3e90604401602060405180830381865afa15801561187d573d6000803e3d6000fd5b505050506040513d601f19601f82011682018060405250810190610f5791906120e7565b6115a681611a6e565b6040517fa9059cbb0000000000000000000000000000000000000000000000000000000081526001600160a01b0383811660048301526024820183905284169063a9059cbb906044016020604051808303816000875af1158015611912573d6000803e3d6000fd5b505050506040513d601f19601f8201168201806040525081019061193691906120c5565b610b2957600080fd5b6115a68133611ab4565b60008281526002602090815260408083206001600160a01b038516845290915290205460ff166108215760008281526002602090815260408083206001600160a01b03851684529091529020805460ff191660011790556119a73390565b6001600160a01b0316816001600160a01b0316837f2f8788117e7eff1d82e926ec794901d17c78024a50270940304540a733656f0d60405160405180910390a45050565b60008281526002602090815260408083206001600160a01b038516845290915290205460ff16156108215760008281526002602090815260408083206001600160a01b0385168085529252808320805460ff1916905551339285917ff6391f5c32d9c69d2a47ea670b442974b53935d1edc7fd64eb21e047a839171b9190a45050565b6000546001600160a01b03163314611a8557600080fd5b6001805473ffffffffffffffffffffffffffffffffffffffff19166001600160a01b0392909216919091179055565b60008281526002602090815260408083206001600160a01b038516845290915290205460ff1661082157611ae781611b29565b611af2836020611b3b565b604051602001611b039291906121b4565b60408051601f198184030181529082905262461bcd60e51b8252610c0b91600401611d8e565b60606106026001600160a01b03831660145b60606000611b4a83600261224b565b611b5590600261226a565b67ffffffffffffffff811115611b6d57611b6d612282565b6040519080825280601f01601f191660200182016040528015611b97576020820181803683370190505b5090507f300000000000000000000000000000000000000000000000000000000000000081600081518110611bce57611bce612298565b60200101906001600160f81b031916908160001a9053507f780000000000000000000000000000000000000000000000000000000000000081600181518110611c1957611c19612298565b60200101906001600160f81b031916908160001a9053506000611c3d84600261224b565b611c4890600161226a565b90505b6001811115611ccd577f303132333435363738396162636465660000000000000000000000000000000085600f1660108110611c8957611c89612298565b1a60f81b828281518110611c9f57611c9f612298565b60200101906001600160f81b031916908160001a90535060049490941c93611cc6816122ae565b9050611c4b565b508315610f575760405162461bcd60e51b815260206004820181905260248201527f537472696e67733a20686578206c656e67746820696e73756666696369656e746044820152606401610c0b565b600060208284031215611d2e57600080fd5b81357fffffffff0000000000000000000000000000000000000000000000000000000081168114610f5757600080fd5b60005b83811015611d79578181015183820152602001611d61565b83811115611d88576000848401525b50505050565b6020815260008251806020840152611dad816040850160208701611d5e565b601f01601f19169190910160400192915050565b6001600160a01b03811681146115a657600080fd5b60008060408385031215611de957600080fd5b8235611df481611dc1565b946020939093013593505050565b600060208284031215611e1457600080fd5b8135610f5781611dc1565b600080600060608486031215611e3457600080fd5b8335611e3f81611dc1565b92506020840135611e4f81611dc1565b929592945050506040919091013590565b600060208284031215611e7257600080fd5b5035919050565b60008060408385031215611e8c57600080fd5b823591506020830135611e9e81611dc1565b809150509250929050565b803560ff81168114611eba57600080fd5b919050565b60008060008060008060c08789031215611ed857600080fd5b8635611ee381611dc1565b95506020870135945060408701359350611eff60608801611ea9565b92506080870135915060a087013590509295509295509295565b60008083601f840112611f2b57600080fd5b50813567ffffffffffffffff811115611f4357600080fd5b602083019150836020828501011115611f5b57600080fd5b9250929050565b60008060008060608587031215611f7857600080fd5b8435611f8381611dc1565b935060208501359250604085013567ffffffffffffffff811115611fa657600080fd5b611fb287828801611f19565b95989497509550505050565b60008060008060008060c08789031215611fd757600080fd5b8635611fe281611dc1565b95506020870135611ff281611dc1565b945060408701359350611eff60608801611ea9565b60008060006040848603121561201c57600080fd5b833561202781611dc1565b9250602084013567ffffffffffffffff81111561204357600080fd5b61204f86828701611f19565b9497909650939450505050565b6000806040838503121561206f57600080fd5b823561207a81611dc1565b91506020830135611e9e81611dc1565b600181811c9082168061209e57607f821691505b602082108114156120bf57634e487b7160e01b600052602260045260246000fd5b50919050565b6000602082840312156120d757600080fd5b81518015158114610f5757600080fd5b6000602082840312156120f957600080fd5b5051919050565b81835281816020850137506000828201602090810191909152601f909101601f19169091010190565b60006001600160a01b0380881683528087166020840152508460408301526080606083015261215c608083018486612100565b979650505050505050565b838152604060208201526000612181604083018486612100565b95945050505050565b60006020828403121561219c57600080fd5b81516001600160e81b031981168114610f5757600080fd5b7f416363657373436f6e74726f6c3a206163636f756e74200000000000000000008152600083516121ec816017850160208801611d5e565b7f206973206d697373696e6720726f6c65200000000000000000000000000000006017918401918201528351612229816028840160208801611d5e565b01602801949350505050565b634e487b7160e01b600052601160045260246000fd5b600081600019048311821515161561226557612265612235565b500290565b6000821982111561227d5761227d612235565b500190565b634e487b7160e01b600052604160045260246000fd5b634e487b7160e01b600052603260045260246000fd5b6000816122bd576122bd612235565b50600019019056fea26469706673582212204fd8237e50523e5b462408be8bc8e414432673064469b1f4efdc628fee6450a964736f6c634300080b0033",
  "immutableReferences": {},
  "source": "/* SPDX-License-Identifier: apache-2.0 */\n/**\n * Copyright 2022 Monerium ehf.\n *\n * Licensed under the Apache License, Version 2.0 (the \"License\");\n * you may not use this file except in compliance with the License.\n * You may obtain a copy of the License at\n *\n *     http://www.apache.org/licenses/LICENSE-2.0\n *\n * Unless required by applicable law or agreed to in writing, software\n * distributed under the License is distributed on an \"AS IS\" BASIS,\n * WITHOUT WARRANTIES OR CONDITIONS OF ANY KIND, either express or implied.\n * See the License for the specific language governing permissions and\n * limitations under the License.\n */\n\npragma solidity 0.8.11;\n\nimport \"./PolygonPosTokenFrontend.sol\";\n\ncontract PolygonPosISK is PolygonPosTokenFrontend {\n\n    constructor(address childChainManagerProxy)\n      PolygonPosTokenFrontend(\"Monerium ISK emoney\", \"ISKe\", \"ISK\", childChainManagerProxy)\n    { }\n\n}\n",
  "sourcePath": "/Users/gislik/Code/smart-contracts-private/contracts/PolygonPosISK.sol",
  "compiler": {
    "name": "solc",
    "version": "0.8.11+commit.d7f03943.Emscripten.clang"
  },
  "schemaVersion": "3.4.10",
  "updatedAt": "2022-11-29T22:37:08.793Z",
  "networkType": "ethereum",
  "devdoc": {
    "kind": "dev",
    "methods": {
      "allowance(address,address)": {
        "details": "Returns the allowance for a spender",
        "params": {
          "owner": "The address of the owner of the tokens.",
          "spender": "The address of the spender."
        },
        "returns": {
          "_0": "Number of tokens the spender is allowed to spend."
        }
      },
      "approve(address,uint256)": {
        "details": "Approves a spender [ERC20]. Note that using the approve/transferFrom presents a possible security vulnerability described in: https://docs.google.com/document/d/1YLPtQxZu1UAvO9cZ1O2RPXBbT0mooh4DYKjA_jp-RLM/edit#heading=h.quou09mcbpzw Use transferAndCall to mitigate.",
        "params": {
          "amount": "The allowance of the spender.",
          "spender": "The address of the future spender."
        }
      },
      "balanceOf(address)": {
        "details": "Returns the number tokens associated with an address.",
        "params": {
          "who": "Address to lookup."
        },
        "returns": {
          "_0": "Balance of address."
        }
      },
      "burnFrom(address,uint256,bytes32,uint8,bytes32,bytes32)": {
        "details": "Burns tokens from token owner. This removfes the burned tokens from circulation.",
        "params": {
          "amount": "Number of tokens to burn.",
          "from": "Address of the token owner.",
          "h": "Hash which the token owner signed.",
          "r": "Signature component.",
          "s": "Sigature component.",
          "v": "Signature component."
        }
      },
      "claimOwnership()": {
        "details": "Allows the pendingOwner address to finalize the transfer."
      },
      "decimals()": {
        "details": "Returns the number of decimals in one token.",
        "returns": {
          "_0": "Number of decimals."
        }
      },
      "deposit(address,bytes)": {
        "details": "Should be callable only by ChildChainManager Should handle deposit by minting the required amount for user",
        "params": {
          "depositData": "abi encoded amount",
          "user": "user address for whom deposit is being done"
        }
      },
      "getController()": {
        "details": "Gets the current controller.",
        "returns": {
          "_0": "Address of the controller."
        }
      },
      "getRoleAdmin(bytes32)": {
        "details": "Returns the admin role that controls `role`. See {grantRole} and {revokeRole}. To change a role's admin, use {_setRoleAdmin}."
      },
      "grantRole(bytes32,address)": {
        "details": "Grants `role` to `account`. If `account` had not been already granted `role`, emits a {RoleGranted} event. Requirements: - the caller must have ``role``'s admin role. May emit a {RoleGranted} event."
      },
      "hasRole(bytes32,address)": {
        "details": "Returns `true` if `account` has been granted `role`."
      },
      "mint(address,uint256)": {
        "details": "Should be callable only by Matic's Predicate contract. Should handle deposit by minting the required amount for user.",
        "params": {
          "amount": "Number of tokens to mint.",
          "to": "Address to credit the tokens."
        }
      },
      "mintTo(address,uint256)": {
        "details": "Mints new tokens.",
        "params": {
          "amount": "Number of tokens to mint.",
          "to": "Address to credit the tokens."
        }
      },
      "reclaimContract(address)": {
        "details": "Reclaim ownership of Ownable contracts",
        "params": {
          "_contractAddr": "The address of the Ownable to be reclaimed."
        }
      },
      "reclaimEther()": {
        "details": "Transfer all Ether held by the contract to the owner."
      },
      "reclaimToken(address)": {
        "details": "Reclaim all ERC20Basic compatible tokens",
        "params": {
          "_token": "ERC20Basic The address of the token contract"
        }
      },
      "recover(address,address,bytes32,uint8,bytes32,bytes32)": {
        "details": "Recovers tokens from an address and reissues them to another address. In case a user loses its private key the tokens can be recovered by burning the tokens from that address and reissuing to a new address. To recover tokens the contract owner needs to provide a signature proving that the token owner has authorized the owner to do so.",
        "params": {
          "from": "Address to burn tokens from.",
          "h": "Hash which the token owner signed.",
          "r": "Signature component.",
          "s": "Sigature component.",
          "to": "Address to mint tokens to.",
          "v": "Signature component."
        },
        "returns": {
          "amount": "Amount recovered."
        }
      },
      "renounceOwnership()": {
        "details": "Allows the current owner to relinquish control of the contract."
      },
      "renounceRole(bytes32,address)": {
        "details": "Revokes `role` from the calling account. Roles are often managed via {grantRole} and {revokeRole}: this function's purpose is to provide a mechanism for accounts to lose their privileges if they are compromised (such as when a trusted device is misplaced). If the calling account had been revoked `role`, emits a {RoleRevoked} event. Requirements: - the caller must be `account`. May emit a {RoleRevoked} event."
      },
      "revokeRole(bytes32,address)": {
        "details": "Revokes `role` from `account`. If `account` had been granted `role`, emits a {RoleRevoked} event. Requirements: - the caller must have ``role``'s admin role. May emit a {RoleRevoked} event."
      },
      "setController(address)": {
        "details": "Sets a new controller.",
        "params": {
          "address_": "Address of the controller."
        }
      },
      "supportsInterface(bytes4)": {
        "details": "See {IERC165-supportsInterface}."
      },
      "tokenFallback(address,uint256,bytes)": {
        "details": "Reject all ERC223 compatible tokens",
        "params": {
          "_data": "Bytes The data passed from the caller.",
          "_from": "address The address that is transferring the tokens",
          "_value": "uint256 the amount of the specified token"
        }
      },
      "totalSupply()": {
        "details": "Returns the total supply.",
        "returns": {
          "_0": "Number of tokens."
        }
      },
      "transfer(address,uint256)": {
        "details": "Transfers tokens [ERC20].",
        "params": {
          "amount": "Number of tokens to transfer.",
          "to": "Recipient address."
        }
      },
      "transferAndCall(address,uint256,bytes)": {
        "details": "Transfers tokens and subsequently calls a method on the recipient [ERC677]. If the recipient is a non-contract address this method behaves just like transfer.",
        "params": {
          "amount": "Number of tokens to transfer.",
          "data": "Additional data passed to the recipient's tokenFallback method.",
          "to": "Recipient address."
        }
      },
      "transferFrom(address,address,uint256)": {
        "details": "Transfers tokens from a specific address [ERC20]. The address owner has to approve the spender beforehand.",
        "params": {
          "amount": "Number of tokens to transfer.",
          "from": "Address to debet the tokens from.",
          "to": "Recipient address."
        }
      },
      "transferOwnership(address)": {
        "details": "Explicit override of transferOwnership from Claimable and Ownable",
        "params": {
          "newOwner": "Address to transfer ownership to."
        }
      },
      "withdraw(uint256)": {
        "details": "Should burn user's tokens. This transaction will be verified when exiting on root chain",
        "params": {
          "amount": "amount of tokens to withdraw"
        }
      }
    },
    "version": 1
  },
  "userdoc": {
    "kind": "user",
    "methods": {
      "deposit(address,bytes)": {
        "notice": "Polygon Bridge Mechanism. Called when token is deposited on root chain"
      },
      "mint(address,uint256)": {
        "notice": "Polygon Bridge Mechanism. Called when token is withdrawn from child chain."
      },
      "renounceOwnership()": {
        "notice": "Renouncing to ownership will leave the contract without an owner. It will not be possible to call the functions with the `onlyOwner` modifier anymore."
      },
      "withdraw(uint256)": {
        "notice": "Polygon Bridge Mechanism. Called when user wants to withdraw tokens back to root chain"
      }
    },
    "version": 1
  }
}