{
  "contractName": "RejectingRecipient",
  "abi": [
    {
      "constant": false,
      "inputs": [
        {
          "name": "",
          "type": "address"
        },
        {
          "name": "",
          "type": "uint256"
        },
        {
          "name": "",
          "type": "bytes"
        }
      ],
      "name": "onTokenTransfer",
      "outputs": [
        {
          "name": "",
          "type": "bool"
        }
      ],
      "payable": false,
      "stateMutability": "nonpayable",
      "type": "function"
    }
  ],
  "bytecode": "0x608060405234801561001057600080fd5b5060f78061001f6000396000f300608060405260043610603f576000357c0100000000000000000000000000000000000000000000000000000000900463ffffffff168063a4c0ed36146044575b600080fd5b348015604f57600080fd5b5060a4600480360381019080803573ffffffffffffffffffffffffffffffffffffffff1690602001909291908035906020019092919080359060200190820180359060200191909192939192939050505060be565b604051808215151515815260200191505060405180910390f35b60008090509493505050505600a165627a7a7230582096e9ac29471f8693d0afcd6b9077e9fca17059b6ac578144d9a9d9e0fbbce2780029",
  "source": "/**\n * Copyright 2019 Monerium ehf.\n *\n * Licensed under the Apache License, Version 2.0 (the \"License\");\n * you may not use this file except in compliance with the License.\n * You may obtain a copy of the License at\n *\n *     http://www.apache.org/licenses/LICENSE-2.0\n *\n * Unless required by applicable law or agreed to in writing, software\n * distributed under the License is distributed on an \"AS IS\" BASIS,\n * WITHOUT WARRANTIES OR CONDITIONS OF ANY KIND, either express or implied.\n * See the License for the specific language governing permissions and\n * limitations under the License.\n */\n\npragma solidity 0.4.24;\n\nimport \"./IERC677Recipient.sol\";\n\n/**\n * @title RejectingRecipient\n * @dev [ERC677]-compatible contract.\n * The contract rejects token ownership.\n */\ncontract RejectingRecipient is IERC677Recipient {\n\n    function onTokenTransfer(address, uint256, bytes) external returns (bool) {\n        return false;\n    }\n\n}\n\n",
  "sourcePath": "/Users/gislik/Code/smart-contracts/contracts/RejectingRecipient.sol",
  "compiler": {
    "name": "solc",
    "version": "0.4.24+commit.e67f0147.Emscripten.clang"
  },
  "schemaVersion": "2.0.1",
  "updatedAt": "2019-07-19T18:27:55.818Z"
}