{
  "contractName": "SmartTokenLib",
  "abi": [
    {
      "anonymous": false,
      "inputs": [
        {
          "indexed": true,
          "name": "from",
          "type": "address"
        },
        {
          "indexed": true,
          "name": "to",
          "type": "address"
        },
        {
          "indexed": false,
          "name": "amount",
          "type": "uint256"
        }
      ],
      "name": "Recovered",
      "type": "event"
    },
    {
      "anonymous": false,
      "inputs": [
        {
          "indexed": true,
          "name": "old",
          "type": "address"
        },
        {
          "indexed": true,
          "name": "current",
          "type": "address"
        }
      ],
      "name": "Validator",
      "type": "event"
    },
    {
      "constant": false,
      "inputs": [
        {
          "name": "self",
          "type": "SmartTokenLib.SmartStorage storage"
        },
        {
          "name": "validator",
          "type": "address"
        }
      ],
      "name": "setValidator",
      "outputs": [],
      "payable": false,
      "stateMutability": "nonpayable",
      "type": "function"
    },
    {
      "constant": false,
      "inputs": [
        {
          "name": "self",
          "type": "SmartTokenLib.SmartStorage storage"
        },
        {
          "name": "from",
          "type": "address"
        },
        {
          "name": "to",
          "type": "address"
        },
        {
          "name": "amount",
          "type": "uint256"
        }
      ],
      "name": "validate",
      "outputs": [
        {
          "name": "valid",
          "type": "bool"
        }
      ],
      "payable": false,
      "stateMutability": "nonpayable",
      "type": "function"
    },
    {
      "constant": false,
      "inputs": [
        {
          "name": "token",
          "type": "TokenStorage"
        },
        {
          "name": "from",
          "type": "address"
        },
        {
          "name": "to",
          "type": "address"
        },
        {
          "name": "h",
          "type": "bytes32"
        },
        {
          "name": "v",
          "type": "uint8"
        },
        {
          "name": "r",
          "type": "bytes32"
        },
        {
          "name": "s",
          "type": "bytes32"
        }
      ],
      "name": "recover",
      "outputs": [
        {
          "name": "",
          "type": "uint256"
        }
      ],
      "payable": false,
      "stateMutability": "nonpayable",
      "type": "function"
    },
    {
      "constant": true,
      "inputs": [
        {
          "name": "self",
          "type": "SmartTokenLib.SmartStorage storage"
        }
      ],
      "name": "getValidator",
      "outputs": [
        {
          "name": "",
          "type": "address"
        }
      ],
      "payable": false,
      "stateMutability": "view",
      "type": "function"
    }
  ],
  "bytecode": "0x6106c9610030600b82828239805160001a6073146000811461002057610022565bfe5b5030600052607381538281f30073000000000000000000000000000000000000000030146080604052600436106100785763ffffffff7c010000000000000000000000000000000000000000000000000000000060003504166332c5a6eb811461007d5780636271970c146100cb5780638f722734146100ff578063ad4153491461015a575b600080fd5b81801561008957600080fd5b506100b760043573ffffffffffffffffffffffffffffffffffffffff6024358116906044351660643561018d565b604080519115158252519081900360200190f35b6100d6600435610248565b6040805173ffffffffffffffffffffffffffffffffffffffff9092168252519081900360200190f35b81801561010b57600080fd5b5061014873ffffffffffffffffffffffffffffffffffffffff6004358116906024358116906044351660643560ff6084351660a43560c435610262565b60408051918252519081900360200190f35b81801561016657600080fd5b5061018b60043573ffffffffffffffffffffffffffffffffffffffff60243516610615565b005b8354604080517faa3ad4e400000000000000000000000000000000000000000000000000000000815273ffffffffffffffffffffffffffffffffffffffff86811660048301528581166024830152604482018590529151600093929092169163aa3ad4e49160648082019260209290919082900301818787803b15801561021357600080fd5b505af1158015610227573d6000803e3d6000fd5b505050506040513d602081101561023d57600080fd5b505195945050505050565b5473ffffffffffffffffffffffffffffffffffffffff1690565b604080516000808252602080830180855288905260ff871683850152606083018690526080830185905292519092839273ffffffffffffffffffffffffffffffffffffffff8b169260019260a0808401939192601f198101928190039091019087865af11580156102d7573d6000803e3d6000fd5b5050506020604051035173ffffffffffffffffffffffffffffffffffffffff1614151561038b57604080517f08c379a000000000000000000000000000000000000000000000000000000000815260206004820152602c60248201527f7369676e61747572652f6861736820646f6573206e6f74207265636f7665722060448201527f66726f6d20616464726573730000000000000000000000000000000000000000606482015290519081900360840190fd5b604080517f188b486700000000000000000000000000000000000000000000000000000000815273ffffffffffffffffffffffffffffffffffffffff808c1660048301528a166024820152905173__ERC20Lib______________________________9163188b4867916044808301926020929190829003018186803b15801561041357600080fd5b505af4158015610427573d6000803e3d6000fd5b505050506040513d602081101561043d57600080fd5b5051604080517fa6c9ac2800000000000000000000000000000000000000000000000000000000815273ffffffffffffffffffffffffffffffffffffffff808d1660048301528b16602482015260448101839052905191925073__MintableTokenLib______________________9163a6c9ac2891606480820192602092909190829003018186803b1580156104d257600080fd5b505af41580156104e6573d6000803e3d6000fd5b505050506040513d60208110156104fc57600080fd5b5050604080517fb0c29c7400000000000000000000000000000000000000000000000000000000815273ffffffffffffffffffffffffffffffffffffffff808c1660048301528916602482015260448101839052905173__MintableTokenLib______________________9163b0c29c74916064808301926020929190829003018186803b15801561058d57600080fd5b505af41580156105a1573d6000803e3d6000fd5b505050506040513d60208110156105b757600080fd5b505060408051828152905173ffffffffffffffffffffffffffffffffffffffff808a1692908b16917ffff3b3844276f57024e0b42afec1a37f75db36511e43819a4f2a63ab7862b6489181900360200190a398975050505050505050565b815460405173ffffffffffffffffffffffffffffffffffffffff8084169216907f5228715db99b8f1da4dfd674224fa5f9c26b00f68a1bd3020f87a25724119bea90600090a381547fffffffffffffffffffffffff00000000000000000000000000000000000000001673ffffffffffffffffffffffffffffffffffffffff919091161790555600a165627a7a723058204eae3c2f5667ef836c6bfc5ecfedfd18adb0419b8a197055054776f03ee4ce790029",
  "source": "/**\n * Copyright 2019 Monerium ehf.\n *\n * Licensed under the Apache License, Version 2.0 (the \"License\");\n * you may not use this file except in compliance with the License.\n * You may obtain a copy of the License at\n *\n *     http://www.apache.org/licenses/LICENSE-2.0\n *\n * Unless required by applicable law or agreed to in writing, software\n * distributed under the License is distributed on an \"AS IS\" BASIS,\n * WITHOUT WARRANTIES OR CONDITIONS OF ANY KIND, either express or implied.\n * See the License for the specific language governing permissions and\n * limitations under the License.\n */\n\npragma solidity 0.4.24;\n\nimport \"./ERC20Lib.sol\";\nimport \"./MintableTokenLib.sol\";\nimport \"./IValidator.sol\";\n\n/**\n * @title SmartTokenLib\n * @dev This library provides functionality which is required from a regulatory perspective.\n */\nlibrary SmartTokenLib {\n\n    using ERC20Lib for TokenStorage;\n    using MintableTokenLib for TokenStorage;\n\n    struct SmartStorage {\n        IValidator validator;\n    }\n\n    /**\n     * @dev Emitted when the contract owner recovers tokens.\n     * @param from Sender address.\n     * @param to Recipient address.\n     * @param amount Number of tokens.\n     */\n    event Recovered(address indexed from, address indexed to, uint amount);\n\n    /**\n     * @dev Emitted when updating the validator.\n     * @param old Address of the old validator.\n     * @param current Address of the new validator.\n     */\n    event Validator(address indexed old, address indexed current);\n\n    /**\n     * @dev Sets a new validator.\n     * @param self Smart storage to operate on.\n     * @param validator Address of validator.\n     */\n    function setValidator(SmartStorage storage self, address validator)\n        external\n    {\n        emit Validator(self.validator, validator);\n        self.validator = IValidator(validator);\n    }\n\n\n    /**\n     * @dev Approves or rejects a transfer request.\n     * The request is forwarded to a validator which implements\n     * the actual business logic.\n     * @param self Smart storage to operate on.\n     * @param from Sender address.\n     * @param to Recipient address.\n     * @param amount Number of tokens.\n     */\n    function validate(SmartStorage storage self, address from, address to, uint amount)\n        external\n        returns (bool valid)\n    {\n        return self.validator.validate(from, to, amount);\n    }\n\n    /**\n     * @dev Recovers tokens from an address and reissues them to another address.\n     * In case a user loses its private key the tokens can be recovered by burning\n     * the tokens from that address and reissuing to a new address.\n     * To recover tokens the contract owner needs to provide a signature\n     * proving that the token owner has authorized the owner to do so.\n     * @param from Address to burn tokens from.\n     * @param to Address to mint tokens to.\n     * @param h Hash which the token owner signed.\n     * @param v Signature component.\n     * @param r Signature component.\n     * @param s Sigature component.\n     * @return Amount recovered.\n     */\n    function recover(\n        TokenStorage token,\n        address from,\n        address to,\n        bytes32 h,\n        uint8 v,\n        bytes32 r,\n        bytes32 s\n    )\n        external\n        returns (uint)\n    {\n        require(\n            ecrecover(h, v, r, s) == from,\n            \"signature/hash does not recover from address\"\n        );\n        uint amount = token.balanceOf(from);\n        token.burn(from, amount);\n        token.mint(to, amount);\n        emit Recovered(from, to, amount);\n        return amount;\n    }\n\n    /**\n     * @dev Gets the current validator.\n     * @param self Smart storage to operate on.\n     * @return Address of validator.\n     */\n    function getValidator(SmartStorage storage self)\n        external\n        view\n        returns (address)\n    {\n        return address(self.validator);\n    }\n\n}\n",
  "sourcePath": "/Users/gislik/Code/smart-contracts/contracts/SmartTokenLib.sol",
  "compiler": {
    "name": "solc",
    "version": "0.4.24+commit.e67f0147.Emscripten.clang"
  },
  "schemaVersion": "2.0.1",
  "updatedAt": "2020-01-08T13:39:11.562Z"
}