{
  "contractName": "StandardController",
  "abi": [
    {
      "constant": true,
      "inputs": [],
      "name": "name",
      "outputs": [
        {
          "name": "",
          "type": "string"
        }
      ],
      "payable": false,
      "stateMutability": "view",
      "type": "function"
    },
    {
      "constant": true,
      "inputs": [],
      "name": "decimals",
      "outputs": [
        {
          "name": "",
          "type": "uint256"
        }
      ],
      "payable": false,
      "stateMutability": "view",
      "type": "function"
    },
    {
      "constant": false,
      "inputs": [],
      "name": "unpause",
      "outputs": [],
      "payable": false,
      "stateMutability": "nonpayable",
      "type": "function"
    },
    {
      "constant": false,
      "inputs": [],
      "name": "claimOwnership",
      "outputs": [],
      "payable": false,
      "stateMutability": "nonpayable",
      "type": "function"
    },
    {
      "constant": true,
      "inputs": [],
      "name": "paused",
      "outputs": [
        {
          "name": "",
          "type": "bool"
        }
      ],
      "payable": false,
      "stateMutability": "view",
      "type": "function"
    },
    {
      "constant": false,
      "inputs": [],
      "name": "renounceOwnership",
      "outputs": [],
      "payable": false,
      "stateMutability": "nonpayable",
      "type": "function"
    },
    {
      "constant": false,
      "inputs": [],
      "name": "destroy",
      "outputs": [],
      "payable": false,
      "stateMutability": "nonpayable",
      "type": "function"
    },
    {
      "constant": false,
      "inputs": [],
      "name": "pause",
      "outputs": [],
      "payable": false,
      "stateMutability": "nonpayable",
      "type": "function"
    },
    {
      "constant": true,
      "inputs": [],
      "name": "owner",
      "outputs": [
        {
          "name": "",
          "type": "address"
        }
      ],
      "payable": false,
      "stateMutability": "view",
      "type": "function"
    },
    {
      "constant": true,
      "inputs": [],
      "name": "symbol",
      "outputs": [
        {
          "name": "",
          "type": "string"
        }
      ],
      "payable": false,
      "stateMutability": "view",
      "type": "function"
    },
    {
      "constant": true,
      "inputs": [],
      "name": "pendingOwner",
      "outputs": [
        {
          "name": "",
          "type": "address"
        }
      ],
      "payable": false,
      "stateMutability": "view",
      "type": "function"
    },
    {
      "constant": false,
      "inputs": [
        {
          "name": "newOwner",
          "type": "address"
        }
      ],
      "name": "transferOwnership",
      "outputs": [],
      "payable": false,
      "stateMutability": "nonpayable",
      "type": "function"
    },
    {
      "constant": false,
      "inputs": [
        {
          "name": "_recipient",
          "type": "address"
        }
      ],
      "name": "destroyAndSend",
      "outputs": [],
      "payable": false,
      "stateMutability": "nonpayable",
      "type": "function"
    },
    {
      "inputs": [
        {
          "name": "storage_",
          "type": "address"
        },
        {
          "name": "initialSupply",
          "type": "uint256"
        },
        {
          "name": "frontend_",
          "type": "address"
        }
      ],
      "payable": false,
      "stateMutability": "nonpayable",
      "type": "constructor"
    },
    {
      "anonymous": false,
      "inputs": [
        {
          "indexed": true,
          "name": "old",
          "type": "address"
        },
        {
          "indexed": true,
          "name": "current",
          "type": "address"
        }
      ],
      "name": "Frontend",
      "type": "event"
    },
    {
      "anonymous": false,
      "inputs": [
        {
          "indexed": true,
          "name": "old",
          "type": "address"
        },
        {
          "indexed": true,
          "name": "current",
          "type": "address"
        }
      ],
      "name": "Storage",
      "type": "event"
    },
    {
      "anonymous": false,
      "inputs": [],
      "name": "Pause",
      "type": "event"
    },
    {
      "anonymous": false,
      "inputs": [],
      "name": "Unpause",
      "type": "event"
    },
    {
      "anonymous": false,
      "inputs": [
        {
          "indexed": true,
          "name": "previousOwner",
          "type": "address"
        }
      ],
      "name": "OwnershipRenounced",
      "type": "event"
    },
    {
      "anonymous": false,
      "inputs": [
        {
          "indexed": true,
          "name": "previousOwner",
          "type": "address"
        },
        {
          "indexed": true,
          "name": "newOwner",
          "type": "address"
        }
      ],
      "name": "OwnershipTransferred",
      "type": "event"
    },
    {
      "constant": true,
      "inputs": [],
      "name": "getFrontend",
      "outputs": [
        {
          "name": "",
          "type": "address"
        }
      ],
      "payable": false,
      "stateMutability": "view",
      "type": "function"
    },
    {
      "constant": true,
      "inputs": [],
      "name": "getStorage",
      "outputs": [
        {
          "name": "",
          "type": "address"
        }
      ],
      "payable": false,
      "stateMutability": "view",
      "type": "function"
    },
    {
      "constant": false,
      "inputs": [
        {
          "name": "frontend_",
          "type": "address"
        }
      ],
      "name": "setFrontend",
      "outputs": [],
      "payable": false,
      "stateMutability": "nonpayable",
      "type": "function"
    },
    {
      "constant": false,
      "inputs": [
        {
          "name": "storage_",
          "type": "address"
        }
      ],
      "name": "setStorage",
      "outputs": [],
      "payable": false,
      "stateMutability": "nonpayable",
      "type": "function"
    },
    {
      "constant": false,
      "inputs": [
        {
          "name": "newOwner",
          "type": "address"
        }
      ],
      "name": "transferStorageOwnership",
      "outputs": [],
      "payable": false,
      "stateMutability": "nonpayable",
      "type": "function"
    },
    {
      "constant": false,
      "inputs": [],
      "name": "claimStorageOwnership",
      "outputs": [],
      "payable": false,
      "stateMutability": "nonpayable",
      "type": "function"
    },
    {
      "constant": false,
      "inputs": [
        {
          "name": "caller",
          "type": "address"
        },
        {
          "name": "to",
          "type": "address"
        },
        {
          "name": "amount",
          "type": "uint256"
        }
      ],
      "name": "transfer_withCaller",
      "outputs": [
        {
          "name": "ok",
          "type": "bool"
        }
      ],
      "payable": false,
      "stateMutability": "nonpayable",
      "type": "function"
    },
    {
      "constant": false,
      "inputs": [
        {
          "name": "caller",
          "type": "address"
        },
        {
          "name": "from",
          "type": "address"
        },
        {
          "name": "to",
          "type": "address"
        },
        {
          "name": "amount",
          "type": "uint256"
        }
      ],
      "name": "transferFrom_withCaller",
      "outputs": [
        {
          "name": "ok",
          "type": "bool"
        }
      ],
      "payable": false,
      "stateMutability": "nonpayable",
      "type": "function"
    },
    {
      "constant": false,
      "inputs": [
        {
          "name": "caller",
          "type": "address"
        },
        {
          "name": "spender",
          "type": "address"
        },
        {
          "name": "amount",
          "type": "uint256"
        }
      ],
      "name": "approve_withCaller",
      "outputs": [
        {
          "name": "ok",
          "type": "bool"
        }
      ],
      "payable": false,
      "stateMutability": "nonpayable",
      "type": "function"
    },
    {
      "constant": false,
      "inputs": [
        {
          "name": "caller",
          "type": "address"
        },
        {
          "name": "to",
          "type": "address"
        },
        {
          "name": "amount",
          "type": "uint256"
        },
        {
          "name": "data",
          "type": "bytes"
        }
      ],
      "name": "transferAndCall_withCaller",
      "outputs": [
        {
          "name": "ok",
          "type": "bool"
        }
      ],
      "payable": false,
      "stateMutability": "nonpayable",
      "type": "function"
    },
    {
      "constant": true,
      "inputs": [],
      "name": "totalSupply",
      "outputs": [
        {
          "name": "",
          "type": "uint256"
        }
      ],
      "payable": false,
      "stateMutability": "view",
      "type": "function"
    },
    {
      "constant": true,
      "inputs": [
        {
          "name": "who",
          "type": "address"
        }
      ],
      "name": "balanceOf",
      "outputs": [
        {
          "name": "",
          "type": "uint256"
        }
      ],
      "payable": false,
      "stateMutability": "view",
      "type": "function"
    },
    {
      "constant": true,
      "inputs": [
        {
          "name": "owner",
          "type": "address"
        },
        {
          "name": "spender",
          "type": "address"
        }
      ],
      "name": "allowance",
      "outputs": [
        {
          "name": "",
          "type": "uint256"
        }
      ],
      "payable": false,
      "stateMutability": "view",
      "type": "function"
    }
  ],
  "bytecode": "0x608060405260008060146101000a81548160ff02191690831515021790555060126006553480156200003057600080fd5b5060405160608062003f20833981018060405281019080805190602001909291908051906020019092919080519060200190929190505050336000806101000a81548173ffffffffffffffffffffffffffffffffffffffff021916908373ffffffffffffffffffffffffffffffffffffffff16021790555060008373ffffffffffffffffffffffffffffffffffffffff161480620000ce5750600082145b151562000169576040517f08c379a000000000000000000000000000000000000000000000000000000000815260040180806020018281038252603f8152602001807f656974686572206120746f6b656e2073746f72616765206d757374206265206981526020017f6e697469616c697a6564206f72206e6f20696e697469616c20737570706c790081525060400191505060405180910390fd5b60008373ffffffffffffffffffffffffffffffffffffffff161415620002d6576200019362000362565b604051809103906000f080158015620001b0573d6000803e3d6000fd5b50600260006101000a81548173ffffffffffffffffffffffffffffffffffffffff021916908373ffffffffffffffffffffffffffffffffffffffff160217905550600260009054906101000a900473ffffffffffffffffffffffffffffffffffffffff1673ffffffffffffffffffffffffffffffffffffffff166321e5383a33846040518363ffffffff167c0100000000000000000000000000000000000000000000000000000000028152600401808373ffffffffffffffffffffffffffffffffffffffff1673ffffffffffffffffffffffffffffffffffffffff16815260200182815260200192505050600060405180830381600087803b158015620002b757600080fd5b505af1158015620002cc573d6000803e3d6000fd5b5050505062000318565b82600260006101000a81548173ffffffffffffffffffffffffffffffffffffffff021916908373ffffffffffffffffffffffffffffffffffffffff1602179055505b80600360006101000a81548173ffffffffffffffffffffffffffffffffffffffff021916908373ffffffffffffffffffffffffffffffffffffffff16021790555050505062000373565b6040516113f98062002b2783390190565b6127a480620003836000396000f300608060405260043610610153576000357c0100000000000000000000000000000000000000000000000000000000900463ffffffff1680623074ff1461015857806306fdde03146101af57806318160ddd1461023f578063313ce5671461026a5780633408f73a146102955780633f4ba83a146102ec5780634e71e0c8146103035780635c975abb1461031a57806369569a511461034957806370a082311461038c578063715018a6146103e3578063774d5409146103fa57806383197ef01461047f5780638456cb59146104965780638da5cb5b146104ad5780639137c1a71461050457806395d89b41146105475780639e7f43ca146105d7578063b516af70146106a2578063dd62ed3e146106b9578063e174fd9414610730578063e30c3978146107b5578063e974fee91461080c578063ee0b5445146108b1578063f2fde38b146108f4578063f5074f4114610937575b600080fd5b34801561016457600080fd5b5061016d61097a565b604051808273ffffffffffffffffffffffffffffffffffffffff1673ffffffffffffffffffffffffffffffffffffffff16815260200191505060405180910390f35b3480156101bb57600080fd5b506101c46109a4565b6040518080602001828103825283818151815260200191508051906020019080838360005b838110156102045780820151818401526020810190506101e9565b50505050905090810190601f1680156102315780820380516001836020036101000a031916815260200191505b509250505060405180910390f35b34801561024b57600080fd5b50610254610a42565b6040518082815260200191505060405180910390f35b34801561027657600080fd5b5061027f610b0a565b6040518082815260200191505060405180910390f35b3480156102a157600080fd5b506102aa610b10565b604051808273ffffffffffffffffffffffffffffffffffffffff1673ffffffffffffffffffffffffffffffffffffffff16815260200191505060405180910390f35b3480156102f857600080fd5b50610301610b3a565b005b34801561030f57600080fd5b50610318610bf8565b005b34801561032657600080fd5b5061032f610d97565b604051808215151515815260200191505060405180910390f35b34801561035557600080fd5b5061038a600480360381019080803573ffffffffffffffffffffffffffffffffffffffff169060200190929190505050610daa565b005b34801561039857600080fd5b506103cd600480360381019080803573ffffffffffffffffffffffffffffffffffffffff169060200190929190505050610ec5565b6040518082815260200191505060405180910390f35b3480156103ef57600080fd5b506103f8610fc6565b005b34801561040657600080fd5b50610465600480360381019080803573ffffffffffffffffffffffffffffffffffffffff169060200190929190803573ffffffffffffffffffffffffffffffffffffffff169060200190929190803590602001909291905050506110c8565b604051808215151515815260200191505060405180910390f35b34801561048b57600080fd5b5061049461138e565b005b3480156104a257600080fd5b506104ab611423565b005b3480156104b957600080fd5b506104c26114e3565b604051808273ffffffffffffffffffffffffffffffffffffffff1673ffffffffffffffffffffffffffffffffffffffff16815260200191505060405180910390f35b34801561051057600080fd5b50610545600480360381019080803573ffffffffffffffffffffffffffffffffffffffff169060200190929190505050611508565b005b34801561055357600080fd5b5061055c611623565b6040518080602001828103825283818151815260200191508051906020019080838360005b8381101561059c578082015181840152602081019050610581565b50505050905090810190601f1680156105c95780820380516001836020036101000a031916815260200191505b509250505060405180910390f35b3480156105e357600080fd5b50610688600480360381019080803573ffffffffffffffffffffffffffffffffffffffff169060200190929190803573ffffffffffffffffffffffffffffffffffffffff16906020019092919080359060200190929190803590602001908201803590602001908080601f01602080910402602001604051908101604052809392919081815260200183838082843782019150505050505091929192905050506116c1565b604051808215151515815260200191505060405180910390f35b3480156106ae57600080fd5b506106b76119fe565b005b3480156106c557600080fd5b5061071a600480360381019080803573ffffffffffffffffffffffffffffffffffffffff169060200190929190803573ffffffffffffffffffffffffffffffffffffffff169060200190929190505050611af9565b6040518082815260200191505060405180910390f35b34801561073c57600080fd5b5061079b600480360381019080803573ffffffffffffffffffffffffffffffffffffffff169060200190929190803573ffffffffffffffffffffffffffffffffffffffff16906020019092919080359060200190929190505050611c77565b604051808215151515815260200191505060405180910390f35b3480156107c157600080fd5b506107ca611f46565b604051808273ffffffffffffffffffffffffffffffffffffffff1673ffffffffffffffffffffffffffffffffffffffff16815260200191505060405180910390f35b34801561081857600080fd5b50610897600480360381019080803573ffffffffffffffffffffffffffffffffffffffff169060200190929190803573ffffffffffffffffffffffffffffffffffffffff169060200190929190803573ffffffffffffffffffffffffffffffffffffffff16906020019092919080359060200190929190505050611f6c565b604051808215151515815260200191505060405180910390f35b3480156108bd57600080fd5b506108f2600480360381019080803573ffffffffffffffffffffffffffffffffffffffff169060200190929190505050612270565b005b34801561090057600080fd5b50610935600480360381019080803573ffffffffffffffffffffffffffffffffffffffff1690602001909291905050506123a3565b005b34801561094357600080fd5b50610978600480360381019080803573ffffffffffffffffffffffffffffffffffffffff169060200190929190505050612442565b005b6000600360009054906101000a900473ffffffffffffffffffffffffffffffffffffffff16905090565b60048054600181600116156101000203166002900480601f016020809104026020016040519081016040528092919081815260200182805460018160011615610100020316600290048015610a3a5780601f10610a0f57610100808354040283529160200191610a3a565b820191906000526020600020905b815481529060010190602001808311610a1d57829003601f168201915b505050505081565b6000600260009054906101000a900473ffffffffffffffffffffffffffffffffffffffff1673ffffffffffffffffffffffffffffffffffffffff16636c9c2faf6040518163ffffffff167c0100000000000000000000000000000000000000000000000000000000028152600401602060405180830381600087803b158015610aca57600080fd5b505af1158015610ade573d6000803e3d6000fd5b505050506040513d6020811015610af457600080fd5b8101908080519060200190929190505050905090565b60065481565b6000600260009054906101000a900473ffffffffffffffffffffffffffffffffffffffff16905090565b6000809054906101000a900473ffffffffffffffffffffffffffffffffffffffff1673ffffffffffffffffffffffffffffffffffffffff163373ffffffffffffffffffffffffffffffffffffffff16141515610b9557600080fd5b600060149054906101000a900460ff161515610bb057600080fd5b60008060146101000a81548160ff0219169083151502179055507f7805862f689e2f13df9f062ff482ad3ad112aca9e0847911ed832e158c525b3360405160405180910390a1565b600160009054906101000a900473ffffffffffffffffffffffffffffffffffffffff1673ffffffffffffffffffffffffffffffffffffffff163373ffffffffffffffffffffffffffffffffffffffff16141515610c5457600080fd5b600160009054906101000a900473ffffffffffffffffffffffffffffffffffffffff1673ffffffffffffffffffffffffffffffffffffffff166000809054906101000a900473ffffffffffffffffffffffffffffffffffffffff1673ffffffffffffffffffffffffffffffffffffffff167f8be0079c531659141344cd1fd0a4f28419497f9722a3daafe3b4186f6b6457e060405160405180910390a3600160009054906101000a900473ffffffffffffffffffffffffffffffffffffffff166000806101000a81548173ffffffffffffffffffffffffffffffffffffffff021916908373ffffffffffffffffffffffffffffffffffffffff1602179055506000600160006101000a81548173ffffffffffffffffffffffffffffffffffffffff021916908373ffffffffffffffffffffffffffffffffffffffff160217905550565b600060149054906101000a900460ff1681565b6000809054906101000a900473ffffffffffffffffffffffffffffffffffffffff1673ffffffffffffffffffffffffffffffffffffffff163373ffffffffffffffffffffffffffffffffffffffff16141515610e0557600080fd5b8073ffffffffffffffffffffffffffffffffffffffff16600360009054906101000a900473ffffffffffffffffffffffffffffffffffffffff1673ffffffffffffffffffffffffffffffffffffffff167fcb01f884fc4203d4c1643cb0e126faeb397682c122ca8c0433776d42cdc0060a60405160405180910390a380600360006101000a81548173ffffffffffffffffffffffffffffffffffffffff021916908373ffffffffffffffffffffffffffffffffffffffff16021790555050565b6000600260009054906101000a900473ffffffffffffffffffffffffffffffffffffffff1673ffffffffffffffffffffffffffffffffffffffff1663f8b2cb4f836040518263ffffffff167c0100000000000000000000000000000000000000000000000000000000028152600401808273ffffffffffffffffffffffffffffffffffffffff1673ffffffffffffffffffffffffffffffffffffffff168152602001915050602060405180830381600087803b158015610f8457600080fd5b505af1158015610f98573d6000803e3d6000fd5b505050506040513d6020811015610fae57600080fd5b81019080805190602001909291905050509050919050565b6000809054906101000a900473ffffffffffffffffffffffffffffffffffffffff1673ffffffffffffffffffffffffffffffffffffffff163373ffffffffffffffffffffffffffffffffffffffff1614151561102157600080fd5b6000809054906101000a900473ffffffffffffffffffffffffffffffffffffffff1673ffffffffffffffffffffffffffffffffffffffff167ff8df31144d9c2f0f6b59d69b8b98abd5459d07f2742c4df920b25aae33c6482060405160405180910390a260008060006101000a81548173ffffffffffffffffffffffffffffffffffffffff021916908373ffffffffffffffffffffffffffffffffffffffff160217905550565b6000838073ffffffffffffffffffffffffffffffffffffffff163373ffffffffffffffffffffffffffffffffffffffff1614806111525750600360009054906101000a900473ffffffffffffffffffffffffffffffffffffffff1673ffffffffffffffffffffffffffffffffffffffff163373ffffffffffffffffffffffffffffffffffffffff16145b15156111ec576040517f08c379a00000000000000000000000000000000000000000000000000000000081526004018080602001828103825260348152602001807f6569746865722063616c6c6572206d7573742062652073656e646572206f722081526020017f63616c6c696e67207669612066726f6e74656e6400000000000000000000000081525060400191505060405180910390fd5b600060149054906101000a900460ff1615151561120857600080fd5b600260009054906101000a900473ffffffffffffffffffffffffffffffffffffffff1673ffffffffffffffffffffffffffffffffffffffff1673__ERC20Lib______________________________63365feff190918787876040518563ffffffff167c0100000000000000000000000000000000000000000000000000000000028152600401808573ffffffffffffffffffffffffffffffffffffffff1673ffffffffffffffffffffffffffffffffffffffff1681526020018473ffffffffffffffffffffffffffffffffffffffff1673ffffffffffffffffffffffffffffffffffffffff1681526020018373ffffffffffffffffffffffffffffffffffffffff1673ffffffffffffffffffffffffffffffffffffffff16815260200182815260200194505050505060206040518083038186803b15801561134957600080fd5b505af415801561135d573d6000803e3d6000fd5b505050506040513d602081101561137357600080fd5b81019080805190602001909291905050509150509392505050565b6000809054906101000a900473ffffffffffffffffffffffffffffffffffffffff1673ffffffffffffffffffffffffffffffffffffffff163373ffffffffffffffffffffffffffffffffffffffff161415156113e957600080fd5b6000809054906101000a900473ffffffffffffffffffffffffffffffffffffffff1673ffffffffffffffffffffffffffffffffffffffff16ff5b6000809054906101000a900473ffffffffffffffffffffffffffffffffffffffff1673ffffffffffffffffffffffffffffffffffffffff163373ffffffffffffffffffffffffffffffffffffffff1614151561147e57600080fd5b600060149054906101000a900460ff1615151561149a57600080fd5b6001600060146101000a81548160ff0219169083151502179055507f6985a02210a168e66602d3235cb6db0e70f92b3ba4d376a33c0f3d9434bff62560405160405180910390a1565b6000809054906101000a900473ffffffffffffffffffffffffffffffffffffffff1681565b6000809054906101000a900473ffffffffffffffffffffffffffffffffffffffff1673ffffffffffffffffffffffffffffffffffffffff163373ffffffffffffffffffffffffffffffffffffffff1614151561156357600080fd5b8073ffffffffffffffffffffffffffffffffffffffff16600260009054906101000a900473ffffffffffffffffffffffffffffffffffffffff1673ffffffffffffffffffffffffffffffffffffffff167fdaaa9d417a3107fd3d9db02eba3eeafbae2b8af16ee08c534f5bc449054c1c4c60405160405180910390a380600260006101000a81548173ffffffffffffffffffffffffffffffffffffffff021916908373ffffffffffffffffffffffffffffffffffffffff16021790555050565b60058054600181600116156101000203166002900480601f0160208091040260200160405190810160405280929190818152602001828054600181600116156101000203166002900480156116b95780601f1061168e576101008083540402835291602001916116b9565b820191906000526020600020905b81548152906001019060200180831161169c57829003601f168201915b505050505081565b6000848073ffffffffffffffffffffffffffffffffffffffff163373ffffffffffffffffffffffffffffffffffffffff16148061174b5750600360009054906101000a900473ffffffffffffffffffffffffffffffffffffffff1673ffffffffffffffffffffffffffffffffffffffff163373ffffffffffffffffffffffffffffffffffffffff16145b15156117e5576040517f08c379a00000000000000000000000000000000000000000000000000000000081526004018080602001828103825260348152602001807f6569746865722063616c6c6572206d7573742062652073656e646572206f722081526020017f63616c6c696e67207669612066726f6e74656e6400000000000000000000000081525060400191505060405180910390fd5b600060149054906101000a900460ff1615151561180157600080fd5b61180a856124b6565b600260009054906101000a900473ffffffffffffffffffffffffffffffffffffffff1673ffffffffffffffffffffffffffffffffffffffff1673__ERC677Lib_____________________________631eb8bccb9091888888886040518663ffffffff167c0100000000000000000000000000000000000000000000000000000000028152600401808673ffffffffffffffffffffffffffffffffffffffff1673ffffffffffffffffffffffffffffffffffffffff1681526020018573ffffffffffffffffffffffffffffffffffffffff1673ffffffffffffffffffffffffffffffffffffffff1681526020018473ffffffffffffffffffffffffffffffffffffffff1673ffffffffffffffffffffffffffffffffffffffff16815260200183815260200180602001828103825283818151815260200191508051906020019080838360005b8381101561196a57808201518184015260208101905061194f565b50505050905090810190601f1680156119975780820380516001836020036101000a031916815260200191505b50965050505050505060206040518083038186803b1580156119b857600080fd5b505af41580156119cc573d6000803e3d6000fd5b505050506040513d60208110156119e257600080fd5b8101908080519060200190929190505050915050949350505050565b6000809054906101000a900473ffffffffffffffffffffffffffffffffffffffff1673ffffffffffffffffffffffffffffffffffffffff163373ffffffffffffffffffffffffffffffffffffffff16141515611a5957600080fd5b600260009054906101000a900473ffffffffffffffffffffffffffffffffffffffff1673ffffffffffffffffffffffffffffffffffffffff16634e71e0c86040518163ffffffff167c0100000000000000000000000000000000000000000000000000000000028152600401600060405180830381600087803b158015611adf57600080fd5b505af1158015611af3573d6000803e3d6000fd5b50505050565b6000600260009054906101000a900473ffffffffffffffffffffffffffffffffffffffff1673ffffffffffffffffffffffffffffffffffffffff1673__ERC20Lib______________________________631045d7ce909185856040518463ffffffff167c0100000000000000000000000000000000000000000000000000000000028152600401808473ffffffffffffffffffffffffffffffffffffffff1673ffffffffffffffffffffffffffffffffffffffff1681526020018373ffffffffffffffffffffffffffffffffffffffff1673ffffffffffffffffffffffffffffffffffffffff1681526020018273ffffffffffffffffffffffffffffffffffffffff1673ffffffffffffffffffffffffffffffffffffffff168152602001935050505060206040518083038186803b158015611c3457600080fd5b505af4158015611c48573d6000803e3d6000fd5b505050506040513d6020811015611c5e57600080fd5b8101908080519060200190929190505050905092915050565b6000838073ffffffffffffffffffffffffffffffffffffffff163373ffffffffffffffffffffffffffffffffffffffff161480611d015750600360009054906101000a900473ffffffffffffffffffffffffffffffffffffffff1673ffffffffffffffffffffffffffffffffffffffff163373ffffffffffffffffffffffffffffffffffffffff16145b1515611d9b576040517f08c379a00000000000000000000000000000000000000000000000000000000081526004018080602001828103825260348152602001807f6569746865722063616c6c6572206d7573742062652073656e646572206f722081526020017f63616c6c696e67207669612066726f6e74656e6400000000000000000000000081525060400191505060405180910390fd5b600060149054906101000a900460ff16151515611db757600080fd5b611dc0846124b6565b600260009054906101000a900473ffffffffffffffffffffffffffffffffffffffff1673ffffffffffffffffffffffffffffffffffffffff1673__ERC20Lib______________________________6344ded8ba90918787876040518563ffffffff167c0100000000000000000000000000000000000000000000000000000000028152600401808573ffffffffffffffffffffffffffffffffffffffff1673ffffffffffffffffffffffffffffffffffffffff1681526020018473ffffffffffffffffffffffffffffffffffffffff1673ffffffffffffffffffffffffffffffffffffffff1681526020018373ffffffffffffffffffffffffffffffffffffffff1673ffffffffffffffffffffffffffffffffffffffff16815260200182815260200194505050505060206040518083038186803b158015611f0157600080fd5b505af4158015611f15573d6000803e3d6000fd5b505050506040513d6020811015611f2b57600080fd5b81019080805190602001909291905050509150509392505050565b600160009054906101000a900473ffffffffffffffffffffffffffffffffffffffff1681565b6000848073ffffffffffffffffffffffffffffffffffffffff163373ffffffffffffffffffffffffffffffffffffffff161480611ff65750600360009054906101000a900473ffffffffffffffffffffffffffffffffffffffff1673ffffffffffffffffffffffffffffffffffffffff163373ffffffffffffffffffffffffffffffffffffffff16145b1515612090576040517f08c379a00000000000000000000000000000000000000000000000000000000081526004018080602001828103825260348152602001807f6569746865722063616c6c6572206d7573742062652073656e646572206f722081526020017f63616c6c696e67207669612066726f6e74656e6400000000000000000000000081525060400191505060405180910390fd5b600060149054906101000a900460ff161515156120ac57600080fd5b6120b5846124b6565b600260009054906101000a900473ffffffffffffffffffffffffffffffffffffffff1673ffffffffffffffffffffffffffffffffffffffff1673__ERC20Lib______________________________63f3a0ddf99091888888886040518663ffffffff167c0100000000000000000000000000000000000000000000000000000000028152600401808673ffffffffffffffffffffffffffffffffffffffff1673ffffffffffffffffffffffffffffffffffffffff1681526020018573ffffffffffffffffffffffffffffffffffffffff1673ffffffffffffffffffffffffffffffffffffffff1681526020018473ffffffffffffffffffffffffffffffffffffffff1673ffffffffffffffffffffffffffffffffffffffff1681526020018373ffffffffffffffffffffffffffffffffffffffff1673ffffffffffffffffffffffffffffffffffffffff1681526020018281526020019550505050505060206040518083038186803b15801561222a57600080fd5b505af415801561223e573d6000803e3d6000fd5b505050506040513d602081101561225457600080fd5b8101908080519060200190929190505050915050949350505050565b6000809054906101000a900473ffffffffffffffffffffffffffffffffffffffff1673ffffffffffffffffffffffffffffffffffffffff163373ffffffffffffffffffffffffffffffffffffffff161415156122cb57600080fd5b600260009054906101000a900473ffffffffffffffffffffffffffffffffffffffff1673ffffffffffffffffffffffffffffffffffffffff1663f2fde38b826040518263ffffffff167c0100000000000000000000000000000000000000000000000000000000028152600401808273ffffffffffffffffffffffffffffffffffffffff1673ffffffffffffffffffffffffffffffffffffffff168152602001915050600060405180830381600087803b15801561238857600080fd5b505af115801561239c573d6000803e3d6000fd5b5050505050565b6000809054906101000a900473ffffffffffffffffffffffffffffffffffffffff1673ffffffffffffffffffffffffffffffffffffffff163373ffffffffffffffffffffffffffffffffffffffff161415156123fe57600080fd5b80600160006101000a81548173ffffffffffffffffffffffffffffffffffffffff021916908373ffffffffffffffffffffffffffffffffffffffff16021790555050565b6000809054906101000a900473ffffffffffffffffffffffffffffffffffffffff1673ffffffffffffffffffffffffffffffffffffffff163373ffffffffffffffffffffffffffffffffffffffff1614151561249d57600080fd5b8073ffffffffffffffffffffffffffffffffffffffff16ff5b60008173ffffffffffffffffffffffffffffffffffffffff1614151515612545576040517f08c379a00000000000000000000000000000000000000000000000000000000081526004018080602001828103825260148152602001807f6d757374206e6f742073656e6420746f2030783000000000000000000000000081525060200191505060405180910390fd5b3073ffffffffffffffffffffffffffffffffffffffff168173ffffffffffffffffffffffffffffffffffffffff16141515156125e9576040517f08c379a000000000000000000000000000000000000000000000000000000000815260040180806020018281038252601b8152602001807f6d757374206e6f742073656e6420746f20636f6e74726f6c6c6572000000000081525060200191505060405180910390fd5b600260009054906101000a900473ffffffffffffffffffffffffffffffffffffffff1673ffffffffffffffffffffffffffffffffffffffff168173ffffffffffffffffffffffffffffffffffffffff16141515156126af576040517f08c379a000000000000000000000000000000000000000000000000000000000815260040180806020018281038252601e8152602001807f6d757374206e6f742073656e6420746f20746f6b656e2073746f72616765000081525060200191505060405180910390fd5b600360009054906101000a900473ffffffffffffffffffffffffffffffffffffffff1673ffffffffffffffffffffffffffffffffffffffff168173ffffffffffffffffffffffffffffffffffffffff1614151515612775576040517f08c379a00000000000000000000000000000000000000000000000000000000081526004018080602001828103825260198152602001807f6d757374206e6f742073656e6420746f2066726f6e74656e640000000000000081525060200191505060405180910390fd5b505600a165627a7a7230582084f88836e622e13631c03b2d661bb54afd110f27b4fdc4bfc1eb5b9650d6462600296080604052336000806101000a81548173ffffffffffffffffffffffffffffffffffffffff021916908373ffffffffffffffffffffffffffffffffffffffff16021790555060003414151561005357600080fd5b611397806100626000396000f3006080604052600436106100db576000357c0100000000000000000000000000000000000000000000000000000000900463ffffffff16806317ffc320146100ea57806321e5383a1461012d5780632aed7f3f1461017a57806333dd1b8a146101bd5780634e71e0c81461022a5780636c9c2faf14610241578063715018a61461026c5780638da5cb5b146102835780639f727c27146102da578063c0ee0b8a146102f1578063c7c7e9ea14610356578063cf8eeb7e146103cd578063e30c39781461041a578063f2fde38b14610471578063f8b2cb4f146104b4575b3480156100e757600080fd5b50005b3480156100f657600080fd5b5061012b600480360381019080803573ffffffffffffffffffffffffffffffffffffffff16906020019092919050505061050b565b005b34801561013957600080fd5b50610178600480360381019080803573ffffffffffffffffffffffffffffffffffffffff16906020019092919080359060200190929190505050610690565b005b34801561018657600080fd5b506101bb600480360381019080803573ffffffffffffffffffffffffffffffffffffffff1690602001909291905050506107b1565b005b3480156101c957600080fd5b50610228600480360381019080803573ffffffffffffffffffffffffffffffffffffffff169060200190929190803573ffffffffffffffffffffffffffffffffffffffff169060200190929190803590602001909291905050506108e9565b005b34801561023657600080fd5b5061023f610a3f565b005b34801561024d57600080fd5b50610256610bde565b6040518082815260200191505060405180910390f35b34801561027857600080fd5b50610281610c8e565b005b34801561028f57600080fd5b50610298610d90565b604051808273ffffffffffffffffffffffffffffffffffffffff1673ffffffffffffffffffffffffffffffffffffffff16815260200191505060405180910390f35b3480156102e657600080fd5b506102ef610db5565b005b3480156102fd57600080fd5b50610354600480360381019080803573ffffffffffffffffffffffffffffffffffffffff16906020019092919080359060200190929190803590602001908201803590602001919091929391929390505050610e91565b005b34801561036257600080fd5b506103b7600480360381019080803573ffffffffffffffffffffffffffffffffffffffff169060200190929190803573ffffffffffffffffffffffffffffffffffffffff169060200190929190505050610e96565b6040518082815260200191505060405180910390f35b3480156103d957600080fd5b50610418600480360381019080803573ffffffffffffffffffffffffffffffffffffffff16906020019092919080359060200190929190505050610fb1565b005b34801561042657600080fd5b5061042f6110d2565b604051808273ffffffffffffffffffffffffffffffffffffffff1673ffffffffffffffffffffffffffffffffffffffff16815260200191505060405180910390f35b34801561047d57600080fd5b506104b2600480360381019080803573ffffffffffffffffffffffffffffffffffffffff1690602001909291905050506110f8565b005b3480156104c057600080fd5b506104f5600480360381019080803573ffffffffffffffffffffffffffffffffffffffff169060200190929190505050611197565b6040518082815260200191505060405180910390f35b60008060009054906101000a900473ffffffffffffffffffffffffffffffffffffffff1673ffffffffffffffffffffffffffffffffffffffff163373ffffffffffffffffffffffffffffffffffffffff1614151561056857600080fd5b8173ffffffffffffffffffffffffffffffffffffffff166370a08231306040518263ffffffff167c0100000000000000000000000000000000000000000000000000000000028152600401808273ffffffffffffffffffffffffffffffffffffffff1673ffffffffffffffffffffffffffffffffffffffff168152602001915050602060405180830381600087803b15801561060357600080fd5b505af1158015610617573d6000803e3d6000fd5b505050506040513d602081101561062d57600080fd5b8101908080519060200190929190505050905061068c6000809054906101000a900473ffffffffffffffffffffffffffffffffffffffff16828473ffffffffffffffffffffffffffffffffffffffff1661127d9092919063ffffffff16565b5050565b6000809054906101000a900473ffffffffffffffffffffffffffffffffffffffff1673ffffffffffffffffffffffffffffffffffffffff163373ffffffffffffffffffffffffffffffffffffffff161415156106eb57600080fd5b600273__TokenStorageLib_______________________637aeb0ed5909184846040518463ffffffff167c0100000000000000000000000000000000000000000000000000000000028152600401808481526020018373ffffffffffffffffffffffffffffffffffffffff1673ffffffffffffffffffffffffffffffffffffffff168152602001828152602001935050505060006040518083038186803b15801561079557600080fd5b505af41580156107a9573d6000803e3d6000fd5b505050505050565b60008060009054906101000a900473ffffffffffffffffffffffffffffffffffffffff1673ffffffffffffffffffffffffffffffffffffffff163373ffffffffffffffffffffffffffffffffffffffff1614151561080e57600080fd5b8190508073ffffffffffffffffffffffffffffffffffffffff1663f2fde38b6000809054906101000a900473ffffffffffffffffffffffffffffffffffffffff166040518263ffffffff167c0100000000000000000000000000000000000000000000000000000000028152600401808273ffffffffffffffffffffffffffffffffffffffff1673ffffffffffffffffffffffffffffffffffffffff168152602001915050600060405180830381600087803b1580156108cd57600080fd5b505af11580156108e1573d6000803e3d6000fd5b505050505050565b6000809054906101000a900473ffffffffffffffffffffffffffffffffffffffff1673ffffffffffffffffffffffffffffffffffffffff163373ffffffffffffffffffffffffffffffffffffffff1614151561094457600080fd5b600273__TokenStorageLib_______________________635599b4b790918585856040518563ffffffff167c0100000000000000000000000000000000000000000000000000000000028152600401808581526020018473ffffffffffffffffffffffffffffffffffffffff1673ffffffffffffffffffffffffffffffffffffffff1681526020018373ffffffffffffffffffffffffffffffffffffffff1673ffffffffffffffffffffffffffffffffffffffff16815260200182815260200194505050505060006040518083038186803b158015610a2257600080fd5b505af4158015610a36573d6000803e3d6000fd5b50505050505050565b600160009054906101000a900473ffffffffffffffffffffffffffffffffffffffff1673ffffffffffffffffffffffffffffffffffffffff163373ffffffffffffffffffffffffffffffffffffffff16141515610a9b57600080fd5b600160009054906101000a900473ffffffffffffffffffffffffffffffffffffffff1673ffffffffffffffffffffffffffffffffffffffff166000809054906101000a900473ffffffffffffffffffffffffffffffffffffffff1673ffffffffffffffffffffffffffffffffffffffff167f8be0079c531659141344cd1fd0a4f28419497f9722a3daafe3b4186f6b6457e060405160405180910390a3600160009054906101000a900473ffffffffffffffffffffffffffffffffffffffff166000806101000a81548173ffffffffffffffffffffffffffffffffffffffff021916908373ffffffffffffffffffffffffffffffffffffffff1602179055506000600160006101000a81548173ffffffffffffffffffffffffffffffffffffffff021916908373ffffffffffffffffffffffffffffffffffffffff160217905550565b6000600273__TokenStorageLib_______________________63072f9a5090916040518263ffffffff167c01000000000000000000000000000000000000000000000000000000000281526004018082815260200191505060206040518083038186803b158015610c4e57600080fd5b505af4158015610c62573d6000803e3d6000fd5b505050506040513d6020811015610c7857600080fd5b8101908080519060200190929190505050905090565b6000809054906101000a900473ffffffffffffffffffffffffffffffffffffffff1673ffffffffffffffffffffffffffffffffffffffff163373ffffffffffffffffffffffffffffffffffffffff16141515610ce957600080fd5b6000809054906101000a900473ffffffffffffffffffffffffffffffffffffffff1673ffffffffffffffffffffffffffffffffffffffff167ff8df31144d9c2f0f6b59d69b8b98abd5459d07f2742c4df920b25aae33c6482060405160405180910390a260008060006101000a81548173ffffffffffffffffffffffffffffffffffffffff021916908373ffffffffffffffffffffffffffffffffffffffff160217905550565b6000809054906101000a900473ffffffffffffffffffffffffffffffffffffffff1681565b6000809054906101000a900473ffffffffffffffffffffffffffffffffffffffff1673ffffffffffffffffffffffffffffffffffffffff163373ffffffffffffffffffffffffffffffffffffffff16141515610e1057600080fd5b6000809054906101000a900473ffffffffffffffffffffffffffffffffffffffff1673ffffffffffffffffffffffffffffffffffffffff166108fc3073ffffffffffffffffffffffffffffffffffffffff16319081150290604051600060405180830381858888f19350505050158015610e8e573d6000803e3d6000fd5b50565b600080fd5b6000600273__TokenStorageLib_______________________639daeae1e909185856040518463ffffffff167c0100000000000000000000000000000000000000000000000000000000028152600401808481526020018373ffffffffffffffffffffffffffffffffffffffff1673ffffffffffffffffffffffffffffffffffffffff1681526020018273ffffffffffffffffffffffffffffffffffffffff1673ffffffffffffffffffffffffffffffffffffffff168152602001935050505060206040518083038186803b158015610f6e57600080fd5b505af4158015610f82573d6000803e3d6000fd5b505050506040513d6020811015610f9857600080fd5b8101908080519060200190929190505050905092915050565b6000809054906101000a900473ffffffffffffffffffffffffffffffffffffffff1673ffffffffffffffffffffffffffffffffffffffff163373ffffffffffffffffffffffffffffffffffffffff1614151561100c57600080fd5b600273__TokenStorageLib_______________________63d9c7339e909184846040518463ffffffff167c0100000000000000000000000000000000000000000000000000000000028152600401808481526020018373ffffffffffffffffffffffffffffffffffffffff1673ffffffffffffffffffffffffffffffffffffffff168152602001828152602001935050505060006040518083038186803b1580156110b657600080fd5b505af41580156110ca573d6000803e3d6000fd5b505050505050565b600160009054906101000a900473ffffffffffffffffffffffffffffffffffffffff1681565b6000809054906101000a900473ffffffffffffffffffffffffffffffffffffffff1673ffffffffffffffffffffffffffffffffffffffff163373ffffffffffffffffffffffffffffffffffffffff1614151561115357600080fd5b80600160006101000a81548173ffffffffffffffffffffffffffffffffffffffff021916908373ffffffffffffffffffffffffffffffffffffffff16021790555050565b6000600273__TokenStorageLib_______________________63b0aacf249091846040518363ffffffff167c0100000000000000000000000000000000000000000000000000000000028152600401808381526020018273ffffffffffffffffffffffffffffffffffffffff1673ffffffffffffffffffffffffffffffffffffffff1681526020019250505060206040518083038186803b15801561123b57600080fd5b505af415801561124f573d6000803e3d6000fd5b505050506040513d602081101561126557600080fd5b81019080805190602001909291905050509050919050565b8273ffffffffffffffffffffffffffffffffffffffff1663a9059cbb83836040518363ffffffff167c0100000000000000000000000000000000000000000000000000000000028152600401808373ffffffffffffffffffffffffffffffffffffffff1673ffffffffffffffffffffffffffffffffffffffff16815260200182815260200192505050602060405180830381600087803b15801561132057600080fd5b505af1158015611334573d6000803e3d6000fd5b505050506040513d602081101561134a57600080fd5b8101908080519060200190929190505050151561136657600080fd5b5050505600a165627a7a72305820cc580d29079c014e289b61fa086bccbdf84eada0e400b4d9c2a185eb1a89db7b0029",
  "source": "/**\n * Copyright 2019 Monerium ehf.\n *\n * Licensed under the Apache License, Version 2.0 (the \"License\");\n * you may not use this file except in compliance with the License.\n * You may obtain a copy of the License at\n *\n *     http://www.apache.org/licenses/LICENSE-2.0\n *\n * Unless required by applicable law or agreed to in writing, software\n * distributed under the License is distributed on an \"AS IS\" BASIS,\n * WITHOUT WARRANTIES OR CONDITIONS OF ANY KIND, either express or implied.\n * See the License for the specific language governing permissions and\n * limitations under the License.\n */\n\npragma solidity 0.4.24;\n\nimport \"openzeppelin-solidity/contracts/ownership/Claimable.sol\";\nimport \"openzeppelin-solidity/contracts/lifecycle/Destructible.sol\";\nimport \"openzeppelin-solidity/contracts/lifecycle/Pausable.sol\";\nimport \"./TokenStorage.sol\";\nimport \"./IERC20.sol\";\nimport \"./ERC20Lib.sol\";\nimport \"./ERC677Lib.sol\";\n\n/**\n * @title StandardController\n * @dev This is the base contract which delegates token methods [ERC20 and ERC677]\n * to their respective library implementations.\n * The controller is primarily intended to be interacted with via a token frontend.\n */\ncontract StandardController is Pausable, Destructible, Claimable {\n\n    using ERC20Lib for TokenStorage;\n    using ERC677Lib for TokenStorage;\n\n    TokenStorage internal token;\n    address internal frontend;\n\n    string public name;\n    string public symbol;\n    uint public decimals = 18;\n\n    /**\n     * @dev Emitted when updating the frontend.\n     * @param old Address of the old frontend.\n     * @param current Address of the new frontend.\n     */\n    event Frontend(address indexed old, address indexed current);\n\n    /**\n     * @dev Emitted when updating the storage.\n     * @param old Address of the old storage.\n     * @param current Address of the new storage.\n     */\n    event Storage(address indexed old, address indexed current);\n\n    /**\n     * @dev Modifier which prevents the function from being called by unauthorized parties.\n     * The caller must either be the sender or the function must be\n     * called via the frontend, otherwise the call is reverted.\n     * @param caller The address of the passed-in caller. Used to preserve the original caller.\n     */\n    modifier guarded(address caller) {\n        require(\n            msg.sender == caller || msg.sender == frontend,\n            \"either caller must be sender or calling via frontend\"\n        );\n        _;\n    }\n\n    /**\n     * @dev Contract constructor.\n     * @param storage_ Address of the token storage for the controller.\n     * @param initialSupply The amount of tokens to mint upon creation.\n     * @param frontend_ Address of the authorized frontend.\n     */\n    constructor(address storage_, uint initialSupply, address frontend_) public {\n        require(\n            storage_ == 0x0 || initialSupply == 0,\n            \"either a token storage must be initialized or no initial supply\"\n        );\n        if (storage_ == 0x0) {\n            token = new TokenStorage();\n            token.addBalance(msg.sender, initialSupply);\n        } else {\n            token = TokenStorage(storage_);\n        }\n        frontend = frontend_;\n    }\n\n    /**\n     * @dev Prevents tokens to be sent to well known blackholes by throwing on known blackholes.\n     * @param to The address of the intended recipient.\n     */\n    function avoidBlackholes(address to) internal view {\n        require(to != 0x0, \"must not send to 0x0\");\n        require(to != address(this), \"must not send to controller\");\n        require(to != address(token), \"must not send to token storage\");\n        require(to != frontend, \"must not send to frontend\");\n    }\n\n    /**\n     * @dev Returns the current frontend.\n     * @return Address of the frontend.\n     */\n    function getFrontend() external view returns (address) {\n        return frontend;\n    }\n\n    /**\n     * @dev Returns the current storage.\n     * @return Address of the storage.\n     */\n    function getStorage() external view returns (address) {\n        return address(token);\n    }\n\n    /**\n     * @dev Sets a new frontend.\n     * @param frontend_ Address of the new frontend.\n     */\n    function setFrontend(address frontend_) public onlyOwner {\n        emit Frontend(frontend, frontend_);\n        frontend = frontend_;\n    }\n\n    /**\n     * @dev Sets a new storage.\n     * @param storage_ Address of the new storage.\n     */\n    function setStorage(address storage_) external onlyOwner {\n        emit Storage(address(token), storage_);\n        token = TokenStorage(storage_);\n    }\n\n    /**\n     * @dev Transfers the ownership of the storage.\n     * @param newOwner Address of the new storage owner.\n     */\n    function transferStorageOwnership(address newOwner) public onlyOwner {\n        token.transferOwnership(newOwner);\n    }\n\n    /**\n     * @dev Claims the ownership of the storage.\n     */\n    function claimStorageOwnership() public onlyOwner {\n        token.claimOwnership();\n    }\n\n    /**\n     * @dev Transfers tokens [ERC20].\n     * @param caller Address of the caller passed through the frontend.\n     * @param to Recipient address.\n     * @param amount Number of tokens to transfer.\n     */\n    function transfer_withCaller(address caller, address to, uint amount)\n        public\n        guarded(caller)\n        whenNotPaused\n        returns (bool ok)\n    {\n        avoidBlackholes(to);\n        return token.transfer(caller, to, amount);\n    }\n\n    /**\n     * @dev Transfers tokens from a specific address [ERC20].\n     * The address owner has to approve the spender beforehand.\n     * @param caller Address of the caller passed through the frontend.\n     * @param from Address to debet the tokens from.\n     * @param to Recipient address.\n     * @param amount Number of tokens to transfer.\n     */\n    function transferFrom_withCaller(address caller, address from, address to, uint amount)\n        public\n        guarded(caller)\n        whenNotPaused\n        returns (bool ok)\n    {\n        avoidBlackholes(to);\n        return token.transferFrom(caller, from, to, amount);\n    }\n\n    /**\n     * @dev Approves a spender [ERC20].\n     * Note that using the approve/transferFrom presents a possible\n     * security vulnerability described in:\n     * https://docs.google.com/document/d/1YLPtQxZu1UAvO9cZ1O2RPXBbT0mooh4DYKjA_jp-RLM/edit#heading=h.quou09mcbpzw\n     * Use transferAndCall to mitigate.\n     * @param caller Address of the caller passed through the frontend.\n     * @param spender The address of the future spender.\n     * @param amount The allowance of the spender.\n     */\n    function approve_withCaller(address caller, address spender, uint amount)\n        public\n        guarded(caller)\n        whenNotPaused\n        returns (bool ok)\n    {\n        return token.approve(caller, spender, amount);\n    }\n\n    /**\n     * @dev Transfers tokens and subsequently calls a method on the recipient [ERC677].\n     * If the recipient is a non-contract address this method behaves just like transfer.\n     * @param caller Address of the caller passed through the frontend.\n     * @param to Recipient address.\n     * @param amount Number of tokens to transfer.\n     * @param data Additional data passed to the recipient's tokenFallback method.\n     */\n    function transferAndCall_withCaller(\n        address caller,\n        address to,\n        uint256 amount,\n        bytes data\n    )\n        public\n        guarded(caller)\n        whenNotPaused\n        returns (bool ok)\n    {\n        avoidBlackholes(to);\n        return token.transferAndCall(caller, to, amount, data);\n    }\n\n    /**\n     * @dev Returns the total supply.\n     * @return Number of tokens.\n     */\n    function totalSupply() external view returns (uint) {\n        return token.getSupply();\n    }\n\n    /**\n     * @dev Returns the number tokens associated with an address.\n     * @param who Address to lookup.\n     * @return Balance of address.\n     */\n    function balanceOf(address who) external view returns (uint) {\n        return token.getBalance(who);\n    }\n\n    /**\n     * @dev Returns the allowance for a spender\n     * @param owner The address of the owner of the tokens.\n     * @param spender The address of the spender.\n     * @return Number of tokens the spender is allowed to spend.\n     */\n    function allowance(address owner, address spender) external view returns (uint) {\n        return token.allowance(owner, spender);\n    }\n\n}\n",
  "sourcePath": "/Users/gislik/Code/smart-contracts/contracts/StandardController.sol",
  "compiler": {
    "name": "solc",
    "version": "0.4.24+commit.e67f0147.Emscripten.clang"
  },
  "schemaVersion": "2.0.1",
  "updatedAt": "2019-11-08T15:27:29.587Z"
}