{
  "contractName": "StandardController",
  "abi": [
    {
      "constant": true,
      "inputs": [],
      "name": "name",
      "outputs": [
        {
          "name": "",
          "type": "string"
        }
      ],
      "payable": false,
      "stateMutability": "view",
      "type": "function"
    },
    {
      "constant": true,
      "inputs": [],
      "name": "decimals",
      "outputs": [
        {
          "name": "",
          "type": "uint256"
        }
      ],
      "payable": false,
      "stateMutability": "view",
      "type": "function"
    },
    {
      "constant": false,
      "inputs": [],
      "name": "unpause",
      "outputs": [],
      "payable": false,
      "stateMutability": "nonpayable",
      "type": "function"
    },
    {
      "constant": false,
      "inputs": [],
      "name": "claimOwnership",
      "outputs": [],
      "payable": false,
      "stateMutability": "nonpayable",
      "type": "function"
    },
    {
      "constant": true,
      "inputs": [],
      "name": "paused",
      "outputs": [
        {
          "name": "",
          "type": "bool"
        }
      ],
      "payable": false,
      "stateMutability": "view",
      "type": "function"
    },
    {
      "constant": false,
      "inputs": [],
      "name": "renounceOwnership",
      "outputs": [],
      "payable": false,
      "stateMutability": "nonpayable",
      "type": "function"
    },
    {
      "constant": false,
      "inputs": [],
      "name": "destroy",
      "outputs": [],
      "payable": false,
      "stateMutability": "nonpayable",
      "type": "function"
    },
    {
      "constant": false,
      "inputs": [],
      "name": "pause",
      "outputs": [],
      "payable": false,
      "stateMutability": "nonpayable",
      "type": "function"
    },
    {
      "constant": true,
      "inputs": [],
      "name": "owner",
      "outputs": [
        {
          "name": "",
          "type": "address"
        }
      ],
      "payable": false,
      "stateMutability": "view",
      "type": "function"
    },
    {
      "constant": true,
      "inputs": [],
      "name": "symbol",
      "outputs": [
        {
          "name": "",
          "type": "string"
        }
      ],
      "payable": false,
      "stateMutability": "view",
      "type": "function"
    },
    {
      "constant": true,
      "inputs": [],
      "name": "pendingOwner",
      "outputs": [
        {
          "name": "",
          "type": "address"
        }
      ],
      "payable": false,
      "stateMutability": "view",
      "type": "function"
    },
    {
      "constant": false,
      "inputs": [
        {
          "name": "newOwner",
          "type": "address"
        }
      ],
      "name": "transferOwnership",
      "outputs": [],
      "payable": false,
      "stateMutability": "nonpayable",
      "type": "function"
    },
    {
      "constant": false,
      "inputs": [
        {
          "name": "_recipient",
          "type": "address"
        }
      ],
      "name": "destroyAndSend",
      "outputs": [],
      "payable": false,
      "stateMutability": "nonpayable",
      "type": "function"
    },
    {
      "inputs": [
        {
          "name": "storage_",
          "type": "address"
        },
        {
          "name": "initialSupply",
          "type": "uint256"
        },
        {
          "name": "frontend_",
          "type": "address"
        }
      ],
      "payable": false,
      "stateMutability": "nonpayable",
      "type": "constructor"
    },
    {
      "anonymous": false,
      "inputs": [
        {
          "indexed": true,
          "name": "old",
          "type": "address"
        },
        {
          "indexed": true,
          "name": "current",
          "type": "address"
        }
      ],
      "name": "Frontend",
      "type": "event"
    },
    {
      "anonymous": false,
      "inputs": [
        {
          "indexed": true,
          "name": "old",
          "type": "address"
        },
        {
          "indexed": true,
          "name": "current",
          "type": "address"
        }
      ],
      "name": "Storage",
      "type": "event"
    },
    {
      "anonymous": false,
      "inputs": [],
      "name": "Pause",
      "type": "event"
    },
    {
      "anonymous": false,
      "inputs": [],
      "name": "Unpause",
      "type": "event"
    },
    {
      "anonymous": false,
      "inputs": [
        {
          "indexed": true,
          "name": "previousOwner",
          "type": "address"
        }
      ],
      "name": "OwnershipRenounced",
      "type": "event"
    },
    {
      "anonymous": false,
      "inputs": [
        {
          "indexed": true,
          "name": "previousOwner",
          "type": "address"
        },
        {
          "indexed": true,
          "name": "newOwner",
          "type": "address"
        }
      ],
      "name": "OwnershipTransferred",
      "type": "event"
    },
    {
      "constant": true,
      "inputs": [],
      "name": "getFrontend",
      "outputs": [
        {
          "name": "",
          "type": "address"
        }
      ],
      "payable": false,
      "stateMutability": "view",
      "type": "function"
    },
    {
      "constant": true,
      "inputs": [],
      "name": "getStorage",
      "outputs": [
        {
          "name": "",
          "type": "address"
        }
      ],
      "payable": false,
      "stateMutability": "view",
      "type": "function"
    },
    {
      "constant": false,
      "inputs": [
        {
          "name": "frontend_",
          "type": "address"
        }
      ],
      "name": "setFrontend",
      "outputs": [],
      "payable": false,
      "stateMutability": "nonpayable",
      "type": "function"
    },
    {
      "constant": false,
      "inputs": [
        {
          "name": "storage_",
          "type": "address"
        }
      ],
      "name": "setStorage",
      "outputs": [],
      "payable": false,
      "stateMutability": "nonpayable",
      "type": "function"
    },
    {
      "constant": false,
      "inputs": [
        {
          "name": "newOwner",
          "type": "address"
        }
      ],
      "name": "transferStorageOwnership",
      "outputs": [],
      "payable": false,
      "stateMutability": "nonpayable",
      "type": "function"
    },
    {
      "constant": false,
      "inputs": [],
      "name": "claimStorageOwnership",
      "outputs": [],
      "payable": false,
      "stateMutability": "nonpayable",
      "type": "function"
    },
    {
      "constant": false,
      "inputs": [
        {
          "name": "caller",
          "type": "address"
        },
        {
          "name": "to",
          "type": "address"
        },
        {
          "name": "amount",
          "type": "uint256"
        }
      ],
      "name": "transfer_withCaller",
      "outputs": [
        {
          "name": "ok",
          "type": "bool"
        }
      ],
      "payable": false,
      "stateMutability": "nonpayable",
      "type": "function"
    },
    {
      "constant": false,
      "inputs": [
        {
          "name": "caller",
          "type": "address"
        },
        {
          "name": "from",
          "type": "address"
        },
        {
          "name": "to",
          "type": "address"
        },
        {
          "name": "amount",
          "type": "uint256"
        }
      ],
      "name": "transferFrom_withCaller",
      "outputs": [
        {
          "name": "ok",
          "type": "bool"
        }
      ],
      "payable": false,
      "stateMutability": "nonpayable",
      "type": "function"
    },
    {
      "constant": false,
      "inputs": [
        {
          "name": "caller",
          "type": "address"
        },
        {
          "name": "spender",
          "type": "address"
        },
        {
          "name": "amount",
          "type": "uint256"
        }
      ],
      "name": "approve_withCaller",
      "outputs": [
        {
          "name": "ok",
          "type": "bool"
        }
      ],
      "payable": false,
      "stateMutability": "nonpayable",
      "type": "function"
    },
    {
      "constant": false,
      "inputs": [
        {
          "name": "caller",
          "type": "address"
        },
        {
          "name": "to",
          "type": "address"
        },
        {
          "name": "amount",
          "type": "uint256"
        },
        {
          "name": "data",
          "type": "bytes"
        }
      ],
      "name": "transferAndCall_withCaller",
      "outputs": [
        {
          "name": "ok",
          "type": "bool"
        }
      ],
      "payable": false,
      "stateMutability": "nonpayable",
      "type": "function"
    },
    {
      "constant": true,
      "inputs": [],
      "name": "totalSupply",
      "outputs": [
        {
          "name": "",
          "type": "uint256"
        }
      ],
      "payable": false,
      "stateMutability": "view",
      "type": "function"
    },
    {
      "constant": true,
      "inputs": [
        {
          "name": "who",
          "type": "address"
        }
      ],
      "name": "balanceOf",
      "outputs": [
        {
          "name": "",
          "type": "uint256"
        }
      ],
      "payable": false,
      "stateMutability": "view",
      "type": "function"
    },
    {
      "constant": true,
      "inputs": [
        {
          "name": "owner",
          "type": "address"
        },
        {
          "name": "spender",
          "type": "address"
        }
      ],
      "name": "allowance",
      "outputs": [
        {
          "name": "",
          "type": "uint256"
        }
      ],
      "payable": false,
      "stateMutability": "view",
      "type": "function"
    }
  ],
  "bytecode": "0x60806040526000805460a060020a60ff021916905560126006553480156200002657600080fd5b506040516060806200236383398101604090815281516020830151919092015160008054600160a060020a03191633179055600160a060020a03831615806200006d575081155b15156200010157604080517f08c379a000000000000000000000000000000000000000000000000000000000815260206004820152603f60248201527f656974686572206120746f6b656e2073746f72616765206d757374206265206960448201527f6e697469616c697a6564206f72206e6f20696e697469616c20737570706c7900606482015290519081900360840190fd5b600160a060020a0383161515620001d9576200011c6200021e565b604051809103906000f08015801562000139573d6000803e3d6000fd5b5060028054600160a060020a031916600160a060020a039283161790819055604080517f21e5383a00000000000000000000000000000000000000000000000000000000815233600482015260248101869052905191909216916321e5383a91604480830192600092919082900301818387803b158015620001ba57600080fd5b505af1158015620001cf573d6000803e3d6000fd5b50505050620001f5565b60028054600160a060020a031916600160a060020a0385161790555b60038054600160a060020a031916600160a060020a0392909216919091179055506200022f9050565b604051610b1c806200184783390190565b611608806200023f6000396000f3006080604052600436106101525763ffffffff7c01000000000000000000000000000000000000000000000000000000006000350416623074ff811461015757806306fdde031461018857806318160ddd14610212578063313ce567146102395780633408f73a1461024e5780633f4ba83a146102635780634e71e0c81461027a5780635c975abb1461028f57806369569a51146102b857806370a08231146102d9578063715018a6146102fa578063774d54091461030f57806383197ef0146103395780638456cb591461034e5780638da5cb5b146103635780639137c1a71461037857806395d89b41146103995780639e7f43ca146103ae578063b516af701461041d578063dd62ed3e14610432578063e174fd9414610459578063e30c397814610483578063e974fee914610498578063ee0b5445146104c8578063f2fde38b146104e9578063f5074f411461050a575b600080fd5b34801561016357600080fd5b5061016c61052b565b60408051600160a060020a039092168252519081900360200190f35b34801561019457600080fd5b5061019d61053a565b6040805160208082528351818301528351919283929083019185019080838360005b838110156101d75781810151838201526020016101bf565b50505050905090810190601f1680156102045780820380516001836020036101000a031916815260200191505b509250505060405180910390f35b34801561021e57600080fd5b506102276105c8565b60408051918252519081900360200190f35b34801561024557600080fd5b50610227610658565b34801561025a57600080fd5b5061016c61065e565b34801561026f57600080fd5b5061027861066d565b005b34801561028657600080fd5b506102786106f4565b34801561029b57600080fd5b506102a461077c565b604080519115158252519081900360200190f35b3480156102c457600080fd5b50610278600160a060020a036004351661079d565b3480156102e557600080fd5b50610227600160a060020a036004351661081d565b34801561030657600080fd5b506102786108ba565b34801561031b57600080fd5b506102a4600160a060020a0360043581169060243516604435610926565b34801561034557600080fd5b50610278610ac7565b34801561035a57600080fd5b50610278610aec565b34801561036f57600080fd5b5061016c610b89565b34801561038457600080fd5b50610278600160a060020a0360043516610b98565b3480156103a557600080fd5b5061019d610c18565b3480156103ba57600080fd5b50604080516020601f6064356004818101359283018490048402850184019095528184526102a494600160a060020a038135811695602480359092169560443595369560849401918190840183828082843750949750610c739650505050505050565b34801561042957600080fd5b50610278610e93565b34801561043e57600080fd5b50610227600160a060020a0360043581169060243516610f30565b34801561046557600080fd5b506102a4600160a060020a0360043581169060243516604435610fed565b34801561048f57600080fd5b5061016c611162565b3480156104a457600080fd5b506102a4600160a060020a0360043581169060243581169060443516606435611171565b3480156104d457600080fd5b50610278600160a060020a03600435166112ee565b3480156104f557600080fd5b50610278600160a060020a0360043516611387565b34801561051657600080fd5b50610278600160a060020a03600435166113cd565b600354600160a060020a031690565b6004805460408051602060026001851615610100026000190190941693909304601f810184900484028201840190925281815292918301828280156105c05780601f10610595576101008083540402835291602001916105c0565b820191906000526020600020905b8154815290600101906020018083116105a357829003601f168201915b505050505081565b600254604080517f6c9c2faf0000000000000000000000000000000000000000000000000000000081529051600092600160a060020a031691636c9c2faf91600480830192602092919082900301818787803b15801561062757600080fd5b505af115801561063b573d6000803e3d6000fd5b505050506040513d602081101561065157600080fd5b5051905090565b60065481565b600254600160a060020a031690565b600054600160a060020a0316331461068457600080fd5b60005474010000000000000000000000000000000000000000900460ff1615156106ad57600080fd5b6000805474ff0000000000000000000000000000000000000000191681556040517f7805862f689e2f13df9f062ff482ad3ad112aca9e0847911ed832e158c525b339190a1565b600154600160a060020a0316331461070b57600080fd5b60015460008054604051600160a060020a0393841693909116917f8be0079c531659141344cd1fd0a4f28419497f9722a3daafe3b4186f6b6457e091a3600180546000805473ffffffffffffffffffffffffffffffffffffffff19908116600160a060020a03841617909155169055565b60005474010000000000000000000000000000000000000000900460ff1681565b600054600160a060020a031633146107b457600080fd5b600354604051600160a060020a038084169216907fcb01f884fc4203d4c1643cb0e126faeb397682c122ca8c0433776d42cdc0060a90600090a36003805473ffffffffffffffffffffffffffffffffffffffff1916600160a060020a0392909216919091179055565b600254604080517ff8b2cb4f000000000000000000000000000000000000000000000000000000008152600160a060020a0384811660048301529151600093929092169163f8b2cb4f9160248082019260209290919082900301818787803b15801561088857600080fd5b505af115801561089c573d6000803e3d6000fd5b505050506040513d60208110156108b257600080fd5b505192915050565b600054600160a060020a031633146108d157600080fd5b60008054604051600160a060020a03909116917ff8df31144d9c2f0f6b59d69b8b98abd5459d07f2742c4df920b25aae33c6482091a26000805473ffffffffffffffffffffffffffffffffffffffff19169055565b60008333600160a060020a038216148061094a5750600354600160a060020a031633145b15156109dd57604080517f08c379a000000000000000000000000000000000000000000000000000000000815260206004820152603460248201527f6569746865722063616c6c6572206d7573742062652073656e646572206f722060448201527f63616c6c696e67207669612066726f6e74656e64000000000000000000000000606482015290519081900360840190fd5b60005474010000000000000000000000000000000000000000900460ff1615610a0557600080fd5b600254604080517f365feff1000000000000000000000000000000000000000000000000000000008152600160a060020a03928316600482015287831660248201529186166044830152606482018590525173__ERC20Lib______________________________9163365feff1916084808301926020929190829003018186803b158015610a9257600080fd5b505af4158015610aa6573d6000803e3d6000fd5b505050506040513d6020811015610abc57600080fd5b505195945050505050565b600054600160a060020a03163314610ade57600080fd5b600054600160a060020a0316ff5b600054600160a060020a03163314610b0357600080fd5b60005474010000000000000000000000000000000000000000900460ff1615610b2b57600080fd5b6000805474ff00000000000000000000000000000000000000001916740100000000000000000000000000000000000000001781556040517f6985a02210a168e66602d3235cb6db0e70f92b3ba4d376a33c0f3d9434bff6259190a1565b600054600160a060020a031681565b600054600160a060020a03163314610baf57600080fd5b600254604051600160a060020a038084169216907fdaaa9d417a3107fd3d9db02eba3eeafbae2b8af16ee08c534f5bc449054c1c4c90600090a36002805473ffffffffffffffffffffffffffffffffffffffff1916600160a060020a0392909216919091179055565b6005805460408051602060026001851615610100026000190190941693909304601f810184900484028201840190925281815292918301828280156105c05780601f10610595576101008083540402835291602001916105c0565b60008433600160a060020a0382161480610c975750600354600160a060020a031633145b1515610d2a57604080517f08c379a000000000000000000000000000000000000000000000000000000000815260206004820152603460248201527f6569746865722063616c6c6572206d7573742062652073656e646572206f722060448201527f63616c6c696e67207669612066726f6e74656e64000000000000000000000000606482015290519081900360840190fd5b60005474010000000000000000000000000000000000000000900460ff1615610d5257600080fd5b610d5b856113f0565b6002546040517f1eb8bccb000000000000000000000000000000000000000000000000000000008152600160a060020a0391821660048201818152898416602484015292881660448301526064820187905260a060848301908152865160a4840152865173__ERC677Lib_____________________________94631eb8bccb948c938c938c938c9390929160c490910190602085019080838360005b83811015610e0f578181015183820152602001610df7565b50505050905090810190601f168015610e3c5780820380516001836020036101000a031916815260200191505b50965050505050505060206040518083038186803b158015610e5d57600080fd5b505af4158015610e71573d6000803e3d6000fd5b505050506040513d6020811015610e8757600080fd5b50519695505050505050565b600054600160a060020a03163314610eaa57600080fd5b600260009054906101000a9004600160a060020a0316600160a060020a0316634e71e0c86040518163ffffffff167c0100000000000000000000000000000000000000000000000000000000028152600401600060405180830381600087803b158015610f1657600080fd5b505af1158015610f2a573d6000803e3d6000fd5b50505050565b600254604080517f1045d7ce000000000000000000000000000000000000000000000000000000008152600160a060020a039283166004820152848316602482015291831660448301525160009173__ERC20Lib______________________________91631045d7ce91606480820192602092909190829003018186803b158015610fba57600080fd5b505af4158015610fce573d6000803e3d6000fd5b505050506040513d6020811015610fe457600080fd5b50519392505050565b60008333600160a060020a03821614806110115750600354600160a060020a031633145b15156110a457604080517f08c379a000000000000000000000000000000000000000000000000000000000815260206004820152603460248201527f6569746865722063616c6c6572206d7573742062652073656e646572206f722060448201527f63616c6c696e67207669612066726f6e74656e64000000000000000000000000606482015290519081900360840190fd5b60005474010000000000000000000000000000000000000000900460ff16156110cc57600080fd5b6110d5846113f0565b600254604080517f44ded8ba000000000000000000000000000000000000000000000000000000008152600160a060020a03928316600482015287831660248201529186166044830152606482018590525173__ERC20Lib______________________________916344ded8ba916084808301926020929190829003018186803b158015610a9257600080fd5b600154600160a060020a031681565b60008433600160a060020a03821614806111955750600354600160a060020a031633145b151561122857604080517f08c379a000000000000000000000000000000000000000000000000000000000815260206004820152603460248201527f6569746865722063616c6c6572206d7573742062652073656e646572206f722060448201527f63616c6c696e67207669612066726f6e74656e64000000000000000000000000606482015290519081900360840190fd5b60005474010000000000000000000000000000000000000000900460ff161561125057600080fd5b611259846113f0565b600254604080517ff3a0ddf9000000000000000000000000000000000000000000000000000000008152600160a060020a039283166004820152888316602482015287831660448201529186166064830152608482018590525173__ERC20Lib______________________________9163f3a0ddf99160a4808301926020929190829003018186803b158015610e5d57600080fd5b600054600160a060020a0316331461130557600080fd5b600254604080517ff2fde38b000000000000000000000000000000000000000000000000000000008152600160a060020a0384811660048301529151919092169163f2fde38b91602480830192600092919082900301818387803b15801561136c57600080fd5b505af1158015611380573d6000803e3d6000fd5b5050505050565b600054600160a060020a0316331461139e57600080fd5b6001805473ffffffffffffffffffffffffffffffffffffffff1916600160a060020a0392909216919091179055565b600054600160a060020a031633146113e457600080fd5b80600160a060020a0316ff5b600160a060020a038116151561146757604080517f08c379a000000000000000000000000000000000000000000000000000000000815260206004820152601460248201527f6d757374206e6f742073656e6420746f20307830000000000000000000000000604482015290519081900360640190fd5b600160a060020a0381163014156114df57604080517f08c379a000000000000000000000000000000000000000000000000000000000815260206004820152601b60248201527f6d757374206e6f742073656e6420746f20636f6e74726f6c6c65720000000000604482015290519081900360640190fd5b600254600160a060020a038281169116141561155c57604080517f08c379a000000000000000000000000000000000000000000000000000000000815260206004820152601e60248201527f6d757374206e6f742073656e6420746f20746f6b656e2073746f726167650000604482015290519081900360640190fd5b600354600160a060020a03828116911614156115d957604080517f08c379a000000000000000000000000000000000000000000000000000000000815260206004820152601960248201527f6d757374206e6f742073656e6420746f2066726f6e74656e6400000000000000604482015290519081900360640190fd5b505600a165627a7a72305820ca78d0773d316b5447631e6c90d6531b34444d73b57388ef6e0f719c1e604cf40029608060405260008054600160a060020a03191633179055341561002157600080fd5b610aec806100306000396000f3006080604052600436106100da5763ffffffff7c010000000000000000000000000000000000000000000000000000000060003504166317ffc32081146100e957806321e5383a1461010c5780632aed7f3f1461013057806333dd1b8a146101515780634e71e0c81461017b5780636c9c2faf14610190578063715018a6146101b75780638da5cb5b146101cc5780639f727c27146101fd578063c0ee0b8a14610212578063c7c7e9ea14610243578063cf8eeb7e1461026a578063e30c39781461028e578063f2fde38b146102a3578063f8b2cb4f146102c4575b3480156100e657600080fd5b50005b3480156100f557600080fd5b5061010a600160a060020a03600435166102e5565b005b34801561011857600080fd5b5061010a600160a060020a03600435166024356103b1565b34801561013c57600080fd5b5061010a600160a060020a0360043516610465565b34801561015d57600080fd5b5061010a600160a060020a03600435811690602435166044356104f7565b34801561018757600080fd5b5061010a6105b4565b34801561019c57600080fd5b506101a561063c565b60408051918252519081900360200190f35b3480156101c357600080fd5b5061010a6106dd565b3480156101d857600080fd5b506101e1610749565b60408051600160a060020a039092168252519081900360200190f35b34801561020957600080fd5b5061010a610758565b34801561021e57600080fd5b5061010a60048035600160a060020a03169060248035916044359182019101356107ad565b34801561024f57600080fd5b506101a5600160a060020a03600435811690602435166107b2565b34801561027657600080fd5b5061010a600160a060020a036004351660243561086b565b34801561029a57600080fd5b506101e1610903565b3480156102af57600080fd5b5061010a600160a060020a0360043516610912565b3480156102d057600080fd5b506101a5600160a060020a0360043516610958565b60008054600160a060020a031633146102fd57600080fd5b604080517f70a082310000000000000000000000000000000000000000000000000000000081523060048201529051600160a060020a038416916370a082319160248083019260209291908290030181600087803b15801561035e57600080fd5b505af1158015610372573d6000803e3d6000fd5b505050506040513d602081101561038857600080fd5b50516000549091506103ad90600160a060020a0384811691168363ffffffff610a0816565b5050565b600054600160a060020a031633146103c857600080fd5b604080517f7aeb0ed500000000000000000000000000000000000000000000000000000000815260026004820152600160a060020a038416602482015260448101839052905173__TokenStorageLib_______________________91637aeb0ed5916064808301926000929190829003018186803b15801561044957600080fd5b505af415801561045d573d6000803e3d6000fd5b505050505050565b60008054600160a060020a0316331461047d57600080fd5b5060008054604080517ff2fde38b000000000000000000000000000000000000000000000000000000008152600160a060020a039283166004820152905184939284169263f2fde38b926024808201939182900301818387803b1580156104e357600080fd5b505af115801561045d573d6000803e3d6000fd5b600054600160a060020a0316331461050e57600080fd5b604080517f5599b4b700000000000000000000000000000000000000000000000000000000815260026004820152600160a060020a0380861660248301528416604482015260648101839052905173__TokenStorageLib_______________________91635599b4b7916084808301926000929190829003018186803b15801561059757600080fd5b505af41580156105ab573d6000803e3d6000fd5b50505050505050565b600154600160a060020a031633146105cb57600080fd5b60015460008054604051600160a060020a0393841693909116917f8be0079c531659141344cd1fd0a4f28419497f9722a3daafe3b4186f6b6457e091a3600180546000805473ffffffffffffffffffffffffffffffffffffffff19908116600160a060020a03841617909155169055565b6000600273__TokenStorageLib_______________________63072f9a5090916040518263ffffffff167c01000000000000000000000000000000000000000000000000000000000281526004018082815260200191505060206040518083038186803b1580156106ac57600080fd5b505af41580156106c0573d6000803e3d6000fd5b505050506040513d60208110156106d657600080fd5b5051905090565b600054600160a060020a031633146106f457600080fd5b60008054604051600160a060020a03909116917ff8df31144d9c2f0f6b59d69b8b98abd5459d07f2742c4df920b25aae33c6482091a26000805473ffffffffffffffffffffffffffffffffffffffff19169055565b600054600160a060020a031681565b600054600160a060020a0316331461076f57600080fd5b60008054604051600160a060020a0390911691303180156108fc02929091818181858888f193505050501580156107aa573d6000803e3d6000fd5b50565b600080fd5b604080517f9daeae1e00000000000000000000000000000000000000000000000000000000815260026004820152600160a060020a03808516602483015283166044820152905160009173__TokenStorageLib_______________________91639daeae1e91606480820192602092909190829003018186803b15801561083857600080fd5b505af415801561084c573d6000803e3d6000fd5b505050506040513d602081101561086257600080fd5b50519392505050565b600054600160a060020a0316331461088257600080fd5b604080517fd9c7339e00000000000000000000000000000000000000000000000000000000815260026004820152600160a060020a038416602482015260448101839052905173__TokenStorageLib_______________________9163d9c7339e916064808301926000929190829003018186803b15801561044957600080fd5b600154600160a060020a031681565b600054600160a060020a0316331461092957600080fd5b6001805473ffffffffffffffffffffffffffffffffffffffff1916600160a060020a0392909216919091179055565b604080517fb0aacf2400000000000000000000000000000000000000000000000000000000815260026004820152600160a060020a0383166024820152905160009173__TokenStorageLib_______________________9163b0aacf2491604480820192602092909190829003018186803b1580156109d657600080fd5b505af41580156109ea573d6000803e3d6000fd5b505050506040513d6020811015610a0057600080fd5b505192915050565b82600160a060020a031663a9059cbb83836040518363ffffffff167c01000000000000000000000000000000000000000000000000000000000281526004018083600160a060020a0316600160a060020a0316815260200182815260200192505050602060405180830381600087803b158015610a8457600080fd5b505af1158015610a98573d6000803e3d6000fd5b505050506040513d6020811015610aae57600080fd5b50511515610abb57600080fd5b5050505600a165627a7a723058202adea0ce2e3865ac60188e9cf655477d09afdc308c5bab2033850faf6243539a0029",
  "source": "/**\n * Copyright 2019 Monerium ehf.\n *\n * Licensed under the Apache License, Version 2.0 (the \"License\");\n * you may not use this file except in compliance with the License.\n * You may obtain a copy of the License at\n *\n *     http://www.apache.org/licenses/LICENSE-2.0\n *\n * Unless required by applicable law or agreed to in writing, software\n * distributed under the License is distributed on an \"AS IS\" BASIS,\n * WITHOUT WARRANTIES OR CONDITIONS OF ANY KIND, either express or implied.\n * See the License for the specific language governing permissions and\n * limitations under the License.\n */\n\npragma solidity 0.4.24;\n\nimport \"openzeppelin-solidity/contracts/ownership/Claimable.sol\";\nimport \"openzeppelin-solidity/contracts/lifecycle/Destructible.sol\";\nimport \"openzeppelin-solidity/contracts/lifecycle/Pausable.sol\";\nimport \"./TokenStorage.sol\";\nimport \"./IERC20.sol\";\nimport \"./ERC20Lib.sol\";\nimport \"./ERC677Lib.sol\";\n\n/**\n * @title StandardController\n * @dev This is the base contract which delegates token methods [ERC20 and ERC677]\n * to their respective library implementations.\n * The controller is primarily intended to be interacted with via a token frontend.\n */\ncontract StandardController is Pausable, Destructible, Claimable {\n\n    using ERC20Lib for TokenStorage;\n    using ERC677Lib for TokenStorage;\n\n    TokenStorage internal token;\n    address internal frontend;\n\n    string public name;\n    string public symbol;\n    uint public decimals = 18;\n\n    /**\n     * @dev Emitted when updating the frontend.\n     * @param old Address of the old frontend.\n     * @param current Address of the new frontend.\n     */\n    event Frontend(address indexed old, address indexed current);\n\n    /**\n     * @dev Emitted when updating the storage.\n     * @param old Address of the old storage.\n     * @param current Address of the new storage.\n     */\n    event Storage(address indexed old, address indexed current);\n\n    /**\n     * @dev Modifier which prevents the function from being called by unauthorized parties.\n     * The caller must either be the sender or the function must be\n     * called via the frontend, otherwise the call is reverted.\n     * @param caller The address of the passed-in caller. Used to preserve the original caller.\n     */\n    modifier guarded(address caller) {\n        require(\n            msg.sender == caller || msg.sender == frontend,\n            \"either caller must be sender or calling via frontend\"\n        );\n        _;\n    }\n\n    /**\n     * @dev Contract constructor.\n     * @param storage_ Address of the token storage for the controller.\n     * @param initialSupply The amount of tokens to mint upon creation.\n     * @param frontend_ Address of the authorized frontend.\n     */\n    constructor(address storage_, uint initialSupply, address frontend_) public {\n        require(\n            storage_ == 0x0 || initialSupply == 0,\n            \"either a token storage must be initialized or no initial supply\"\n        );\n        if (storage_ == 0x0) {\n            token = new TokenStorage();\n            token.addBalance(msg.sender, initialSupply);\n        } else {\n            token = TokenStorage(storage_);\n        }\n        frontend = frontend_;\n    }\n\n    /**\n     * @dev Prevents tokens to be sent to well known blackholes by throwing on known blackholes.\n     * @param to The address of the intended recipient.\n     */\n    function avoidBlackholes(address to) internal view {\n        require(to != 0x0, \"must not send to 0x0\");\n        require(to != address(this), \"must not send to controller\");\n        require(to != address(token), \"must not send to token storage\");\n        require(to != frontend, \"must not send to frontend\");\n    }\n\n    /**\n     * @dev Returns the current frontend.\n     * @return Address of the frontend.\n     */\n    function getFrontend() external view returns (address) {\n        return frontend;\n    }\n\n    /**\n     * @dev Returns the current storage.\n     * @return Address of the storage.\n     */\n    function getStorage() external view returns (address) {\n        return address(token);\n    }\n\n    /**\n     * @dev Sets a new frontend.\n     * @param frontend_ Address of the new frontend.\n     */\n    function setFrontend(address frontend_) public onlyOwner {\n        emit Frontend(frontend, frontend_);\n        frontend = frontend_;\n    }\n\n    /**\n     * @dev Sets a new storage.\n     * @param storage_ Address of the new storage.\n     */\n    function setStorage(address storage_) external onlyOwner {\n        emit Storage(address(token), storage_);\n        token = TokenStorage(storage_);\n    }\n\n    /**\n     * @dev Transfers the ownership of the storage.\n     * @param newOwner Address of the new storage owner.\n     */\n    function transferStorageOwnership(address newOwner) public onlyOwner {\n        token.transferOwnership(newOwner);\n    }\n\n    /**\n     * @dev Claims the ownership of the storage.\n     */\n    function claimStorageOwnership() public onlyOwner {\n        token.claimOwnership();\n    }\n\n    /**\n     * @dev Transfers tokens [ERC20].\n     * @param caller Address of the caller passed through the frontend.\n     * @param to Recipient address.\n     * @param amount Number of tokens to transfer.\n     */\n    function transfer_withCaller(address caller, address to, uint amount)\n        public\n        guarded(caller)\n        whenNotPaused\n        returns (bool ok)\n    {\n        avoidBlackholes(to);\n        return token.transfer(caller, to, amount);\n    }\n\n    /**\n     * @dev Transfers tokens from a specific address [ERC20].\n     * The address owner has to approve the spender beforehand.\n     * @param caller Address of the caller passed through the frontend.\n     * @param from Address to debet the tokens from.\n     * @param to Recipient address.\n     * @param amount Number of tokens to transfer.\n     */\n    function transferFrom_withCaller(address caller, address from, address to, uint amount)\n        public\n        guarded(caller)\n        whenNotPaused\n        returns (bool ok)\n    {\n        avoidBlackholes(to);\n        return token.transferFrom(caller, from, to, amount);\n    }\n\n    /**\n     * @dev Approves a spender [ERC20].\n     * Note that using the approve/transferFrom presents a possible\n     * security vulnerability described in:\n     * https://docs.google.com/document/d/1YLPtQxZu1UAvO9cZ1O2RPXBbT0mooh4DYKjA_jp-RLM/edit#heading=h.quou09mcbpzw\n     * Use transferAndCall to mitigate.\n     * @param caller Address of the caller passed through the frontend.\n     * @param spender The address of the future spender.\n     * @param amount The allowance of the spender.\n     */\n    function approve_withCaller(address caller, address spender, uint amount)\n        public\n        guarded(caller)\n        whenNotPaused\n        returns (bool ok)\n    {\n        return token.approve(caller, spender, amount);\n    }\n\n    /**\n     * @dev Transfers tokens and subsequently calls a method on the recipient [ERC677].\n     * If the recipient is a non-contract address this method behaves just like transfer.\n     * @param caller Address of the caller passed through the frontend.\n     * @param to Recipient address.\n     * @param amount Number of tokens to transfer.\n     * @param data Additional data passed to the recipient's tokenFallback method.\n     */\n    function transferAndCall_withCaller(\n        address caller,\n        address to,\n        uint256 amount,\n        bytes data\n    )\n        public\n        guarded(caller)\n        whenNotPaused\n        returns (bool ok)\n    {\n        avoidBlackholes(to);\n        return token.transferAndCall(caller, to, amount, data);\n    }\n\n    /**\n     * @dev Returns the total supply.\n     * @return Number of tokens.\n     */\n    function totalSupply() external view returns (uint) {\n        return token.getSupply();\n    }\n\n    /**\n     * @dev Returns the number tokens associated with an address.\n     * @param who Address to lookup.\n     * @return Balance of address.\n     */\n    function balanceOf(address who) external view returns (uint) {\n        return token.getBalance(who);\n    }\n\n    /**\n     * @dev Returns the allowance for a spender\n     * @param owner The address of the owner of the tokens.\n     * @param spender The address of the spender.\n     * @return Number of tokens the spender is allowed to spend.\n     */\n    function allowance(address owner, address spender) external view returns (uint) {\n        return token.allowance(owner, spender);\n    }\n\n}\n",
  "sourcePath": "/Users/gislik/Code/smart-contracts/contracts/StandardController.sol",
  "compiler": {
    "name": "solc",
    "version": "0.4.24+commit.e67f0147.Emscripten.clang"
  },
  "schemaVersion": "2.0.1",
  "updatedAt": "2020-01-08T13:39:11.573Z"
}