{
  "contractName": "StandardController",
  "abi": [
    {
      "inputs": [
        {
          "internalType": "address",
          "name": "storage_",
          "type": "address"
        },
        {
          "internalType": "uint256",
          "name": "initialSupply",
          "type": "uint256"
        },
        {
          "internalType": "address",
          "name": "frontend_",
          "type": "address"
        }
      ],
      "stateMutability": "nonpayable",
      "type": "constructor"
    },
    {
      "anonymous": false,
      "inputs": [
        {
          "indexed": true,
          "internalType": "address",
          "name": "old",
          "type": "address"
        },
        {
          "indexed": true,
          "internalType": "address",
          "name": "current",
          "type": "address"
        }
      ],
      "name": "Frontend",
      "type": "event"
    },
    {
      "anonymous": false,
      "inputs": [
        {
          "indexed": true,
          "internalType": "address",
          "name": "previousOwner",
          "type": "address"
        }
      ],
      "name": "OwnershipRenounced",
      "type": "event"
    },
    {
      "anonymous": false,
      "inputs": [
        {
          "indexed": true,
          "internalType": "address",
          "name": "previousOwner",
          "type": "address"
        },
        {
          "indexed": true,
          "internalType": "address",
          "name": "newOwner",
          "type": "address"
        }
      ],
      "name": "OwnershipTransferred",
      "type": "event"
    },
    {
      "anonymous": false,
      "inputs": [
        {
          "indexed": false,
          "internalType": "address",
          "name": "account",
          "type": "address"
        }
      ],
      "name": "Paused",
      "type": "event"
    },
    {
      "anonymous": false,
      "inputs": [
        {
          "indexed": true,
          "internalType": "address",
          "name": "old",
          "type": "address"
        },
        {
          "indexed": true,
          "internalType": "address",
          "name": "current",
          "type": "address"
        }
      ],
      "name": "Storage",
      "type": "event"
    },
    {
      "anonymous": false,
      "inputs": [
        {
          "indexed": false,
          "internalType": "address",
          "name": "account",
          "type": "address"
        }
      ],
      "name": "Unpaused",
      "type": "event"
    },
    {
      "inputs": [],
      "name": "claimOwnership",
      "outputs": [],
      "stateMutability": "nonpayable",
      "type": "function"
    },
    {
      "inputs": [],
      "name": "decimals",
      "outputs": [
        {
          "internalType": "uint256",
          "name": "",
          "type": "uint256"
        }
      ],
      "stateMutability": "view",
      "type": "function"
    },
    {
      "inputs": [],
      "name": "name",
      "outputs": [
        {
          "internalType": "string",
          "name": "",
          "type": "string"
        }
      ],
      "stateMutability": "view",
      "type": "function"
    },
    {
      "inputs": [],
      "name": "owner",
      "outputs": [
        {
          "internalType": "address",
          "name": "",
          "type": "address"
        }
      ],
      "stateMutability": "view",
      "type": "function"
    },
    {
      "inputs": [],
      "name": "paused",
      "outputs": [
        {
          "internalType": "bool",
          "name": "",
          "type": "bool"
        }
      ],
      "stateMutability": "view",
      "type": "function"
    },
    {
      "inputs": [],
      "name": "pendingOwner",
      "outputs": [
        {
          "internalType": "address",
          "name": "",
          "type": "address"
        }
      ],
      "stateMutability": "view",
      "type": "function"
    },
    {
      "inputs": [],
      "name": "renounceOwnership",
      "outputs": [],
      "stateMutability": "nonpayable",
      "type": "function"
    },
    {
      "inputs": [],
      "name": "symbol",
      "outputs": [
        {
          "internalType": "string",
          "name": "",
          "type": "string"
        }
      ],
      "stateMutability": "view",
      "type": "function"
    },
    {
      "inputs": [
        {
          "internalType": "address",
          "name": "newOwner",
          "type": "address"
        }
      ],
      "name": "transferOwnership",
      "outputs": [],
      "stateMutability": "nonpayable",
      "type": "function"
    },
    {
      "inputs": [],
      "name": "getFrontend",
      "outputs": [
        {
          "internalType": "address",
          "name": "",
          "type": "address"
        }
      ],
      "stateMutability": "view",
      "type": "function"
    },
    {
      "inputs": [],
      "name": "getStorage",
      "outputs": [
        {
          "internalType": "address",
          "name": "",
          "type": "address"
        }
      ],
      "stateMutability": "view",
      "type": "function"
    },
    {
      "inputs": [
        {
          "internalType": "address",
          "name": "frontend_",
          "type": "address"
        }
      ],
      "name": "setFrontend",
      "outputs": [],
      "stateMutability": "nonpayable",
      "type": "function"
    },
    {
      "inputs": [
        {
          "internalType": "address",
          "name": "storage_",
          "type": "address"
        }
      ],
      "name": "setStorage",
      "outputs": [],
      "stateMutability": "nonpayable",
      "type": "function"
    },
    {
      "inputs": [
        {
          "internalType": "address",
          "name": "newOwner",
          "type": "address"
        }
      ],
      "name": "transferStorageOwnership",
      "outputs": [],
      "stateMutability": "nonpayable",
      "type": "function"
    },
    {
      "inputs": [],
      "name": "claimStorageOwnership",
      "outputs": [],
      "stateMutability": "nonpayable",
      "type": "function"
    },
    {
      "inputs": [
        {
          "internalType": "address",
          "name": "caller",
          "type": "address"
        },
        {
          "internalType": "address",
          "name": "to",
          "type": "address"
        },
        {
          "internalType": "uint256",
          "name": "amount",
          "type": "uint256"
        }
      ],
      "name": "transfer_withCaller",
      "outputs": [
        {
          "internalType": "bool",
          "name": "ok",
          "type": "bool"
        }
      ],
      "stateMutability": "nonpayable",
      "type": "function"
    },
    {
      "inputs": [
        {
          "internalType": "address",
          "name": "caller",
          "type": "address"
        },
        {
          "internalType": "address",
          "name": "from",
          "type": "address"
        },
        {
          "internalType": "address",
          "name": "to",
          "type": "address"
        },
        {
          "internalType": "uint256",
          "name": "amount",
          "type": "uint256"
        }
      ],
      "name": "transferFrom_withCaller",
      "outputs": [
        {
          "internalType": "bool",
          "name": "ok",
          "type": "bool"
        }
      ],
      "stateMutability": "nonpayable",
      "type": "function"
    },
    {
      "inputs": [
        {
          "internalType": "address",
          "name": "caller",
          "type": "address"
        },
        {
          "internalType": "address",
          "name": "spender",
          "type": "address"
        },
        {
          "internalType": "uint256",
          "name": "amount",
          "type": "uint256"
        }
      ],
      "name": "approve_withCaller",
      "outputs": [
        {
          "internalType": "bool",
          "name": "ok",
          "type": "bool"
        }
      ],
      "stateMutability": "nonpayable",
      "type": "function"
    },
    {
      "inputs": [
        {
          "internalType": "address",
          "name": "caller",
          "type": "address"
        },
        {
          "internalType": "address",
          "name": "to",
          "type": "address"
        },
        {
          "internalType": "uint256",
          "name": "amount",
          "type": "uint256"
        },
        {
          "internalType": "bytes",
          "name": "data",
          "type": "bytes"
        }
      ],
      "name": "transferAndCall_withCaller",
      "outputs": [
        {
          "internalType": "bool",
          "name": "ok",
          "type": "bool"
        }
      ],
      "stateMutability": "nonpayable",
      "type": "function"
    },
    {
      "inputs": [],
      "name": "totalSupply",
      "outputs": [
        {
          "internalType": "uint256",
          "name": "",
          "type": "uint256"
        }
      ],
      "stateMutability": "view",
      "type": "function"
    },
    {
      "inputs": [
        {
          "internalType": "address",
          "name": "who",
          "type": "address"
        }
      ],
      "name": "balanceOf",
      "outputs": [
        {
          "internalType": "uint256",
          "name": "",
          "type": "uint256"
        }
      ],
      "stateMutability": "view",
      "type": "function"
    },
    {
      "inputs": [
        {
          "internalType": "address",
          "name": "owner",
          "type": "address"
        },
        {
          "internalType": "address",
          "name": "spender",
          "type": "address"
        }
      ],
      "name": "allowance",
      "outputs": [
        {
          "internalType": "uint256",
          "name": "",
          "type": "uint256"
        }
      ],
      "stateMutability": "view",
      "type": "function"
    },
    {
      "inputs": [],
      "name": "pause",
      "outputs": [],
      "stateMutability": "nonpayable",
      "type": "function"
    },
    {
      "inputs": [],
      "name": "unpause",
      "outputs": [],
      "stateMutability": "nonpayable",
      "type": "function"
    }
  ],
  "bytecode": "0x608060405260126006553480156200001657600080fd5b50604051620022c1380380620022c1833981016040819052620000399162000202565b600080546001600160a81b03191661010033021790556001600160a01b038316158062000064575081155b620000db5760405162461bcd60e51b815260206004820152603f60248201527f656974686572206120746f6b656e2073746f72616765206d757374206265206960448201527f6e697469616c697a6564206f72206e6f20696e697469616c20737570706c7900606482015260840160405180910390fd5b6001600160a01b0383166200019257604051620000f890620001d7565b604051809103906000f08015801562000115573d6000803e3d6000fd5b50600280546001600160a01b0319166001600160a01b039290921691821790556040516310f29c1d60e11b8152336004820152602481018490526321e5383a90604401600060405180830381600087803b1580156200017357600080fd5b505af115801562000188573d6000803e3d6000fd5b50505050620001ae565b600280546001600160a01b0319166001600160a01b0385161790555b600380546001600160a01b0319166001600160a01b039290921691909117905550620002439050565b610b5c806200176583390190565b80516001600160a01b0381168114620001fd57600080fd5b919050565b6000806000606084860312156200021857600080fd5b6200022384620001e5565b9250602084015191506200023a60408501620001e5565b90509250925092565b61151280620002536000396000f3fe608060405234801561001057600080fd5b50600436106101975760003560e01c80638456cb59116100e3578063dd62ed3e1161008c578063e974fee911610066578063e974fee914610304578063ee0b544514610317578063f2fde38b1461032a57600080fd5b8063dd62ed3e146102cb578063e174fd94146102de578063e30c3978146102f157600080fd5b806395d89b41116100bd57806395d89b41146102a85780639e7f43ca146102b0578063b516af70146102c357600080fd5b80638456cb59146102755780638da5cb5b1461027d5780639137c1a71461029557600080fd5b80634e71e0c81161014557806370a082311161011f57806370a0823114610247578063715018a61461025a578063774d54091461026257600080fd5b80634e71e0c8146102155780635c975abb1461021d57806369569a511461023457600080fd5b8063313ce56711610176578063313ce567146101f15780633408f73a146101fa5780633f4ba83a1461020b57600080fd5b80623074ff1461019c57806306fdde03146101c657806318160ddd146101db575b600080fd5b6003546001600160a01b03165b6040516001600160a01b0390911681526020015b60405180910390f35b6101ce61033d565b6040516101bd919061120f565b6101e36103cb565b6040519081526020016101bd565b6101e360065481565b6002546001600160a01b03166101a9565b610213610457565b005b61021361047d565b60005460ff165b60405190151581526020016101bd565b610213610242366004611280565b610523565b6101e3610255366004611280565b6105a8565b610213610636565b61022461027036600461129b565b6106ac565b61021361083e565b6000546101a99061010090046001600160a01b031681565b6102136102a3366004611280565b610862565b6101ce6108e7565b6102246102be3660046112d7565b6108f4565b610213610a81565b6101e36102d9366004611372565b610b07565b6102246102ec36600461129b565b610bba565b6001546101a9906001600160a01b031681565b6102246103123660046113a5565b610d0a565b610213610325366004611280565b610ea8565b610213610338366004611280565b610f3f565b6004805461034a906113f0565b80601f0160208091040260200160405190810160405280929190818152602001828054610376906113f0565b80156103c35780601f10610398576101008083540402835291602001916103c3565b820191906000526020600020905b8154815290600101906020018083116103a657829003601f168201915b505050505081565b600254604080517f6c9c2faf00000000000000000000000000000000000000000000000000000000815290516000926001600160a01b031691636c9c2faf9160048083019260209291908290030181865afa15801561042e573d6000803e3d6000fd5b505050506040513d601f19601f820116820180604052508101906104529190611444565b905090565b60005461010090046001600160a01b0316331461047357600080fd5b61047b610f8a565b565b6001546001600160a01b0316331461049457600080fd5b600154600080546040516001600160a01b0393841693610100909204909116917f8be0079c531659141344cd1fd0a4f28419497f9722a3daafe3b4186f6b6457e091a3600180546000805474ffffffffffffffffffffffffffffffffffffffff0019166101006001600160a01b0384160217905573ffffffffffffffffffffffffffffffffffffffff19169055565b60005461010090046001600160a01b0316331461053f57600080fd5b6003546040516001600160a01b038084169216907fcb01f884fc4203d4c1643cb0e126faeb397682c122ca8c0433776d42cdc0060a90600090a36003805473ffffffffffffffffffffffffffffffffffffffff19166001600160a01b0392909216919091179055565b6002546040517ff8b2cb4f0000000000000000000000000000000000000000000000000000000081526001600160a01b038381166004830152600092169063f8b2cb4f90602401602060405180830381865afa15801561060c573d6000803e3d6000fd5b505050506040513d601f19601f820116820180604052508101906106309190611444565b92915050565b60005461010090046001600160a01b0316331461065257600080fd5b600080546040516101009091046001600160a01b0316917ff8df31144d9c2f0f6b59d69b8b98abd5459d07f2742c4df920b25aae33c6482091a26000805474ffffffffffffffffffffffffffffffffffffffff0019169055565b600083336001600160a01b03821614806106d057506003546001600160a01b031633145b61073e5760405162461bcd60e51b815260206004820152603460248201527f6569746865722063616c6c6572206d7573742062652073656e646572206f722060448201527318d85b1b1a5b99c81d9a5848199c9bdb9d195b9960621b60648201526084015b60405180910390fd5b60005460ff16156107845760405162461bcd60e51b815260206004820152601060248201526f14185d5cd8589b194e881c185d5cd95960821b6044820152606401610735565b6002546040517f365feff10000000000000000000000000000000000000000000000000000000081526001600160a01b039182166004820152868216602482015290851660448201526064810184905273__ERC20Lib______________________________9063365feff1906084015b602060405180830381865af4158015610811573d6000803e3d6000fd5b505050506040513d601f19601f82011682018060405250810190610835919061145d565b95945050505050565b60005461010090046001600160a01b0316331461085a57600080fd5b61047b611026565b60005461010090046001600160a01b0316331461087e57600080fd5b6002546040516001600160a01b038084169216907fdaaa9d417a3107fd3d9db02eba3eeafbae2b8af16ee08c534f5bc449054c1c4c90600090a36002805473ffffffffffffffffffffffffffffffffffffffff19166001600160a01b0392909216919091179055565b6005805461034a906113f0565b600085336001600160a01b038216148061091857506003546001600160a01b031633145b6109815760405162461bcd60e51b815260206004820152603460248201527f6569746865722063616c6c6572206d7573742062652073656e646572206f722060448201527318d85b1b1a5b99c81d9a5848199c9bdb9d195b9960621b6064820152608401610735565b60005460ff16156109c75760405162461bcd60e51b815260206004820152601060248201526f14185d5cd8589b194e881c185d5cd95960821b6044820152606401610735565b6109d0866110a1565b6002546040517f1eb8bccb00000000000000000000000000000000000000000000000000000000815273__ERC677Lib_____________________________91631eb8bccb91610a35916001600160a01b0316908b908b908b908b908b9060040161147f565b602060405180830381865af4158015610a52573d6000803e3d6000fd5b505050506040513d601f19601f82011682018060405250810190610a76919061145d565b979650505050505050565b60005461010090046001600160a01b03163314610a9d57600080fd5b600260009054906101000a90046001600160a01b03166001600160a01b0316634e71e0c86040518163ffffffff1660e01b8152600401600060405180830381600087803b158015610aed57600080fd5b505af1158015610b01573d6000803e3d6000fd5b50505050565b6002546040517f1045d7ce0000000000000000000000000000000000000000000000000000000081526001600160a01b0391821660048201528382166024820152908216604482015260009073__ERC20Lib______________________________90631045d7ce90606401602060405180830381865af4158015610b8f573d6000803e3d6000fd5b505050506040513d601f19601f82011682018060405250810190610bb39190611444565b9392505050565b600083336001600160a01b0382161480610bde57506003546001600160a01b031633145b610c475760405162461bcd60e51b815260206004820152603460248201527f6569746865722063616c6c6572206d7573742062652073656e646572206f722060448201527318d85b1b1a5b99c81d9a5848199c9bdb9d195b9960621b6064820152608401610735565b60005460ff1615610c8d5760405162461bcd60e51b815260206004820152601060248201526f14185d5cd8589b194e881c185d5cd95960821b6044820152606401610735565b610c96846110a1565b6002546040517f44ded8ba0000000000000000000000000000000000000000000000000000000081526001600160a01b039182166004820152868216602482015290851660448201526064810184905273__ERC20Lib______________________________906344ded8ba906084016107f4565b600084336001600160a01b0382161480610d2e57506003546001600160a01b031633145b610d975760405162461bcd60e51b815260206004820152603460248201527f6569746865722063616c6c6572206d7573742062652073656e646572206f722060448201527318d85b1b1a5b99c81d9a5848199c9bdb9d195b9960621b6064820152608401610735565b60005460ff1615610ddd5760405162461bcd60e51b815260206004820152601060248201526f14185d5cd8589b194e881c185d5cd95960821b6044820152606401610735565b610de6846110a1565b6002546040517ff3a0ddf90000000000000000000000000000000000000000000000000000000081526001600160a01b0391821660048201528782166024820152868216604482015290851660648201526084810184905273__ERC20Lib______________________________9063f3a0ddf99060a401602060405180830381865af4158015610e7a573d6000803e3d6000fd5b505050506040513d601f19601f82011682018060405250810190610e9e919061145d565b9695505050505050565b60005461010090046001600160a01b03163314610ec457600080fd5b6002546040517ff2fde38b0000000000000000000000000000000000000000000000000000000081526001600160a01b0383811660048301529091169063f2fde38b90602401600060405180830381600087803b158015610f2457600080fd5b505af1158015610f38573d6000803e3d6000fd5b5050505050565b60005461010090046001600160a01b03163314610f5b57600080fd5b6001805473ffffffffffffffffffffffffffffffffffffffff19166001600160a01b0392909216919091179055565b60005460ff16610fdc5760405162461bcd60e51b815260206004820152601460248201527f5061757361626c653a206e6f74207061757365640000000000000000000000006044820152606401610735565b6000805460ff191690557f5db9ee0a495bf2e6ff9c91a7834c1ba4fdd244a5e8aa4e537bd38aeae4b073aa335b6040516001600160a01b03909116815260200160405180910390a1565b60005460ff161561106c5760405162461bcd60e51b815260206004820152601060248201526f14185d5cd8589b194e881c185d5cd95960821b6044820152606401610735565b6000805460ff191660011790557f62e78cea01bee320cd4e420270b5ea74000d11b0c9f74754ebdbfc544b05a2586110093390565b6001600160a01b0381166110f75760405162461bcd60e51b815260206004820152601460248201527f6d757374206e6f742073656e6420746f203078300000000000000000000000006044820152606401610735565b6001600160a01b0381163014156111505760405162461bcd60e51b815260206004820152601b60248201527f6d757374206e6f742073656e6420746f20636f6e74726f6c6c657200000000006044820152606401610735565b6002546001600160a01b03828116911614156111ae5760405162461bcd60e51b815260206004820152601e60248201527f6d757374206e6f742073656e6420746f20746f6b656e2073746f7261676500006044820152606401610735565b6003546001600160a01b038281169116141561120c5760405162461bcd60e51b815260206004820152601960248201527f6d757374206e6f742073656e6420746f2066726f6e74656e64000000000000006044820152606401610735565b50565b600060208083528351808285015260005b8181101561123c57858101830151858201604001528201611220565b8181111561124e576000604083870101525b50601f01601f1916929092016040019392505050565b80356001600160a01b038116811461127b57600080fd5b919050565b60006020828403121561129257600080fd5b610bb382611264565b6000806000606084860312156112b057600080fd5b6112b984611264565b92506112c760208501611264565b9150604084013590509250925092565b6000806000806000608086880312156112ef57600080fd5b6112f886611264565b945061130660208701611264565b935060408601359250606086013567ffffffffffffffff8082111561132a57600080fd5b818801915088601f83011261133e57600080fd5b81358181111561134d57600080fd5b89602082850101111561135f57600080fd5b9699959850939650602001949392505050565b6000806040838503121561138557600080fd5b61138e83611264565b915061139c60208401611264565b90509250929050565b600080600080608085870312156113bb57600080fd5b6113c485611264565b93506113d260208601611264565b92506113e060408601611264565b9396929550929360600135925050565b600181811c9082168061140457607f821691505b6020821081141561143e577f4e487b7100000000000000000000000000000000000000000000000000000000600052602260045260246000fd5b50919050565b60006020828403121561145657600080fd5b5051919050565b60006020828403121561146f57600080fd5b81518015158114610bb357600080fd5b60006001600160a01b038089168352808816602084015280871660408401525084606083015260a060808301528260a0830152828460c0840137600060c0848401015260c0601f19601f850116830101905097965050505050505056fea2646970667358221220d4bb68ab09eab4c0b5543818147af73e65dfe312e317397398230074228d44d964736f6c634300080b0033608060405234801561001057600080fd5b50600080546001600160a01b03191633179055341561002e57600080fd5b610b1f8061003d6000396000f3fe608060405234801561001057600080fd5b50600436106100ec5760003560e01c80638da5cb5b11610091578063cf8eeb7e11610063578063cf8eeb7e146101be578063e30c3978146101d1578063f2fde38b146101e4578063f8b2cb4f146101f757005b80638da5cb5b146101655780639f727c2714610190578063c0ee0b8a14610198578063c7c7e9ea146101ab57005b806333dd1b8a116100ca57806333dd1b8a146101275780634e71e0c81461013a5780636c9c2faf14610142578063715018a61461015d57005b806317ffc320146100ee57806321e5383a146101015780632aed7f3f14610114575b005b6100ec6100fc366004610962565b61020a565b6100ec61010f36600461097f565b6102c6565b6100ec610122366004610962565b610374565b6100ec6101353660046109ab565b610400565b6100ec6104b6565b61014a61053e565b6040519081526020015b60405180910390f35b6100ec6105d3565b600054610178906001600160a01b031681565b6040516001600160a01b039091168152602001610154565b6100ec61063f565b6100ec6101a63660046109ec565b600080fd5b61014a6101b9366004610a75565b610693565b6100ec6101cc36600461097f565b610741565b600154610178906001600160a01b031681565b6100ec6101f2366004610962565b6107bf565b61014a610205366004610962565b6107c8565b6000546001600160a01b0316331461022157600080fd5b6040517f70a082310000000000000000000000000000000000000000000000000000000081523060048201526000906001600160a01b038316906370a0823190602401602060405180830381865afa158015610281573d6000803e3d6000fd5b505050506040513d601f19601f820116820180604052508101906102a59190610aae565b6000549091506102c2906001600160a01b0384811691168361086d565b5050565b6000546001600160a01b031633146102dd57600080fd5b6040517f7aeb0ed5000000000000000000000000000000000000000000000000000000008152600260048201526001600160a01b03831660248201526044810182905273__TokenStorageLib_______________________90637aeb0ed5906064015b60006040518083038186803b15801561035857600080fd5b505af415801561036c573d6000803e3d6000fd5b505050505050565b6000546001600160a01b0316331461038b57600080fd5b6000546040517ff2fde38b0000000000000000000000000000000000000000000000000000000081526001600160a01b039182166004820152829182169063f2fde38b90602401600060405180830381600087803b1580156103ec57600080fd5b505af115801561036c573d6000803e3d6000fd5b6000546001600160a01b0316331461041757600080fd5b6040517f5599b4b7000000000000000000000000000000000000000000000000000000008152600260048201526001600160a01b038085166024830152831660448201526064810182905273__TokenStorageLib_______________________90635599b4b79060840160006040518083038186803b15801561049957600080fd5b505af41580156104ad573d6000803e3d6000fd5b50505050505050565b6001546001600160a01b031633146104cd57600080fd5b600154600080546040516001600160a01b0393841693909116917f8be0079c531659141344cd1fd0a4f28419497f9722a3daafe3b4186f6b6457e091a3600180546000805473ffffffffffffffffffffffffffffffffffffffff199081166001600160a01b03841617909155169055565b6040517f072f9a500000000000000000000000000000000000000000000000000000000081526002600482015260009073__TokenStorageLib_______________________9063072f9a5090602401602060405180830381865af41580156105aa573d6000803e3d6000fd5b505050506040513d601f19601f820116820180604052508101906105ce9190610aae565b905090565b6000546001600160a01b031633146105ea57600080fd5b600080546040516001600160a01b03909116917ff8df31144d9c2f0f6b59d69b8b98abd5459d07f2742c4df920b25aae33c6482091a26000805473ffffffffffffffffffffffffffffffffffffffff19169055565b6000546001600160a01b0316331461065657600080fd5b600080546040516001600160a01b03909116914780156108fc02929091818181858888f19350505050158015610690573d6000803e3d6000fd5b50565b6040517f9daeae1e000000000000000000000000000000000000000000000000000000008152600260048201526001600160a01b0380841660248301528216604482015260009073__TokenStorageLib_______________________90639daeae1e90606401602060405180830381865af4158015610716573d6000803e3d6000fd5b505050506040513d601f19601f8201168201806040525081019061073a9190610aae565b9392505050565b6000546001600160a01b0316331461075857600080fd5b6040517fd9c7339e000000000000000000000000000000000000000000000000000000008152600260048201526001600160a01b03831660248201526044810182905273__TokenStorageLib_______________________9063d9c7339e90606401610340565b61069081610907565b6040517fb0aacf24000000000000000000000000000000000000000000000000000000008152600260048201526001600160a01b038216602482015260009073__TokenStorageLib_______________________9063b0aacf2490604401602060405180830381865af4158015610843573d6000803e3d6000fd5b505050506040513d601f19601f820116820180604052508101906108679190610aae565b92915050565b6040517fa9059cbb0000000000000000000000000000000000000000000000000000000081526001600160a01b0383811660048301526024820183905284169063a9059cbb906044016020604051808303816000875af11580156108d5573d6000803e3d6000fd5b505050506040513d601f19601f820116820180604052508101906108f99190610ac7565b61090257600080fd5b505050565b6000546001600160a01b0316331461091e57600080fd5b6001805473ffffffffffffffffffffffffffffffffffffffff19166001600160a01b0392909216919091179055565b6001600160a01b038116811461069057600080fd5b60006020828403121561097457600080fd5b813561073a8161094d565b6000806040838503121561099257600080fd5b823561099d8161094d565b946020939093013593505050565b6000806000606084860312156109c057600080fd5b83356109cb8161094d565b925060208401356109db8161094d565b929592945050506040919091013590565b60008060008060608587031215610a0257600080fd5b8435610a0d8161094d565b935060208501359250604085013567ffffffffffffffff80821115610a3157600080fd5b818701915087601f830112610a4557600080fd5b813581811115610a5457600080fd5b886020828501011115610a6657600080fd5b95989497505060200194505050565b60008060408385031215610a8857600080fd5b8235610a938161094d565b91506020830135610aa38161094d565b809150509250929050565b600060208284031215610ac057600080fd5b5051919050565b600060208284031215610ad957600080fd5b8151801515811461073a57600080fdfea26469706673582212209e40aaf5b41be4995f33ddcd91a2944662e87dc17bc96c3d2c61b64bf8f1a1e764736f6c634300080b0033",
  "immutableReferences": {},
  "source": "/* SPDX-License-Identifier: apache-2.0 */\n/**\n * Copyright 2019 Monerium ehf.\n *\n * Licensed under the Apache License, Version 2.0 (the \"License\");\n * you may not use this file except in compliance with the License.\n * You may obtain a copy of the License at\n *\n *     http://www.apache.org/licenses/LICENSE-2.0\n *\n * Unless required by applicable law or agreed to in writing, software\n * distributed under the License is distributed on an \"AS IS\" BASIS,\n * WITHOUT WARRANTIES OR CONDITIONS OF ANY KIND, either express or implied.\n * See the License for the specific language governing permissions and\n * limitations under the License.\n */\n\npragma solidity 0.8.11;\n\nimport \"./ownership/Claimable.sol\";\nimport \"@openzeppelin/contracts/security/Pausable.sol\";\n\nimport \"./TokenStorage.sol\";\nimport \"./IERC20.sol\";\nimport \"./ERC20Lib.sol\";\nimport \"./ERC677Lib.sol\";\n\n/**\n * @title StandardController\n * @dev This is the base contract which delegates token methods [ERC20 and ERC677]\n * to their respective library implementations.\n * The controller is primarily intended to be interacted with via a token frontend.\n */\ncontract StandardController is Pausable, Claimable {\n\n  using ERC20Lib for TokenStorage;\n  using ERC677Lib for TokenStorage;\n\n  TokenStorage internal token;\n  address internal frontend;\n\n  string public name;\n  string public symbol;\n  uint public decimals = 18;\n\n  /**\n   * @dev Emitted when updating the frontend.\n   * @param old Address of the old frontend.\n   * @param current Address of the new frontend.\n   */\n  event Frontend(address indexed old, address indexed current);\n\n  /**\n   * @dev Emitted when updating the storage.\n   * @param old Address of the old storage.\n   * @param current Address of the new storage.\n   */\n  event Storage(address indexed old, address indexed current);\n\n  /**\n   * @dev Modifier which prevents the function from being called by unauthorized parties.\n   * The caller must either be the sender or the function must be\n   * called via the frontend, otherwise the call is reverted.\n   * @param caller The address of the passed-in caller. Used to preserve the original caller.\n   */\n  modifier guarded(address caller) {\n    require(\n            msg.sender == caller || msg.sender == frontend,\n            \"either caller must be sender or calling via frontend\"\n            );\n    _;\n  }\n\n  /**\n   * @dev Contract constructor.\n   * @param storage_ Address of the token storage for the controller.\n   * @param initialSupply The amount of tokens to mint upon creation.\n   * @param frontend_ Address of the authorized frontend.\n   */\n  constructor(address storage_, uint initialSupply, address frontend_) {\n    require(\n            storage_ == address(0x0) || initialSupply == 0,\n            \"either a token storage must be initialized or no initial supply\"\n            );\n    if (storage_ == address(0x0)) {\n      token = new TokenStorage();\n      token.addBalance(msg.sender, initialSupply);\n    } else {\n      token = TokenStorage(storage_);\n    }\n    frontend = frontend_;\n  }\n\n  /**\n   * @dev Prevents tokens to be sent to well known blackholes by throwing on known blackholes.\n   * @param to The address of the intended recipient.\n   */\n  function avoidBlackholes(address to) internal view {\n    require(to != address(0x0), \"must not send to 0x0\");\n    require(to != address(this), \"must not send to controller\");\n    require(to != address(token), \"must not send to token storage\");\n    require(to != frontend, \"must not send to frontend\");\n  }\n\n  /**\n   * @dev Returns the current frontend.\n   * @return Address of the frontend.\n   */\n  function getFrontend() external view returns (address) {\n    return frontend;\n  }\n\n  /**\n   * @dev Returns the current storage.\n   * @return Address of the storage.\n   */\n  function getStorage() external view returns (address) {\n    return address(token);\n  }\n\n  /**\n   * @dev Sets a new frontend.\n   * @param frontend_ Address of the new frontend.\n   */\n  function setFrontend(address frontend_) public onlyOwner {\n    emit Frontend(frontend, frontend_);\n    frontend = frontend_;\n  }\n\n  /**\n   * @dev Sets a new storage.\n   * @param storage_ Address of the new storage.\n   */\n  function setStorage(address storage_) external onlyOwner {\n    emit Storage(address(token), storage_);\n    token = TokenStorage(storage_);\n  }\n\n  /**\n   * @dev Transfers the ownership of the storage.\n   * @param newOwner Address of the new storage owner.\n   */\n  function transferStorageOwnership(address newOwner) public onlyOwner {\n    token.transferOwnership(newOwner);\n  }\n\n  /**\n   * @dev Claims the ownership of the storage.\n   */\n  function claimStorageOwnership() public onlyOwner {\n    token.claimOwnership();\n  }\n\n  /**\n   * @dev Transfers tokens [ERC20].\n   * @param caller Address of the caller passed through the frontend.\n   * @param to Recipient address.\n   * @param amount Number of tokens to transfer.\n   */\n  function transfer_withCaller(address caller, address to, uint amount)\n    public\n    virtual\n    guarded(caller)\n    whenNotPaused\n    returns (bool ok)\n  {\n    avoidBlackholes(to);\n    return token.transfer(caller, to, amount);\n  }\n\n  /**\n   * @dev Transfers tokens from a specific address [ERC20].\n   * The address owner has to approve the spender beforehand.\n   * @param caller Address of the caller passed through the frontend.\n   * @param from Address to debet the tokens from.\n   * @param to Recipient address.\n   * @param amount Number of tokens to transfer.\n   */\n  function transferFrom_withCaller(address caller, address from, address to, uint amount)\n    public\n    virtual\n    guarded(caller)\n    whenNotPaused\n    returns (bool ok)\n  {\n    avoidBlackholes(to);\n    return token.transferFrom(caller, from, to, amount);\n  }\n\n  /**\n   * @dev Approves a spender [ERC20].\n   * Note that using the approve/transferFrom presents a possible\n   * security vulnerability described in:\n   * https://docs.google.com/document/d/1YLPtQxZu1UAvO9cZ1O2RPXBbT0mooh4DYKjA_jp-RLM/edit#heading=h.quou09mcbpzw\n   * Use transferAndCall to mitigate.\n   * @param caller Address of the caller passed through the frontend.\n   * @param spender The address of the future spender.\n   * @param amount The allowance of the spender.\n   */\n  function approve_withCaller(address caller, address spender, uint amount)\n    public\n    guarded(caller)\n    whenNotPaused\n    returns (bool ok)\n  {\n    return token.approve(caller, spender, amount);\n  }\n\n  /**\n   * @dev Transfers tokens and subsequently calls a method on the recipient [ERC677].\n   * If the recipient is a non-contract address this method behaves just like transfer.\n   * @param caller Address of the caller passed through the frontend.\n   * @param to Recipient address.\n   * @param amount Number of tokens to transfer.\n   * @param data Additional data passed to the recipient's tokenFallback method.\n   */\n  function transferAndCall_withCaller(\n                                      address caller,\n                                      address to,\n                                      uint256 amount,\n                                      bytes calldata data\n                                      )\n    public\n    virtual\n    guarded(caller)\n    whenNotPaused\n    returns (bool ok)\n  {\n    avoidBlackholes(to);\n    return token.transferAndCall(caller, to, amount, data);\n  }\n\n  /**\n   * @dev Returns the total supply.\n   * @return Number of tokens.\n   */\n  function totalSupply() external view returns (uint) {\n    return token.getSupply();\n  }\n\n  /**\n   * @dev Returns the number tokens associated with an address.\n   * @param who Address to lookup.\n   * @return Balance of address.\n   */\n  function balanceOf(address who) external view returns (uint) {\n    return token.getBalance(who);\n  }\n\n  /**\n   * @dev Returns the allowance for a spender\n   * @param owner The address of the owner of the tokens.\n   * @param spender The address of the spender.\n   * @return Number of tokens the spender is allowed to spend.\n   */\n  function allowance(address owner, address spender) external view returns (uint) {\n    return token.allowance(owner, spender);\n  }\n\n  /**\n   * @dev Pause the function protected by Pausable modifier.\n   */\n  function pause() public onlyOwner\n  {\n    _pause();\n  }\n\n  /**\n   * @dev Unpause the function protected by Pausable modifier.\n   */\n  function unpause() public onlyOwner\n  {\n    _unpause();\n  }\n}\n",
  "sourcePath": "/Users/kristen/work/monerium/smart-contracts-private/contracts/StandardController.sol",
  "compiler": {
    "name": "solc",
    "version": "0.8.11+commit.d7f03943.Emscripten.clang"
  },
  "schemaVersion": "3.4.4",
  "updatedAt": "2022-04-28T12:24:14.157Z",
  "networkType": "ethereum",
  "devdoc": {
    "details": "This is the base contract which delegates token methods [ERC20 and ERC677] to their respective library implementations. The controller is primarily intended to be interacted with via a token frontend.",
    "events": {
      "Frontend(address,address)": {
        "details": "Emitted when updating the frontend.",
        "params": {
          "current": "Address of the new frontend.",
          "old": "Address of the old frontend."
        }
      },
      "Storage(address,address)": {
        "details": "Emitted when updating the storage.",
        "params": {
          "current": "Address of the new storage.",
          "old": "Address of the old storage."
        }
      }
    },
    "kind": "dev",
    "methods": {
      "allowance(address,address)": {
        "details": "Returns the allowance for a spender",
        "params": {
          "owner": "The address of the owner of the tokens.",
          "spender": "The address of the spender."
        },
        "returns": {
          "_0": "Number of tokens the spender is allowed to spend."
        }
      },
      "approve_withCaller(address,address,uint256)": {
        "details": "Approves a spender [ERC20]. Note that using the approve/transferFrom presents a possible security vulnerability described in: https://docs.google.com/document/d/1YLPtQxZu1UAvO9cZ1O2RPXBbT0mooh4DYKjA_jp-RLM/edit#heading=h.quou09mcbpzw Use transferAndCall to mitigate.",
        "params": {
          "amount": "The allowance of the spender.",
          "caller": "Address of the caller passed through the frontend.",
          "spender": "The address of the future spender."
        }
      },
      "balanceOf(address)": {
        "details": "Returns the number tokens associated with an address.",
        "params": {
          "who": "Address to lookup."
        },
        "returns": {
          "_0": "Balance of address."
        }
      },
      "claimOwnership()": {
        "details": "Allows the pendingOwner address to finalize the transfer."
      },
      "claimStorageOwnership()": {
        "details": "Claims the ownership of the storage."
      },
      "constructor": {
        "details": "Contract constructor.",
        "params": {
          "frontend_": "Address of the authorized frontend.",
          "initialSupply": "The amount of tokens to mint upon creation.",
          "storage_": "Address of the token storage for the controller."
        }
      },
      "getFrontend()": {
        "details": "Returns the current frontend.",
        "returns": {
          "_0": "Address of the frontend."
        }
      },
      "getStorage()": {
        "details": "Returns the current storage.",
        "returns": {
          "_0": "Address of the storage."
        }
      },
      "pause()": {
        "details": "Pause the function protected by Pausable modifier."
      },
      "paused()": {
        "details": "Returns true if the contract is paused, and false otherwise."
      },
      "renounceOwnership()": {
        "details": "Allows the current owner to relinquish control of the contract."
      },
      "setFrontend(address)": {
        "details": "Sets a new frontend.",
        "params": {
          "frontend_": "Address of the new frontend."
        }
      },
      "setStorage(address)": {
        "details": "Sets a new storage.",
        "params": {
          "storage_": "Address of the new storage."
        }
      },
      "totalSupply()": {
        "details": "Returns the total supply.",
        "returns": {
          "_0": "Number of tokens."
        }
      },
      "transferAndCall_withCaller(address,address,uint256,bytes)": {
        "details": "Transfers tokens and subsequently calls a method on the recipient [ERC677]. If the recipient is a non-contract address this method behaves just like transfer.",
        "params": {
          "amount": "Number of tokens to transfer.",
          "caller": "Address of the caller passed through the frontend.",
          "data": "Additional data passed to the recipient's tokenFallback method.",
          "to": "Recipient address."
        }
      },
      "transferFrom_withCaller(address,address,address,uint256)": {
        "details": "Transfers tokens from a specific address [ERC20]. The address owner has to approve the spender beforehand.",
        "params": {
          "amount": "Number of tokens to transfer.",
          "caller": "Address of the caller passed through the frontend.",
          "from": "Address to debet the tokens from.",
          "to": "Recipient address."
        }
      },
      "transferOwnership(address)": {
        "details": "Allows the current owner to set the pendingOwner address.",
        "params": {
          "newOwner": "The address to transfer ownership to."
        }
      },
      "transferStorageOwnership(address)": {
        "details": "Transfers the ownership of the storage.",
        "params": {
          "newOwner": "Address of the new storage owner."
        }
      },
      "transfer_withCaller(address,address,uint256)": {
        "details": "Transfers tokens [ERC20].",
        "params": {
          "amount": "Number of tokens to transfer.",
          "caller": "Address of the caller passed through the frontend.",
          "to": "Recipient address."
        }
      },
      "unpause()": {
        "details": "Unpause the function protected by Pausable modifier."
      }
    },
    "title": "StandardController",
    "version": 1
  },
  "userdoc": {
    "kind": "user",
    "methods": {
      "renounceOwnership()": {
        "notice": "Renouncing to ownership will leave the contract without an owner. It will not be possible to call the functions with the `onlyOwner` modifier anymore."
      }
    },
    "version": 1
  }
}