{
  "contractName": "StandardController",
  "abi": [
    {
      "inputs": [
        {
          "internalType": "address",
          "name": "storage_",
          "type": "address"
        },
        {
          "internalType": "uint256",
          "name": "initialSupply",
          "type": "uint256"
        },
        {
          "internalType": "address",
          "name": "frontend_",
          "type": "address"
        }
      ],
      "stateMutability": "nonpayable",
      "type": "constructor"
    },
    {
      "anonymous": false,
      "inputs": [
        {
          "indexed": true,
          "internalType": "address",
          "name": "frontend",
          "type": "address"
        },
        {
          "indexed": true,
          "internalType": "string",
          "name": "title",
          "type": "string"
        }
      ],
      "name": "BridgeFrontend",
      "type": "event"
    },
    {
      "anonymous": false,
      "inputs": [
        {
          "indexed": true,
          "internalType": "address",
          "name": "old",
          "type": "address"
        },
        {
          "indexed": true,
          "internalType": "address",
          "name": "current",
          "type": "address"
        }
      ],
      "name": "Frontend",
      "type": "event"
    },
    {
      "anonymous": false,
      "inputs": [
        {
          "indexed": true,
          "internalType": "address",
          "name": "previousOwner",
          "type": "address"
        }
      ],
      "name": "OwnershipRenounced",
      "type": "event"
    },
    {
      "anonymous": false,
      "inputs": [
        {
          "indexed": true,
          "internalType": "address",
          "name": "previousOwner",
          "type": "address"
        },
        {
          "indexed": true,
          "internalType": "address",
          "name": "newOwner",
          "type": "address"
        }
      ],
      "name": "OwnershipTransferred",
      "type": "event"
    },
    {
      "anonymous": false,
      "inputs": [
        {
          "indexed": false,
          "internalType": "address",
          "name": "account",
          "type": "address"
        }
      ],
      "name": "Paused",
      "type": "event"
    },
    {
      "anonymous": false,
      "inputs": [
        {
          "indexed": true,
          "internalType": "address",
          "name": "old",
          "type": "address"
        },
        {
          "indexed": true,
          "internalType": "address",
          "name": "current",
          "type": "address"
        }
      ],
      "name": "Storage",
      "type": "event"
    },
    {
      "anonymous": false,
      "inputs": [
        {
          "indexed": false,
          "internalType": "address",
          "name": "account",
          "type": "address"
        }
      ],
      "name": "Unpaused",
      "type": "event"
    },
    {
      "inputs": [],
      "name": "claimOwnership",
      "outputs": [],
      "stateMutability": "nonpayable",
      "type": "function"
    },
    {
      "inputs": [],
      "name": "decimals",
      "outputs": [
        {
          "internalType": "uint256",
          "name": "",
          "type": "uint256"
        }
      ],
      "stateMutability": "view",
      "type": "function"
    },
    {
      "inputs": [],
      "name": "name",
      "outputs": [
        {
          "internalType": "string",
          "name": "",
          "type": "string"
        }
      ],
      "stateMutability": "view",
      "type": "function"
    },
    {
      "inputs": [],
      "name": "owner",
      "outputs": [
        {
          "internalType": "address",
          "name": "",
          "type": "address"
        }
      ],
      "stateMutability": "view",
      "type": "function"
    },
    {
      "inputs": [],
      "name": "paused",
      "outputs": [
        {
          "internalType": "bool",
          "name": "",
          "type": "bool"
        }
      ],
      "stateMutability": "view",
      "type": "function"
    },
    {
      "inputs": [],
      "name": "pendingOwner",
      "outputs": [
        {
          "internalType": "address",
          "name": "",
          "type": "address"
        }
      ],
      "stateMutability": "view",
      "type": "function"
    },
    {
      "inputs": [],
      "name": "renounceOwnership",
      "outputs": [],
      "stateMutability": "nonpayable",
      "type": "function"
    },
    {
      "inputs": [],
      "name": "symbol",
      "outputs": [
        {
          "internalType": "string",
          "name": "",
          "type": "string"
        }
      ],
      "stateMutability": "view",
      "type": "function"
    },
    {
      "inputs": [
        {
          "internalType": "address",
          "name": "newOwner",
          "type": "address"
        }
      ],
      "name": "transferOwnership",
      "outputs": [],
      "stateMutability": "nonpayable",
      "type": "function"
    },
    {
      "inputs": [],
      "name": "getFrontend",
      "outputs": [
        {
          "internalType": "address",
          "name": "",
          "type": "address"
        }
      ],
      "stateMutability": "view",
      "type": "function"
    },
    {
      "inputs": [],
      "name": "getStorage",
      "outputs": [
        {
          "internalType": "address",
          "name": "",
          "type": "address"
        }
      ],
      "stateMutability": "view",
      "type": "function"
    },
    {
      "inputs": [
        {
          "internalType": "address",
          "name": "frontend_",
          "type": "address"
        }
      ],
      "name": "setFrontend",
      "outputs": [],
      "stateMutability": "nonpayable",
      "type": "function"
    },
    {
      "inputs": [
        {
          "internalType": "address",
          "name": "frontend_",
          "type": "address"
        },
        {
          "internalType": "string",
          "name": "title",
          "type": "string"
        }
      ],
      "name": "setBridgeFrontend",
      "outputs": [],
      "stateMutability": "nonpayable",
      "type": "function"
    },
    {
      "inputs": [
        {
          "internalType": "address",
          "name": "frontend_",
          "type": "address"
        }
      ],
      "name": "isFrontend",
      "outputs": [
        {
          "internalType": "bool",
          "name": "",
          "type": "bool"
        }
      ],
      "stateMutability": "view",
      "type": "function"
    },
    {
      "inputs": [
        {
          "internalType": "address",
          "name": "storage_",
          "type": "address"
        }
      ],
      "name": "setStorage",
      "outputs": [],
      "stateMutability": "nonpayable",
      "type": "function"
    },
    {
      "inputs": [
        {
          "internalType": "address",
          "name": "newOwner",
          "type": "address"
        }
      ],
      "name": "transferStorageOwnership",
      "outputs": [],
      "stateMutability": "nonpayable",
      "type": "function"
    },
    {
      "inputs": [],
      "name": "claimStorageOwnership",
      "outputs": [],
      "stateMutability": "nonpayable",
      "type": "function"
    },
    {
      "inputs": [
        {
          "internalType": "address",
          "name": "caller",
          "type": "address"
        },
        {
          "internalType": "address",
          "name": "to",
          "type": "address"
        },
        {
          "internalType": "uint256",
          "name": "amount",
          "type": "uint256"
        }
      ],
      "name": "transfer_withCaller",
      "outputs": [
        {
          "internalType": "bool",
          "name": "ok",
          "type": "bool"
        }
      ],
      "stateMutability": "nonpayable",
      "type": "function"
    },
    {
      "inputs": [
        {
          "internalType": "address",
          "name": "caller",
          "type": "address"
        },
        {
          "internalType": "address",
          "name": "from",
          "type": "address"
        },
        {
          "internalType": "address",
          "name": "to",
          "type": "address"
        },
        {
          "internalType": "uint256",
          "name": "amount",
          "type": "uint256"
        }
      ],
      "name": "transferFrom_withCaller",
      "outputs": [
        {
          "internalType": "bool",
          "name": "ok",
          "type": "bool"
        }
      ],
      "stateMutability": "nonpayable",
      "type": "function"
    },
    {
      "inputs": [
        {
          "internalType": "address",
          "name": "caller",
          "type": "address"
        },
        {
          "internalType": "address",
          "name": "spender",
          "type": "address"
        },
        {
          "internalType": "uint256",
          "name": "amount",
          "type": "uint256"
        }
      ],
      "name": "approve_withCaller",
      "outputs": [
        {
          "internalType": "bool",
          "name": "ok",
          "type": "bool"
        }
      ],
      "stateMutability": "nonpayable",
      "type": "function"
    },
    {
      "inputs": [
        {
          "internalType": "address",
          "name": "caller",
          "type": "address"
        },
        {
          "internalType": "address",
          "name": "to",
          "type": "address"
        },
        {
          "internalType": "uint256",
          "name": "amount",
          "type": "uint256"
        },
        {
          "internalType": "bytes",
          "name": "data",
          "type": "bytes"
        }
      ],
      "name": "transferAndCall_withCaller",
      "outputs": [
        {
          "internalType": "bool",
          "name": "ok",
          "type": "bool"
        }
      ],
      "stateMutability": "nonpayable",
      "type": "function"
    },
    {
      "inputs": [],
      "name": "totalSupply",
      "outputs": [
        {
          "internalType": "uint256",
          "name": "",
          "type": "uint256"
        }
      ],
      "stateMutability": "view",
      "type": "function"
    },
    {
      "inputs": [
        {
          "internalType": "address",
          "name": "who",
          "type": "address"
        }
      ],
      "name": "balanceOf",
      "outputs": [
        {
          "internalType": "uint256",
          "name": "",
          "type": "uint256"
        }
      ],
      "stateMutability": "view",
      "type": "function"
    },
    {
      "inputs": [
        {
          "internalType": "address",
          "name": "owner",
          "type": "address"
        },
        {
          "internalType": "address",
          "name": "spender",
          "type": "address"
        }
      ],
      "name": "allowance",
      "outputs": [
        {
          "internalType": "uint256",
          "name": "",
          "type": "uint256"
        }
      ],
      "stateMutability": "view",
      "type": "function"
    },
    {
      "inputs": [],
      "name": "pause",
      "outputs": [],
      "stateMutability": "nonpayable",
      "type": "function"
    },
    {
      "inputs": [],
      "name": "unpause",
      "outputs": [],
      "stateMutability": "nonpayable",
      "type": "function"
    }
  ],
  "bytecode": "0x608060405260126007553480156200001657600080fd5b506040516200248338038062002483833981016040819052620000399162000202565b600080546001600160a81b03191661010033021790556001600160a01b038316158062000064575081155b620000db5760405162461bcd60e51b815260206004820152603f60248201527f656974686572206120746f6b656e2073746f72616765206d757374206265206960448201527f6e697469616c697a6564206f72206e6f20696e697469616c20737570706c7900606482015260840160405180910390fd5b6001600160a01b0383166200019257604051620000f890620001d7565b604051809103906000f08015801562000115573d6000803e3d6000fd5b50600280546001600160a01b0319166001600160a01b039290921691821790556040516310f29c1d60e11b8152336004820152602481018490526321e5383a90604401600060405180830381600087803b1580156200017357600080fd5b505af115801562000188573d6000803e3d6000fd5b50505050620001ae565b600280546001600160a01b0319166001600160a01b0385161790555b600380546001600160a01b0319166001600160a01b039290921691909117905550620002439050565b610b5c806200192783390190565b80516001600160a01b0381168114620001fd57600080fd5b919050565b6000806000606084860312156200021857600080fd5b6200022384620001e5565b9250602084015191506200023a60408501620001e5565b90509250925092565b6116d480620002536000396000f3fe608060405234801561001057600080fd5b50600436106101ad5760003560e01c80638456cb59116100ee578063b516af7011610097578063e30c397811610071578063e30c397814610331578063e974fee914610344578063ee0b544514610357578063f2fde38b1461036a57600080fd5b8063b516af7014610303578063dd62ed3e1461030b578063e174fd941461031e57600080fd5b80639137c1a7116100c85780639137c1a7146102d557806395d89b41146102e85780639e7f43ca146102f057600080fd5b80638456cb59146102a25780638da5cb5b146102aa5780638fb81d98146102c257600080fd5b80633f4ba83a1161015b57806369569a511161013557806369569a511461026157806370a0823114610274578063715018a614610287578063774d54091461028f57600080fd5b80633f4ba83a146102445780634e71e0c81461024e5780635c975abb1461025657600080fd5b806325ec2eb01161018c57806325ec2eb014610207578063313ce5671461022a5780633408f73a1461023357600080fd5b80623074ff146101b257806306fdde03146101dc57806318160ddd146101f1575b600080fd5b6003546001600160a01b03165b6040516001600160a01b0390911681526020015b60405180910390f35b6101e461037d565b6040516101d39190611351565b6101f961040b565b6040519081526020016101d3565b61021a6102153660046113c2565b610497565b60405190151581526020016101d3565b6101f960075481565b6002546001600160a01b03166101bf565b61024c6104d4565b005b61024c6104fa565b60005460ff1661021a565b61024c61026f3660046113c2565b6105a0565b6101f96102823660046113c2565b610625565b61024c6106ad565b61021a61029d3660046113dd565b610723565b61024c6108af565b6000546101bf9061010090046001600160a01b031681565b61024c6102d0366004611462565b6108d3565b61024c6102e33660046113c2565b610960565b6101e46109e5565b61021a6102fe3660046114b5565b6109f2565b61024c610b79565b6101f9610319366004611524565b610bff565b61021a61032c3660046113dd565b610cb2565b6001546101bf906001600160a01b031681565b61021a610352366004611557565b610dfc565b61024c6103653660046113c2565b610f94565b61024c6103783660046113c2565b61102b565b6005805461038a906115a2565b80601f01602080910402602001604051908101604052809291908181526020018280546103b6906115a2565b80156104035780601f106103d857610100808354040283529160200191610403565b820191906000526020600020905b8154815290600101906020018083116103e657829003601f168201915b505050505081565b600254604080517f6c9c2faf00000000000000000000000000000000000000000000000000000000815290516000926001600160a01b031691636c9c2faf9160048083019260209291908290030181865afa15801561046e573d6000803e3d6000fd5b505050506040513d601f19601f8201168201806040525081019061049291906115f6565b905090565b6003546000906001600160a01b03838116911614806104ce57506001600160a01b03821660009081526004602052604090205460ff165b92915050565b60005461010090046001600160a01b031633146104f057600080fd5b6104f8611076565b565b6001546001600160a01b0316331461051157600080fd5b600154600080546040516001600160a01b0393841693610100909204909116917f8be0079c531659141344cd1fd0a4f28419497f9722a3daafe3b4186f6b6457e091a3600180546000805474ffffffffffffffffffffffffffffffffffffffff0019166101006001600160a01b0384160217905573ffffffffffffffffffffffffffffffffffffffff19169055565b60005461010090046001600160a01b031633146105bc57600080fd5b6003546040516001600160a01b038084169216907fcb01f884fc4203d4c1643cb0e126faeb397682c122ca8c0433776d42cdc0060a90600090a36003805473ffffffffffffffffffffffffffffffffffffffff19166001600160a01b0392909216919091179055565b6002546040517ff8b2cb4f0000000000000000000000000000000000000000000000000000000081526001600160a01b038381166004830152600092169063f8b2cb4f90602401602060405180830381865afa158015610689573d6000803e3d6000fd5b505050506040513d601f19601f820116820180604052508101906104ce91906115f6565b60005461010090046001600160a01b031633146106c957600080fd5b600080546040516101009091046001600160a01b0316917ff8df31144d9c2f0f6b59d69b8b98abd5459d07f2742c4df920b25aae33c6482091a26000805474ffffffffffffffffffffffffffffffffffffffff0019169055565b600083336001600160a01b0382161480610741575061074133610497565b6107af5760405162461bcd60e51b815260206004820152603460248201527f6569746865722063616c6c6572206d7573742062652073656e646572206f722060448201527318d85b1b1a5b99c81d9a5848199c9bdb9d195b9960621b60648201526084015b60405180910390fd5b60005460ff16156107f55760405162461bcd60e51b815260206004820152601060248201526f14185d5cd8589b194e881c185d5cd95960821b60448201526064016107a6565b6002546040517f365feff10000000000000000000000000000000000000000000000000000000081526001600160a01b039182166004820152868216602482015290851660448201526064810184905273__ERC20Lib______________________________9063365feff1906084015b602060405180830381865af4158015610882573d6000803e3d6000fd5b505050506040513d601f19601f820116820180604052508101906108a6919061160f565b95945050505050565b60005461010090046001600160a01b031633146108cb57600080fd5b6104f8611112565b60005461010090046001600160a01b031633146108ef57600080fd5b81816040516108ff929190611631565b604051908190038120906001600160a01b038516907fec75908259de4d038ff5f2b6b99e3725bc21871f4d2a44adeff9bb814afbc9f790600090a350506001600160a01b03166000908152600460205260409020805460ff19166001179055565b60005461010090046001600160a01b0316331461097c57600080fd5b6002546040516001600160a01b038084169216907fdaaa9d417a3107fd3d9db02eba3eeafbae2b8af16ee08c534f5bc449054c1c4c90600090a36002805473ffffffffffffffffffffffffffffffffffffffff19166001600160a01b0392909216919091179055565b6006805461038a906115a2565b600085336001600160a01b0382161480610a105750610a1033610497565b610a795760405162461bcd60e51b815260206004820152603460248201527f6569746865722063616c6c6572206d7573742062652073656e646572206f722060448201527318d85b1b1a5b99c81d9a5848199c9bdb9d195b9960621b60648201526084016107a6565b60005460ff1615610abf5760405162461bcd60e51b815260206004820152601060248201526f14185d5cd8589b194e881c185d5cd95960821b60448201526064016107a6565b610ac88661118d565b6002546040517f1eb8bccb00000000000000000000000000000000000000000000000000000000815273__ERC677Lib_____________________________91631eb8bccb91610b2d916001600160a01b0316908b908b908b908b908b90600401611641565b602060405180830381865af4158015610b4a573d6000803e3d6000fd5b505050506040513d601f19601f82011682018060405250810190610b6e919061160f565b979650505050505050565b60005461010090046001600160a01b03163314610b9557600080fd5b600260009054906101000a90046001600160a01b03166001600160a01b0316634e71e0c86040518163ffffffff1660e01b8152600401600060405180830381600087803b158015610be557600080fd5b505af1158015610bf9573d6000803e3d6000fd5b50505050565b6002546040517f1045d7ce0000000000000000000000000000000000000000000000000000000081526001600160a01b0391821660048201528382166024820152908216604482015260009073__ERC20Lib______________________________90631045d7ce90606401602060405180830381865af4158015610c87573d6000803e3d6000fd5b505050506040513d601f19601f82011682018060405250810190610cab91906115f6565b9392505050565b600083336001600160a01b0382161480610cd05750610cd033610497565b610d395760405162461bcd60e51b815260206004820152603460248201527f6569746865722063616c6c6572206d7573742062652073656e646572206f722060448201527318d85b1b1a5b99c81d9a5848199c9bdb9d195b9960621b60648201526084016107a6565b60005460ff1615610d7f5760405162461bcd60e51b815260206004820152601060248201526f14185d5cd8589b194e881c185d5cd95960821b60448201526064016107a6565b610d888461118d565b6002546040517f44ded8ba0000000000000000000000000000000000000000000000000000000081526001600160a01b039182166004820152868216602482015290851660448201526064810184905273__ERC20Lib______________________________906344ded8ba90608401610865565b600084336001600160a01b0382161480610e1a5750610e1a33610497565b610e835760405162461bcd60e51b815260206004820152603460248201527f6569746865722063616c6c6572206d7573742062652073656e646572206f722060448201527318d85b1b1a5b99c81d9a5848199c9bdb9d195b9960621b60648201526084016107a6565b60005460ff1615610ec95760405162461bcd60e51b815260206004820152601060248201526f14185d5cd8589b194e881c185d5cd95960821b60448201526064016107a6565b610ed28461118d565b6002546040517ff3a0ddf90000000000000000000000000000000000000000000000000000000081526001600160a01b0391821660048201528782166024820152868216604482015290851660648201526084810184905273__ERC20Lib______________________________9063f3a0ddf99060a401602060405180830381865af4158015610f66573d6000803e3d6000fd5b505050506040513d601f19601f82011682018060405250810190610f8a919061160f565b9695505050505050565b60005461010090046001600160a01b03163314610fb057600080fd5b6002546040517ff2fde38b0000000000000000000000000000000000000000000000000000000081526001600160a01b0383811660048301529091169063f2fde38b90602401600060405180830381600087803b15801561101057600080fd5b505af1158015611024573d6000803e3d6000fd5b5050505050565b60005461010090046001600160a01b0316331461104757600080fd5b6001805473ffffffffffffffffffffffffffffffffffffffff19166001600160a01b0392909216919091179055565b60005460ff166110c85760405162461bcd60e51b815260206004820152601460248201527f5061757361626c653a206e6f742070617573656400000000000000000000000060448201526064016107a6565b6000805460ff191690557f5db9ee0a495bf2e6ff9c91a7834c1ba4fdd244a5e8aa4e537bd38aeae4b073aa335b6040516001600160a01b03909116815260200160405180910390a1565b60005460ff16156111585760405162461bcd60e51b815260206004820152601060248201526f14185d5cd8589b194e881c185d5cd95960821b60448201526064016107a6565b6000805460ff191660011790557f62e78cea01bee320cd4e420270b5ea74000d11b0c9f74754ebdbfc544b05a2586110f53390565b6001600160a01b0381166111e35760405162461bcd60e51b815260206004820152601460248201527f6d757374206e6f742073656e6420746f2030783000000000000000000000000060448201526064016107a6565b6001600160a01b03811630141561123c5760405162461bcd60e51b815260206004820152601b60248201527f6d757374206e6f742073656e6420746f20636f6e74726f6c6c6572000000000060448201526064016107a6565b6002546001600160a01b038281169116141561129a5760405162461bcd60e51b815260206004820152601e60248201527f6d757374206e6f742073656e6420746f20746f6b656e2073746f72616765000060448201526064016107a6565b6003546001600160a01b03828116911614156112f85760405162461bcd60e51b815260206004820152601960248201527f6d757374206e6f742073656e6420746f2066726f6e74656e640000000000000060448201526064016107a6565b61130181610497565b1561134e5760405162461bcd60e51b815260206004820181905260248201527f6d757374206e6f742073656e6420746f2062726964676546726f6e74656e647360448201526064016107a6565b50565b600060208083528351808285015260005b8181101561137e57858101830151858201604001528201611362565b81811115611390576000604083870101525b50601f01601f1916929092016040019392505050565b80356001600160a01b03811681146113bd57600080fd5b919050565b6000602082840312156113d457600080fd5b610cab826113a6565b6000806000606084860312156113f257600080fd5b6113fb846113a6565b9250611409602085016113a6565b9150604084013590509250925092565b60008083601f84011261142b57600080fd5b50813567ffffffffffffffff81111561144357600080fd5b60208301915083602082850101111561145b57600080fd5b9250929050565b60008060006040848603121561147757600080fd5b611480846113a6565b9250602084013567ffffffffffffffff81111561149c57600080fd5b6114a886828701611419565b9497909650939450505050565b6000806000806000608086880312156114cd57600080fd5b6114d6866113a6565b94506114e4602087016113a6565b935060408601359250606086013567ffffffffffffffff81111561150757600080fd5b61151388828901611419565b969995985093965092949392505050565b6000806040838503121561153757600080fd5b611540836113a6565b915061154e602084016113a6565b90509250929050565b6000806000806080858703121561156d57600080fd5b611576856113a6565b9350611584602086016113a6565b9250611592604086016113a6565b9396929550929360600135925050565b600181811c908216806115b657607f821691505b602082108114156115f0577f4e487b7100000000000000000000000000000000000000000000000000000000600052602260045260246000fd5b50919050565b60006020828403121561160857600080fd5b5051919050565b60006020828403121561162157600080fd5b81518015158114610cab57600080fd5b8183823760009101908152919050565b60006001600160a01b038089168352808816602084015280871660408401525084606083015260a060808301528260a0830152828460c0840137600060c0848401015260c0601f19601f850116830101905097965050505050505056fea26469706673582212208c33bf3996ad3f7b91ac9e865cb4141301baaaeae1c0feb77ba408546dda2a8164736f6c634300080b0033608060405234801561001057600080fd5b50600080546001600160a01b03191633179055341561002e57600080fd5b610b1f8061003d6000396000f3fe608060405234801561001057600080fd5b50600436106100ec5760003560e01c80638da5cb5b11610091578063cf8eeb7e11610063578063cf8eeb7e146101be578063e30c3978146101d1578063f2fde38b146101e4578063f8b2cb4f146101f757005b80638da5cb5b146101655780639f727c2714610190578063c0ee0b8a14610198578063c7c7e9ea146101ab57005b806333dd1b8a116100ca57806333dd1b8a146101275780634e71e0c81461013a5780636c9c2faf14610142578063715018a61461015d57005b806317ffc320146100ee57806321e5383a146101015780632aed7f3f14610114575b005b6100ec6100fc366004610962565b61020a565b6100ec61010f36600461097f565b6102c6565b6100ec610122366004610962565b610374565b6100ec6101353660046109ab565b610400565b6100ec6104b6565b61014a61053e565b6040519081526020015b60405180910390f35b6100ec6105d3565b600054610178906001600160a01b031681565b6040516001600160a01b039091168152602001610154565b6100ec61063f565b6100ec6101a63660046109ec565b600080fd5b61014a6101b9366004610a75565b610693565b6100ec6101cc36600461097f565b610741565b600154610178906001600160a01b031681565b6100ec6101f2366004610962565b6107bf565b61014a610205366004610962565b6107c8565b6000546001600160a01b0316331461022157600080fd5b6040517f70a082310000000000000000000000000000000000000000000000000000000081523060048201526000906001600160a01b038316906370a0823190602401602060405180830381865afa158015610281573d6000803e3d6000fd5b505050506040513d601f19601f820116820180604052508101906102a59190610aae565b6000549091506102c2906001600160a01b0384811691168361086d565b5050565b6000546001600160a01b031633146102dd57600080fd5b6040517f7aeb0ed5000000000000000000000000000000000000000000000000000000008152600260048201526001600160a01b03831660248201526044810182905273__TokenStorageLib_______________________90637aeb0ed5906064015b60006040518083038186803b15801561035857600080fd5b505af415801561036c573d6000803e3d6000fd5b505050505050565b6000546001600160a01b0316331461038b57600080fd5b6000546040517ff2fde38b0000000000000000000000000000000000000000000000000000000081526001600160a01b039182166004820152829182169063f2fde38b90602401600060405180830381600087803b1580156103ec57600080fd5b505af115801561036c573d6000803e3d6000fd5b6000546001600160a01b0316331461041757600080fd5b6040517f5599b4b7000000000000000000000000000000000000000000000000000000008152600260048201526001600160a01b038085166024830152831660448201526064810182905273__TokenStorageLib_______________________90635599b4b79060840160006040518083038186803b15801561049957600080fd5b505af41580156104ad573d6000803e3d6000fd5b50505050505050565b6001546001600160a01b031633146104cd57600080fd5b600154600080546040516001600160a01b0393841693909116917f8be0079c531659141344cd1fd0a4f28419497f9722a3daafe3b4186f6b6457e091a3600180546000805473ffffffffffffffffffffffffffffffffffffffff199081166001600160a01b03841617909155169055565b6040517f072f9a500000000000000000000000000000000000000000000000000000000081526002600482015260009073__TokenStorageLib_______________________9063072f9a5090602401602060405180830381865af41580156105aa573d6000803e3d6000fd5b505050506040513d601f19601f820116820180604052508101906105ce9190610aae565b905090565b6000546001600160a01b031633146105ea57600080fd5b600080546040516001600160a01b03909116917ff8df31144d9c2f0f6b59d69b8b98abd5459d07f2742c4df920b25aae33c6482091a26000805473ffffffffffffffffffffffffffffffffffffffff19169055565b6000546001600160a01b0316331461065657600080fd5b600080546040516001600160a01b03909116914780156108fc02929091818181858888f19350505050158015610690573d6000803e3d6000fd5b50565b6040517f9daeae1e000000000000000000000000000000000000000000000000000000008152600260048201526001600160a01b0380841660248301528216604482015260009073__TokenStorageLib_______________________90639daeae1e90606401602060405180830381865af4158015610716573d6000803e3d6000fd5b505050506040513d601f19601f8201168201806040525081019061073a9190610aae565b9392505050565b6000546001600160a01b0316331461075857600080fd5b6040517fd9c7339e000000000000000000000000000000000000000000000000000000008152600260048201526001600160a01b03831660248201526044810182905273__TokenStorageLib_______________________9063d9c7339e90606401610340565b61069081610907565b6040517fb0aacf24000000000000000000000000000000000000000000000000000000008152600260048201526001600160a01b038216602482015260009073__TokenStorageLib_______________________9063b0aacf2490604401602060405180830381865af4158015610843573d6000803e3d6000fd5b505050506040513d601f19601f820116820180604052508101906108679190610aae565b92915050565b6040517fa9059cbb0000000000000000000000000000000000000000000000000000000081526001600160a01b0383811660048301526024820183905284169063a9059cbb906044016020604051808303816000875af11580156108d5573d6000803e3d6000fd5b505050506040513d601f19601f820116820180604052508101906108f99190610ac7565b61090257600080fd5b505050565b6000546001600160a01b0316331461091e57600080fd5b6001805473ffffffffffffffffffffffffffffffffffffffff19166001600160a01b0392909216919091179055565b6001600160a01b038116811461069057600080fd5b60006020828403121561097457600080fd5b813561073a8161094d565b6000806040838503121561099257600080fd5b823561099d8161094d565b946020939093013593505050565b6000806000606084860312156109c057600080fd5b83356109cb8161094d565b925060208401356109db8161094d565b929592945050506040919091013590565b60008060008060608587031215610a0257600080fd5b8435610a0d8161094d565b935060208501359250604085013567ffffffffffffffff80821115610a3157600080fd5b818701915087601f830112610a4557600080fd5b813581811115610a5457600080fd5b886020828501011115610a6657600080fd5b95989497505060200194505050565b60008060408385031215610a8857600080fd5b8235610a938161094d565b91506020830135610aa38161094d565b809150509250929050565b600060208284031215610ac057600080fd5b5051919050565b600060208284031215610ad957600080fd5b8151801515811461073a57600080fdfea2646970667358221220f0093be45eefa3b445c0e69fc35c23602399ad72137343475b219857f044da1564736f6c634300080b0033",
  "immutableReferences": {},
  "source": "/* SPDX-License-Identifier: apache-2.0 */\n/**\n * Copyright 2022 Monerium ehf.\n *\n * Licensed under the Apache License, Version 2.0 (the \"License\");\n * you may not use this file except in compliance with the License.\n * You may obtain a copy of the License at\n *\n *     http://www.apache.org/licenses/LICENSE-2.0\n *\n * Unless required by applicable law or agreed to in writing, software\n * distributed under the License is distributed on an \"AS IS\" BASIS,\n * WITHOUT WARRANTIES OR CONDITIONS OF ANY KIND, either express or implied.\n * See the License for the specific language governing permissions and\n * limitations under the License.\n */\n\npragma solidity 0.8.11;\n\nimport \"./ownership/Claimable.sol\";\nimport \"@openzeppelin/contracts/security/Pausable.sol\";\n\nimport \"./TokenStorage.sol\";\nimport \"./IERC20.sol\";\nimport \"./ERC20Lib.sol\";\nimport \"./ERC677Lib.sol\";\n\n/**\n * @title StandardController\n * @dev This is the base contract which delegates token methods [ERC20 and ERC677]\n * to their respective library implementations.\n * The controller is primarily intended to be interacted with via a token frontend.\n */\ncontract StandardController is Pausable, Claimable {\n\n  using ERC20Lib for TokenStorage;\n  using ERC677Lib for TokenStorage;\n\n  TokenStorage internal token;\n  address internal frontend;\n  mapping(address => bool) internal bridgeFrontends;\n\n  string public name;\n  string public symbol;\n  uint public decimals = 18;\n\n  /**\n   * @dev Emitted when updating the frontend.\n   * @param old Address of the old frontend.\n   * @param current Address of the new frontend.\n   */\n  event Frontend(address indexed old, address indexed current);\n\n  /**\n   * @dev Emitted when updating the Bridge frontend.\n   * @param frontend Address of the new Bridge frontend.\n   * @param title String of the frontend name.\n   */\n  event BridgeFrontend(address indexed frontend, string indexed title);\n\n  /**\n   * @dev Emitted when updating the storage.\n   * @param old Address of the old storage.\n   * @param current Address of the new storage.\n   */\n  event Storage(address indexed old, address indexed current);\n\n  /**\n   * @dev Modifier which prevents the function from being called by unauthorized parties.\n   * The caller must either be the sender or the function must be\n   * called via the frontend, otherwise the call is reverted.\n   * @param caller The address of the passed-in caller. Used to preserve the original caller.\n   */\n  modifier guarded(address caller) {\n    require(\n            msg.sender == caller || isFrontend(msg.sender),\n            \"either caller must be sender or calling via frontend\"\n            );\n    _;\n  }\n\n  /**\n   * @dev Contract constructor.\n   * @param storage_ Address of the token storage for the controller.\n   * @param initialSupply The amount of tokens to mint upon creation.\n   * @param frontend_ Address of the authorized frontend.\n   */\n  constructor(address storage_, uint initialSupply, address frontend_) {\n    require(\n            storage_ == address(0x0) || initialSupply == 0,\n            \"either a token storage must be initialized or no initial supply\"\n            );\n    if (storage_ == address(0x0)) {\n      token = new TokenStorage();\n      token.addBalance(msg.sender, initialSupply);\n    } else {\n      token = TokenStorage(storage_);\n    }\n    frontend = frontend_;\n  }\n\n  /**\n   * @dev Prevents tokens to be sent to well known blackholes by throwing on known blackholes.\n   * @param to The address of the intended recipient.\n   */\n  function avoidBlackholes(address to) internal view {\n    require(to != address(0x0), \"must not send to 0x0\");\n    require(to != address(this), \"must not send to controller\");\n    require(to != address(token), \"must not send to token storage\");\n    require(to != frontend, \"must not send to frontend\");\n    require(isFrontend(to) == false, \"must not send to bridgeFrontends\");\n  }\n\n  /**\n   * @dev Returns the current frontend.\n   * @return Address of the frontend.\n   */\n  function getFrontend() external view returns (address) {\n    return frontend;\n  }\n\n  /**\n   * @dev Returns the current storage.\n   * @return Address of the storage.\n   */\n  function getStorage() external view returns (address) {\n    return address(token);\n  }\n\n  /**\n   * @dev Sets a new frontend.\n   * @param frontend_ Address of the new frontend.\n   */\n  function setFrontend(address frontend_) public onlyOwner {\n    emit Frontend(frontend, frontend_);\n    frontend = frontend_;\n  }\n\n  /**\n   * @dev Set a new bridge frontend.\n   * @param frontend_ Address of the new bridge frontend.\n   * @param title Keccack256 hash of the frontend title.\n   */\n  function setBridgeFrontend(address frontend_, string calldata title) public onlyOwner {\n    emit BridgeFrontend(frontend_, title);\n    bridgeFrontends[frontend_] = true;\n  }\n\n  /**\n   * @dev Checks wether an address is a frontend.\n   * @param frontend_ Address of the frontend candidate.\n   */\n  function isFrontend(address frontend_) public view returns (bool) {\n    return (frontend_ == frontend) || bridgeFrontends[frontend_];\n  }\n\n  /**\n   * @dev Sets a new storage.\n   * @param storage_ Address of the new storage.\n   */\n  function setStorage(address storage_) external onlyOwner {\n    emit Storage(address(token), storage_);\n    token = TokenStorage(storage_);\n  }\n\n  /**\n   * @dev Transfers the ownership of the storage.\n   * @param newOwner Address of the new storage owner.\n   */\n  function transferStorageOwnership(address newOwner) public onlyOwner {\n    token.transferOwnership(newOwner);\n  }\n\n  /**\n   * @dev Claims the ownership of the storage.\n   */\n  function claimStorageOwnership() public onlyOwner {\n    token.claimOwnership();\n  }\n\n  /**\n   * @dev Transfers tokens [ERC20].\n   * @param caller Address of the caller passed through the frontend.\n   * @param to Recipient address.\n   * @param amount Number of tokens to transfer.\n   */\n  function transfer_withCaller(address caller, address to, uint amount)\n    public\n    virtual\n    guarded(caller)\n    whenNotPaused\n    returns (bool ok)\n  {\n    avoidBlackholes(to);\n    return token.transfer(caller, to, amount);\n  }\n\n  /**\n   * @dev Transfers tokens from a specific address [ERC20].\n   * The address owner has to approve the spender beforehand.\n   * @param caller Address of the caller passed through the frontend.\n   * @param from Address to debet the tokens from.\n   * @param to Recipient address.\n   * @param amount Number of tokens to transfer.\n   */\n  function transferFrom_withCaller(address caller, address from, address to, uint amount)\n    public\n    virtual\n    guarded(caller)\n    whenNotPaused\n    returns (bool ok)\n  {\n    avoidBlackholes(to);\n    return token.transferFrom(caller, from, to, amount);\n  }\n\n  /**\n   * @dev Approves a spender [ERC20].\n   * Note that using the approve/transferFrom presents a possible\n   * security vulnerability described in:\n   * https://docs.google.com/document/d/1YLPtQxZu1UAvO9cZ1O2RPXBbT0mooh4DYKjA_jp-RLM/edit#heading=h.quou09mcbpzw\n   * Use transferAndCall to mitigate.\n   * @param caller Address of the caller passed through the frontend.\n   * @param spender The address of the future spender.\n   * @param amount The allowance of the spender.\n   */\n  function approve_withCaller(address caller, address spender, uint amount)\n    public\n    guarded(caller)\n    whenNotPaused\n    returns (bool ok)\n  {\n    return token.approve(caller, spender, amount);\n  }\n\n  /**\n   * @dev Transfers tokens and subsequently calls a method on the recipient [ERC677].\n   * If the recipient is a non-contract address this method behaves just like transfer.\n   * @param caller Address of the caller passed through the frontend.\n   * @param to Recipient address.\n   * @param amount Number of tokens to transfer.\n   * @param data Additional data passed to the recipient's tokenFallback method.\n   */\n  function transferAndCall_withCaller(\n                                      address caller,\n                                      address to,\n                                      uint256 amount,\n                                      bytes calldata data\n                                      )\n    public\n    virtual\n    guarded(caller)\n    whenNotPaused\n    returns (bool ok)\n  {\n    avoidBlackholes(to);\n    return token.transferAndCall(caller, to, amount, data);\n  }\n\n  /**\n   * @dev Returns the total supply.\n   * @return Number of tokens.\n   */\n  function totalSupply() external view returns (uint) {\n    return token.getSupply();\n  }\n\n  /**\n   * @dev Returns the number tokens associated with an address.\n   * @param who Address to lookup.\n   * @return Balance of address.\n   */\n  function balanceOf(address who) external view returns (uint) {\n    return token.getBalance(who);\n  }\n\n  /**\n   * @dev Returns the allowance for a spender\n   * @param owner The address of the owner of the tokens.\n   * @param spender The address of the spender.\n   * @return Number of tokens the spender is allowed to spend.\n   */\n  function allowance(address owner, address spender) external view returns (uint) {\n    return token.allowance(owner, spender);\n  }\n\n  /**\n   * @dev Pause the function protected by Pausable modifier.\n   */\n  function pause() public onlyOwner\n  {\n    _pause();\n  }\n\n  /**\n   * @dev Unpause the function protected by Pausable modifier.\n   */\n  function unpause() public onlyOwner\n  {\n    _unpause();\n  }\n}\n",
  "sourcePath": "/Users/gislik/Code/smart-contracts-private/contracts/StandardController.sol",
  "compiler": {
    "name": "solc",
    "version": "0.8.11+commit.d7f03943.Emscripten.clang"
  },
  "schemaVersion": "3.4.6",
  "updatedAt": "2022-11-15T22:25:51.147Z",
  "networkType": "ethereum",
  "devdoc": {
    "details": "This is the base contract which delegates token methods [ERC20 and ERC677] to their respective library implementations. The controller is primarily intended to be interacted with via a token frontend.",
    "events": {
      "BridgeFrontend(address,string)": {
        "details": "Emitted when updating the Bridge frontend.",
        "params": {
          "frontend": "Address of the new Bridge frontend.",
          "title": "String of the frontend name."
        }
      },
      "Frontend(address,address)": {
        "details": "Emitted when updating the frontend.",
        "params": {
          "current": "Address of the new frontend.",
          "old": "Address of the old frontend."
        }
      },
      "Storage(address,address)": {
        "details": "Emitted when updating the storage.",
        "params": {
          "current": "Address of the new storage.",
          "old": "Address of the old storage."
        }
      }
    },
    "kind": "dev",
    "methods": {
      "allowance(address,address)": {
        "details": "Returns the allowance for a spender",
        "params": {
          "owner": "The address of the owner of the tokens.",
          "spender": "The address of the spender."
        },
        "returns": {
          "_0": "Number of tokens the spender is allowed to spend."
        }
      },
      "approve_withCaller(address,address,uint256)": {
        "details": "Approves a spender [ERC20]. Note that using the approve/transferFrom presents a possible security vulnerability described in: https://docs.google.com/document/d/1YLPtQxZu1UAvO9cZ1O2RPXBbT0mooh4DYKjA_jp-RLM/edit#heading=h.quou09mcbpzw Use transferAndCall to mitigate.",
        "params": {
          "amount": "The allowance of the spender.",
          "caller": "Address of the caller passed through the frontend.",
          "spender": "The address of the future spender."
        }
      },
      "balanceOf(address)": {
        "details": "Returns the number tokens associated with an address.",
        "params": {
          "who": "Address to lookup."
        },
        "returns": {
          "_0": "Balance of address."
        }
      },
      "claimOwnership()": {
        "details": "Allows the pendingOwner address to finalize the transfer."
      },
      "claimStorageOwnership()": {
        "details": "Claims the ownership of the storage."
      },
      "constructor": {
        "details": "Contract constructor.",
        "params": {
          "frontend_": "Address of the authorized frontend.",
          "initialSupply": "The amount of tokens to mint upon creation.",
          "storage_": "Address of the token storage for the controller."
        }
      },
      "getFrontend()": {
        "details": "Returns the current frontend.",
        "returns": {
          "_0": "Address of the frontend."
        }
      },
      "getStorage()": {
        "details": "Returns the current storage.",
        "returns": {
          "_0": "Address of the storage."
        }
      },
      "isFrontend(address)": {
        "details": "Checks wether an address is a frontend.",
        "params": {
          "frontend_": "Address of the frontend candidate."
        }
      },
      "pause()": {
        "details": "Pause the function protected by Pausable modifier."
      },
      "paused()": {
        "details": "Returns true if the contract is paused, and false otherwise."
      },
      "renounceOwnership()": {
        "details": "Allows the current owner to relinquish control of the contract."
      },
      "setBridgeFrontend(address,string)": {
        "details": "Set a new bridge frontend.",
        "params": {
          "frontend_": "Address of the new bridge frontend.",
          "title": "Keccack256 hash of the frontend title."
        }
      },
      "setFrontend(address)": {
        "details": "Sets a new frontend.",
        "params": {
          "frontend_": "Address of the new frontend."
        }
      },
      "setStorage(address)": {
        "details": "Sets a new storage.",
        "params": {
          "storage_": "Address of the new storage."
        }
      },
      "totalSupply()": {
        "details": "Returns the total supply.",
        "returns": {
          "_0": "Number of tokens."
        }
      },
      "transferAndCall_withCaller(address,address,uint256,bytes)": {
        "details": "Transfers tokens and subsequently calls a method on the recipient [ERC677]. If the recipient is a non-contract address this method behaves just like transfer.",
        "params": {
          "amount": "Number of tokens to transfer.",
          "caller": "Address of the caller passed through the frontend.",
          "data": "Additional data passed to the recipient's tokenFallback method.",
          "to": "Recipient address."
        }
      },
      "transferFrom_withCaller(address,address,address,uint256)": {
        "details": "Transfers tokens from a specific address [ERC20]. The address owner has to approve the spender beforehand.",
        "params": {
          "amount": "Number of tokens to transfer.",
          "caller": "Address of the caller passed through the frontend.",
          "from": "Address to debet the tokens from.",
          "to": "Recipient address."
        }
      },
      "transferOwnership(address)": {
        "details": "Allows the current owner to set the pendingOwner address.",
        "params": {
          "newOwner": "The address to transfer ownership to."
        }
      },
      "transferStorageOwnership(address)": {
        "details": "Transfers the ownership of the storage.",
        "params": {
          "newOwner": "Address of the new storage owner."
        }
      },
      "transfer_withCaller(address,address,uint256)": {
        "details": "Transfers tokens [ERC20].",
        "params": {
          "amount": "Number of tokens to transfer.",
          "caller": "Address of the caller passed through the frontend.",
          "to": "Recipient address."
        }
      },
      "unpause()": {
        "details": "Unpause the function protected by Pausable modifier."
      }
    },
    "title": "StandardController",
    "version": 1
  },
  "userdoc": {
    "kind": "user",
    "methods": {
      "renounceOwnership()": {
        "notice": "Renouncing to ownership will leave the contract without an owner. It will not be possible to call the functions with the `onlyOwner` modifier anymore."
      }
    },
    "version": 1
  }
}