{
  "contractName": "TokenStorageLib",
  "abi": [
    {
      "constant": false,
      "inputs": [
        {
          "name": "self",
          "type": "TokenStorageLib.TokenStorage storage"
        },
        {
          "name": "to",
          "type": "address"
        },
        {
          "name": "amount",
          "type": "uint256"
        }
      ],
      "name": "addBalance",
      "outputs": [],
      "payable": false,
      "stateMutability": "nonpayable",
      "type": "function"
    },
    {
      "constant": false,
      "inputs": [
        {
          "name": "self",
          "type": "TokenStorageLib.TokenStorage storage"
        },
        {
          "name": "from",
          "type": "address"
        },
        {
          "name": "amount",
          "type": "uint256"
        }
      ],
      "name": "subBalance",
      "outputs": [],
      "payable": false,
      "stateMutability": "nonpayable",
      "type": "function"
    },
    {
      "constant": false,
      "inputs": [
        {
          "name": "self",
          "type": "TokenStorageLib.TokenStorage storage"
        },
        {
          "name": "owner",
          "type": "address"
        },
        {
          "name": "spender",
          "type": "address"
        },
        {
          "name": "amount",
          "type": "uint256"
        }
      ],
      "name": "setAllowed",
      "outputs": [],
      "payable": false,
      "stateMutability": "nonpayable",
      "type": "function"
    },
    {
      "constant": true,
      "inputs": [
        {
          "name": "self",
          "type": "TokenStorageLib.TokenStorage storage"
        }
      ],
      "name": "getSupply",
      "outputs": [
        {
          "name": "",
          "type": "uint256"
        }
      ],
      "payable": false,
      "stateMutability": "view",
      "type": "function"
    },
    {
      "constant": true,
      "inputs": [
        {
          "name": "self",
          "type": "TokenStorageLib.TokenStorage storage"
        },
        {
          "name": "who",
          "type": "address"
        }
      ],
      "name": "getBalance",
      "outputs": [
        {
          "name": "",
          "type": "uint256"
        }
      ],
      "payable": false,
      "stateMutability": "view",
      "type": "function"
    },
    {
      "constant": true,
      "inputs": [
        {
          "name": "self",
          "type": "TokenStorageLib.TokenStorage storage"
        },
        {
          "name": "owner",
          "type": "address"
        },
        {
          "name": "spender",
          "type": "address"
        }
      ],
      "name": "getAllowed",
      "outputs": [
        {
          "name": "",
          "type": "uint256"
        }
      ],
      "payable": false,
      "stateMutability": "view",
      "type": "function"
    }
  ],
  "bytecode": "0x610364610030600b82828239805160001a6073146000811461002057610022565bfe5b5030600052607381538281f300730000000000000000000000000000000000000000301460806040526004361061008e5763ffffffff7c0100000000000000000000000000000000000000000000000000000000600035041663072f9a5081146100935780635599b4b7146100b05780637aeb0ed5146100ec5780639daeae1e14610120578063b0aacf241461014a578063d9c7339e1461016e575b600080fd5b61009e6004356101a2565b60408051918252519081900360200190f35b8180156100bc57600080fd5b506100ea60043573ffffffffffffffffffffffffffffffffffffffff602435811690604435166064356101a9565b005b8180156100f857600080fd5b506100ea60043573ffffffffffffffffffffffffffffffffffffffff602435166044356101e4565b61009e60043573ffffffffffffffffffffffffffffffffffffffff60243581169060443516610260565b61009e60043573ffffffffffffffffffffffffffffffffffffffff6024351661029a565b81801561017a57600080fd5b506100ea60043573ffffffffffffffffffffffffffffffffffffffff602435166044356102c3565b6002015490565b73ffffffffffffffffffffffffffffffffffffffff928316600090815260019094016020908152604080862093909416855291909152912055565b60028301546101f9908263ffffffff61031316565b600284015573ffffffffffffffffffffffffffffffffffffffff8216600090815260208490526040902054610234908263ffffffff61031316565b73ffffffffffffffffffffffffffffffffffffffff909216600090815260209390935250604090912055565b73ffffffffffffffffffffffffffffffffffffffff9182166000908152600193909301602090815260408085209290931684525290205490565b73ffffffffffffffffffffffffffffffffffffffff166000908152602091909152604090205490565b60028301546102d8908263ffffffff61032616565b600284015573ffffffffffffffffffffffffffffffffffffffff8216600090815260208490526040902054610234908263ffffffff61032616565b8181018281101561032057fe5b92915050565b60008282111561033257fe5b509003905600a165627a7a72305820b5f8a0543ff64d28de1a156312ef81b787e4e6673efc183dd5f9229265e3adf60029",
  "source": "/**\n * Copyright 2019 Monerium ehf.\n *\n * Licensed under the Apache License, Version 2.0 (the \"License\");\n * you may not use this file except in compliance with the License.\n * You may obtain a copy of the License at\n *\n *     http://www.apache.org/licenses/LICENSE-2.0\n *\n * Unless required by applicable law or agreed to in writing, software\n * distributed under the License is distributed on an \"AS IS\" BASIS,\n * WITHOUT WARRANTIES OR CONDITIONS OF ANY KIND, either express or implied.\n * See the License for the specific language governing permissions and\n * limitations under the License.\n */\n\npragma solidity 0.4.24;\n\nimport \"openzeppelin-solidity/contracts/math/SafeMath.sol\";\n\n/** @title TokenStorageLib\n * @dev Implementation of an[external storage for tokens.\n */\nlibrary TokenStorageLib {\n\n    using SafeMath for uint;\n\n    struct TokenStorage {\n        mapping (address => uint) balances;\n        mapping (address => mapping (address => uint)) allowed;\n        uint totalSupply;\n    }\n\n    /**\n     * @dev Increases balance of an address.\n     * @param self Token storage to operate on.\n     * @param to Address to increase.\n     * @param amount Number of units to add.\n     */\n    function addBalance(TokenStorage storage self, address to, uint amount)\n        external\n    {\n        self.totalSupply = self.totalSupply.add(amount);\n        self.balances[to] = self.balances[to].add(amount);\n    }\n\n    /**\n     * @dev Decreases balance of an address.\n     * @param self Token storage to operate on.\n     * @param from Address to decrease.\n     * @param amount Number of units to subtract.\n     */\n    function subBalance(TokenStorage storage self, address from, uint amount)\n        external\n    {\n        self.totalSupply = self.totalSupply.sub(amount);\n        self.balances[from] = self.balances[from].sub(amount);\n    }\n\n    /**\n     * @dev Sets the allowance for a spender.\n     * @param self Token storage to operate on.\n     * @param owner Address of the owner of the tokens to spend.\n     * @param spender Address of the spender.\n     * @param amount Qunatity of allowance.\n     */\n    function setAllowed(TokenStorage storage self, address owner, address spender, uint amount)\n        external\n    {\n        self.allowed[owner][spender] = amount;\n    }\n\n    /**\n     * @dev Returns the supply of tokens.\n     * @param self Token storage to operate on.\n     * @return Total supply.\n     */\n    function getSupply(TokenStorage storage self)\n        external\n        view\n        returns (uint)\n    {\n        return self.totalSupply;\n    }\n\n    /**\n     * @dev Returns the balance of an address.\n     * @param self Token storage to operate on.\n     * @param who Address to lookup.\n     * @return Number of units.\n     */\n    function getBalance(TokenStorage storage self, address who)\n        external\n        view\n        returns (uint)\n    {\n        return self.balances[who];\n    }\n\n    /**\n     * @dev Returns the allowance for a spender.\n     * @param self Token storage to operate on.\n     * @param owner Address of the owner of the tokens to spend.\n     * @param spender Address of the spender.\n     * @return Number of units.\n     */\n    function getAllowed(TokenStorage storage self, address owner, address spender)\n        external\n        view\n        returns (uint)\n    {\n        return self.allowed[owner][spender];\n    }\n\n}\n",
  "sourcePath": "/Users/gislik/Code/smart-contracts/contracts/TokenStorageLib.sol",
  "compiler": {
    "name": "solc",
    "version": "0.4.24+commit.e67f0147.Emscripten.clang"
  },
  "schemaVersion": "2.0.1",
  "updatedAt": "2019-11-11T09:30:05.137Z"
}