{
  "contractName": "HasNoEther",
  "abi": [
    {
      "inputs": [],
      "stateMutability": "payable",
      "type": "constructor"
    },
    {
      "anonymous": false,
      "inputs": [
        {
          "indexed": true,
          "internalType": "address",
          "name": "previousOwner",
          "type": "address"
        }
      ],
      "name": "OwnershipRenounced",
      "type": "event"
    },
    {
      "anonymous": false,
      "inputs": [
        {
          "indexed": true,
          "internalType": "address",
          "name": "previousOwner",
          "type": "address"
        },
        {
          "indexed": true,
          "internalType": "address",
          "name": "newOwner",
          "type": "address"
        }
      ],
      "name": "OwnershipTransferred",
      "type": "event"
    },
    {
      "stateMutability": "nonpayable",
      "type": "fallback"
    },
    {
      "inputs": [],
      "name": "owner",
      "outputs": [
        {
          "internalType": "address",
          "name": "",
          "type": "address"
        }
      ],
      "stateMutability": "view",
      "type": "function"
    },
    {
      "inputs": [],
      "name": "renounceOwnership",
      "outputs": [],
      "stateMutability": "nonpayable",
      "type": "function"
    },
    {
      "inputs": [
        {
          "internalType": "address",
          "name": "_newOwner",
          "type": "address"
        }
      ],
      "name": "transferOwnership",
      "outputs": [],
      "stateMutability": "nonpayable",
      "type": "function"
    },
    {
      "inputs": [],
      "name": "reclaimEther",
      "outputs": [],
      "stateMutability": "nonpayable",
      "type": "function"
    }
  ],
  "bytecode": "0x6080604052600080546001600160a01b03191633179055341561002157600080fd5b61025c806100306000396000f3fe608060405234801561001057600080fd5b506004361061004c5760003560e01c8063715018a61461004e5780638da5cb5b146100565780639f727c2714610085578063f2fde38b1461008d575b005b61004c6100a0565b600054610069906001600160a01b031681565b6040516001600160a01b03909116815260200160405180910390f35b61004c61010c565b61004c61009b3660046101f6565b610160565b6000546001600160a01b031633146100b757600080fd5b600080546040516001600160a01b03909116917ff8df31144d9c2f0f6b59d69b8b98abd5459d07f2742c4df920b25aae33c6482091a26000805473ffffffffffffffffffffffffffffffffffffffff19169055565b6000546001600160a01b0316331461012357600080fd5b600080546040516001600160a01b03909116914780156108fc02929091818181858888f1935050505015801561015d573d6000803e3d6000fd5b50565b6000546001600160a01b0316331461017757600080fd5b61015d816001600160a01b03811661018e57600080fd5b600080546040516001600160a01b03808516939216917f8be0079c531659141344cd1fd0a4f28419497f9722a3daafe3b4186f6b6457e091a36000805473ffffffffffffffffffffffffffffffffffffffff19166001600160a01b0392909216919091179055565b60006020828403121561020857600080fd5b81356001600160a01b038116811461021f57600080fd5b939250505056fea2646970667358221220218539155362568507dc40ee2df5f68b3403c4e8b60a395012e71edd1901b67964736f6c634300080b0033",
  "immutableReferences": {},
  "source": "// SPDX-License-Identifier: MIT\npragma solidity ^0.8.11;\n\nimport \"./Ownable.sol\";\n\n/**\n * @title Contracts that should not own Ether\n * @author Remco Bloemen <remco@2π.com>\n * @dev This tries to block incoming ether to prevent accidental loss of Ether. Should Ether end up\n * in the contract, it will allow the owner to reclaim this Ether.\n * @notice Ether can still be sent to this contract by:\n * calling functions labeled `payable`\n * `selfdestruct(contract_address)`\n * mining directly to the contract address\n */\ncontract HasNoEther is Ownable {\n\n  /**\n  * @dev Constructor that rejects incoming Ether\n  * The `payable` flag is added so we can access `msg.value` without compiler warning. If we\n  * leave out payable, then Solidity will allow inheriting contracts to implement a payable\n  * constructor. By doing it this way we prevent a payable constructor from working. Alternatively\n  * we could use assembly to access msg.value.\n  */\n  constructor() payable {\n    require(msg.value == 0);\n  }\n\n  /**\n   * @dev Disallows direct send by setting a default function without the `payable` flag.\n   */\n  fallback() external {\n  }\n\n  /**\n   * @dev Transfer all Ether held by the contract to the owner.\n   */\n  function reclaimEther() external onlyOwner {\n    payable(owner).transfer(address(this).balance);\n  }\n}\n",
  "sourcePath": "/Users/gislik/Code/smart-contracts-private/contracts/ownership/HasNoEther.sol",
  "compiler": {
    "name": "solc",
    "version": "0.8.11+commit.d7f03943.Emscripten.clang"
  },
  "schemaVersion": "3.4.6",
  "updatedAt": "2022-11-15T22:20:58.311Z",
  "devdoc": {
    "author": "Remco Bloemen <remco@2π.com>",
    "details": "This tries to block incoming ether to prevent accidental loss of Ether. Should Ether end up in the contract, it will allow the owner to reclaim this Ether.",
    "kind": "dev",
    "methods": {
      "constructor": {
        "details": "Constructor that rejects incoming Ether The `payable` flag is added so we can access `msg.value` without compiler warning. If we leave out payable, then Solidity will allow inheriting contracts to implement a payable constructor. By doing it this way we prevent a payable constructor from working. Alternatively we could use assembly to access msg.value."
      },
      "reclaimEther()": {
        "details": "Transfer all Ether held by the contract to the owner."
      },
      "renounceOwnership()": {
        "details": "Allows the current owner to relinquish control of the contract."
      },
      "transferOwnership(address)": {
        "details": "Allows the current owner to transfer control of the contract to a newOwner.",
        "params": {
          "_newOwner": "The address to transfer ownership to."
        }
      }
    },
    "title": "Contracts that should not own Ether",
    "version": 1
  },
  "userdoc": {
    "kind": "user",
    "methods": {
      "renounceOwnership()": {
        "notice": "Renouncing to ownership will leave the contract without an owner. It will not be possible to call the functions with the `onlyOwner` modifier anymore."
      }
    },
    "notice": "Ether can still be sent to this contract by: calling functions labeled `payable` `selfdestruct(contract_address)` mining directly to the contract address",
    "version": 1
  }
}