{
  "contractName": "SmartController",
  "abi": [
    {
      "inputs": [
        {
          "internalType": "address",
          "name": "storage_",
          "type": "address"
        },
        {
          "internalType": "address",
          "name": "validator",
          "type": "address"
        },
        {
          "internalType": "bytes3",
          "name": "ticker_",
          "type": "bytes3"
        },
        {
          "internalType": "address",
          "name": "frontend_",
          "type": "address"
        }
      ],
      "stateMutability": "nonpayable",
      "type": "constructor"
    },
    {
      "anonymous": false,
      "inputs": [
        {
          "indexed": true,
          "internalType": "address",
          "name": "frontend",
          "type": "address"
        },
        {
          "indexed": true,
          "internalType": "string",
          "name": "title",
          "type": "string"
        }
      ],
      "name": "BridgeFrontend",
      "type": "event"
    },
    {
      "anonymous": false,
      "inputs": [
        {
          "indexed": true,
          "internalType": "address",
          "name": "old",
          "type": "address"
        },
        {
          "indexed": true,
          "internalType": "address",
          "name": "current",
          "type": "address"
        }
      ],
      "name": "Frontend",
      "type": "event"
    },
    {
      "anonymous": false,
      "inputs": [
        {
          "indexed": true,
          "internalType": "address",
          "name": "previousOwner",
          "type": "address"
        }
      ],
      "name": "OwnershipRenounced",
      "type": "event"
    },
    {
      "anonymous": false,
      "inputs": [
        {
          "indexed": true,
          "internalType": "address",
          "name": "previousOwner",
          "type": "address"
        },
        {
          "indexed": true,
          "internalType": "address",
          "name": "newOwner",
          "type": "address"
        }
      ],
      "name": "OwnershipTransferred",
      "type": "event"
    },
    {
      "anonymous": false,
      "inputs": [
        {
          "indexed": false,
          "internalType": "address",
          "name": "account",
          "type": "address"
        }
      ],
      "name": "Paused",
      "type": "event"
    },
    {
      "anonymous": false,
      "inputs": [
        {
          "indexed": true,
          "internalType": "address",
          "name": "old",
          "type": "address"
        },
        {
          "indexed": true,
          "internalType": "address",
          "name": "current",
          "type": "address"
        }
      ],
      "name": "Storage",
      "type": "event"
    },
    {
      "anonymous": false,
      "inputs": [
        {
          "indexed": true,
          "internalType": "address",
          "name": "account",
          "type": "address"
        }
      ],
      "name": "SystemAccountAdded",
      "type": "event"
    },
    {
      "anonymous": false,
      "inputs": [
        {
          "indexed": true,
          "internalType": "address",
          "name": "account",
          "type": "address"
        }
      ],
      "name": "SystemAccountRemoved",
      "type": "event"
    },
    {
      "anonymous": false,
      "inputs": [
        {
          "indexed": false,
          "internalType": "address",
          "name": "account",
          "type": "address"
        }
      ],
      "name": "Unpaused",
      "type": "event"
    },
    {
      "inputs": [],
      "name": "INITIAL_SUPPLY",
      "outputs": [
        {
          "internalType": "uint256",
          "name": "",
          "type": "uint256"
        }
      ],
      "stateMutability": "view",
      "type": "function",
      "constant": true
    },
    {
      "inputs": [
        {
          "internalType": "address",
          "name": "account",
          "type": "address"
        }
      ],
      "name": "addSystemAccount",
      "outputs": [],
      "stateMutability": "nonpayable",
      "type": "function"
    },
    {
      "inputs": [
        {
          "internalType": "address",
          "name": "owner",
          "type": "address"
        },
        {
          "internalType": "address",
          "name": "spender",
          "type": "address"
        }
      ],
      "name": "allowance",
      "outputs": [
        {
          "internalType": "uint256",
          "name": "",
          "type": "uint256"
        }
      ],
      "stateMutability": "view",
      "type": "function",
      "constant": true
    },
    {
      "inputs": [
        {
          "internalType": "address",
          "name": "caller",
          "type": "address"
        },
        {
          "internalType": "address",
          "name": "spender",
          "type": "address"
        },
        {
          "internalType": "uint256",
          "name": "amount",
          "type": "uint256"
        }
      ],
      "name": "approve_withCaller",
      "outputs": [
        {
          "internalType": "bool",
          "name": "ok",
          "type": "bool"
        }
      ],
      "stateMutability": "nonpayable",
      "type": "function"
    },
    {
      "inputs": [
        {
          "internalType": "address",
          "name": "who",
          "type": "address"
        }
      ],
      "name": "balanceOf",
      "outputs": [
        {
          "internalType": "uint256",
          "name": "",
          "type": "uint256"
        }
      ],
      "stateMutability": "view",
      "type": "function",
      "constant": true
    },
    {
      "inputs": [
        {
          "internalType": "address",
          "name": "from",
          "type": "address"
        },
        {
          "internalType": "uint256",
          "name": "amount",
          "type": "uint256"
        }
      ],
      "name": "burnFrom",
      "outputs": [
        {
          "internalType": "bool",
          "name": "",
          "type": "bool"
        }
      ],
      "stateMutability": "nonpayable",
      "type": "function"
    },
    {
      "inputs": [
        {
          "internalType": "address",
          "name": "caller",
          "type": "address"
        },
        {
          "internalType": "address",
          "name": "from",
          "type": "address"
        },
        {
          "internalType": "uint256",
          "name": "amount",
          "type": "uint256"
        },
        {
          "internalType": "bytes32",
          "name": "h",
          "type": "bytes32"
        },
        {
          "internalType": "uint8",
          "name": "v",
          "type": "uint8"
        },
        {
          "internalType": "bytes32",
          "name": "r",
          "type": "bytes32"
        },
        {
          "internalType": "bytes32",
          "name": "s",
          "type": "bytes32"
        }
      ],
      "name": "burnFrom_withCaller",
      "outputs": [
        {
          "internalType": "bool",
          "name": "",
          "type": "bool"
        }
      ],
      "stateMutability": "nonpayable",
      "type": "function"
    },
    {
      "inputs": [],
      "name": "claimOwnership",
      "outputs": [],
      "stateMutability": "nonpayable",
      "type": "function"
    },
    {
      "inputs": [],
      "name": "claimStorageOwnership",
      "outputs": [],
      "stateMutability": "nonpayable",
      "type": "function"
    },
    {
      "inputs": [],
      "name": "decimals",
      "outputs": [
        {
          "internalType": "uint256",
          "name": "",
          "type": "uint256"
        }
      ],
      "stateMutability": "view",
      "type": "function",
      "constant": true
    },
    {
      "inputs": [],
      "name": "getFrontend",
      "outputs": [
        {
          "internalType": "address",
          "name": "",
          "type": "address"
        }
      ],
      "stateMutability": "view",
      "type": "function",
      "constant": true
    },
    {
      "inputs": [],
      "name": "getStorage",
      "outputs": [
        {
          "internalType": "address",
          "name": "",
          "type": "address"
        }
      ],
      "stateMutability": "view",
      "type": "function",
      "constant": true
    },
    {
      "inputs": [
        {
          "internalType": "address",
          "name": "frontend_",
          "type": "address"
        }
      ],
      "name": "isFrontend",
      "outputs": [
        {
          "internalType": "bool",
          "name": "",
          "type": "bool"
        }
      ],
      "stateMutability": "view",
      "type": "function",
      "constant": true
    },
    {
      "inputs": [
        {
          "internalType": "address",
          "name": "account",
          "type": "address"
        }
      ],
      "name": "isSystemAccount",
      "outputs": [
        {
          "internalType": "bool",
          "name": "",
          "type": "bool"
        }
      ],
      "stateMutability": "view",
      "type": "function",
      "constant": true
    },
    {
      "inputs": [
        {
          "internalType": "address",
          "name": "caller",
          "type": "address"
        },
        {
          "internalType": "address",
          "name": "to",
          "type": "address"
        },
        {
          "internalType": "uint256",
          "name": "amount",
          "type": "uint256"
        }
      ],
      "name": "mintTo_withCaller",
      "outputs": [
        {
          "internalType": "bool",
          "name": "",
          "type": "bool"
        }
      ],
      "stateMutability": "nonpayable",
      "type": "function"
    },
    {
      "inputs": [],
      "name": "name",
      "outputs": [
        {
          "internalType": "string",
          "name": "",
          "type": "string"
        }
      ],
      "stateMutability": "view",
      "type": "function",
      "constant": true
    },
    {
      "inputs": [],
      "name": "owner",
      "outputs": [
        {
          "internalType": "address",
          "name": "",
          "type": "address"
        }
      ],
      "stateMutability": "view",
      "type": "function",
      "constant": true
    },
    {
      "inputs": [],
      "name": "pause",
      "outputs": [],
      "stateMutability": "nonpayable",
      "type": "function"
    },
    {
      "inputs": [],
      "name": "paused",
      "outputs": [
        {
          "internalType": "bool",
          "name": "",
          "type": "bool"
        }
      ],
      "stateMutability": "view",
      "type": "function",
      "constant": true
    },
    {
      "inputs": [],
      "name": "pendingOwner",
      "outputs": [
        {
          "internalType": "address",
          "name": "",
          "type": "address"
        }
      ],
      "stateMutability": "view",
      "type": "function",
      "constant": true
    },
    {
      "inputs": [
        {
          "internalType": "address",
          "name": "account",
          "type": "address"
        }
      ],
      "name": "removeSystemAccount",
      "outputs": [],
      "stateMutability": "nonpayable",
      "type": "function"
    },
    {
      "inputs": [],
      "name": "renounceOwnership",
      "outputs": [],
      "stateMutability": "nonpayable",
      "type": "function"
    },
    {
      "inputs": [
        {
          "internalType": "address",
          "name": "frontend_",
          "type": "address"
        },
        {
          "internalType": "string",
          "name": "title",
          "type": "string"
        }
      ],
      "name": "setBridgeFrontend",
      "outputs": [],
      "stateMutability": "nonpayable",
      "type": "function"
    },
    {
      "inputs": [
        {
          "internalType": "address",
          "name": "frontend_",
          "type": "address"
        }
      ],
      "name": "setFrontend",
      "outputs": [],
      "stateMutability": "nonpayable",
      "type": "function"
    },
    {
      "inputs": [
        {
          "internalType": "address",
          "name": "storage_",
          "type": "address"
        }
      ],
      "name": "setStorage",
      "outputs": [],
      "stateMutability": "nonpayable",
      "type": "function"
    },
    {
      "inputs": [],
      "name": "symbol",
      "outputs": [
        {
          "internalType": "string",
          "name": "",
          "type": "string"
        }
      ],
      "stateMutability": "view",
      "type": "function",
      "constant": true
    },
    {
      "inputs": [],
      "name": "ticker",
      "outputs": [
        {
          "internalType": "bytes3",
          "name": "",
          "type": "bytes3"
        }
      ],
      "stateMutability": "view",
      "type": "function",
      "constant": true
    },
    {
      "inputs": [],
      "name": "totalSupply",
      "outputs": [
        {
          "internalType": "uint256",
          "name": "",
          "type": "uint256"
        }
      ],
      "stateMutability": "view",
      "type": "function",
      "constant": true
    },
    {
      "inputs": [
        {
          "internalType": "address",
          "name": "newOwner",
          "type": "address"
        }
      ],
      "name": "transferOwnership",
      "outputs": [],
      "stateMutability": "nonpayable",
      "type": "function"
    },
    {
      "inputs": [
        {
          "internalType": "address",
          "name": "newOwner",
          "type": "address"
        }
      ],
      "name": "transferStorageOwnership",
      "outputs": [],
      "stateMutability": "nonpayable",
      "type": "function"
    },
    {
      "inputs": [],
      "name": "unpause",
      "outputs": [],
      "stateMutability": "nonpayable",
      "type": "function"
    },
    {
      "inputs": [
        {
          "internalType": "address",
          "name": "validator",
          "type": "address"
        }
      ],
      "name": "setValidator",
      "outputs": [],
      "stateMutability": "nonpayable",
      "type": "function"
    },
    {
      "inputs": [
        {
          "internalType": "address",
          "name": "caller",
          "type": "address"
        },
        {
          "internalType": "address",
          "name": "from",
          "type": "address"
        },
        {
          "internalType": "address",
          "name": "to",
          "type": "address"
        },
        {
          "internalType": "bytes32",
          "name": "h",
          "type": "bytes32"
        },
        {
          "internalType": "uint8",
          "name": "v",
          "type": "uint8"
        },
        {
          "internalType": "bytes32",
          "name": "r",
          "type": "bytes32"
        },
        {
          "internalType": "bytes32",
          "name": "s",
          "type": "bytes32"
        }
      ],
      "name": "recover_withCaller",
      "outputs": [
        {
          "internalType": "uint256",
          "name": "",
          "type": "uint256"
        }
      ],
      "stateMutability": "nonpayable",
      "type": "function"
    },
    {
      "inputs": [
        {
          "internalType": "address",
          "name": "caller",
          "type": "address"
        },
        {
          "internalType": "address",
          "name": "to",
          "type": "address"
        },
        {
          "internalType": "uint256",
          "name": "amount",
          "type": "uint256"
        }
      ],
      "name": "transfer_withCaller",
      "outputs": [
        {
          "internalType": "bool",
          "name": "",
          "type": "bool"
        }
      ],
      "stateMutability": "nonpayable",
      "type": "function"
    },
    {
      "inputs": [
        {
          "internalType": "address",
          "name": "caller",
          "type": "address"
        },
        {
          "internalType": "address",
          "name": "from",
          "type": "address"
        },
        {
          "internalType": "address",
          "name": "to",
          "type": "address"
        },
        {
          "internalType": "uint256",
          "name": "amount",
          "type": "uint256"
        }
      ],
      "name": "transferFrom_withCaller",
      "outputs": [
        {
          "internalType": "bool",
          "name": "",
          "type": "bool"
        }
      ],
      "stateMutability": "nonpayable",
      "type": "function"
    },
    {
      "inputs": [
        {
          "internalType": "address",
          "name": "caller",
          "type": "address"
        },
        {
          "internalType": "address",
          "name": "to",
          "type": "address"
        },
        {
          "internalType": "uint256",
          "name": "amount",
          "type": "uint256"
        },
        {
          "internalType": "bytes",
          "name": "data",
          "type": "bytes"
        }
      ],
      "name": "transferAndCall_withCaller",
      "outputs": [
        {
          "internalType": "bool",
          "name": "",
          "type": "bool"
        }
      ],
      "stateMutability": "nonpayable",
      "type": "function"
    },
    {
      "inputs": [],
      "name": "getValidator",
      "outputs": [
        {
          "internalType": "address",
          "name": "",
          "type": "address"
        }
      ],
      "stateMutability": "view",
      "type": "function",
      "constant": true
    }
  ],
  "bytecode": "0x608060405260126008553480156200001657600080fd5b50604051620035bd380380620035bd8339810160408190526200003991620002f7565b600180546001600160a81b0319166101003302179055836000828282826001600160a01b03831615806200006b575081155b620000e35760405162461bcd60e51b815260206004820152603f60248201527f656974686572206120746f6b656e2073746f72616765206d757374206265206960448201527f6e697469616c697a6564206f72206e6f20696e697469616c20737570706c790060648201526084015b60405180910390fd5b6001600160a01b0383166200019a576040516200010090620002cc565b604051809103906000f0801580156200011d573d6000803e3d6000fd5b50600380546001600160a01b0319166001600160a01b039290921691821790556040516310f29c1d60e11b8152336004820152602481018490526321e5383a90604401600060405180830381600087803b1580156200017b57600080fd5b505af115801562000190573d6000803e3d6000fd5b50505050620001b6565b600380546001600160a01b0319166001600160a01b0385161790555b600480546001600160a01b0319166001600160a01b039283161790558816151594506200023793505050505760405162461bcd60e51b8152602060048201526024808201527f76616c696461746f722063616e6e6f7420626520746865206e756c6c206164646044820152637265737360e01b6064820152608401620000da565b60405163ad41534960e01b8152600960048201526001600160a01b038416602482015273__SmartTokenLib_________________________9063ad4153499060440160006040518083038186803b1580156200029257600080fd5b505af4158015620002a7573d6000803e3d6000fd5b5050600a805462ffffff191660e89590951c9490941790935550620003639350505050565b610b5c8062002a6183390190565b80516001600160a01b0381168114620002f257600080fd5b919050565b600080600080608085870312156200030e57600080fd5b6200031985620002da565b93506200032960208601620002da565b60408601519093506001600160e81b0319811681146200034857600080fd5b91506200035860608601620002da565b905092959194509250565b6126ee80620003736000396000f3fe608060405234801561001057600080fd5b50600436106102765760003560e01c8063715018a6116101605780639e7f43ca116100d8578063e30c39781161008c578063ebbc3d4611610071578063ebbc3d46146104f3578063ee0b544514610506578063f2fde38b1461051957600080fd5b8063e30c3978146104cd578063e974fee9146104e057600080fd5b8063b516af70116100bd578063b516af701461049f578063dd62ed3e146104a7578063e174fd94146104ba57600080fd5b80639e7f43ca14610479578063a84c56d01461048c57600080fd5b80638ba47bdd1161012f5780638fb81d98116101145780638fb81d981461044b5780639137c1a71461045e57806395d89b411461047157600080fd5b80638ba47bdd146103f55780638da5cb5b1461043357600080fd5b8063715018a6146103bf578063774d5409146103c757806379cc6790146103da5780638456cb59146103ed57600080fd5b8063326ecb05116101f35780634e71e0c8116101c25780635c975abb116101a75780635c975abb1461038e57806369569a511461039957806370a08231146103ac57600080fd5b80634e71e0c8146103735780634eb007541461037b57600080fd5b8063326ecb05146103345780633408f73a146103475780633cd1570f146103585780633f4ba83a1461036b57600080fd5b806318160ddd1161024a5780632ff2e9dc1161022f5780632ff2e9dc14610310578063313ce56714610318578063322ec0fb1461032157600080fd5b806318160ddd146102d757806325ec2eb0146102ed57600080fd5b80623074ff1461027b57806306fdde03146102a55780631195e07e146102ba5780631327d3d8146102c2575b600080fd5b6004546001600160a01b03165b6040516001600160a01b0390911681526020015b60405180910390f35b6102ad61052c565b60405161029c9190612231565b6102886105ba565b6102d56102d036600461229b565b61064f565b005b6102df6106ef565b60405190815260200161029c565b6103006102fb36600461229b565b610776565b604051901515815260200161029c565b6102df600081565b6102df60085481565b61030061032f3660046122b8565b6107b3565b61030061034236600461229b565b610950565b6003546001600160a01b0316610288565b6102df61036636600461230f565b610971565b6102d5610b2c565b6102d5610b52565b610300610389366004612386565b610bfa565b60015460ff16610300565b6102d56103a736600461229b565b610d9d565b6102df6103ba36600461229b565b610e22565b6102d5610eaa565b6103006103d53660046122b8565b610f22565b6103006103e83660046123d8565b6110a9565b6102d5611186565b600a546104029060e81b81565b6040517fffffff0000000000000000000000000000000000000000000000000000000000909116815260200161029c565b6001546102889061010090046001600160a01b031681565b6102d561045936600461244d565b6111aa565b6102d561046c36600461229b565b611237565b6102ad6112bc565b6103006104873660046124a2565b6112c9565b6102d561049a36600461229b565b6114b2565b6102d56114da565b6102df6104b5366004612515565b611560565b6103006104c83660046122b8565b611613565b600254610288906001600160a01b031681565b6103006104ee36600461254e565b6117c9565b6102d561050136600461229b565b611980565b6102d561051436600461229b565b6119a5565b6102d561052736600461229b565b611a35565b600680546105399061259f565b80601f01602080910402602001604051908101604052809291908181526020018280546105659061259f565b80156105b25780601f10610587576101008083540402835291602001916105b2565b820191906000526020600020905b81548152906001019060200180831161059557829003601f168201915b505050505081565b6040517f6271970c0000000000000000000000000000000000000000000000000000000081526009600482015260009073__SmartTokenLib_________________________90636271970c90602401602060405180830381865af4158015610626573d6000803e3d6000fd5b505050506040513d601f19601f8201168201806040525081019061064a91906125f3565b905090565b61065833610950565b61066157600080fd5b6040517fad415349000000000000000000000000000000000000000000000000000000008152600960048201526001600160a01b038216602482015273__SmartTokenLib_________________________9063ad4153499060440160006040518083038186803b1580156106d457600080fd5b505af41580156106e8573d6000803e3d6000fd5b5050505050565b600354604080517f6c9c2faf00000000000000000000000000000000000000000000000000000000815290516000926001600160a01b031691636c9c2faf9160048083019260209291908290030181865afa158015610752573d6000803e3d6000fd5b505050506040513d601f19601f8201168201806040525081019061064a9190612610565b6004546000906001600160a01b03838116911614806107ad57506001600160a01b03821660009081526005602052604090205460ff165b92915050565b600083336001600160a01b03821614806107d157506107d133610776565b61083f5760405162461bcd60e51b815260206004820152603460248201527f6569746865722063616c6c6572206d7573742062652073656e646572206f722060448201527318d85b1b1a5b99c81d9a5848199c9bdb9d195b9960621b60648201526084015b60405180910390fd5b8461084981610950565b6108955760405162461bcd60e51b815260206004820152601860248201527f6d75737420626520612073797374656d206163636f756e7400000000000000006044820152606401610836565b61089e85611a80565b6003546040517fb0c29c740000000000000000000000000000000000000000000000000000000081526001600160a01b03918216600482015290861660248201526044810185905273__MintableTokenLib______________________9063b0c29c7490606401602060405180830381865af4158015610922573d6000803e3d6000fd5b505050506040513d601f19601f820116820180604052508101906109469190612629565b9695505050505050565b6001600160a01b03811660009081526020819052604081205460ff166107ad565b600087336001600160a01b038216148061098f575061098f33610776565b6109f85760405162461bcd60e51b815260206004820152603460248201527f6569746865722063616c6c6572206d7573742062652073656e646572206f722060448201527318d85b1b1a5b99c81d9a5848199c9bdb9d195b9960621b6064820152608401610836565b88610a0281610950565b610a4e5760405162461bcd60e51b815260206004820152601860248201527f6d75737420626520612073797374656d206163636f756e7400000000000000006044820152606401610836565b610a5788611a80565b6003546040517f8f7227340000000000000000000000000000000000000000000000000000000081526001600160a01b0391821660048201528a8216602482015290891660448201526064810188905260ff8716608482015260a4810186905260c4810185905273__SmartTokenLib_________________________90638f7227349060e401602060405180830381865af4158015610afa573d6000803e3d6000fd5b505050506040513d601f19601f82011682018060405250810190610b1e9190612610565b9a9950505050505050505050565b60015461010090046001600160a01b03163314610b4857600080fd5b610b50611c41565b565b6002546001600160a01b03163314610b6957600080fd5b6002546001546040516001600160a01b0392831692610100909204909116907f8be0079c531659141344cd1fd0a4f28419497f9722a3daafe3b4186f6b6457e090600090a3600280546001805474ffffffffffffffffffffffffffffffffffffffff0019166101006001600160a01b0384160217905573ffffffffffffffffffffffffffffffffffffffff19169055565b600087336001600160a01b0382161480610c185750610c1833610776565b610c815760405162461bcd60e51b815260206004820152603460248201527f6569746865722063616c6c6572206d7573742062652073656e646572206f722060448201527318d85b1b1a5b99c81d9a5848199c9bdb9d195b9960621b6064820152608401610836565b88610c8b81610950565b610cd75760405162461bcd60e51b815260206004820152601860248201527f6d75737420626520612073797374656d206163636f756e7400000000000000006044820152606401610836565b6003546040517f799639d40000000000000000000000000000000000000000000000000000000081526001600160a01b039182166004820152908a166024820152604481018990526064810188905260ff8716608482015260a4810186905260c4810185905273__MintableTokenLib______________________9063799639d49060e401602060405180830381865af4158015610d79573d6000803e3d6000fd5b505050506040513d601f19601f82011682018060405250810190610b1e9190612629565b60015461010090046001600160a01b03163314610db957600080fd5b6004546040516001600160a01b038084169216907fcb01f884fc4203d4c1643cb0e126faeb397682c122ca8c0433776d42cdc0060a90600090a36004805473ffffffffffffffffffffffffffffffffffffffff19166001600160a01b0392909216919091179055565b6003546040517ff8b2cb4f0000000000000000000000000000000000000000000000000000000081526001600160a01b038381166004830152600092169063f8b2cb4f90602401602060405180830381865afa158015610e86573d6000803e3d6000fd5b505050506040513d601f19601f820116820180604052508101906107ad9190612610565b60015461010090046001600160a01b03163314610ec657600080fd5b6001546040516101009091046001600160a01b0316907ff8df31144d9c2f0f6b59d69b8b98abd5459d07f2742c4df920b25aae33c6482090600090a26001805474ffffffffffffffffffffffffffffffffffffffff0019169055565b600083336001600160a01b0382161480610f405750610f4033610776565b610fa95760405162461bcd60e51b815260206004820152603460248201527f6569746865722063616c6c6572206d7573742062652073656e646572206f722060448201527318d85b1b1a5b99c81d9a5848199c9bdb9d195b9960621b6064820152608401610836565b60015460ff1615610fef5760405162461bcd60e51b815260206004820152601060248201526f14185d5cd8589b194e881c185d5cd95960821b6044820152606401610836565b6003546040517f365feff10000000000000000000000000000000000000000000000000000000081526001600160a01b039182166004820152868216602482015290851660448201526064810184905273__ERC20Lib______________________________9063365feff1906084015b602060405180830381865af415801561107c573d6000803e3d6000fd5b505050506040513d601f19601f820116820180604052508101906110a09190612629565b95945050505050565b600033336110b681610950565b6111025760405162461bcd60e51b815260206004820152601860248201527f6d75737420626520612073797374656d206163636f756e7400000000000000006044820152606401610836565b6003546040517fa6c9ac280000000000000000000000000000000000000000000000000000000081526001600160a01b03918216600482015290861660248201526044810185905273__MintableTokenLib______________________9063a6c9ac2890606401602060405180830381865af415801561107c573d6000803e3d6000fd5b60015461010090046001600160a01b031633146111a257600080fd5b610b50611cdd565b60015461010090046001600160a01b031633146111c657600080fd5b81816040516111d692919061264b565b604051908190038120906001600160a01b038516907fec75908259de4d038ff5f2b6b99e3725bc21871f4d2a44adeff9bb814afbc9f790600090a350506001600160a01b03166000908152600560205260409020805460ff19166001179055565b60015461010090046001600160a01b0316331461125357600080fd5b6003546040516001600160a01b038084169216907fdaaa9d417a3107fd3d9db02eba3eeafbae2b8af16ee08c534f5bc449054c1c4c90600090a36003805473ffffffffffffffffffffffffffffffffffffffff19166001600160a01b0392909216919091179055565b600780546105399061259f565b600085336001600160a01b03821614806112e757506112e733610776565b6113505760405162461bcd60e51b815260206004820152603460248201527f6569746865722063616c6c6572206d7573742062652073656e646572206f722060448201527318d85b1b1a5b99c81d9a5848199c9bdb9d195b9960621b6064820152608401610836565b60015460ff16156113965760405162461bcd60e51b815260206004820152601060248201526f14185d5cd8589b194e881c185d5cd95960821b6044820152606401610836565b6040516332c5a6eb60e01b8152600960048201526001600160a01b038089166024830152871660448201526064810186905273__SmartTokenLib_________________________906332c5a6eb90608401602060405180830381865af4158015611404573d6000803e3d6000fd5b505050506040513d601f19601f820116820180604052508101906114289190612629565b61149a5760405162461bcd60e51b815260206004820152602160248201527f7472616e73666572416e6443616c6c2072657175657374206e6f742076616c6960448201527f64000000000000000000000000000000000000000000000000000000000000006064820152608401610836565b6114a78787878787611d56565b979650505050505050565b60015461010090046001600160a01b031633146114ce57600080fd5b6114d781611ed2565b50565b60015461010090046001600160a01b031633146114f657600080fd5b600360009054906101000a90046001600160a01b03166001600160a01b0316634e71e0c86040518163ffffffff1660e01b8152600401600060405180830381600087803b15801561154657600080fd5b505af115801561155a573d6000803e3d6000fd5b50505050565b6003546040517f1045d7ce0000000000000000000000000000000000000000000000000000000081526001600160a01b0391821660048201528382166024820152908216604482015260009073__ERC20Lib______________________________90631045d7ce90606401602060405180830381865af41580156115e8573d6000803e3d6000fd5b505050506040513d601f19601f8201168201806040525081019061160c9190612610565b9392505050565b600083336001600160a01b0382161480611631575061163133610776565b61169a5760405162461bcd60e51b815260206004820152603460248201527f6569746865722063616c6c6572206d7573742062652073656e646572206f722060448201527318d85b1b1a5b99c81d9a5848199c9bdb9d195b9960621b6064820152608401610836565b60015460ff16156116e05760405162461bcd60e51b815260206004820152601060248201526f14185d5cd8589b194e881c185d5cd95960821b6044820152606401610836565b6040516332c5a6eb60e01b8152600960048201526001600160a01b038087166024830152851660448201526064810184905273__SmartTokenLib_________________________906332c5a6eb90608401602060405180830381865af415801561174e573d6000803e3d6000fd5b505050506040513d601f19601f820116820180604052508101906117729190612629565b6117be5760405162461bcd60e51b815260206004820152601a60248201527f7472616e736665722072657175657374206e6f742076616c69640000000000006044820152606401610836565b6110a0858585611f34565b600084336001600160a01b03821614806117e757506117e733610776565b6118505760405162461bcd60e51b815260206004820152603460248201527f6569746865722063616c6c6572206d7573742062652073656e646572206f722060448201527318d85b1b1a5b99c81d9a5848199c9bdb9d195b9960621b6064820152608401610836565b60015460ff16156118965760405162461bcd60e51b815260206004820152601060248201526f14185d5cd8589b194e881c185d5cd95960821b6044820152606401610836565b6040516332c5a6eb60e01b8152600960048201526001600160a01b038087166024830152851660448201526064810184905273__SmartTokenLib_________________________906332c5a6eb90608401602060405180830381865af4158015611904573d6000803e3d6000fd5b505050506040513d601f19601f820116820180604052508101906119289190612629565b6119745760405162461bcd60e51b815260206004820152601e60248201527f7472616e7366657246726f6d2072657175657374206e6f742076616c696400006044820152606401610836565b6109468686868661207e565b60015461010090046001600160a01b0316331461199c57600080fd5b6114d7816121e8565b60015461010090046001600160a01b031633146119c157600080fd5b6003546040517ff2fde38b0000000000000000000000000000000000000000000000000000000081526001600160a01b0383811660048301529091169063f2fde38b90602401600060405180830381600087803b158015611a2157600080fd5b505af11580156106e8573d6000803e3d6000fd5b60015461010090046001600160a01b03163314611a5157600080fd5b6002805473ffffffffffffffffffffffffffffffffffffffff19166001600160a01b0392909216919091179055565b6001600160a01b038116611ad65760405162461bcd60e51b815260206004820152601460248201527f6d757374206e6f742073656e6420746f203078300000000000000000000000006044820152606401610836565b6001600160a01b038116301415611b2f5760405162461bcd60e51b815260206004820152601b60248201527f6d757374206e6f742073656e6420746f20636f6e74726f6c6c657200000000006044820152606401610836565b6003546001600160a01b0382811691161415611b8d5760405162461bcd60e51b815260206004820152601e60248201527f6d757374206e6f742073656e6420746f20746f6b656e2073746f7261676500006044820152606401610836565b6004546001600160a01b0382811691161415611beb5760405162461bcd60e51b815260206004820152601960248201527f6d757374206e6f742073656e6420746f2066726f6e74656e64000000000000006044820152606401610836565b611bf481610776565b156114d75760405162461bcd60e51b815260206004820181905260248201527f6d757374206e6f742073656e6420746f2062726964676546726f6e74656e64736044820152606401610836565b60015460ff16611c935760405162461bcd60e51b815260206004820152601460248201527f5061757361626c653a206e6f74207061757365640000000000000000000000006044820152606401610836565b6001805460ff191690557f5db9ee0a495bf2e6ff9c91a7834c1ba4fdd244a5e8aa4e537bd38aeae4b073aa335b6040516001600160a01b03909116815260200160405180910390a1565b60015460ff1615611d235760405162461bcd60e51b815260206004820152601060248201526f14185d5cd8589b194e881c185d5cd95960821b6044820152606401610836565b6001805460ff1916811790557f62e78cea01bee320cd4e420270b5ea74000d11b0c9f74754ebdbfc544b05a25833611cc0565b600085336001600160a01b0382161480611d745750611d7433610776565b611ddd5760405162461bcd60e51b815260206004820152603460248201527f6569746865722063616c6c6572206d7573742062652073656e646572206f722060448201527318d85b1b1a5b99c81d9a5848199c9bdb9d195b9960621b6064820152608401610836565b60015460ff1615611e235760405162461bcd60e51b815260206004820152601060248201526f14185d5cd8589b194e881c185d5cd95960821b6044820152606401610836565b611e2c86611a80565b6003546040517f1eb8bccb00000000000000000000000000000000000000000000000000000000815273__ERC677Lib_____________________________91631eb8bccb91611e91916001600160a01b0316908b908b908b908b908b9060040161265b565b602060405180830381865af4158015611eae573d6000803e3d6000fd5b505050506040513d601f19601f820116820180604052508101906114a79190612629565b611efd6000826001600160a01b0316600090815260209190915260409020805460ff19166001179055565b6040516001600160a01b038216907fdfb5b1167ef9eadf5cac67570f1a2971a6f6175303b9d4166a65a11d0a294e3490600090a250565b600083336001600160a01b0382161480611f525750611f5233610776565b611fbb5760405162461bcd60e51b815260206004820152603460248201527f6569746865722063616c6c6572206d7573742062652073656e646572206f722060448201527318d85b1b1a5b99c81d9a5848199c9bdb9d195b9960621b6064820152608401610836565b60015460ff16156120015760405162461bcd60e51b815260206004820152601060248201526f14185d5cd8589b194e881c185d5cd95960821b6044820152606401610836565b61200a84611a80565b6003546040517f44ded8ba0000000000000000000000000000000000000000000000000000000081526001600160a01b039182166004820152868216602482015290851660448201526064810184905273__ERC20Lib______________________________906344ded8ba9060840161105f565b600084336001600160a01b038216148061209c575061209c33610776565b6121055760405162461bcd60e51b815260206004820152603460248201527f6569746865722063616c6c6572206d7573742062652073656e646572206f722060448201527318d85b1b1a5b99c81d9a5848199c9bdb9d195b9960621b6064820152608401610836565b60015460ff161561214b5760405162461bcd60e51b815260206004820152601060248201526f14185d5cd8589b194e881c185d5cd95960821b6044820152606401610836565b61215484611a80565b6003546040517ff3a0ddf90000000000000000000000000000000000000000000000000000000081526001600160a01b0391821660048201528782166024820152868216604482015290851660648201526084810184905273__ERC20Lib______________________________9063f3a0ddf99060a401602060405180830381865af4158015610922573d6000803e3d6000fd5b6001600160a01b038116600081815260208190526040808220805460ff19169055517f21bfb3de07221bc6197a8c23f7a059308b7a741f259cf4ef3b519cde0fde7ac39190a250565b600060208083528351808285015260005b8181101561225e57858101830151858201604001528201612242565b81811115612270576000604083870101525b50601f01601f1916929092016040019392505050565b6001600160a01b03811681146114d757600080fd5b6000602082840312156122ad57600080fd5b813561160c81612286565b6000806000606084860312156122cd57600080fd5b83356122d881612286565b925060208401356122e881612286565b929592945050506040919091013590565b803560ff8116811461230a57600080fd5b919050565b600080600080600080600060e0888a03121561232a57600080fd5b873561233581612286565b9650602088013561234581612286565b9550604088013561235581612286565b94506060880135935061236a608089016122f9565b925060a0880135915060c0880135905092959891949750929550565b600080600080600080600060e0888a0312156123a157600080fd5b87356123ac81612286565b965060208801356123bc81612286565b9550604088013594506060880135935061236a608089016122f9565b600080604083850312156123eb57600080fd5b82356123f681612286565b946020939093013593505050565b60008083601f84011261241657600080fd5b50813567ffffffffffffffff81111561242e57600080fd5b60208301915083602082850101111561244657600080fd5b9250929050565b60008060006040848603121561246257600080fd5b833561246d81612286565b9250602084013567ffffffffffffffff81111561248957600080fd5b61249586828701612404565b9497909650939450505050565b6000806000806000608086880312156124ba57600080fd5b85356124c581612286565b945060208601356124d581612286565b935060408601359250606086013567ffffffffffffffff8111156124f857600080fd5b61250488828901612404565b969995985093965092949392505050565b6000806040838503121561252857600080fd5b823561253381612286565b9150602083013561254381612286565b809150509250929050565b6000806000806080858703121561256457600080fd5b843561256f81612286565b9350602085013561257f81612286565b9250604085013561258f81612286565b9396929550929360600135925050565b600181811c908216806125b357607f821691505b602082108114156125ed577f4e487b7100000000000000000000000000000000000000000000000000000000600052602260045260246000fd5b50919050565b60006020828403121561260557600080fd5b815161160c81612286565b60006020828403121561262257600080fd5b5051919050565b60006020828403121561263b57600080fd5b8151801515811461160c57600080fd5b8183823760009101908152919050565b60006001600160a01b038089168352808816602084015280871660408401525084606083015260a060808301528260a0830152828460c0840137600060c0848401015260c0601f19601f850116830101905097965050505050505056fea26469706673582212209e61e727db0eab937444f7c70828f684e1983730d9d89c9c2ccb18158555f14764736f6c634300080b0033608060405234801561001057600080fd5b50600080546001600160a01b03191633179055341561002e57600080fd5b610b1f8061003d6000396000f3fe608060405234801561001057600080fd5b50600436106100ec5760003560e01c80638da5cb5b11610091578063cf8eeb7e11610063578063cf8eeb7e146101be578063e30c3978146101d1578063f2fde38b146101e4578063f8b2cb4f146101f757005b80638da5cb5b146101655780639f727c2714610190578063c0ee0b8a14610198578063c7c7e9ea146101ab57005b806333dd1b8a116100ca57806333dd1b8a146101275780634e71e0c81461013a5780636c9c2faf14610142578063715018a61461015d57005b806317ffc320146100ee57806321e5383a146101015780632aed7f3f14610114575b005b6100ec6100fc366004610962565b61020a565b6100ec61010f36600461097f565b6102c6565b6100ec610122366004610962565b610374565b6100ec6101353660046109ab565b610400565b6100ec6104b6565b61014a61053e565b6040519081526020015b60405180910390f35b6100ec6105d3565b600054610178906001600160a01b031681565b6040516001600160a01b039091168152602001610154565b6100ec61063f565b6100ec6101a63660046109ec565b600080fd5b61014a6101b9366004610a75565b610693565b6100ec6101cc36600461097f565b610741565b600154610178906001600160a01b031681565b6100ec6101f2366004610962565b6107bf565b61014a610205366004610962565b6107c8565b6000546001600160a01b0316331461022157600080fd5b6040517f70a082310000000000000000000000000000000000000000000000000000000081523060048201526000906001600160a01b038316906370a0823190602401602060405180830381865afa158015610281573d6000803e3d6000fd5b505050506040513d601f19601f820116820180604052508101906102a59190610aae565b6000549091506102c2906001600160a01b0384811691168361086d565b5050565b6000546001600160a01b031633146102dd57600080fd5b6040517f7aeb0ed5000000000000000000000000000000000000000000000000000000008152600260048201526001600160a01b03831660248201526044810182905273__TokenStorageLib_______________________90637aeb0ed5906064015b60006040518083038186803b15801561035857600080fd5b505af415801561036c573d6000803e3d6000fd5b505050505050565b6000546001600160a01b0316331461038b57600080fd5b6000546040517ff2fde38b0000000000000000000000000000000000000000000000000000000081526001600160a01b039182166004820152829182169063f2fde38b90602401600060405180830381600087803b1580156103ec57600080fd5b505af115801561036c573d6000803e3d6000fd5b6000546001600160a01b0316331461041757600080fd5b6040517f5599b4b7000000000000000000000000000000000000000000000000000000008152600260048201526001600160a01b038085166024830152831660448201526064810182905273__TokenStorageLib_______________________90635599b4b79060840160006040518083038186803b15801561049957600080fd5b505af41580156104ad573d6000803e3d6000fd5b50505050505050565b6001546001600160a01b031633146104cd57600080fd5b600154600080546040516001600160a01b0393841693909116917f8be0079c531659141344cd1fd0a4f28419497f9722a3daafe3b4186f6b6457e091a3600180546000805473ffffffffffffffffffffffffffffffffffffffff199081166001600160a01b03841617909155169055565b6040517f072f9a500000000000000000000000000000000000000000000000000000000081526002600482015260009073__TokenStorageLib_______________________9063072f9a5090602401602060405180830381865af41580156105aa573d6000803e3d6000fd5b505050506040513d601f19601f820116820180604052508101906105ce9190610aae565b905090565b6000546001600160a01b031633146105ea57600080fd5b600080546040516001600160a01b03909116917ff8df31144d9c2f0f6b59d69b8b98abd5459d07f2742c4df920b25aae33c6482091a26000805473ffffffffffffffffffffffffffffffffffffffff19169055565b6000546001600160a01b0316331461065657600080fd5b600080546040516001600160a01b03909116914780156108fc02929091818181858888f19350505050158015610690573d6000803e3d6000fd5b50565b6040517f9daeae1e000000000000000000000000000000000000000000000000000000008152600260048201526001600160a01b0380841660248301528216604482015260009073__TokenStorageLib_______________________90639daeae1e90606401602060405180830381865af4158015610716573d6000803e3d6000fd5b505050506040513d601f19601f8201168201806040525081019061073a9190610aae565b9392505050565b6000546001600160a01b0316331461075857600080fd5b6040517fd9c7339e000000000000000000000000000000000000000000000000000000008152600260048201526001600160a01b03831660248201526044810182905273__TokenStorageLib_______________________9063d9c7339e90606401610340565b61069081610907565b6040517fb0aacf24000000000000000000000000000000000000000000000000000000008152600260048201526001600160a01b038216602482015260009073__TokenStorageLib_______________________9063b0aacf2490604401602060405180830381865af4158015610843573d6000803e3d6000fd5b505050506040513d601f19601f820116820180604052508101906108679190610aae565b92915050565b6040517fa9059cbb0000000000000000000000000000000000000000000000000000000081526001600160a01b0383811660048301526024820183905284169063a9059cbb906044016020604051808303816000875af11580156108d5573d6000803e3d6000fd5b505050506040513d601f19601f820116820180604052508101906108f99190610ac7565b61090257600080fd5b505050565b6000546001600160a01b0316331461091e57600080fd5b6001805473ffffffffffffffffffffffffffffffffffffffff19166001600160a01b0392909216919091179055565b6001600160a01b038116811461069057600080fd5b60006020828403121561097457600080fd5b813561073a8161094d565b6000806040838503121561099257600080fd5b823561099d8161094d565b946020939093013593505050565b6000806000606084860312156109c057600080fd5b83356109cb8161094d565b925060208401356109db8161094d565b929592945050506040919091013590565b60008060008060608587031215610a0257600080fd5b8435610a0d8161094d565b935060208501359250604085013567ffffffffffffffff80821115610a3157600080fd5b818701915087601f830112610a4557600080fd5b813581811115610a5457600080fd5b886020828501011115610a6657600080fd5b95989497505060200194505050565b60008060408385031215610a8857600080fd5b8235610a938161094d565b91506020830135610aa38161094d565b809150509250929050565b600060208284031215610ac057600080fd5b5051919050565b600060208284031215610ad957600080fd5b8151801515811461073a57600080fdfea2646970667358221220f0093be45eefa3b445c0e69fc35c23602399ad72137343475b219857f044da1564736f6c634300080b0033",
  "immutableReferences": {},
  "source": "/* SPDX-License-Identifier: apache-2.0 */\n/**\n * Copyright 2022 Monerium ehf.\n *\n * Licensed under the Apache License, Version 2.0 (the \"License\");\n * you may not use this file except in compliance with the License.\n * You may obtain a copy of the License at\n *\n *     http://www.apache.org/licenses/LICENSE-2.0\n *\n * Unless required by applicable law or agreed to in writing, software\n * distributed under the License is distributed on an \"AS IS\" BASIS,\n * WITHOUT WARRANTIES OR CONDITIONS OF ANY KIND, either express or implied.\n * See the License for the specific language governing permissions and\n * limitations under the License.\n */\n\npragma solidity 0.8.11;\n\nimport \"./SmartTokenLib.sol\";\nimport \"./MintableController.sol\";\nimport \"./IValidator.sol\";\n\n/**\n * @title SmartController\n * @dev This contract adds \"smart\" functionality which is required from a regulatory perspective.\n */\ncontract SmartController is MintableController {\n\n    using SmartTokenLib for SmartTokenLib.SmartStorage;\n\n    SmartTokenLib.SmartStorage internal smartToken;\n\n    bytes3 public ticker;\n    uint constant public INITIAL_SUPPLY = 0;\n\n    /**\n     * @dev Contract constructor.\n     * @param storage_ Address of the token storage for the controller.\n     * @param validator Address of validator.\n     * @param ticker_ 3 letter currency ticker.\n     * @param frontend_ Address of the authorized frontend.\n     */\n    constructor(address storage_, address validator, bytes3 ticker_, address frontend_)\n        MintableController(storage_, INITIAL_SUPPLY, frontend_)\n    {\n        require(validator != address(0x0), \"validator cannot be the null address\");\n        smartToken.setValidator(validator);\n        ticker = ticker_;\n    }\n\n    /**\n     * @dev Sets a new validator.\n     * @param validator Address of validator.\n     */\n    function setValidator(address validator) external onlySystemAccounts {\n        smartToken.setValidator(validator);\n    }\n\n    /**\n     * @dev Recovers tokens from an address and reissues them to another address.\n     * In case a user loses its private key the tokens can be recovered by burning\n     * the tokens from that address and reissuing to a new address.\n     * To recover tokens the contract owner needs to provide a signature\n     * proving that the token owner has authorized the owner to do so.\n     * @param caller Address of the caller passed through the frontend.\n     * @param from Address to burn tokens from.\n     * @param to Address to mint tokens to.\n     * @param h Hash which the token owner signed.\n     * @param v Signature component.\n     * @param r Signature component.\n     * @param s Sigature component.\n     * @return Amount recovered.\n     */\n    function recover_withCaller(address caller, address from, address to, bytes32 h, uint8 v, bytes32 r, bytes32 s)\n        external\n        guarded(caller)\n        onlySystemAccount(caller)\n        returns (uint)\n    {\n        avoidBlackholes(to);\n        return SmartTokenLib.recover(token, from, to, h, v, r, s);\n    }\n\n    /**\n     * @dev Transfers tokens [ERC20].\n     * The caller, to address and amount are validated before executing method.\n     * Prior to transfering tokens the validator needs to approve.\n     * @notice Overrides method in a parent.\n     * @param caller Address of the caller passed through the frontend.\n     * @param to Recipient address.\n     * @param amount Number of tokens to transfer.\n     */\n    function transfer_withCaller(address caller, address to, uint amount)\n        public\n        override\n        guarded(caller)\n        whenNotPaused\n        returns (bool)\n    {\n        require(smartToken.validate(caller, to, amount), \"transfer request not valid\");\n        return super.transfer_withCaller(caller, to, amount);\n    }\n\n    /**\n     * @dev Transfers tokens from a specific address [ERC20].\n     * The address owner has to approve the spender beforehand.\n     * The from address, to address and amount are validated before executing method.\n     * @notice Overrides method in a parent.\n     * Prior to transfering tokens the validator needs to approve.\n     * @param caller Address of the caller passed through the frontend.\n     * @param from Address to debet the tokens from.\n     * @param to Recipient address.\n     * @param amount Number of tokens to transfer.\n     */\n    function transferFrom_withCaller(address caller, address from, address to, uint amount)\n        public\n        override\n        guarded(caller)\n        whenNotPaused\n        returns (bool)\n    {\n        require(smartToken.validate(from, to, amount), \"transferFrom request not valid\");\n        return super.transferFrom_withCaller(caller, from, to, amount);\n    }\n\n    /**\n     * @dev Transfers tokens and subsequently calls a method on the recipient [ERC677].\n     * If the recipient is a non-contract address this method behaves just like transfer.\n     * The caller, to address and amount are validated before executing method.\n     * @notice Overrides method in a parent.\n     * @param caller Address of the caller passed through the frontend.\n     * @param to Recipient address.\n     * @param amount Number of tokens to transfer.\n     * @param data Additional data passed to the recipient's tokenFallback method.\n     */\n    function transferAndCall_withCaller(\n        address caller,\n        address to,\n        uint256 amount,\n        bytes calldata data\n    )\n        public\n        override\n        guarded(caller)\n        whenNotPaused\n        returns (bool)\n    {\n        require(smartToken.validate(caller, to, amount), \"transferAndCall request not valid\");\n        return super.transferAndCall_withCaller(caller, to, amount, data);\n    }\n\n    /**\n     * @dev Gets the current validator.\n     * @return Address of validator.\n     */\n    function getValidator() external view returns (address) {\n        return smartToken.getValidator();\n    }\n\n}\n",
  "sourcePath": "/Users/gislik/Code/smart-contracts-private/contracts/SmartController.sol",
  "compiler": {
    "name": "solc",
    "version": "0.8.11+commit.d7f03943.Emscripten.clang"
  },
  "schemaVersion": "3.4.6",
  "updatedAt": "2022-11-15T22:54:49.733Z",
  "networkType": "ethereum",
  "devdoc": {
    "details": "This contract adds \"smart\" functionality which is required from a regulatory perspective.",
    "kind": "dev",
    "methods": {
      "addSystemAccount(address)": {
        "details": "Assigns the system role to an account."
      },
      "allowance(address,address)": {
        "details": "Returns the allowance for a spender",
        "params": {
          "owner": "The address of the owner of the tokens.",
          "spender": "The address of the spender."
        },
        "returns": {
          "_0": "Number of tokens the spender is allowed to spend."
        }
      },
      "approve_withCaller(address,address,uint256)": {
        "details": "Approves a spender [ERC20]. Note that using the approve/transferFrom presents a possible security vulnerability described in: https://docs.google.com/document/d/1YLPtQxZu1UAvO9cZ1O2RPXBbT0mooh4DYKjA_jp-RLM/edit#heading=h.quou09mcbpzw Use transferAndCall to mitigate.",
        "params": {
          "amount": "The allowance of the spender.",
          "caller": "Address of the caller passed through the frontend.",
          "spender": "The address of the future spender."
        }
      },
      "balanceOf(address)": {
        "details": "Returns the number tokens associated with an address.",
        "params": {
          "who": "Address to lookup."
        },
        "returns": {
          "_0": "Balance of address."
        }
      },
      "burnFrom(address,uint256)": {
        "details": "Burns tokens from token owner. This removes the burned tokens from circulation.",
        "params": {
          "amount": "Number of tokens to burn.",
          "from": "Address of the token owner."
        }
      },
      "burnFrom_withCaller(address,address,uint256,bytes32,uint8,bytes32,bytes32)": {
        "details": "Burns tokens from token owner. This removes the burned tokens from circulation.",
        "params": {
          "amount": "Number of tokens to burn.",
          "caller": "Address of the caller passed through the frontend.",
          "from": "Address of the token owner.",
          "h": "Hash which the token owner signed.",
          "r": "Signature component.",
          "s": "Sigature component.",
          "v": "Signature component."
        }
      },
      "claimOwnership()": {
        "details": "Allows the pendingOwner address to finalize the transfer."
      },
      "claimStorageOwnership()": {
        "details": "Claims the ownership of the storage."
      },
      "constructor": {
        "details": "Contract constructor.",
        "params": {
          "frontend_": "Address of the authorized frontend.",
          "storage_": "Address of the token storage for the controller.",
          "ticker_": "3 letter currency ticker.",
          "validator": "Address of validator."
        }
      },
      "getFrontend()": {
        "details": "Returns the current frontend.",
        "returns": {
          "_0": "Address of the frontend."
        }
      },
      "getStorage()": {
        "details": "Returns the current storage.",
        "returns": {
          "_0": "Address of the storage."
        }
      },
      "getValidator()": {
        "details": "Gets the current validator.",
        "returns": {
          "_0": "Address of validator."
        }
      },
      "isFrontend(address)": {
        "details": "Checks wether an address is a frontend.",
        "params": {
          "frontend_": "Address of the frontend candidate."
        }
      },
      "isSystemAccount(address)": {
        "details": "Checks whether an address is a system account.",
        "params": {
          "account": "the address to check."
        },
        "returns": {
          "_0": "true if system account."
        }
      },
      "mintTo_withCaller(address,address,uint256)": {
        "details": "Mints new tokens.",
        "params": {
          "amount": "Number of tokens to mint.",
          "caller": "Address of the caller passed through the frontend.",
          "to": "Address to credit the tokens."
        }
      },
      "pause()": {
        "details": "Pause the function protected by Pausable modifier."
      },
      "paused()": {
        "details": "Returns true if the contract is paused, and false otherwise."
      },
      "recover_withCaller(address,address,address,bytes32,uint8,bytes32,bytes32)": {
        "details": "Recovers tokens from an address and reissues them to another address. In case a user loses its private key the tokens can be recovered by burning the tokens from that address and reissuing to a new address. To recover tokens the contract owner needs to provide a signature proving that the token owner has authorized the owner to do so.",
        "params": {
          "caller": "Address of the caller passed through the frontend.",
          "from": "Address to burn tokens from.",
          "h": "Hash which the token owner signed.",
          "r": "Signature component.",
          "s": "Sigature component.",
          "to": "Address to mint tokens to.",
          "v": "Signature component."
        },
        "returns": {
          "_0": "Amount recovered."
        }
      },
      "removeSystemAccount(address)": {
        "details": "Removes the system role from an account."
      },
      "renounceOwnership()": {
        "details": "Allows the current owner to relinquish control of the contract."
      },
      "setBridgeFrontend(address,string)": {
        "details": "Set a new bridge frontend.",
        "params": {
          "frontend_": "Address of the new bridge frontend.",
          "title": "Keccack256 hash of the frontend title."
        }
      },
      "setFrontend(address)": {
        "details": "Sets a new frontend.",
        "params": {
          "frontend_": "Address of the new frontend."
        }
      },
      "setStorage(address)": {
        "details": "Sets a new storage.",
        "params": {
          "storage_": "Address of the new storage."
        }
      },
      "setValidator(address)": {
        "details": "Sets a new validator.",
        "params": {
          "validator": "Address of validator."
        }
      },
      "totalSupply()": {
        "details": "Returns the total supply.",
        "returns": {
          "_0": "Number of tokens."
        }
      },
      "transferAndCall_withCaller(address,address,uint256,bytes)": {
        "details": "Transfers tokens and subsequently calls a method on the recipient [ERC677]. If the recipient is a non-contract address this method behaves just like transfer. The caller, to address and amount are validated before executing method.",
        "params": {
          "amount": "Number of tokens to transfer.",
          "caller": "Address of the caller passed through the frontend.",
          "data": "Additional data passed to the recipient's tokenFallback method.",
          "to": "Recipient address."
        }
      },
      "transferFrom_withCaller(address,address,address,uint256)": {
        "details": "Transfers tokens from a specific address [ERC20]. The address owner has to approve the spender beforehand. The from address, to address and amount are validated before executing method.",
        "params": {
          "amount": "Number of tokens to transfer.",
          "caller": "Address of the caller passed through the frontend.",
          "from": "Address to debet the tokens from.",
          "to": "Recipient address."
        }
      },
      "transferOwnership(address)": {
        "details": "Allows the current owner to set the pendingOwner address.",
        "params": {
          "newOwner": "The address to transfer ownership to."
        }
      },
      "transferStorageOwnership(address)": {
        "details": "Transfers the ownership of the storage.",
        "params": {
          "newOwner": "Address of the new storage owner."
        }
      },
      "transfer_withCaller(address,address,uint256)": {
        "details": "Transfers tokens [ERC20]. The caller, to address and amount are validated before executing method. Prior to transfering tokens the validator needs to approve.",
        "params": {
          "amount": "Number of tokens to transfer.",
          "caller": "Address of the caller passed through the frontend.",
          "to": "Recipient address."
        }
      },
      "unpause()": {
        "details": "Unpause the function protected by Pausable modifier."
      }
    },
    "title": "SmartController",
    "version": 1
  },
  "userdoc": {
    "kind": "user",
    "methods": {
      "renounceOwnership()": {
        "notice": "Renouncing to ownership will leave the contract without an owner. It will not be possible to call the functions with the `onlyOwner` modifier anymore."
      },
      "transferAndCall_withCaller(address,address,uint256,bytes)": {
        "notice": "Overrides method in a parent."
      },
      "transferFrom_withCaller(address,address,address,uint256)": {
        "notice": "Overrides method in a parent. Prior to transfering tokens the validator needs to approve."
      },
      "transfer_withCaller(address,address,uint256)": {
        "notice": "Overrides method in a parent."
      }
    },
    "version": 1
  }
}