{
  "contractName": "BlacklistValidator",
  "abi": [
    {
      "constant": true,
      "inputs": [],
      "name": "owner",
      "outputs": [
        {
          "name": "",
          "type": "address"
        }
      ],
      "payable": false,
      "stateMutability": "view",
      "type": "function"
    },
    {
      "constant": false,
      "inputs": [
        {
          "name": "newOwner",
          "type": "address"
        }
      ],
      "name": "transferOwnership",
      "outputs": [],
      "payable": false,
      "stateMutability": "nonpayable",
      "type": "function"
    },
    {
      "constant": true,
      "inputs": [
        {
          "name": "",
          "type": "address"
        }
      ],
      "name": "blacklist",
      "outputs": [
        {
          "name": "",
          "type": "bool"
        }
      ],
      "payable": false,
      "stateMutability": "view",
      "type": "function"
    },
    {
      "anonymous": false,
      "inputs": [
        {
          "indexed": true,
          "name": "adversary",
          "type": "address"
        }
      ],
      "name": "Ban",
      "type": "event"
    },
    {
      "anonymous": false,
      "inputs": [
        {
          "indexed": true,
          "name": "goodguy",
          "type": "address"
        }
      ],
      "name": "Unban",
      "type": "event"
    },
    {
      "anonymous": false,
      "inputs": [
        {
          "indexed": true,
          "name": "from",
          "type": "address"
        },
        {
          "indexed": true,
          "name": "to",
          "type": "address"
        },
        {
          "indexed": false,
          "name": "valid",
          "type": "bool"
        },
        {
          "indexed": false,
          "name": "value",
          "type": "uint256"
        }
      ],
      "name": "Decision",
      "type": "event"
    },
    {
      "constant": false,
      "inputs": [
        {
          "name": "adversary",
          "type": "address"
        }
      ],
      "name": "ban",
      "outputs": [],
      "payable": false,
      "stateMutability": "nonpayable",
      "type": "function"
    },
    {
      "constant": false,
      "inputs": [
        {
          "name": "goodguy",
          "type": "address"
        }
      ],
      "name": "unban",
      "outputs": [],
      "payable": false,
      "stateMutability": "nonpayable",
      "type": "function"
    },
    {
      "constant": true,
      "inputs": [
        {
          "name": "_from",
          "type": "address"
        },
        {
          "name": "_to",
          "type": "address"
        },
        {
          "name": "_value",
          "type": "uint256"
        }
      ],
      "name": "validate",
      "outputs": [
        {
          "name": "valid",
          "type": "bool"
        }
      ],
      "payable": false,
      "stateMutability": "view",
      "type": "function"
    }
  ],
  "bytecode": "0x6080604052336000806101000a81548173ffffffffffffffffffffffffffffffffffffffff021916908373ffffffffffffffffffffffffffffffffffffffff16021790555061067f806100536000396000f300608060405260043610610078576000357c0100000000000000000000000000000000000000000000000000000000900463ffffffff1680638da5cb5b1461007d57806397c3ccd8146100d4578063aa3ad4e414610117578063b9f145571461019c578063f2fde38b146101df578063f9f92be414610222575b600080fd5b34801561008957600080fd5b5061009261027d565b604051808273ffffffffffffffffffffffffffffffffffffffff1673ffffffffffffffffffffffffffffffffffffffff16815260200191505060405180910390f35b3480156100e057600080fd5b50610115600480360381019080803573ffffffffffffffffffffffffffffffffffffffff1690602001909291905050506102a2565b005b34801561012357600080fd5b50610182600480360381019080803573ffffffffffffffffffffffffffffffffffffffff169060200190929190803573ffffffffffffffffffffffffffffffffffffffff16906020019092919080359060200190929190505050610395565b604051808215151515815260200191505060405180910390f35b3480156101a857600080fd5b506101dd600480360381019080803573ffffffffffffffffffffffffffffffffffffffff16906020019092919050505061046f565b005b3480156101eb57600080fd5b50610220600480360381019080803573ffffffffffffffffffffffffffffffffffffffff169060200190929190505050610563565b005b34801561022e57600080fd5b50610263600480360381019080803573ffffffffffffffffffffffffffffffffffffffff169060200190929190505050610633565b604051808215151515815260200191505060405180910390f35b6000809054906101000a900473ffffffffffffffffffffffffffffffffffffffff1681565b6000809054906101000a900473ffffffffffffffffffffffffffffffffffffffff1673ffffffffffffffffffffffffffffffffffffffff163373ffffffffffffffffffffffffffffffffffffffff1614156103925760018060008373ffffffffffffffffffffffffffffffffffffffff1673ffffffffffffffffffffffffffffffffffffffff16815260200190815260200160002060006101000a81548160ff0219169083151502179055508073ffffffffffffffffffffffffffffffffffffffff167f9a4e757235705bd178419abc9fa645392c5c7dce5b09940a81ef76794b84bd6860405160405180910390a25b50565b6000600160008573ffffffffffffffffffffffffffffffffffffffff1673ffffffffffffffffffffffffffffffffffffffff16815260200190815260200160002060009054906101000a900460ff16156103f257600090506103f7565b600190505b8273ffffffffffffffffffffffffffffffffffffffff168473ffffffffffffffffffffffffffffffffffffffff167fda398dc2e18a5cfa0ead2c5c50d11ad8294e0f46df693ca2981b61b59e670f3b838560405180831515151581526020018281526020019250505060405180910390a39392505050565b6000809054906101000a900473ffffffffffffffffffffffffffffffffffffffff1673ffffffffffffffffffffffffffffffffffffffff163373ffffffffffffffffffffffffffffffffffffffff161415610560576000600160008373ffffffffffffffffffffffffffffffffffffffff1673ffffffffffffffffffffffffffffffffffffffff16815260200190815260200160002060006101000a81548160ff0219169083151502179055508073ffffffffffffffffffffffffffffffffffffffff167f866c4c4c778f85c380f911e6c43d125e57865fec38a5ccf53b62b74a8473ed1660405160405180910390a25b50565b6000809054906101000a900473ffffffffffffffffffffffffffffffffffffffff1673ffffffffffffffffffffffffffffffffffffffff163373ffffffffffffffffffffffffffffffffffffffff16141561063057600073ffffffffffffffffffffffffffffffffffffffff168173ffffffffffffffffffffffffffffffffffffffff1614151561062f57806000806101000a81548173ffffffffffffffffffffffffffffffffffffffff021916908373ffffffffffffffffffffffffffffffffffffffff1602179055505b5b50565b60016020528060005260406000206000915054906101000a900460ff16815600a165627a7a723058209f1360432af273dfa464d47910527a137f69c24e2cf6923feb396b0666508d540029",
  "source": "pragma solidity ^0.4.24;\n\nimport \"zeppelin-solidity/contracts/ownership/Ownable.sol\";\nimport \"./Validator.sol\";\n\ncontract BlacklistValidator is Validator, Ownable {\n\n    mapping (address => bool) public blacklist;\n\n    // EVENTS\n    event Ban(address indexed adversary);\n    event Unban(address indexed goodguy);\n\n    // EXTERNAL\n    function ban(address adversary) onlyOwner {\n       blacklist[adversary] = true; \n       Ban(adversary);\n    }\n\n    function unban(address goodguy) onlyOwner {\n        blacklist[goodguy] = false;\n        Unban(goodguy);\n    }\n\n    // EXTERNAL CONSTANT\n    function validate(address _from, address _to, uint _value) \n        constant\n        returns (bool valid) \n    { \n        if (blacklist[_from]) {\n            valid = false;\n        } else {\n            valid = true;\n        }\n        Decision(_from, _to, valid, _value);\n    }\n\n}\n",
  "sourcePath": "/Users/gislik/Code/smart-contracts/contracts/BlacklistValidator.sol",
  "compiler": {
    "name": "solc",
    "version": "0.4.24+commit.e67f0147.Emscripten.clang"
  },
  "schemaVersion": "2.0.0",
  "updatedAt": "2018-08-08T11:18:07.496Z"
}