{
  "contractName": "ConstantSmartController",
  "abi": [
    {
      "constant": true,
      "inputs": [],
      "name": "getFrontend",
      "outputs": [
        {
          "name": "",
          "type": "address"
        }
      ],
      "payable": false,
      "stateMutability": "view",
      "type": "function"
    },
    {
      "constant": true,
      "inputs": [],
      "name": "name",
      "outputs": [
        {
          "name": "",
          "type": "string"
        }
      ],
      "payable": false,
      "stateMutability": "view",
      "type": "function"
    },
    {
      "constant": false,
      "inputs": [
        {
          "name": "spender",
          "type": "address"
        },
        {
          "name": "value",
          "type": "uint256"
        }
      ],
      "name": "approve",
      "outputs": [
        {
          "name": "ok",
          "type": "bool"
        }
      ],
      "payable": false,
      "stateMutability": "nonpayable",
      "type": "function"
    },
    {
      "constant": true,
      "inputs": [],
      "name": "getValidator",
      "outputs": [
        {
          "name": "",
          "type": "address"
        }
      ],
      "payable": false,
      "stateMutability": "view",
      "type": "function"
    },
    {
      "constant": false,
      "inputs": [
        {
          "name": "validator",
          "type": "address"
        }
      ],
      "name": "setValidator",
      "outputs": [],
      "payable": false,
      "stateMutability": "nonpayable",
      "type": "function"
    },
    {
      "constant": true,
      "inputs": [],
      "name": "totalSupply",
      "outputs": [
        {
          "name": "",
          "type": "uint256"
        }
      ],
      "payable": false,
      "stateMutability": "view",
      "type": "function"
    },
    {
      "constant": false,
      "inputs": [
        {
          "name": "from",
          "type": "address"
        },
        {
          "name": "to",
          "type": "address"
        },
        {
          "name": "value",
          "type": "uint256"
        }
      ],
      "name": "transferFrom",
      "outputs": [
        {
          "name": "ok",
          "type": "bool"
        }
      ],
      "payable": false,
      "stateMutability": "nonpayable",
      "type": "function"
    },
    {
      "constant": true,
      "inputs": [],
      "name": "INITIAL_SUPPLY",
      "outputs": [
        {
          "name": "",
          "type": "uint256"
        }
      ],
      "payable": false,
      "stateMutability": "view",
      "type": "function"
    },
    {
      "constant": true,
      "inputs": [],
      "name": "decimals",
      "outputs": [
        {
          "name": "",
          "type": "uint256"
        }
      ],
      "payable": false,
      "stateMutability": "view",
      "type": "function"
    },
    {
      "constant": true,
      "inputs": [],
      "name": "getStorage",
      "outputs": [
        {
          "name": "",
          "type": "address"
        }
      ],
      "payable": false,
      "stateMutability": "view",
      "type": "function"
    },
    {
      "constant": false,
      "inputs": [
        {
          "name": "amount",
          "type": "uint256"
        }
      ],
      "name": "burn",
      "outputs": [
        {
          "name": "",
          "type": "bool"
        }
      ],
      "payable": false,
      "stateMutability": "nonpayable",
      "type": "function"
    },
    {
      "constant": false,
      "inputs": [],
      "name": "claimOwnership",
      "outputs": [],
      "payable": false,
      "stateMutability": "nonpayable",
      "type": "function"
    },
    {
      "constant": false,
      "inputs": [
        {
          "name": "_address",
          "type": "address"
        }
      ],
      "name": "setFrontend",
      "outputs": [],
      "payable": false,
      "stateMutability": "nonpayable",
      "type": "function"
    },
    {
      "constant": false,
      "inputs": [
        {
          "name": "from",
          "type": "address"
        },
        {
          "name": "to",
          "type": "address"
        },
        {
          "name": "h",
          "type": "bytes32"
        },
        {
          "name": "v",
          "type": "uint8"
        },
        {
          "name": "r",
          "type": "bytes32"
        },
        {
          "name": "s",
          "type": "bytes32"
        }
      ],
      "name": "recover",
      "outputs": [
        {
          "name": "",
          "type": "bool"
        }
      ],
      "payable": false,
      "stateMutability": "nonpayable",
      "type": "function"
    },
    {
      "constant": true,
      "inputs": [
        {
          "name": "who",
          "type": "address"
        }
      ],
      "name": "balanceOf",
      "outputs": [
        {
          "name": "",
          "type": "uint256"
        }
      ],
      "payable": false,
      "stateMutability": "view",
      "type": "function"
    },
    {
      "constant": false,
      "inputs": [],
      "name": "renounceOwnership",
      "outputs": [],
      "payable": false,
      "stateMutability": "nonpayable",
      "type": "function"
    },
    {
      "constant": false,
      "inputs": [
        {
          "name": "_caller",
          "type": "address"
        },
        {
          "name": "_spender",
          "type": "address"
        },
        {
          "name": "_value",
          "type": "uint256"
        }
      ],
      "name": "approve_withCaller",
      "outputs": [
        {
          "name": "ok",
          "type": "bool"
        }
      ],
      "payable": false,
      "stateMutability": "nonpayable",
      "type": "function"
    },
    {
      "constant": true,
      "inputs": [],
      "name": "ticker",
      "outputs": [
        {
          "name": "",
          "type": "bytes3"
        }
      ],
      "payable": false,
      "stateMutability": "view",
      "type": "function"
    },
    {
      "constant": true,
      "inputs": [],
      "name": "owner",
      "outputs": [
        {
          "name": "",
          "type": "address"
        }
      ],
      "payable": false,
      "stateMutability": "view",
      "type": "function"
    },
    {
      "constant": true,
      "inputs": [],
      "name": "symbol",
      "outputs": [
        {
          "name": "",
          "type": "string"
        }
      ],
      "payable": false,
      "stateMutability": "view",
      "type": "function"
    },
    {
      "constant": false,
      "inputs": [
        {
          "name": "amount",
          "type": "uint256"
        }
      ],
      "name": "mint",
      "outputs": [
        {
          "name": "",
          "type": "bool"
        }
      ],
      "payable": false,
      "stateMutability": "nonpayable",
      "type": "function"
    },
    {
      "constant": false,
      "inputs": [
        {
          "name": "_caller",
          "type": "address"
        },
        {
          "name": "_spender",
          "type": "address"
        },
        {
          "name": "_value",
          "type": "uint256"
        },
        {
          "name": "_extraData",
          "type": "bytes"
        }
      ],
      "name": "approveAndCall_withCaller",
      "outputs": [
        {
          "name": "ok",
          "type": "bool"
        }
      ],
      "payable": false,
      "stateMutability": "nonpayable",
      "type": "function"
    },
    {
      "constant": false,
      "inputs": [
        {
          "name": "to",
          "type": "address"
        },
        {
          "name": "value",
          "type": "uint256"
        }
      ],
      "name": "transfer",
      "outputs": [
        {
          "name": "ok",
          "type": "bool"
        }
      ],
      "payable": false,
      "stateMutability": "nonpayable",
      "type": "function"
    },
    {
      "constant": false,
      "inputs": [
        {
          "name": "spender",
          "type": "address"
        },
        {
          "name": "value",
          "type": "uint256"
        },
        {
          "name": "extraData",
          "type": "bytes"
        }
      ],
      "name": "approveAndCall",
      "outputs": [
        {
          "name": "ok",
          "type": "bool"
        }
      ],
      "payable": false,
      "stateMutability": "nonpayable",
      "type": "function"
    },
    {
      "constant": true,
      "inputs": [
        {
          "name": "owner",
          "type": "address"
        },
        {
          "name": "spender",
          "type": "address"
        }
      ],
      "name": "allowance",
      "outputs": [
        {
          "name": "",
          "type": "uint256"
        }
      ],
      "payable": false,
      "stateMutability": "view",
      "type": "function"
    },
    {
      "constant": false,
      "inputs": [
        {
          "name": "_caller",
          "type": "address"
        },
        {
          "name": "to",
          "type": "address"
        },
        {
          "name": "value",
          "type": "uint256"
        }
      ],
      "name": "transfer_withCaller",
      "outputs": [
        {
          "name": "ok",
          "type": "bool"
        }
      ],
      "payable": false,
      "stateMutability": "nonpayable",
      "type": "function"
    },
    {
      "constant": true,
      "inputs": [],
      "name": "pendingOwner",
      "outputs": [
        {
          "name": "",
          "type": "address"
        }
      ],
      "payable": false,
      "stateMutability": "view",
      "type": "function"
    },
    {
      "constant": false,
      "inputs": [
        {
          "name": "_caller",
          "type": "address"
        },
        {
          "name": "_from",
          "type": "address"
        },
        {
          "name": "_to",
          "type": "address"
        },
        {
          "name": "_value",
          "type": "uint256"
        }
      ],
      "name": "transferFrom_withCaller",
      "outputs": [
        {
          "name": "ok",
          "type": "bool"
        }
      ],
      "payable": false,
      "stateMutability": "nonpayable",
      "type": "function"
    },
    {
      "constant": false,
      "inputs": [
        {
          "name": "newOwner",
          "type": "address"
        }
      ],
      "name": "transferOwnership",
      "outputs": [],
      "payable": false,
      "stateMutability": "nonpayable",
      "type": "function"
    },
    {
      "inputs": [
        {
          "name": "storage_",
          "type": "address"
        },
        {
          "name": "ticker",
          "type": "bytes3"
        }
      ],
      "payable": false,
      "stateMutability": "nonpayable",
      "type": "constructor"
    },
    {
      "anonymous": false,
      "inputs": [
        {
          "indexed": true,
          "name": "previousOwner",
          "type": "address"
        }
      ],
      "name": "OwnershipRenounced",
      "type": "event"
    },
    {
      "anonymous": false,
      "inputs": [
        {
          "indexed": true,
          "name": "previousOwner",
          "type": "address"
        },
        {
          "indexed": true,
          "name": "newOwner",
          "type": "address"
        }
      ],
      "name": "OwnershipTransferred",
      "type": "event"
    }
  ],
  "bytecode": "0x6080604052601260065560126009553480156200001b57600080fd5b506040516040806200421c833981018060405281019080805190602001909291908051906020019092919050505081600062000056620003d0565b8082151515158152602001915050604051809103906000f08015801562000081573d6000803e3d6000fd5b50828260008181336000806101000a81548173ffffffffffffffffffffffffffffffffffffffff021916908373ffffffffffffffffffffffffffffffffffffffff16021790555060008273ffffffffffffffffffffffffffffffffffffffff161480620000ee5750600081145b1515620000f757fe5b60008273ffffffffffffffffffffffffffffffffffffffff161415620002645762000121620003e1565b604051809103906000f0801580156200013e573d6000803e3d6000fd5b50600260006101000a81548173ffffffffffffffffffffffffffffffffffffffff021916908373ffffffffffffffffffffffffffffffffffffffff160217905550600260009054906101000a900473ffffffffffffffffffffffffffffffffffffffff1673ffffffffffffffffffffffffffffffffffffffff166321e5383a33836040518363ffffffff167c0100000000000000000000000000000000000000000000000000000000028152600401808373ffffffffffffffffffffffffffffffffffffffff1673ffffffffffffffffffffffffffffffffffffffff16815260200182815260200192505050600060405180830381600087803b1580156200024557600080fd5b505af11580156200025a573d6000803e3d6000fd5b50505050620002a6565b81600260006101000a81548173ffffffffffffffffffffffffffffffffffffffff021916908373ffffffffffffffffffffffffffffffffffffffff1602179055505b5050505060008273ffffffffffffffffffffffffffffffffffffffff1614151515620002ce57fe5b600773__SmartTokenLib_________________________63ad4153499091846040518363ffffffff167c0100000000000000000000000000000000000000000000000000000000028152600401808381526020018273ffffffffffffffffffffffffffffffffffffffff1673ffffffffffffffffffffffffffffffffffffffff1681526020019250505060006040518083038186803b1580156200037157600080fd5b505af415801562000386573d6000803e3d6000fd5b5050505080600860006101000a81548162ffffff02191690837d010000000000000000000000000000000000000000000000000000000000900402179055505050505050620003f2565b604051610168806200328e83390190565b604051610e2680620033f683390190565b612e8c80620004026000396000f300608060405260043610610174576000357c0100000000000000000000000000000000000000000000000000000000900463ffffffff1680623074ff1461017957806306fdde03146101d0578063095ea7b3146102605780631195e07e146102c55780631327d3d81461031c57806318160ddd1461035f57806323b872dd1461038a5780632ff2e9dc1461040f578063313ce5671461043a5780633408f73a1461046557806342966c68146104bc5780634e71e0c81461050157806369569a51146105185780636eb4c6091461055b57806370a082311461060d578063715018a614610664578063774d54091461067b5780638ba47bdd146107005780638da5cb5b1461076b57806395d89b41146107c2578063a0712d6814610852578063a3c0767f14610897578063a9059cbb14610962578063cae9ca51146109c7578063dd62ed3e14610a44578063e174fd9414610abb578063e30c397814610b40578063e974fee914610b97578063f2fde38b14610c3c575b600080fd5b34801561018557600080fd5b5061018e610c7f565b604051808273ffffffffffffffffffffffffffffffffffffffff1673ffffffffffffffffffffffffffffffffffffffff16815260200191505060405180910390f35b3480156101dc57600080fd5b506101e5610ca9565b6040518080602001828103825283818151815260200191508051906020019080838360005b8381101561022557808201518184015260208101905061020a565b50505050905090810190601f1680156102525780820380516001836020036101000a031916815260200191505b509250505060405180910390f35b34801561026c57600080fd5b506102ab600480360381019080803573ffffffffffffffffffffffffffffffffffffffff16906020019092919080359060200190929190505050610d47565b604051808215151515815260200191505060405180910390f35b3480156102d157600080fd5b506102da610d5c565b604051808273ffffffffffffffffffffffffffffffffffffffff1673ffffffffffffffffffffffffffffffffffffffff16815260200191505060405180910390f35b34801561032857600080fd5b5061035d600480360381019080803573ffffffffffffffffffffffffffffffffffffffff169060200190929190505050610e0c565b005b34801561036b57600080fd5b50610374610ec9565b6040518082815260200191505060405180910390f35b34801561039657600080fd5b506103f5600480360381019080803573ffffffffffffffffffffffffffffffffffffffff169060200190929190803573ffffffffffffffffffffffffffffffffffffffff16906020019092919080359060200190929190505050610f91565b604051808215151515815260200191505060405180910390f35b34801561041b57600080fd5b50610424610fa8565b6040518082815260200191505060405180910390f35b34801561044657600080fd5b5061044f610fad565b6040518082815260200191505060405180910390f35b34801561047157600080fd5b5061047a610fb3565b604051808273ffffffffffffffffffffffffffffffffffffffff1673ffffffffffffffffffffffffffffffffffffffff16815260200191505060405180910390f35b3480156104c857600080fd5b506104e760048036038101908080359060200190929190505050610fdd565b604051808215151515815260200191505060405180910390f35b34801561050d57600080fd5b50610516611189565b005b34801561052457600080fd5b50610559600480360381019080803573ffffffffffffffffffffffffffffffffffffffff169060200190929190505050611328565b005b34801561056757600080fd5b506105f3600480360381019080803573ffffffffffffffffffffffffffffffffffffffff169060200190929190803573ffffffffffffffffffffffffffffffffffffffff1690602001909291908035600019169060200190929190803560ff169060200190929190803560001916906020019092919080356000191690602001909291905050506113c7565b604051808215151515815260200191505060405180910390f35b34801561061957600080fd5b5061064e600480360381019080803573ffffffffffffffffffffffffffffffffffffffff169060200190929190505050611461565b6040518082815260200191505060405180910390f35b34801561067057600080fd5b50610679611562565b005b34801561068757600080fd5b506106e6600480360381019080803573ffffffffffffffffffffffffffffffffffffffff169060200190929190803573ffffffffffffffffffffffffffffffffffffffff16906020019092919080359060200190929190505050611664565b604051808215151515815260200191505060405180910390f35b34801561070c57600080fd5b5061071561190e565b60405180827cffffffffffffffffffffffffffffffffffffffffffffffffffffffffff19167cffffffffffffffffffffffffffffffffffffffffffffffffffffffffff1916815260200191505060405180910390f35b34801561077757600080fd5b5061078061193e565b604051808273ffffffffffffffffffffffffffffffffffffffff1673ffffffffffffffffffffffffffffffffffffffff16815260200191505060405180910390f35b3480156107ce57600080fd5b506107d7611963565b6040518080602001828103825283818151815260200191508051906020019080838360005b838110156108175780820151818401526020810190506107fc565b50505050905090810190601f1680156108445780820380516001836020036101000a031916815260200191505b509250505060405180910390f35b34801561085e57600080fd5b5061087d60048036038101908080359060200190929190505050611a01565b604051808215151515815260200191505060405180910390f35b3480156108a357600080fd5b50610948600480360381019080803573ffffffffffffffffffffffffffffffffffffffff169060200190929190803573ffffffffffffffffffffffffffffffffffffffff16906020019092919080359060200190929190803590602001908201803590602001908080601f0160208091040260200160405190810160405280939291908181526020018383808284378201915050505050509192919290505050611bad565b604051808215151515815260200191505060405180910390f35b34801561096e57600080fd5b506109ad600480360381019080803573ffffffffffffffffffffffffffffffffffffffff16906020019092919080359060200190929190505050611ec5565b604051808215151515815260200191505060405180910390f35b3480156109d357600080fd5b50610a2a600480360381019080803573ffffffffffffffffffffffffffffffffffffffff16906020019092919080359060200190929190803590602001908201803590602001919091929391929390505050611eda565b604051808215151515815260200191505060405180910390f35b348015610a5057600080fd5b50610aa5600480360381019080803573ffffffffffffffffffffffffffffffffffffffff169060200190929190803573ffffffffffffffffffffffffffffffffffffffff169060200190929190505050611f24565b6040518082815260200191505060405180910390f35b348015610ac757600080fd5b50610b26600480360381019080803573ffffffffffffffffffffffffffffffffffffffff169060200190929190803573ffffffffffffffffffffffffffffffffffffffff169060200190929190803590602001909291905050506120a2565b604051808215151515815260200191505060405180910390f35b348015610b4c57600080fd5b50610b55612245565b604051808273ffffffffffffffffffffffffffffffffffffffff1673ffffffffffffffffffffffffffffffffffffffff16815260200191505060405180910390f35b348015610ba357600080fd5b50610c22600480360381019080803573ffffffffffffffffffffffffffffffffffffffff169060200190929190803573ffffffffffffffffffffffffffffffffffffffff169060200190929190803573ffffffffffffffffffffffffffffffffffffffff1690602001909291908035906020019092919050505061226b565b604051808215151515815260200191505060405180910390f35b348015610c4857600080fd5b50610c7d600480360381019080803573ffffffffffffffffffffffffffffffffffffffff16906020019092919050505061254a565b005b6000600360009054906101000a900473ffffffffffffffffffffffffffffffffffffffff16905090565b60048054600181600116156101000203166002900480601f016020809104026020016040519081016040528092919081815260200182805460018160011615610100020316600290048015610d3f5780601f10610d1457610100808354040283529160200191610d3f565b820191906000526020600020905b815481529060010190602001808311610d2257829003601f168201915b505050505081565b6000610d54338484611664565b905092915050565b6000600773__SmartTokenLib_________________________636271970c90916040518263ffffffff167c01000000000000000000000000000000000000000000000000000000000281526004018082815260200191505060206040518083038186803b158015610dcc57600080fd5b505af4158015610de0573d6000803e3d6000fd5b505050506040513d6020811015610df657600080fd5b8101908080519060200190929190505050905090565b600773__SmartTokenLib_________________________63ad4153499091836040518363ffffffff167c0100000000000000000000000000000000000000000000000000000000028152600401808381526020018273ffffffffffffffffffffffffffffffffffffffff1673ffffffffffffffffffffffffffffffffffffffff1681526020019250505060006040518083038186803b158015610eae57600080fd5b505af4158015610ec2573d6000803e3d6000fd5b5050505050565b6000600260009054906101000a900473ffffffffffffffffffffffffffffffffffffffff1673ffffffffffffffffffffffffffffffffffffffff16636c9c2faf6040518163ffffffff167c0100000000000000000000000000000000000000000000000000000000028152600401602060405180830381600087803b158015610f5157600080fd5b505af1158015610f65573d6000803e3d6000fd5b505050506040513d6020811015610f7b57600080fd5b8101908080519060200190929190505050905090565b6000610f9f3385858561226b565b90509392505050565b600081565b60095481565b6000600260009054906101000a900473ffffffffffffffffffffffffffffffffffffffff16905090565b60008060009054906101000a900473ffffffffffffffffffffffffffffffffffffffff1673ffffffffffffffffffffffffffffffffffffffff163373ffffffffffffffffffffffffffffffffffffffff1614151561103a57600080fd5b600260009054906101000a900473ffffffffffffffffffffffffffffffffffffffff1673ffffffffffffffffffffffffffffffffffffffff1673__MintableTokenLib______________________63a6c9ac28909133856040518463ffffffff167c0100000000000000000000000000000000000000000000000000000000028152600401808473ffffffffffffffffffffffffffffffffffffffff1673ffffffffffffffffffffffffffffffffffffffff1681526020018373ffffffffffffffffffffffffffffffffffffffff1673ffffffffffffffffffffffffffffffffffffffff168152602001828152602001935050505060206040518083038186803b15801561114757600080fd5b505af415801561115b573d6000803e3d6000fd5b505050506040513d602081101561117157600080fd5b81019080805190602001909291905050509050919050565b600160009054906101000a900473ffffffffffffffffffffffffffffffffffffffff1673ffffffffffffffffffffffffffffffffffffffff163373ffffffffffffffffffffffffffffffffffffffff161415156111e557600080fd5b600160009054906101000a900473ffffffffffffffffffffffffffffffffffffffff1673ffffffffffffffffffffffffffffffffffffffff166000809054906101000a900473ffffffffffffffffffffffffffffffffffffffff1673ffffffffffffffffffffffffffffffffffffffff167f8be0079c531659141344cd1fd0a4f28419497f9722a3daafe3b4186f6b6457e060405160405180910390a3600160009054906101000a900473ffffffffffffffffffffffffffffffffffffffff166000806101000a81548173ffffffffffffffffffffffffffffffffffffffff021916908373ffffffffffffffffffffffffffffffffffffffff1602179055506000600160006101000a81548173ffffffffffffffffffffffffffffffffffffffff021916908373ffffffffffffffffffffffffffffffffffffffff160217905550565b6000809054906101000a900473ffffffffffffffffffffffffffffffffffffffff1673ffffffffffffffffffffffffffffffffffffffff163373ffffffffffffffffffffffffffffffffffffffff1614151561138357600080fd5b80600360006101000a81548173ffffffffffffffffffffffffffffffffffffffff021916908373ffffffffffffffffffffffffffffffffffffffff16021790555050565b60008060009054906101000a900473ffffffffffffffffffffffffffffffffffffffff1673ffffffffffffffffffffffffffffffffffffffff163373ffffffffffffffffffffffffffffffffffffffff1614151561142457600080fd5b611455600260009054906101000a900473ffffffffffffffffffffffffffffffffffffffff168888888888886125e9565b90509695505050505050565b6000600260009054906101000a900473ffffffffffffffffffffffffffffffffffffffff1673ffffffffffffffffffffffffffffffffffffffff1663f8b2cb4f836040518263ffffffff167c0100000000000000000000000000000000000000000000000000000000028152600401808273ffffffffffffffffffffffffffffffffffffffff1673ffffffffffffffffffffffffffffffffffffffff168152602001915050602060405180830381600087803b15801561152057600080fd5b505af1158015611534573d6000803e3d6000fd5b505050506040513d602081101561154a57600080fd5b81019080805190602001909291905050509050919050565b6000809054906101000a900473ffffffffffffffffffffffffffffffffffffffff1673ffffffffffffffffffffffffffffffffffffffff163373ffffffffffffffffffffffffffffffffffffffff161415156115bd57600080fd5b6000809054906101000a900473ffffffffffffffffffffffffffffffffffffffff1673ffffffffffffffffffffffffffffffffffffffff167ff8df31144d9c2f0f6b59d69b8b98abd5459d07f2742c4df920b25aae33c6482060405160405180910390a260008060006101000a81548173ffffffffffffffffffffffffffffffffffffffff021916908373ffffffffffffffffffffffffffffffffffffffff160217905550565b6000838073ffffffffffffffffffffffffffffffffffffffff163373ffffffffffffffffffffffffffffffffffffffff1614806116ee5750600360009054906101000a900473ffffffffffffffffffffffffffffffffffffffff1673ffffffffffffffffffffffffffffffffffffffff163373ffffffffffffffffffffffffffffffffffffffff16145b1515611788576040517f08c379a00000000000000000000000000000000000000000000000000000000081526004018080602001828103825260348152602001807f6569746865722063616c6c6572206d7573742062652073656e646572206f722081526020017f63616c6c696e67207669612066726f6e74656e6400000000000000000000000081525060400191505060405180910390fd5b600260009054906101000a900473ffffffffffffffffffffffffffffffffffffffff1673ffffffffffffffffffffffffffffffffffffffff1673__ERC20Lib______________________________63365feff190918787876040518563ffffffff167c0100000000000000000000000000000000000000000000000000000000028152600401808573ffffffffffffffffffffffffffffffffffffffff1673ffffffffffffffffffffffffffffffffffffffff1681526020018473ffffffffffffffffffffffffffffffffffffffff1673ffffffffffffffffffffffffffffffffffffffff1681526020018373ffffffffffffffffffffffffffffffffffffffff1673ffffffffffffffffffffffffffffffffffffffff16815260200182815260200194505050505060206040518083038186803b1580156118c957600080fd5b505af41580156118dd573d6000803e3d6000fd5b505050506040513d60208110156118f357600080fd5b81019080805190602001909291905050509150509392505050565b600860009054906101000a90047d0100000000000000000000000000000000000000000000000000000000000281565b6000809054906101000a900473ffffffffffffffffffffffffffffffffffffffff1681565b60058054600181600116156101000203166002900480601f0160208091040260200160405190810160405280929190818152602001828054600181600116156101000203166002900480156119f95780601f106119ce576101008083540402835291602001916119f9565b820191906000526020600020905b8154815290600101906020018083116119dc57829003601f168201915b505050505081565b60008060009054906101000a900473ffffffffffffffffffffffffffffffffffffffff1673ffffffffffffffffffffffffffffffffffffffff163373ffffffffffffffffffffffffffffffffffffffff16141515611a5e57600080fd5b600260009054906101000a900473ffffffffffffffffffffffffffffffffffffffff1673ffffffffffffffffffffffffffffffffffffffff1673__MintableTokenLib______________________63b0c29c74909133856040518463ffffffff167c0100000000000000000000000000000000000000000000000000000000028152600401808473ffffffffffffffffffffffffffffffffffffffff1673ffffffffffffffffffffffffffffffffffffffff1681526020018373ffffffffffffffffffffffffffffffffffffffff1673ffffffffffffffffffffffffffffffffffffffff168152602001828152602001935050505060206040518083038186803b158015611b6b57600080fd5b505af4158015611b7f573d6000803e3d6000fd5b505050506040513d6020811015611b9557600080fd5b81019080805190602001909291905050509050919050565b6000848073ffffffffffffffffffffffffffffffffffffffff163373ffffffffffffffffffffffffffffffffffffffff161480611c375750600360009054906101000a900473ffffffffffffffffffffffffffffffffffffffff1673ffffffffffffffffffffffffffffffffffffffff163373ffffffffffffffffffffffffffffffffffffffff16145b1515611cd1576040517f08c379a00000000000000000000000000000000000000000000000000000000081526004018080602001828103825260348152602001807f6569746865722063616c6c6572206d7573742062652073656e646572206f722081526020017f63616c6c696e67207669612066726f6e74656e6400000000000000000000000081525060400191505060405180910390fd5b600260009054906101000a900473ffffffffffffffffffffffffffffffffffffffff1673ffffffffffffffffffffffffffffffffffffffff1673__ERC677Lib_____________________________63f008f5749091888888886040518663ffffffff167c0100000000000000000000000000000000000000000000000000000000028152600401808673ffffffffffffffffffffffffffffffffffffffff1673ffffffffffffffffffffffffffffffffffffffff1681526020018573ffffffffffffffffffffffffffffffffffffffff1673ffffffffffffffffffffffffffffffffffffffff1681526020018473ffffffffffffffffffffffffffffffffffffffff1673ffffffffffffffffffffffffffffffffffffffff16815260200183815260200180602001828103825283818151815260200191508051906020019080838360005b83811015611e31578082015181840152602081019050611e16565b50505050905090810190601f168015611e5e5780820380516001836020036101000a031916815260200191505b50965050505050505060206040518083038186803b158015611e7f57600080fd5b505af4158015611e93573d6000803e3d6000fd5b505050506040513d6020811015611ea957600080fd5b8101908080519060200190929190505050915050949350505050565b6000611ed23384846120a2565b905092915050565b6000611f1a33868686868080601f016020809104026020016040519081016040528093929190818152602001838380828437820191505050505050611bad565b9050949350505050565b6000600260009054906101000a900473ffffffffffffffffffffffffffffffffffffffff1673ffffffffffffffffffffffffffffffffffffffff1673__ERC20Lib______________________________631045d7ce909185856040518463ffffffff167c0100000000000000000000000000000000000000000000000000000000028152600401808473ffffffffffffffffffffffffffffffffffffffff1673ffffffffffffffffffffffffffffffffffffffff1681526020018373ffffffffffffffffffffffffffffffffffffffff1673ffffffffffffffffffffffffffffffffffffffff1681526020018273ffffffffffffffffffffffffffffffffffffffff1673ffffffffffffffffffffffffffffffffffffffff168152602001935050505060206040518083038186803b15801561205f57600080fd5b505af4158015612073573d6000803e3d6000fd5b505050506040513d602081101561208957600080fd5b8101908080519060200190929190505050905092915050565b6000600773__SmartTokenLib_________________________6332c5a6eb90918686866040518563ffffffff167c0100000000000000000000000000000000000000000000000000000000028152600401808581526020018473ffffffffffffffffffffffffffffffffffffffff1673ffffffffffffffffffffffffffffffffffffffff1681526020018373ffffffffffffffffffffffffffffffffffffffff1673ffffffffffffffffffffffffffffffffffffffff16815260200182815260200194505050505060206040518083038186803b15801561218257600080fd5b505af4158015612196573d6000803e3d6000fd5b505050506040513d60208110156121ac57600080fd5b81019080805190602001909291905050501515612231576040517f08c379a00000000000000000000000000000000000000000000000000000000081526004018080602001828103825260158152602001807f7472616e73666572206973206e6f742076616c6964000000000000000000000081525060200191505060405180910390fd5b61223c848484612bb6565b90509392505050565b600160009054906101000a900473ffffffffffffffffffffffffffffffffffffffff1681565b6000848073ffffffffffffffffffffffffffffffffffffffff163373ffffffffffffffffffffffffffffffffffffffff1614806122f55750600360009054906101000a900473ffffffffffffffffffffffffffffffffffffffff1673ffffffffffffffffffffffffffffffffffffffff163373ffffffffffffffffffffffffffffffffffffffff16145b151561238f576040517f08c379a00000000000000000000000000000000000000000000000000000000081526004018080602001828103825260348152602001807f6569746865722063616c6c6572206d7573742062652073656e646572206f722081526020017f63616c6c696e67207669612066726f6e74656e6400000000000000000000000081525060400191505060405180910390fd5b600260009054906101000a900473ffffffffffffffffffffffffffffffffffffffff1673ffffffffffffffffffffffffffffffffffffffff1673__ERC20Lib______________________________63f3a0ddf99091888888886040518663ffffffff167c0100000000000000000000000000000000000000000000000000000000028152600401808673ffffffffffffffffffffffffffffffffffffffff1673ffffffffffffffffffffffffffffffffffffffff1681526020018573ffffffffffffffffffffffffffffffffffffffff1673ffffffffffffffffffffffffffffffffffffffff1681526020018473ffffffffffffffffffffffffffffffffffffffff1673ffffffffffffffffffffffffffffffffffffffff1681526020018373ffffffffffffffffffffffffffffffffffffffff1673ffffffffffffffffffffffffffffffffffffffff1681526020018281526020019550505050505060206040518083038186803b15801561250457600080fd5b505af4158015612518573d6000803e3d6000fd5b505050506040513d602081101561252e57600080fd5b8101908080519060200190929190505050915050949350505050565b6000809054906101000a900473ffffffffffffffffffffffffffffffffffffffff1673ffffffffffffffffffffffffffffffffffffffff163373ffffffffffffffffffffffffffffffffffffffff161415156125a557600080fd5b80600160006101000a81548173ffffffffffffffffffffffffffffffffffffffff021916908373ffffffffffffffffffffffffffffffffffffffff16021790555050565b6000808773ffffffffffffffffffffffffffffffffffffffff16600187878787604051600081526020016040526040518085600019166000191681526020018460ff1660ff1681526020018360001916600019168152602001826000191660001916815260200194505050505060206040516020810390808403906000865af115801561267a573d6000803e3d6000fd5b5050506020604051035173ffffffffffffffffffffffffffffffffffffffff16141515612735576040517f08c379a000000000000000000000000000000000000000000000000000000000815260040180806020018281038252602c8152602001807f7369676e61747572652f6861736820646f6573206e6f74207265636f7665722081526020017f66726f6d2061646472657373000000000000000000000000000000000000000081525060400191505060405180910390fd5b73__ERC20Lib______________________________63188b48678a8a6040518363ffffffff167c0100000000000000000000000000000000000000000000000000000000028152600401808373ffffffffffffffffffffffffffffffffffffffff1673ffffffffffffffffffffffffffffffffffffffff1681526020018273ffffffffffffffffffffffffffffffffffffffff1673ffffffffffffffffffffffffffffffffffffffff1681526020019250505060206040518083038186803b15801561280057600080fd5b505af4158015612814573d6000803e3d6000fd5b505050506040513d602081101561282a57600080fd5b8101908080519060200190929190505050905073__MintableTokenLib______________________63a6c9ac288a8a846040518463ffffffff167c0100000000000000000000000000000000000000000000000000000000028152600401808473ffffffffffffffffffffffffffffffffffffffff1673ffffffffffffffffffffffffffffffffffffffff1681526020018373ffffffffffffffffffffffffffffffffffffffff1673ffffffffffffffffffffffffffffffffffffffff168152602001828152602001935050505060206040518083038186803b15801561291057600080fd5b505af4158015612924573d6000803e3d6000fd5b505050506040513d602081101561293a57600080fd5b810190808051906020019092919050505015156129bf576040517f08c379a00000000000000000000000000000000000000000000000000000000081526004018080602001828103825260158152602001807f756e61626c6520746f206275726e20746f6b656e73000000000000000000000081525060200191505060405180910390fd5b73__MintableTokenLib______________________63b0c29c748a89846040518463ffffffff167c0100000000000000000000000000000000000000000000000000000000028152600401808473ffffffffffffffffffffffffffffffffffffffff1673ffffffffffffffffffffffffffffffffffffffff1681526020018373ffffffffffffffffffffffffffffffffffffffff1673ffffffffffffffffffffffffffffffffffffffff168152602001828152602001935050505060206040518083038186803b158015612a9257600080fd5b505af4158015612aa6573d6000803e3d6000fd5b505050506040513d6020811015612abc57600080fd5b81019080805190602001909291905050501515612b41576040517f08c379a00000000000000000000000000000000000000000000000000000000081526004018080602001828103825260158152602001807f756e61626c6520746f206d696e7420746f6b656e73000000000000000000000081525060200191505060405180910390fd5b8673ffffffffffffffffffffffffffffffffffffffff168873ffffffffffffffffffffffffffffffffffffffff167ffff3b3844276f57024e0b42afec1a37f75db36511e43819a4f2a63ab7862b648836040518082815260200191505060405180910390a36001915050979650505050505050565b6000838073ffffffffffffffffffffffffffffffffffffffff163373ffffffffffffffffffffffffffffffffffffffff161480612c405750600360009054906101000a900473ffffffffffffffffffffffffffffffffffffffff1673ffffffffffffffffffffffffffffffffffffffff163373ffffffffffffffffffffffffffffffffffffffff16145b1515612cda576040517f08c379a00000000000000000000000000000000000000000000000000000000081526004018080602001828103825260348152602001807f6569746865722063616c6c6572206d7573742062652073656e646572206f722081526020017f63616c6c696e67207669612066726f6e74656e6400000000000000000000000081525060400191505060405180910390fd5b600260009054906101000a900473ffffffffffffffffffffffffffffffffffffffff1673ffffffffffffffffffffffffffffffffffffffff1673__ERC20Lib______________________________6344ded8ba90918787876040518563ffffffff167c0100000000000000000000000000000000000000000000000000000000028152600401808573ffffffffffffffffffffffffffffffffffffffff1673ffffffffffffffffffffffffffffffffffffffff1681526020018473ffffffffffffffffffffffffffffffffffffffff1673ffffffffffffffffffffffffffffffffffffffff1681526020018373ffffffffffffffffffffffffffffffffffffffff1673ffffffffffffffffffffffffffffffffffffffff16815260200182815260200194505050505060206040518083038186803b158015612e1b57600080fd5b505af4158015612e2f573d6000803e3d6000fd5b505050506040513d6020811015612e4557600080fd5b810190808051906020019092919050505091505093925050505600a165627a7a7230582035aae15eae0c09aa861e1367fa2bdbf218eb578c8a1af017ed080e00276026300029608060405234801561001057600080fd5b5060405160208061016883398101806040528101908080519060200190929190505050806000806101000a81548160ff0219169083151502179055505061010c8061005c6000396000f300608060405260043610603f576000357c0100000000000000000000000000000000000000000000000000000000900463ffffffff168063aa3ad4e4146044575b600080fd5b348015604f57600080fd5b5060ac600480360381019080803573ffffffffffffffffffffffffffffffffffffffff169060200190929190803573ffffffffffffffffffffffffffffffffffffffff1690602001909291908035906020019092919050505060c6565b604051808215151515815260200191505060405180910390f35b60008060009054906101000a900460ff16905093925050505600a165627a7a72305820aa6a7bc09fb28f3109317da3e5ae79a47c312fafe64b93beaf631794013ab86600296080604052336000806101000a81548173ffffffffffffffffffffffffffffffffffffffff021916908373ffffffffffffffffffffffffffffffffffffffff160217905550610dd3806100536000396000f3006080604052600436106100af576000357c0100000000000000000000000000000000000000000000000000000000900463ffffffff16806321e5383a146100b457806333dd1b8a146101015780634e71e0c81461016e5780636c9c2faf14610185578063715018a6146101b05780638da5cb5b146101c7578063c7c7e9ea1461021e578063cf8eeb7e14610295578063e30c3978146102e2578063f2fde38b14610339578063f8b2cb4f1461037c575b600080fd5b3480156100c057600080fd5b506100ff600480360381019080803573ffffffffffffffffffffffffffffffffffffffff169060200190929190803590602001909291905050506103d3565b005b34801561010d57600080fd5b5061016c600480360381019080803573ffffffffffffffffffffffffffffffffffffffff169060200190929190803573ffffffffffffffffffffffffffffffffffffffff169060200190929190803590602001909291905050506104f4565b005b34801561017a57600080fd5b5061018361064a565b005b34801561019157600080fd5b5061019a6107e9565b6040518082815260200191505060405180910390f35b3480156101bc57600080fd5b506101c5610899565b005b3480156101d357600080fd5b506101dc61099b565b604051808273ffffffffffffffffffffffffffffffffffffffff1673ffffffffffffffffffffffffffffffffffffffff16815260200191505060405180910390f35b34801561022a57600080fd5b5061027f600480360381019080803573ffffffffffffffffffffffffffffffffffffffff169060200190929190803573ffffffffffffffffffffffffffffffffffffffff1690602001909291905050506109c0565b6040518082815260200191505060405180910390f35b3480156102a157600080fd5b506102e0600480360381019080803573ffffffffffffffffffffffffffffffffffffffff16906020019092919080359060200190929190505050610adb565b005b3480156102ee57600080fd5b506102f7610bfc565b604051808273ffffffffffffffffffffffffffffffffffffffff1673ffffffffffffffffffffffffffffffffffffffff16815260200191505060405180910390f35b34801561034557600080fd5b5061037a600480360381019080803573ffffffffffffffffffffffffffffffffffffffff169060200190929190505050610c22565b005b34801561038857600080fd5b506103bd600480360381019080803573ffffffffffffffffffffffffffffffffffffffff169060200190929190505050610cc1565b6040518082815260200191505060405180910390f35b6000809054906101000a900473ffffffffffffffffffffffffffffffffffffffff1673ffffffffffffffffffffffffffffffffffffffff163373ffffffffffffffffffffffffffffffffffffffff1614151561042e57600080fd5b600273__TokenStorageLib_______________________637aeb0ed5909184846040518463ffffffff167c0100000000000000000000000000000000000000000000000000000000028152600401808481526020018373ffffffffffffffffffffffffffffffffffffffff1673ffffffffffffffffffffffffffffffffffffffff168152602001828152602001935050505060006040518083038186803b1580156104d857600080fd5b505af41580156104ec573d6000803e3d6000fd5b505050505050565b6000809054906101000a900473ffffffffffffffffffffffffffffffffffffffff1673ffffffffffffffffffffffffffffffffffffffff163373ffffffffffffffffffffffffffffffffffffffff1614151561054f57600080fd5b600273__TokenStorageLib_______________________635599b4b790918585856040518563ffffffff167c0100000000000000000000000000000000000000000000000000000000028152600401808581526020018473ffffffffffffffffffffffffffffffffffffffff1673ffffffffffffffffffffffffffffffffffffffff1681526020018373ffffffffffffffffffffffffffffffffffffffff1673ffffffffffffffffffffffffffffffffffffffff16815260200182815260200194505050505060006040518083038186803b15801561062d57600080fd5b505af4158015610641573d6000803e3d6000fd5b50505050505050565b600160009054906101000a900473ffffffffffffffffffffffffffffffffffffffff1673ffffffffffffffffffffffffffffffffffffffff163373ffffffffffffffffffffffffffffffffffffffff161415156106a657600080fd5b600160009054906101000a900473ffffffffffffffffffffffffffffffffffffffff1673ffffffffffffffffffffffffffffffffffffffff166000809054906101000a900473ffffffffffffffffffffffffffffffffffffffff1673ffffffffffffffffffffffffffffffffffffffff167f8be0079c531659141344cd1fd0a4f28419497f9722a3daafe3b4186f6b6457e060405160405180910390a3600160009054906101000a900473ffffffffffffffffffffffffffffffffffffffff166000806101000a81548173ffffffffffffffffffffffffffffffffffffffff021916908373ffffffffffffffffffffffffffffffffffffffff1602179055506000600160006101000a81548173ffffffffffffffffffffffffffffffffffffffff021916908373ffffffffffffffffffffffffffffffffffffffff160217905550565b6000600273__TokenStorageLib_______________________63072f9a5090916040518263ffffffff167c01000000000000000000000000000000000000000000000000000000000281526004018082815260200191505060206040518083038186803b15801561085957600080fd5b505af415801561086d573d6000803e3d6000fd5b505050506040513d602081101561088357600080fd5b8101908080519060200190929190505050905090565b6000809054906101000a900473ffffffffffffffffffffffffffffffffffffffff1673ffffffffffffffffffffffffffffffffffffffff163373ffffffffffffffffffffffffffffffffffffffff161415156108f457600080fd5b6000809054906101000a900473ffffffffffffffffffffffffffffffffffffffff1673ffffffffffffffffffffffffffffffffffffffff167ff8df31144d9c2f0f6b59d69b8b98abd5459d07f2742c4df920b25aae33c6482060405160405180910390a260008060006101000a81548173ffffffffffffffffffffffffffffffffffffffff021916908373ffffffffffffffffffffffffffffffffffffffff160217905550565b6000809054906101000a900473ffffffffffffffffffffffffffffffffffffffff1681565b6000600273__TokenStorageLib_______________________639daeae1e909185856040518463ffffffff167c0100000000000000000000000000000000000000000000000000000000028152600401808481526020018373ffffffffffffffffffffffffffffffffffffffff1673ffffffffffffffffffffffffffffffffffffffff1681526020018273ffffffffffffffffffffffffffffffffffffffff1673ffffffffffffffffffffffffffffffffffffffff168152602001935050505060206040518083038186803b158015610a9857600080fd5b505af4158015610aac573d6000803e3d6000fd5b505050506040513d6020811015610ac257600080fd5b8101908080519060200190929190505050905092915050565b6000809054906101000a900473ffffffffffffffffffffffffffffffffffffffff1673ffffffffffffffffffffffffffffffffffffffff163373ffffffffffffffffffffffffffffffffffffffff16141515610b3657600080fd5b600273__TokenStorageLib_______________________63d9c7339e909184846040518463ffffffff167c0100000000000000000000000000000000000000000000000000000000028152600401808481526020018373ffffffffffffffffffffffffffffffffffffffff1673ffffffffffffffffffffffffffffffffffffffff168152602001828152602001935050505060006040518083038186803b158015610be057600080fd5b505af4158015610bf4573d6000803e3d6000fd5b505050505050565b600160009054906101000a900473ffffffffffffffffffffffffffffffffffffffff1681565b6000809054906101000a900473ffffffffffffffffffffffffffffffffffffffff1673ffffffffffffffffffffffffffffffffffffffff163373ffffffffffffffffffffffffffffffffffffffff16141515610c7d57600080fd5b80600160006101000a81548173ffffffffffffffffffffffffffffffffffffffff021916908373ffffffffffffffffffffffffffffffffffffffff16021790555050565b6000600273__TokenStorageLib_______________________63b0aacf249091846040518363ffffffff167c0100000000000000000000000000000000000000000000000000000000028152600401808381526020018273ffffffffffffffffffffffffffffffffffffffff1673ffffffffffffffffffffffffffffffffffffffff1681526020019250505060206040518083038186803b158015610d6557600080fd5b505af4158015610d79573d6000803e3d6000fd5b505050506040513d6020811015610d8f57600080fd5b810190808051906020019092919050505090509190505600a165627a7a723058207fa121e0f14e6a5f4d76dce3abcf037400d9538a549fa7e1c2efb0e4c6d8a1090029",
  "source": "pragma solidity ^0.4.24;\n\nimport \"./ConstantValidator.sol\";\nimport \"./SmartController.sol\";\n\ncontract ConstantSmartController is SmartController {\n\n    // CONSTRUCTOR\n    constructor(address storage_, bytes3 ticker) \n        public\n        SmartController(storage_, new ConstantValidator(false), ticker)\n    { }\n\n}\n",
  "sourcePath": "/Users/gislik/Code/smart-contracts/contracts/ConstantSmartController.sol",
  "compiler": {
    "name": "solc",
    "version": "0.4.24+commit.e67f0147.Emscripten.clang"
  },
  "schemaVersion": "2.0.1",
  "updatedAt": "2018-08-22T17:00:59.687Z"
}