{
  "contractName": "ConstantValidator",
  "abi": [
    {
      "inputs": [
        {
          "name": "_valid",
          "type": "bool"
        }
      ],
      "payable": false,
      "stateMutability": "nonpayable",
      "type": "constructor"
    },
    {
      "anonymous": false,
      "inputs": [
        {
          "indexed": true,
          "name": "from",
          "type": "address"
        },
        {
          "indexed": true,
          "name": "to",
          "type": "address"
        },
        {
          "indexed": false,
          "name": "valid",
          "type": "bool"
        },
        {
          "indexed": false,
          "name": "value",
          "type": "uint256"
        }
      ],
      "name": "Decision",
      "type": "event"
    },
    {
      "constant": false,
      "inputs": [
        {
          "name": "",
          "type": "address"
        },
        {
          "name": "",
          "type": "address"
        },
        {
          "name": "",
          "type": "uint256"
        }
      ],
      "name": "validate",
      "outputs": [
        {
          "name": "",
          "type": "bool"
        }
      ],
      "payable": false,
      "stateMutability": "nonpayable",
      "type": "function"
    }
  ],
  "bytecode": "0x608060405234801561001057600080fd5b5060405160208061016883398101806040528101908080519060200190929190505050806000806101000a81548160ff0219169083151502179055505061010c8061005c6000396000f300608060405260043610603f576000357c0100000000000000000000000000000000000000000000000000000000900463ffffffff168063aa3ad4e4146044575b600080fd5b348015604f57600080fd5b5060ac600480360381019080803573ffffffffffffffffffffffffffffffffffffffff169060200190929190803573ffffffffffffffffffffffffffffffffffffffff1690602001909291908035906020019092919050505060c6565b604051808215151515815260200191505060405180910390f35b60008060009054906101000a900460ff16905093925050505600a165627a7a72305820caa9d530b0d21ab0f1c3c36cdcfa1d08ba816675ee5b05c82145be465ec725e60029",
  "source": "pragma solidity ^0.4.24;\n\nimport \"./Validator.sol\";\n\ncontract ConstantValidator is Validator {\n\n    bool valid;\n\n    // CONSTRUCTOR\n    constructor(bool _valid) public {\n        valid = _valid;\n    }\n\n    // EXTERNAL CONSTANT\n    function validate(address, address, uint) external returns (bool) { \n        return valid;     \n    }\n}\n",
  "sourcePath": "/Users/gislik/Code/smart-contracts/contracts/ConstantValidator.sol",
  "compiler": {
    "name": "solc",
    "version": "0.4.24+commit.e67f0147.Emscripten.clang"
  },
  "schemaVersion": "2.0.0",
  "updatedAt": "2018-08-13T11:16:20.656Z"
}