{
  "contractName": "ERC20Lib",
  "abi": [
    {
      "anonymous": false,
      "inputs": [
        {
          "indexed": true,
          "name": "from",
          "type": "address"
        },
        {
          "indexed": true,
          "name": "to",
          "type": "address"
        },
        {
          "indexed": false,
          "name": "value",
          "type": "uint256"
        }
      ],
      "name": "Transfer",
      "type": "event"
    },
    {
      "anonymous": false,
      "inputs": [
        {
          "indexed": true,
          "name": "owner",
          "type": "address"
        },
        {
          "indexed": true,
          "name": "spender",
          "type": "address"
        },
        {
          "indexed": false,
          "name": "value",
          "type": "uint256"
        }
      ],
      "name": "Approval",
      "type": "event"
    },
    {
      "constant": false,
      "inputs": [
        {
          "name": "db",
          "type": "TokenStorage"
        },
        {
          "name": "_caller",
          "type": "address"
        },
        {
          "name": "_to",
          "type": "address"
        },
        {
          "name": "_value",
          "type": "uint256"
        }
      ],
      "name": "transfer",
      "outputs": [
        {
          "name": "success",
          "type": "bool"
        }
      ],
      "payable": false,
      "stateMutability": "nonpayable",
      "type": "function"
    },
    {
      "constant": false,
      "inputs": [
        {
          "name": "db",
          "type": "TokenStorage"
        },
        {
          "name": "_caller",
          "type": "address"
        },
        {
          "name": "_from",
          "type": "address"
        },
        {
          "name": "_to",
          "type": "address"
        },
        {
          "name": "_value",
          "type": "uint256"
        }
      ],
      "name": "transferFrom",
      "outputs": [
        {
          "name": "success",
          "type": "bool"
        }
      ],
      "payable": false,
      "stateMutability": "nonpayable",
      "type": "function"
    },
    {
      "constant": false,
      "inputs": [
        {
          "name": "db",
          "type": "TokenStorage"
        },
        {
          "name": "_caller",
          "type": "address"
        },
        {
          "name": "_spender",
          "type": "address"
        },
        {
          "name": "_value",
          "type": "uint256"
        }
      ],
      "name": "approve",
      "outputs": [
        {
          "name": "success",
          "type": "bool"
        }
      ],
      "payable": false,
      "stateMutability": "nonpayable",
      "type": "function"
    },
    {
      "constant": false,
      "inputs": [
        {
          "name": "db",
          "type": "TokenStorage"
        },
        {
          "name": "_caller",
          "type": "address"
        },
        {
          "name": "_spender",
          "type": "address"
        },
        {
          "name": "_value",
          "type": "uint256"
        },
        {
          "name": "_extraData",
          "type": "bytes"
        }
      ],
      "name": "approveAndCall",
      "outputs": [
        {
          "name": "success",
          "type": "bool"
        }
      ],
      "payable": false,
      "stateMutability": "nonpayable",
      "type": "function"
    },
    {
      "constant": true,
      "inputs": [
        {
          "name": "db",
          "type": "TokenStorage"
        },
        {
          "name": "_owner",
          "type": "address"
        }
      ],
      "name": "balanceOf",
      "outputs": [
        {
          "name": "balance",
          "type": "uint256"
        }
      ],
      "payable": false,
      "stateMutability": "view",
      "type": "function"
    },
    {
      "constant": true,
      "inputs": [
        {
          "name": "db",
          "type": "TokenStorage"
        },
        {
          "name": "_owner",
          "type": "address"
        },
        {
          "name": "_spender",
          "type": "address"
        }
      ],
      "name": "allowance",
      "outputs": [
        {
          "name": "remaining",
          "type": "uint256"
        }
      ],
      "payable": false,
      "stateMutability": "view",
      "type": "function"
    }
  ],
  "bytecode": "0x61100b610030600b82828239805160001a6073146000811461002057610022565bfe5b5030600052607381538281f300730000000000000000000000000000000000000000301460806040526004361061008f576000357c0100000000000000000000000000000000000000000000000000000000900463ffffffff1680631045d7ce14610094578063188b48671461011e578063365feff11461018857806344ded8ba1461022d578063f008f574146102d2578063f3a0ddf9146103bd575b600080fd5b610108600480360381019080803573ffffffffffffffffffffffffffffffffffffffff169060200190929190803573ffffffffffffffffffffffffffffffffffffffff169060200190929190803573ffffffffffffffffffffffffffffffffffffffff169060200190929190505050610482565b6040518082815260200191505060405180910390f35b610172600480360381019080803573ffffffffffffffffffffffffffffffffffffffff169060200190929190803573ffffffffffffffffffffffffffffffffffffffff169060200190929190505050610597565b6040518082815260200191505060405180910390f35b81801561019457600080fd5b50610213600480360381019080803573ffffffffffffffffffffffffffffffffffffffff169060200190929190803573ffffffffffffffffffffffffffffffffffffffff169060200190929190803573ffffffffffffffffffffffffffffffffffffffff16906020019092919080359060200190929190505050610677565b604051808215151515815260200191505060405180910390f35b81801561023957600080fd5b506102b8600480360381019080803573ffffffffffffffffffffffffffffffffffffffff169060200190929190803573ffffffffffffffffffffffffffffffffffffffff169060200190929190803573ffffffffffffffffffffffffffffffffffffffff169060200190929190803590602001909291905050506107d9565b604051808215151515815260200191505060405180910390f35b8180156102de57600080fd5b506103a3600480360381019080803573ffffffffffffffffffffffffffffffffffffffff169060200190929190803573ffffffffffffffffffffffffffffffffffffffff169060200190929190803573ffffffffffffffffffffffffffffffffffffffff16906020019092919080359060200190929190803590602001908201803590602001908080601f01602080910402602001604051908101604052809392919081815260200183838082843782019150505050505091929192905050506109c2565b604051808215151515815260200191505060405180910390f35b8180156103c957600080fd5b50610468600480360381019080803573ffffffffffffffffffffffffffffffffffffffff169060200190929190803573ffffffffffffffffffffffffffffffffffffffff169060200190929190803573ffffffffffffffffffffffffffffffffffffffff169060200190929190803573ffffffffffffffffffffffffffffffffffffffff16906020019092919080359060200190929190505050610b49565b604051808215151515815260200191505060405180910390f35b60008373ffffffffffffffffffffffffffffffffffffffff1663c7c7e9ea84846040518363ffffffff167c0100000000000000000000000000000000000000000000000000000000028152600401808373ffffffffffffffffffffffffffffffffffffffff1673ffffffffffffffffffffffffffffffffffffffff1681526020018273ffffffffffffffffffffffffffffffffffffffff1673ffffffffffffffffffffffffffffffffffffffff16815260200192505050602060405180830381600087803b15801561055357600080fd5b505af1158015610567573d6000803e3d6000fd5b505050506040513d602081101561057d57600080fd5b810190808051906020019092919050505090509392505050565b60008273ffffffffffffffffffffffffffffffffffffffff1663f8b2cb4f836040518263ffffffff167c0100000000000000000000000000000000000000000000000000000000028152600401808273ffffffffffffffffffffffffffffffffffffffff1673ffffffffffffffffffffffffffffffffffffffff168152602001915050602060405180830381600087803b15801561063457600080fd5b505af1158015610648573d6000803e3d6000fd5b505050506040513d602081101561065e57600080fd5b8101908080519060200190929190505050905092915050565b60008473ffffffffffffffffffffffffffffffffffffffff166333dd1b8a8585856040518463ffffffff167c0100000000000000000000000000000000000000000000000000000000028152600401808473ffffffffffffffffffffffffffffffffffffffff1673ffffffffffffffffffffffffffffffffffffffff1681526020018373ffffffffffffffffffffffffffffffffffffffff1673ffffffffffffffffffffffffffffffffffffffff1681526020018281526020019350505050600060405180830381600087803b15801561075057600080fd5b505af1158015610764573d6000803e3d6000fd5b505050508273ffffffffffffffffffffffffffffffffffffffff168473ffffffffffffffffffffffffffffffffffffffff167f8c5be1e5ebec7d5bd14f71427d1e84f3dd0314c0f7b2291e5b200ac8c7c3b925846040518082815260200191505060405180910390a360019050949350505050565b60008473ffffffffffffffffffffffffffffffffffffffff1663cf8eeb7e85846040518363ffffffff167c0100000000000000000000000000000000000000000000000000000000028152600401808373ffffffffffffffffffffffffffffffffffffffff1673ffffffffffffffffffffffffffffffffffffffff16815260200182815260200192505050600060405180830381600087803b15801561087e57600080fd5b505af1158015610892573d6000803e3d6000fd5b505050508473ffffffffffffffffffffffffffffffffffffffff166321e5383a84846040518363ffffffff167c0100000000000000000000000000000000000000000000000000000000028152600401808373ffffffffffffffffffffffffffffffffffffffff1673ffffffffffffffffffffffffffffffffffffffff16815260200182815260200192505050600060405180830381600087803b15801561093957600080fd5b505af115801561094d573d6000803e3d6000fd5b505050508273ffffffffffffffffffffffffffffffffffffffff168473ffffffffffffffffffffffffffffffffffffffff167fddf252ad1be2c89b69c2b068fc378daa952ba7f163c4a11628f55a4df523b3ef846040518082815260200191505060405180910390a360019050949350505050565b6000808490506109d487878787610677565b15610b3e578073ffffffffffffffffffffffffffffffffffffffff16638f4ffcb1878630876040518563ffffffff167c0100000000000000000000000000000000000000000000000000000000028152600401808573ffffffffffffffffffffffffffffffffffffffff1673ffffffffffffffffffffffffffffffffffffffff1681526020018481526020018373ffffffffffffffffffffffffffffffffffffffff1673ffffffffffffffffffffffffffffffffffffffff16815260200180602001828103825283818151815260200191508051906020019080838360005b83811015610ace578082015181840152602081019050610ab3565b50505050905090810190601f168015610afb5780820380516001836020036101000a031916815260200191505b5095505050505050600060405180830381600087803b158015610b1d57600080fd5b505af1158015610b31573d6000803e3d6000fd5b5050505060019150610b3f565b5b5095945050505050565b6000808673ffffffffffffffffffffffffffffffffffffffff1663c7c7e9ea86886040518363ffffffff167c0100000000000000000000000000000000000000000000000000000000028152600401808373ffffffffffffffffffffffffffffffffffffffff1673ffffffffffffffffffffffffffffffffffffffff1681526020018273ffffffffffffffffffffffffffffffffffffffff1673ffffffffffffffffffffffffffffffffffffffff16815260200192505050602060405180830381600087803b158015610c1b57600080fd5b505af1158015610c2f573d6000803e3d6000fd5b505050506040513d6020811015610c4557600080fd5b810190808051906020019092919050505090508673ffffffffffffffffffffffffffffffffffffffff1663cf8eeb7e86856040518363ffffffff167c0100000000000000000000000000000000000000000000000000000000028152600401808373ffffffffffffffffffffffffffffffffffffffff1673ffffffffffffffffffffffffffffffffffffffff16815260200182815260200192505050600060405180830381600087803b158015610cfb57600080fd5b505af1158015610d0f573d6000803e3d6000fd5b505050508673ffffffffffffffffffffffffffffffffffffffff166321e5383a85856040518363ffffffff167c0100000000000000000000000000000000000000000000000000000000028152600401808373ffffffffffffffffffffffffffffffffffffffff1673ffffffffffffffffffffffffffffffffffffffff16815260200182815260200192505050600060405180830381600087803b158015610db657600080fd5b505af1158015610dca573d6000803e3d6000fd5b505050508673ffffffffffffffffffffffffffffffffffffffff166333dd1b8a86888473__SafeMathLib___________________________63f4f3bdc19091896040518363ffffffff167c0100000000000000000000000000000000000000000000000000000000028152600401808381526020018281526020019250505060206040518083038186803b158015610e6157600080fd5b505af4158015610e75573d6000803e3d6000fd5b505050506040513d6020811015610e8b57600080fd5b81019080805190602001909291905050506040518463ffffffff167c0100000000000000000000000000000000000000000000000000000000028152600401808473ffffffffffffffffffffffffffffffffffffffff1673ffffffffffffffffffffffffffffffffffffffff1681526020018373ffffffffffffffffffffffffffffffffffffffff1673ffffffffffffffffffffffffffffffffffffffff1681526020018281526020019350505050600060405180830381600087803b158015610f5457600080fd5b505af1158015610f68573d6000803e3d6000fd5b505050508373ffffffffffffffffffffffffffffffffffffffff168573ffffffffffffffffffffffffffffffffffffffff167fddf252ad1be2c89b69c2b068fc378daa952ba7f163c4a11628f55a4df523b3ef856040518082815260200191505060405180910390a36001915050959450505050505600a165627a7a72305820a254be615fde1f3effef00d0665c43fcc7794deff77933753ce44f6c8d2aea290029",
  "source": "pragma solidity ^0.4.11;\n\nimport \"zeppelin-solidity/contracts/SafeMathLib.sol\";\nimport \"./TokenRecipient.sol\";\nimport \"./TokenStorage.sol\";\n\nlibrary ERC20Lib {\n    using SafeMathLib for uint;\n\n    // EVENTS\n    event Transfer(address indexed from, address indexed to, uint value);\n    event Approval(address indexed owner, address indexed spender, uint value);\n\n    // EXTERNAL\n    function transfer(TokenStorage db, address _caller, address _to, uint _value) \n        returns (bool success) \n    {\n        db.subBalance(_caller, _value);\n        db.addBalance(_to, _value);\n        Transfer(_caller, _to, _value);\n        return true;\n    }\n\n    function transferFrom(\n        TokenStorage db, \n        address _caller, \n        address _from, \n        address _to, \n        uint _value\n    ) returns (bool success) {\n        var allowance = db.getAllowed(_from, _caller);\n        db.subBalance(_from, _value);\n        db.addBalance(_to, _value);\n        db.setAllowed(_from, _caller, allowance.minus(_value));\n        Transfer(_from, _to, _value);\n        return true;\n    }\n\n    // TODO: race condition\n    function approve(TokenStorage db, address _caller, address _spender, uint _value) \n        returns (bool success) \n    {\n        db.setAllowed(_caller, _spender, _value);\n        Approval(_caller, _spender, _value);\n        return true;\n    }\n\n\t// TODO: race condition\n\tfunction approveAndCall(\n\t\tTokenStorage db, \n\t\taddress _caller, \n\t\taddress _spender, \n\t\tuint256 _value, \n\t\tbytes _extraData\n\t) returns (bool success) {\n\t\tTokenRecipient spender = TokenRecipient(_spender);\n\t\tif (approve(db, _caller, _spender, _value)) {\n\t\t\tspender.receiveApproval(_caller, _value, this, _extraData);\n\t\t\treturn true;\n\t\t}\n\t}        \n\n    // EXTERNAL CONSTANT\n    function balanceOf(TokenStorage db, address _owner) \n        constant \n        returns (uint balance) \n    {\n        return db.getBalance(_owner);\n    }\n\n    function allowance(TokenStorage db, address _owner, address _spender) \n        constant \n        returns (uint remaining) \n    {\n        return db.getAllowed(_owner, _spender);\n    }\n}\n",
  "sourcePath": "/Users/gislik/Code/smart-contracts/contracts/ERC20Lib.sol",
  "compiler": {
    "name": "solc",
    "version": "0.4.24+commit.e67f0147.Emscripten.clang"
  },
  "schemaVersion": "2.0.0",
  "updatedAt": "2018-07-26T11:06:48.645Z"
}