{
  "contractName": "ERC20Lib",
  "abi": [
    {
      "constant": false,
      "inputs": [
        {
          "name": "db",
          "type": "TokenStorage"
        },
        {
          "name": "caller",
          "type": "address"
        },
        {
          "name": "spender",
          "type": "address"
        },
        {
          "name": "amount",
          "type": "uint256"
        }
      ],
      "name": "approve",
      "outputs": [
        {
          "name": "success",
          "type": "bool"
        }
      ],
      "payable": false,
      "stateMutability": "nonpayable",
      "type": "function"
    }
  ],
  "bytecode": "0x61022b610030600b82828239805160001a6073146000811461002057610022565bfe5b5030600052607381538281f3007300000000000000000000000000000000000000003014608060405260043610610058576000357c0100000000000000000000000000000000000000000000000000000000900463ffffffff168063365feff11461005d575b600080fd5b81801561006957600080fd5b506100e8600480360381019080803573ffffffffffffffffffffffffffffffffffffffff169060200190929190803573ffffffffffffffffffffffffffffffffffffffff169060200190929190803573ffffffffffffffffffffffffffffffffffffffff16906020019092919080359060200190929190505050610102565b604051808215151515815260200191505060405180910390f35b60008473ffffffffffffffffffffffffffffffffffffffff166333dd1b8a8585856040518463ffffffff167c0100000000000000000000000000000000000000000000000000000000028152600401808473ffffffffffffffffffffffffffffffffffffffff1673ffffffffffffffffffffffffffffffffffffffff1681526020018373ffffffffffffffffffffffffffffffffffffffff1673ffffffffffffffffffffffffffffffffffffffff1681526020018281526020019350505050600060405180830381600087803b1580156101db57600080fd5b505af11580156101ef573d6000803e3d6000fd5b50505050600190509493505050505600a165627a7a72305820c59c42008e25d19dce92bacd07e337b426870e5b3bc8a871bed555926a01cfec0029",
  "source": "pragma solidity 0.4.24;\n\nimport \"openzeppelin-solidity/contracts/math/SafeMath.sol\";\nimport \"./TokenStorage.sol\";\n\n/**\n * @title ERC20Lib\n * @dev Standard ERC20 token functionality.\n * https://github.com/ethereum/EIPs/issues/20\n */\nlibrary ERC20Lib {\n\n    using SafeMath for uint;\n\n    /**\n     * @dev Transfers tokens [ERC20].\n     * @param db Token storage to operate on.\n     * @param caller Address of the caller passed through the frontend.\n     * @param to Recipient address.\n     * @param amount Number of tokens to transfer.\n     */\n    function transfer(TokenStorage db, address caller, address to, uint amount)\n        internal\n        returns (bool success)\n    {\n        db.subBalance(caller, amount);\n        db.addBalance(to, amount);\n        return true;\n    }\n\n    /**\n     * @dev Transfers tokens from a specific address [ERC20].\n     * The address owner has to approve the spender beforehand.\n     * @param db Token storage to operate on.\n     * @param caller Address of the caller passed through the frontend.\n     * @param from Address to debet the tokens from.\n     * @param to Recipient address.\n     * @param amount Number of tokens to transfer.\n     */\n    function transferFrom(\n        TokenStorage db,\n        address caller,\n        address from,\n        address to,\n        uint amount\n    )\n        internal\n        returns (bool success)\n    {\n        uint allowance = db.getAllowed(from, caller);\n        db.subBalance(from, amount);\n        db.addBalance(to, amount);\n        db.setAllowed(from, caller, allowance.sub(amount));\n        return true;\n    }\n\n    /**\n     * @dev Approves a spender [ERC20].\n     * Note that using the approve/transferFrom presents a possible\n     * security vulnerability described in:\n     * https://docs.google.com/document/d/1YLPtQxZu1UAvO9cZ1O2RPXBbT0mooh4DYKjA_jp-RLM/edit#heading=h.quou09mcbpzw\n     * Use transferAndCall to mitigate.\n     * @param db Token storage to operate on.\n     * @param caller Address of the caller passed through the frontend.\n     * @param spender The address of the future spender.\n     * @param amount The allowance of the spender.\n     */\n    function approve(TokenStorage db, address caller, address spender, uint amount)\n        public\n        returns (bool success)\n    {\n        db.setAllowed(caller, spender, amount);\n        return true;\n    }\n\n    /**\n     * @dev Returns the number tokens associated with an address.\n     * @param db Token storage to operate on.\n     * @param who Address to lookup.\n     * @return Balance of address.\n     */\n    function balanceOf(TokenStorage db, address who)\n        internal\n        view\n        returns (uint balance)\n    {\n        return db.getBalance(who);\n    }\n\n    /**\n     * @dev Returns the allowance for a spender\n     * @param db Token storage to operate on.\n     * @param owner The address of the owner of the tokens.\n     * @param spender The address of the spender.\n     * @return Number of tokens the spender is allowed to spend.\n     */\n    function allowance(TokenStorage db, address owner, address spender)\n        internal\n        view\n        returns (uint remaining)\n    {\n        return db.getAllowed(owner, spender);\n    }\n\n}\n",
  "sourcePath": "/Users/gislik/Code/smart-contracts/contracts/ERC20Lib.sol",
  "compiler": {
    "name": "solc",
    "version": "0.4.24+commit.e67f0147.Emscripten.clang"
  },
  "schemaVersion": "2.0.1",
  "updatedAt": "2019-07-17T17:20:24.352Z"
}