{
  "contractName": "ERC677Lib",
  "abi": [
    {
      "constant": false,
      "inputs": [
        {
          "name": "db",
          "type": "TokenStorage"
        },
        {
          "name": "caller",
          "type": "address"
        },
        {
          "name": "spender",
          "type": "address"
        },
        {
          "name": "value",
          "type": "uint256"
        },
        {
          "name": "_extraData",
          "type": "bytes"
        }
      ],
      "name": "approveAndCall",
      "outputs": [
        {
          "name": "success",
          "type": "bool"
        }
      ],
      "payable": false,
      "stateMutability": "nonpayable",
      "type": "function"
    }
  ],
  "bytecode": "0x6103d1610030600b82828239805160001a6073146000811461002057610022565bfe5b5030600052607381538281f3007300000000000000000000000000000000000000003014608060405260043610610058576000357c0100000000000000000000000000000000000000000000000000000000900463ffffffff168063f008f5741461005d575b600080fd5b81801561006957600080fd5b50610100600480360381019080803573ffffffffffffffffffffffffffffffffffffffff169060200190929190803573ffffffffffffffffffffffffffffffffffffffff169060200190929190803573ffffffffffffffffffffffffffffffffffffffff1690602001909291908035906020019092919080359060200190820180359060200191909192939192939050505061011a565b604051808215151515815260200191505060405180910390f35b6000808773ffffffffffffffffffffffffffffffffffffffff1673__ERC20Lib______________________________63365feff190918989896040518563ffffffff167c0100000000000000000000000000000000000000000000000000000000028152600401808573ffffffffffffffffffffffffffffffffffffffff1673ffffffffffffffffffffffffffffffffffffffff1681526020018473ffffffffffffffffffffffffffffffffffffffff1673ffffffffffffffffffffffffffffffffffffffff1681526020018373ffffffffffffffffffffffffffffffffffffffff1673ffffffffffffffffffffffffffffffffffffffff16815260200182815260200194505050505060206040518083038186803b15801561023c57600080fd5b505af4158015610250573d6000803e3d6000fd5b505050506040513d602081101561026657600080fd5b810190808051906020019092919050505015610399578590508073ffffffffffffffffffffffffffffffffffffffff16638f4ffcb188873088886040518663ffffffff167c0100000000000000000000000000000000000000000000000000000000028152600401808673ffffffffffffffffffffffffffffffffffffffff1673ffffffffffffffffffffffffffffffffffffffff1681526020018581526020018473ffffffffffffffffffffffffffffffffffffffff1673ffffffffffffffffffffffffffffffffffffffff16815260200180602001828103825284848281815260200192508082843782019150509650505050505050600060405180830381600087803b15801561037857600080fd5b505af115801561038c573d6000803e3d6000fd5b505050506001915061039a565b5b5096955050505050505600a165627a7a72305820f4f04b5bd9d499c24218a30e2d4a3f81fc3e8aad459b3f5a5ea2069823cb47490029",
  "source": "pragma solidity ^0.4.24;\n\nimport \"./TokenRecipient.sol\";\nimport \"./TokenStorage.sol\";\nimport \"./ERC20Lib.sol\";\n\nlibrary ERC677Lib {\n\n    using ERC20Lib for TokenStorage;\n\n    // TODO: race condition\n    function approveAndCall(\n        TokenStorage db, \n        address caller, \n        address spender, \n        uint256 value, \n        bytes _extraData\n    ) \n        external\n        returns (bool success) \n    {\n        if (db.approve(caller, spender, value)) {\n            TokenRecipient recipient = TokenRecipient(spender);\n            recipient.receiveApproval(caller, value, this, _extraData);\n            return true;\n        }\n    }        \n\n}",
  "sourcePath": "/Users/gislik/Code/smart-contracts/contracts/ERC677Lib.sol",
  "compiler": {
    "name": "solc",
    "version": "0.4.24+commit.e67f0147.Emscripten.clang"
  },
  "schemaVersion": "2.0.1",
  "updatedAt": "2018-08-22T17:00:59.678Z"
}