{
  "contractName": "ERC677Lib",
  "abi": [
    {
      "constant": false,
      "inputs": [
        {
          "name": "db",
          "type": "TokenStorage"
        },
        {
          "name": "caller",
          "type": "address"
        },
        {
          "name": "to",
          "type": "address"
        },
        {
          "name": "amount",
          "type": "uint256"
        },
        {
          "name": "data",
          "type": "bytes"
        }
      ],
      "name": "transferAndCall",
      "outputs": [
        {
          "name": "",
          "type": "bool"
        }
      ],
      "payable": false,
      "stateMutability": "nonpayable",
      "type": "function"
    }
  ],
  "bytecode": "0x6104d5610030600b82828239805160001a6073146000811461002057610022565bfe5b5030600052607381538281f3007300000000000000000000000000000000000000003014608060405260043610610058576000357c0100000000000000000000000000000000000000000000000000000000900463ffffffff1680631eb8bccb1461005d575b600080fd5b81801561006957600080fd5b50610100600480360381019080803573ffffffffffffffffffffffffffffffffffffffff169060200190929190803573ffffffffffffffffffffffffffffffffffffffff169060200190929190803573ffffffffffffffffffffffffffffffffffffffff1690602001909291908035906020019092919080359060200190820180359060200191909192939192939050505061011a565b604051808215151515815260200191505060405180910390f35b6000808773ffffffffffffffffffffffffffffffffffffffff1673__ERC20Lib______________________________6344ded8ba90918989896040518563ffffffff167c0100000000000000000000000000000000000000000000000000000000028152600401808573ffffffffffffffffffffffffffffffffffffffff1673ffffffffffffffffffffffffffffffffffffffff1681526020018473ffffffffffffffffffffffffffffffffffffffff1673ffffffffffffffffffffffffffffffffffffffff1681526020018373ffffffffffffffffffffffffffffffffffffffff1673ffffffffffffffffffffffffffffffffffffffff16815260200182815260200194505050505060206040518083038186803b15801561023c57600080fd5b505af4158015610250573d6000803e3d6000fd5b505050506040513d602081101561026657600080fd5b810190808051906020019092919050505015156102eb576040517f08c379a00000000000000000000000000000000000000000000000000000000081526004018080602001828103825260128152602001807f756e61626c6520746f207472616e73666572000000000000000000000000000081525060200191505060405180910390fd5b61030a8673ffffffffffffffffffffffffffffffffffffffff16610496565b15610487578590508073ffffffffffffffffffffffffffffffffffffffff1663a4c0ed36888787876040518563ffffffff167c0100000000000000000000000000000000000000000000000000000000028152600401808573ffffffffffffffffffffffffffffffffffffffff1673ffffffffffffffffffffffffffffffffffffffff168152602001848152602001806020018281038252848482818152602001925080828437820191505095505050505050602060405180830381600087803b1580156103d757600080fd5b505af11580156103eb573d6000803e3d6000fd5b505050506040513d602081101561040157600080fd5b81019080805190602001909291905050501515610486576040517f08c379a000000000000000000000000000000000000000000000000000000000815260040180806020018281038252601b8152602001807f746f6b656e2068616e646c65722072657475726e732066616c7365000000000081525060200191505060405180910390fd5b5b60019150509695505050505050565b600080823b9050600081119150509190505600a165627a7a72305820fe9ed0bf1e6868a8b030a1dbcd557004a15ab812fb13b4c837232ee6d729e75e0029",
  "source": "/**\n * Copyright 2019 Monerium ehf.\n *\n * Licensed under the Apache License, Version 2.0 (the \"License\");\n * you may not use this file except in compliance with the License.\n * You may obtain a copy of the License at\n *\n *     http://www.apache.org/licenses/LICENSE-2.0\n *\n * Unless required by applicable law or agreed to in writing, software\n * distributed under the License is distributed on an \"AS IS\" BASIS,\n * WITHOUT WARRANTIES OR CONDITIONS OF ANY KIND, either express or implied.\n * See the License for the specific language governing permissions and\n * limitations under the License.\n */\n\npragma solidity 0.4.24;\n\nimport \"openzeppelin-solidity/contracts/AddressUtils.sol\";\nimport \"./IERC677Recipient.sol\";\nimport \"./TokenStorage.sol\";\nimport \"./ERC20Lib.sol\";\n\n/**\n * @title ERC677\n * @dev ERC677 token functionality.\n * https://github.com/ethereum/EIPs/issues/677\n */\nlibrary ERC677Lib {\n\n    using ERC20Lib for TokenStorage;\n    using AddressUtils for address;\n\n    /**\n     * @dev Transfers tokens and subsequently calls a method on the recipient [ERC677].\n     * If the recipient is a non-contract address this method behaves just like transfer.\n     * @notice db.transfer either returns true or reverts.\n     * @param db Token storage to operate on.\n     * @param caller Address of the caller passed through the frontend.\n     * @param to Recipient address.\n     * @param amount Number of tokens to transfer.\n     * @param data Additional data passed to the recipient's tokenFallback method.\n     */\n    function transferAndCall(\n        TokenStorage db,\n        address caller,\n        address to,\n        uint256 amount,\n        bytes data\n    )\n        external\n        returns (bool)\n    {\n        require(\n            db.transfer(caller, to, amount), \n            \"unable to transfer\"\n        );\n        if (to.isContract()) {\n            IERC677Recipient recipient = IERC677Recipient(to);\n            require(\n                recipient.onTokenTransfer(caller, amount, data),\n                \"token handler returns false\"\n            );\n        }\n        return true;\n    }\n\n}\n",
  "sourcePath": "/Users/gislik/Code/smart-contracts/contracts/ERC677Lib.sol",
  "compiler": {
    "name": "solc",
    "version": "0.4.24+commit.e67f0147.Emscripten.clang"
  },
  "schemaVersion": "2.0.1",
  "updatedAt": "2019-07-19T01:51:06.150Z"
}