{
  "contractName": "ERC677Lib",
  "abi": [
    {
      "constant": false,
      "inputs": [
        {
          "name": "db",
          "type": "TokenStorage"
        },
        {
          "name": "caller",
          "type": "address"
        },
        {
          "name": "to",
          "type": "address"
        },
        {
          "name": "amount",
          "type": "uint256"
        },
        {
          "name": "data",
          "type": "bytes"
        }
      ],
      "name": "transferAndCall",
      "outputs": [
        {
          "name": "",
          "type": "bool"
        }
      ],
      "payable": false,
      "stateMutability": "nonpayable",
      "type": "function"
    }
  ],
  "bytecode": "0x610454610030600b82828239805160001a6073146000811461002057610022565bfe5b5030600052607381538281f3007300000000000000000000000000000000000000003014608060405260043610610058576000357c0100000000000000000000000000000000000000000000000000000000900463ffffffff1680631eb8bccb1461005d575b600080fd5b81801561006957600080fd5b50610100600480360381019080803573ffffffffffffffffffffffffffffffffffffffff169060200190929190803573ffffffffffffffffffffffffffffffffffffffff169060200190929190803573ffffffffffffffffffffffffffffffffffffffff1690602001909291908035906020019092919080359060200190820180359060200191909192939192939050505061011a565b604051808215151515815260200191505060405180910390f35b60008061014a8787878b73ffffffffffffffffffffffffffffffffffffffff16610291909392919063ffffffff16565b151561015257fe5b6101718673ffffffffffffffffffffffffffffffffffffffff16610415565b15610282578590508073ffffffffffffffffffffffffffffffffffffffff1663c0ee0b8a888787876040518563ffffffff167c0100000000000000000000000000000000000000000000000000000000028152600401808573ffffffffffffffffffffffffffffffffffffffff1673ffffffffffffffffffffffffffffffffffffffff168152602001848152602001806020018281038252848482818152602001925080828437820191505095505050505050602060405180830381600087803b15801561023e57600080fd5b505af1158015610252573d6000803e3d6000fd5b505050506040513d602081101561026857600080fd5b8101908080519060200190929190505050151561028157fe5b5b60019150509695505050505050565b60008473ffffffffffffffffffffffffffffffffffffffff1663cf8eeb7e85846040518363ffffffff167c0100000000000000000000000000000000000000000000000000000000028152600401808373ffffffffffffffffffffffffffffffffffffffff1673ffffffffffffffffffffffffffffffffffffffff16815260200182815260200192505050600060405180830381600087803b15801561033657600080fd5b505af115801561034a573d6000803e3d6000fd5b505050508473ffffffffffffffffffffffffffffffffffffffff166321e5383a84846040518363ffffffff167c0100000000000000000000000000000000000000000000000000000000028152600401808373ffffffffffffffffffffffffffffffffffffffff1673ffffffffffffffffffffffffffffffffffffffff16815260200182815260200192505050600060405180830381600087803b1580156103f157600080fd5b505af1158015610405573d6000803e3d6000fd5b5050505060019050949350505050565b600080823b9050600081119150509190505600a165627a7a7230582058054aca970af399ef1cb0312e6ac6662141c881a649881da8e15cd260e767680029",
  "source": "pragma solidity 0.4.24;\n\nimport \"openzeppelin-solidity/contracts/AddressUtils.sol\";\nimport \"./ITokenRecipient.sol\";\nimport \"./TokenStorage.sol\";\nimport \"./ERC20Lib.sol\";\n\n/**\n * @title ERC677\n * @dev ERC677 token functionality.\n * https://github.com/ethereum/EIPs/issues/677\n */\nlibrary ERC677Lib {\n\n    using ERC20Lib for TokenStorage;\n    using AddressUtils for address;\n\n    /**\n     * @dev Transfers tokens and subsequently calls a method on the recipient [ERC677].\n     * If the recipient is a non-contract address this method behaves just like transfer.\n     * @notice db.transfer either returns true or reverts.\n     * @param db Token storage to operate on.\n     * @param caller Address of the caller passed through the frontend.\n     * @param to Recipient address.\n     * @param amount Number of tokens to transfer.\n     * @param data Additional data passed to the recipient's tokenFallback method.\n     */\n    function transferAndCall(\n        TokenStorage db,\n        address caller,\n        address to,\n        uint256 amount,\n        bytes data\n    )\n        external\n        returns (bool)\n    {\n        assert(db.transfer(caller, to, amount));\n        if (to.isContract()) {\n            ITokenRecipient recipient = ITokenRecipient(to);\n            assert(recipient.tokenFallback(caller, amount, data));\n        }\n        return true;\n    }\n\n}\n",
  "sourcePath": "/Users/gislik/Code/smart-contracts/contracts/ERC677Lib.sol",
  "compiler": {
    "name": "solc",
    "version": "0.4.24+commit.e67f0147.Emscripten.clang"
  },
  "schemaVersion": "2.0.1",
  "updatedAt": "2019-07-17T17:20:24.308Z"
}