{
  "contractName": "MintableTokenLib",
  "abi": [
    {
      "anonymous": false,
      "inputs": [
        {
          "indexed": true,
          "name": "to",
          "type": "address"
        },
        {
          "indexed": false,
          "name": "amount",
          "type": "uint256"
        }
      ],
      "name": "Mint",
      "type": "event"
    },
    {
      "anonymous": false,
      "inputs": [
        {
          "indexed": true,
          "name": "from",
          "type": "address"
        },
        {
          "indexed": false,
          "name": "amount",
          "type": "uint256"
        }
      ],
      "name": "Burn",
      "type": "event"
    },
    {
      "constant": false,
      "inputs": [
        {
          "name": "self",
          "type": "TokenStorage"
        },
        {
          "name": "_to",
          "type": "address"
        },
        {
          "name": "_amount",
          "type": "uint256"
        }
      ],
      "name": "mint",
      "outputs": [
        {
          "name": "",
          "type": "bool"
        }
      ],
      "payable": false,
      "stateMutability": "nonpayable",
      "type": "function"
    },
    {
      "constant": false,
      "inputs": [
        {
          "name": "self",
          "type": "TokenStorage"
        },
        {
          "name": "_from",
          "type": "address"
        },
        {
          "name": "_amount",
          "type": "uint256"
        }
      ],
      "name": "burn",
      "outputs": [
        {
          "name": "",
          "type": "bool"
        }
      ],
      "payable": false,
      "stateMutability": "nonpayable",
      "type": "function"
    }
  ],
  "bytecode": "0x6103ca610030600b82828239805160001a6073146000811461002057610022565bfe5b5030600052607381538281f3007300000000000000000000000000000000000000003014608060405260043610610063576000357c0100000000000000000000000000000000000000000000000000000000900463ffffffff168063a6c9ac2814610068578063b0c29c74146100ed575b600080fd5b81801561007457600080fd5b506100d3600480360381019080803573ffffffffffffffffffffffffffffffffffffffff169060200190929190803573ffffffffffffffffffffffffffffffffffffffff16906020019092919080359060200190929190505050610172565b604051808215151515815260200191505060405180910390f35b8180156100f957600080fd5b50610158600480360381019080803573ffffffffffffffffffffffffffffffffffffffff169060200190929190803573ffffffffffffffffffffffffffffffffffffffff16906020019092919080359060200190929190505050610288565b604051808215151515815260200191505060405180910390f35b60008373ffffffffffffffffffffffffffffffffffffffff1663cf8eeb7e84846040518363ffffffff167c0100000000000000000000000000000000000000000000000000000000028152600401808373ffffffffffffffffffffffffffffffffffffffff1673ffffffffffffffffffffffffffffffffffffffff16815260200182815260200192505050600060405180830381600087803b15801561021757600080fd5b505af115801561022b573d6000803e3d6000fd5b505050508273ffffffffffffffffffffffffffffffffffffffff167fcc16f5dbb4873280815c1ee09dbd06736cffcc184412cf7a71a0fdb75d397ca5836040518082815260200191505060405180910390a2600190509392505050565b60008373ffffffffffffffffffffffffffffffffffffffff166321e5383a84846040518363ffffffff167c0100000000000000000000000000000000000000000000000000000000028152600401808373ffffffffffffffffffffffffffffffffffffffff1673ffffffffffffffffffffffffffffffffffffffff16815260200182815260200192505050600060405180830381600087803b15801561032d57600080fd5b505af1158015610341573d6000803e3d6000fd5b505050508273ffffffffffffffffffffffffffffffffffffffff167f0f6798a560793a54c3bcfe86a93cde1e73087d944c0ea20544137d4121396885836040518082815260200191505060405180910390a26001905093925050505600a165627a7a72305820a606c481dc5b95ee00437c84720cb5745014a0599c8830b81659c9bc8623f6010029",
  "source": "pragma solidity ^0.4.24;\n\n\n// import \"zeppelin-solidity/contracts/token/EternalTokenStorage.sol\";\nimport \"zeppelin-solidity/contracts/SafeMathLib.sol\";\nimport \"./TokenStorage.sol\";\n\n\n/**\n * @title Mintable token\n * @dev Simple ERC20 Token example, with mintable token creation\n * @dev Issue: * https://github.com/OpenZeppelin/zeppelin-solidity/issues/120\n * Based on code by TokenMarketNet: https://github.com/TokenMarketNet/ico/blob/master/contracts/MintableToken.sol\n */\n\nlibrary MintableTokenLib {\n    using SafeMathLib for uint;\n\n    event Mint(address indexed to, uint amount);\n    event Burn(address indexed from, uint amount);\n\n    /**\n     * @dev Function to mint tokens\n     * @param _to The address that will recieve the minted tokens.\n     * @param _amount The amount of tokens to mint.\n     * @return A boolean that indicates if the operation was successful.\n     */\n    // function mint(address _to, uint _amount) onlyOwner canMint returns (bool) {\n    function mint(\n        TokenStorage self, \n        address _to, \n        uint _amount\n    ) \n        external \n        returns (bool) \n    {\n        self.addBalance(_to, _amount);\n        emit Mint(_to, _amount);\n        return true;\n    }\n    \n    function burn(\n        TokenStorage self, \n        address _from, \n        uint _amount\n    ) \n        external\n        returns (bool) \n    {\n        self.subBalance(_from, _amount);\n        emit Burn(_from, _amount);\n        return true;\n    }\n\n}\n\n",
  "sourcePath": "/Users/gislik/Code/smart-contracts/contracts/MintableTokenLib.sol",
  "compiler": {
    "name": "solc",
    "version": "0.4.24+commit.e67f0147.Emscripten.clang"
  },
  "schemaVersion": "2.0.0",
  "updatedAt": "2018-08-13T11:12:10.453Z"
}