{
  "contractName": "MintableTokenLib",
  "abi": [
    {
      "anonymous": false,
      "inputs": [
        {
          "indexed": true,
          "name": "to",
          "type": "address"
        },
        {
          "indexed": false,
          "name": "amount",
          "type": "uint256"
        }
      ],
      "name": "Mint",
      "type": "event"
    },
    {
      "anonymous": false,
      "inputs": [
        {
          "indexed": true,
          "name": "from",
          "type": "address"
        },
        {
          "indexed": false,
          "name": "amount",
          "type": "uint256"
        }
      ],
      "name": "Burn",
      "type": "event"
    },
    {
      "constant": true,
      "inputs": [
        {
          "name": "self",
          "type": "TokenStorage"
        },
        {
          "name": "_to",
          "type": "address"
        },
        {
          "name": "_amount",
          "type": "uint256"
        }
      ],
      "name": "mint",
      "outputs": [
        {
          "name": "",
          "type": "bool"
        }
      ],
      "payable": false,
      "stateMutability": "view",
      "type": "function"
    },
    {
      "constant": true,
      "inputs": [
        {
          "name": "self",
          "type": "TokenStorage"
        },
        {
          "name": "_from",
          "type": "address"
        },
        {
          "name": "_amount",
          "type": "uint256"
        }
      ],
      "name": "burn",
      "outputs": [
        {
          "name": "",
          "type": "bool"
        }
      ],
      "payable": false,
      "stateMutability": "view",
      "type": "function"
    }
  ],
  "bytecode": "0x6103b0610030600b82828239805160001a6073146000811461002057610022565bfe5b5030600052607381538281f3007300000000000000000000000000000000000000003014608060405260043610610063576000357c0100000000000000000000000000000000000000000000000000000000900463ffffffff168063a6c9ac2814610068578063b0c29c74146100e0575b600080fd5b6100c6600480360381019080803573ffffffffffffffffffffffffffffffffffffffff169060200190929190803573ffffffffffffffffffffffffffffffffffffffff16906020019092919080359060200190929190505050610158565b604051808215151515815260200191505060405180910390f35b61013e600480360381019080803573ffffffffffffffffffffffffffffffffffffffff169060200190929190803573ffffffffffffffffffffffffffffffffffffffff1690602001909291908035906020019092919050505061026e565b604051808215151515815260200191505060405180910390f35b60008373ffffffffffffffffffffffffffffffffffffffff1663cf8eeb7e84846040518363ffffffff167c0100000000000000000000000000000000000000000000000000000000028152600401808373ffffffffffffffffffffffffffffffffffffffff1673ffffffffffffffffffffffffffffffffffffffff16815260200182815260200192505050600060405180830381600087803b1580156101fd57600080fd5b505af1158015610211573d6000803e3d6000fd5b505050508273ffffffffffffffffffffffffffffffffffffffff167fcc16f5dbb4873280815c1ee09dbd06736cffcc184412cf7a71a0fdb75d397ca5836040518082815260200191505060405180910390a2600190509392505050565b60008373ffffffffffffffffffffffffffffffffffffffff166321e5383a84846040518363ffffffff167c0100000000000000000000000000000000000000000000000000000000028152600401808373ffffffffffffffffffffffffffffffffffffffff1673ffffffffffffffffffffffffffffffffffffffff16815260200182815260200192505050600060405180830381600087803b15801561031357600080fd5b505af1158015610327573d6000803e3d6000fd5b505050508273ffffffffffffffffffffffffffffffffffffffff167f0f6798a560793a54c3bcfe86a93cde1e73087d944c0ea20544137d4121396885836040518082815260200191505060405180910390a26001905093925050505600a165627a7a72305820d1c9c204f7d06104f03d0851b055989eaa8897ca8afd6317b86cb4027f6071600029",
  "source": "pragma solidity ^0.4.24;\n\n\n// import \"zeppelin-solidity/contracts/token/EternalTokenStorage.sol\";\nimport \"zeppelin-solidity/contracts/SafeMathLib.sol\";\nimport \"./TokenStorage.sol\";\n\n\n/**\n * @title Mintable token\n * @dev Simple ERC20 Token example, with mintable token creation\n * @dev Issue: * https://github.com/OpenZeppelin/zeppelin-solidity/issues/120\n * Based on code by TokenMarketNet: https://github.com/TokenMarketNet/ico/blob/master/contracts/MintableToken.sol\n */\n\nlibrary MintableTokenLib {\n    using SafeMathLib for uint;\n\n    event Mint(address indexed to, uint amount);\n    event Burn(address indexed from, uint amount);\n    // event MintFinished();\n\n    // bool public mintingFinished = false;\n\n\n    // modifier canMint() {\n        // if(mintingFinished) throw;\n        // _;\n    // }\n\n    /**\n     * @dev Function to mint tokens\n     * @param _to The address that will recieve the minted tokens.\n     * @param _amount The amount of tokens to mint.\n     * @return A boolean that indicates if the operation was successful.\n     */\n    // function mint(address _to, uint _amount) onlyOwner canMint returns (bool) {\n    function mint(\n        TokenStorage self, \n        address _to, \n        uint _amount\n    ) constant returns (bool) {\n        // self.totalSupply = self.totalSupply.plus(_amount);\n        // self.balances[_to] = self.balances[_to].plus(_amount);\n        self.addBalance(_to, _amount);\n        Mint(_to, _amount);\n        return true;\n    }\n    \n    function burn(\n        TokenStorage self, \n        address _from, \n        uint _amount\n    ) constant returns (bool) {\n        // self.totalSupply = self.totalSupply.minus(_amount);\n        // self.balances[_from] = self.balances[_from].minus(_amount);\n        self.subBalance(_from, _amount);\n        Burn(_from, _amount);\n        return true;\n    }\n\n    /**\n     * @dev Function to stop minting new tokens.\n     * @return True if the operation was successful.\n     */\n    // function finishMinting() onlyOwner returns (bool) {\n//    function finishMinting() constant returns (bool) {\n//        mintingFinished = true;\n//        MintFinished();\n//        return true;\n//    }\n}\n\n",
  "sourcePath": "/Users/gislik/Code/smart-contracts/contracts/MintableTokenLib.sol",
  "compiler": {
    "name": "solc",
    "version": "0.4.24+commit.e67f0147.Emscripten.clang"
  },
  "schemaVersion": "2.0.0",
  "updatedAt": "2018-08-08T11:18:07.492Z"
}