{
  "contractName": "RejectingRecipient",
  "abi": [
    {
      "constant": false,
      "inputs": [
        {
          "name": "",
          "type": "address"
        },
        {
          "name": "",
          "type": "uint256"
        },
        {
          "name": "",
          "type": "bytes"
        }
      ],
      "name": "tokenFallback",
      "outputs": [
        {
          "name": "",
          "type": "bool"
        }
      ],
      "payable": false,
      "stateMutability": "nonpayable",
      "type": "function"
    }
  ],
  "bytecode": "0x608060405234801561001057600080fd5b5060f18061001f6000396000f300608060405260043610603f576000357c0100000000000000000000000000000000000000000000000000000000900463ffffffff168063c0ee0b8a146044575b600080fd5b348015604f57600080fd5b5060a4600480360381019080803573ffffffffffffffffffffffffffffffffffffffff1690602001909291908035906020019092919080359060200190820180359060200191909192939192939050505060be565b604051808215151515815260200191505060405180910390f35b6000806000fd00a165627a7a723058208ed3f805ac62c91847b6d46f9d050fb71e44477c9e5205751f3d99f57387f7660029",
  "source": "pragma solidity ^0.4.24;\n\nimport \"./ITokenRecipient.sol\";\n\n/**\n * @title RejectingRecipient\n * @dev [ERC677]-compatible contract.\n * The contract rejects token ownership.\n */\ncontract RejectingRecipient is ITokenRecipient {\n\n    function tokenFallback(address, uint256, bytes) external returns (bool) {\n        revert();\n        return false;\n    }\n\n}\n\n",
  "sourcePath": "/Users/gislik/Code/smart-contracts/contracts/RejectingRecipient.sol",
  "compiler": {
    "name": "solc",
    "version": "0.4.24+commit.e67f0147.Emscripten.clang"
  },
  "schemaVersion": "2.0.1",
  "updatedAt": "2019-05-27T11:13:33.855Z"
}