{
  "contractName": "SafeMathLib",
  "abi": [
    {
      "constant": false,
      "inputs": [
        {
          "name": "a",
          "type": "uint256"
        },
        {
          "name": "b",
          "type": "uint256"
        }
      ],
      "name": "times",
      "outputs": [
        {
          "name": "",
          "type": "uint256"
        }
      ],
      "payable": false,
      "stateMutability": "nonpayable",
      "type": "function"
    },
    {
      "constant": false,
      "inputs": [
        {
          "name": "a",
          "type": "uint256"
        },
        {
          "name": "b",
          "type": "uint256"
        }
      ],
      "name": "minus",
      "outputs": [
        {
          "name": "",
          "type": "uint256"
        }
      ],
      "payable": false,
      "stateMutability": "nonpayable",
      "type": "function"
    },
    {
      "constant": false,
      "inputs": [
        {
          "name": "a",
          "type": "uint256"
        },
        {
          "name": "b",
          "type": "uint256"
        }
      ],
      "name": "plus",
      "outputs": [
        {
          "name": "",
          "type": "uint256"
        }
      ],
      "payable": false,
      "stateMutability": "nonpayable",
      "type": "function"
    }
  ],
  "bytecode": "0x610205610030600b82828239805160001a6073146000811461002057610022565bfe5b5030600052607381538281f300730000000000000000000000000000000000000000301460806040526004361061006e576000357c0100000000000000000000000000000000000000000000000000000000900463ffffffff1680631d3b9edf1461007357806366098d4f146100be578063f4f3bdc114610109575b600080fd5b81801561007f57600080fd5b506100a86004803603810190808035906020019092919080359060200190929190505050610154565b6040518082815260200191505060405180910390f35b8180156100ca57600080fd5b506100f36004803603810190808035906020019092919080359060200190929190505050610187565b6040518082815260200191505060405180910390f35b81801561011557600080fd5b5061013e60048036038101908080359060200190929190803590602001909291905050506101b1565b6040518082815260200191505060405180910390f35b600080828402905061017d6000851480610178575083858381151561017557fe5b04145b6101ca565b8091505092915050565b60008082840190506101a78482101580156101a25750838210155b6101ca565b8091505092915050565b60006101bf838311156101ca565b818303905092915050565b8015156101d657600080fd5b505600a165627a7a723058201b458c85b7b02d78ef6ee52340fa66c862edbaa6dc8257afdd0c47b363e5cc4d0029",
  "source": "pragma solidity ^0.4.6;\n\nlibrary SafeMathLib {\n  function times(uint a, uint b) returns (uint) {\n    uint c = a * b;\n    assert(a == 0 || c / a == b);\n    return c;\n  }\n\n  function minus(uint a, uint b) returns (uint) {\n    assert(b <= a);\n    return a - b;\n  }\n\n  function plus(uint a, uint b) returns (uint) {\n    uint c = a + b;\n    assert(c>=a && c>=b);\n    return c;\n  }\n\n  function assert(bool assertion) private {\n    if (!assertion) throw;\n  }\n}\n",
  "sourcePath": "zeppelin-solidity/contracts/SafeMathLib.sol",
  "compiler": {
    "name": "solc",
    "version": "0.4.24+commit.e67f0147.Emscripten.clang"
  },
  "schemaVersion": "2.0.0",
  "updatedAt": "2018-08-14T17:16:17.876Z"
}