{
  "contractName": "SmartController",
  "abi": [
    {
      "constant": true,
      "inputs": [],
      "name": "getFrontend",
      "outputs": [
        {
          "name": "",
          "type": "address"
        }
      ],
      "payable": false,
      "stateMutability": "view",
      "type": "function"
    },
    {
      "constant": true,
      "inputs": [],
      "name": "name",
      "outputs": [
        {
          "name": "",
          "type": "string"
        }
      ],
      "payable": false,
      "stateMutability": "view",
      "type": "function"
    },
    {
      "constant": false,
      "inputs": [
        {
          "name": "spender",
          "type": "address"
        },
        {
          "name": "value",
          "type": "uint256"
        }
      ],
      "name": "approve",
      "outputs": [
        {
          "name": "ok",
          "type": "bool"
        }
      ],
      "payable": false,
      "stateMutability": "nonpayable",
      "type": "function"
    },
    {
      "constant": true,
      "inputs": [],
      "name": "totalSupply",
      "outputs": [
        {
          "name": "",
          "type": "uint256"
        }
      ],
      "payable": false,
      "stateMutability": "view",
      "type": "function"
    },
    {
      "constant": false,
      "inputs": [
        {
          "name": "from",
          "type": "address"
        },
        {
          "name": "to",
          "type": "address"
        },
        {
          "name": "value",
          "type": "uint256"
        }
      ],
      "name": "transferFrom",
      "outputs": [
        {
          "name": "ok",
          "type": "bool"
        }
      ],
      "payable": false,
      "stateMutability": "nonpayable",
      "type": "function"
    },
    {
      "constant": true,
      "inputs": [],
      "name": "INITIAL_SUPPLY",
      "outputs": [
        {
          "name": "",
          "type": "uint256"
        }
      ],
      "payable": false,
      "stateMutability": "view",
      "type": "function"
    },
    {
      "constant": true,
      "inputs": [],
      "name": "decimals",
      "outputs": [
        {
          "name": "",
          "type": "uint256"
        }
      ],
      "payable": false,
      "stateMutability": "view",
      "type": "function"
    },
    {
      "constant": true,
      "inputs": [],
      "name": "getStorage",
      "outputs": [
        {
          "name": "",
          "type": "address"
        }
      ],
      "payable": false,
      "stateMutability": "view",
      "type": "function"
    },
    {
      "constant": false,
      "inputs": [
        {
          "name": "amount",
          "type": "uint256"
        }
      ],
      "name": "burn",
      "outputs": [
        {
          "name": "",
          "type": "bool"
        }
      ],
      "payable": false,
      "stateMutability": "nonpayable",
      "type": "function"
    },
    {
      "constant": false,
      "inputs": [
        {
          "name": "_caller",
          "type": "address"
        },
        {
          "name": "_spender",
          "type": "address"
        },
        {
          "name": "_value",
          "type": "uint256"
        },
        {
          "name": "_extraData",
          "type": "bytes"
        }
      ],
      "name": "approveAndCall677",
      "outputs": [
        {
          "name": "ok",
          "type": "bool"
        }
      ],
      "payable": false,
      "stateMutability": "nonpayable",
      "type": "function"
    },
    {
      "constant": false,
      "inputs": [
        {
          "name": "_caller",
          "type": "address"
        },
        {
          "name": "_spender",
          "type": "address"
        },
        {
          "name": "_value",
          "type": "uint256"
        }
      ],
      "name": "approve20",
      "outputs": [
        {
          "name": "ok",
          "type": "bool"
        }
      ],
      "payable": false,
      "stateMutability": "nonpayable",
      "type": "function"
    },
    {
      "constant": false,
      "inputs": [],
      "name": "claimOwnership",
      "outputs": [],
      "payable": false,
      "stateMutability": "nonpayable",
      "type": "function"
    },
    {
      "constant": false,
      "inputs": [
        {
          "name": "_address",
          "type": "address"
        }
      ],
      "name": "setFrontend",
      "outputs": [],
      "payable": false,
      "stateMutability": "nonpayable",
      "type": "function"
    },
    {
      "constant": true,
      "inputs": [
        {
          "name": "who",
          "type": "address"
        }
      ],
      "name": "balanceOf",
      "outputs": [
        {
          "name": "",
          "type": "uint256"
        }
      ],
      "payable": false,
      "stateMutability": "view",
      "type": "function"
    },
    {
      "constant": false,
      "inputs": [],
      "name": "renounceOwnership",
      "outputs": [],
      "payable": false,
      "stateMutability": "nonpayable",
      "type": "function"
    },
    {
      "constant": true,
      "inputs": [],
      "name": "ticker",
      "outputs": [
        {
          "name": "",
          "type": "bytes3"
        }
      ],
      "payable": false,
      "stateMutability": "view",
      "type": "function"
    },
    {
      "constant": true,
      "inputs": [],
      "name": "owner",
      "outputs": [
        {
          "name": "",
          "type": "address"
        }
      ],
      "payable": false,
      "stateMutability": "view",
      "type": "function"
    },
    {
      "constant": true,
      "inputs": [],
      "name": "symbol",
      "outputs": [
        {
          "name": "",
          "type": "string"
        }
      ],
      "payable": false,
      "stateMutability": "view",
      "type": "function"
    },
    {
      "constant": false,
      "inputs": [
        {
          "name": "amount",
          "type": "uint256"
        }
      ],
      "name": "mint",
      "outputs": [
        {
          "name": "",
          "type": "bool"
        }
      ],
      "payable": false,
      "stateMutability": "nonpayable",
      "type": "function"
    },
    {
      "constant": false,
      "inputs": [
        {
          "name": "_caller",
          "type": "address"
        },
        {
          "name": "_from",
          "type": "address"
        },
        {
          "name": "_to",
          "type": "address"
        },
        {
          "name": "_value",
          "type": "uint256"
        }
      ],
      "name": "transferFrom20",
      "outputs": [
        {
          "name": "ok",
          "type": "bool"
        }
      ],
      "payable": false,
      "stateMutability": "nonpayable",
      "type": "function"
    },
    {
      "constant": false,
      "inputs": [
        {
          "name": "spender",
          "type": "address"
        },
        {
          "name": "value",
          "type": "uint256"
        },
        {
          "name": "extraData",
          "type": "bytes"
        }
      ],
      "name": "approveAndCall",
      "outputs": [
        {
          "name": "ok",
          "type": "bool"
        }
      ],
      "payable": false,
      "stateMutability": "nonpayable",
      "type": "function"
    },
    {
      "constant": true,
      "inputs": [
        {
          "name": "owner",
          "type": "address"
        },
        {
          "name": "spender",
          "type": "address"
        }
      ],
      "name": "allowance",
      "outputs": [
        {
          "name": "",
          "type": "uint256"
        }
      ],
      "payable": false,
      "stateMutability": "view",
      "type": "function"
    },
    {
      "constant": true,
      "inputs": [],
      "name": "pendingOwner",
      "outputs": [
        {
          "name": "",
          "type": "address"
        }
      ],
      "payable": false,
      "stateMutability": "view",
      "type": "function"
    },
    {
      "constant": false,
      "inputs": [
        {
          "name": "newOwner",
          "type": "address"
        }
      ],
      "name": "transferOwnership",
      "outputs": [],
      "payable": false,
      "stateMutability": "nonpayable",
      "type": "function"
    },
    {
      "inputs": [
        {
          "name": "_storage",
          "type": "address"
        },
        {
          "name": "validator",
          "type": "address"
        },
        {
          "name": "ticker_",
          "type": "bytes3"
        }
      ],
      "payable": false,
      "stateMutability": "nonpayable",
      "type": "constructor"
    },
    {
      "anonymous": false,
      "inputs": [
        {
          "indexed": true,
          "name": "from",
          "type": "address"
        },
        {
          "indexed": true,
          "name": "to",
          "type": "address"
        },
        {
          "indexed": false,
          "name": "amount",
          "type": "uint256"
        }
      ],
      "name": "Recovered",
      "type": "event"
    },
    {
      "anonymous": false,
      "inputs": [
        {
          "indexed": true,
          "name": "previousOwner",
          "type": "address"
        }
      ],
      "name": "OwnershipRenounced",
      "type": "event"
    },
    {
      "anonymous": false,
      "inputs": [
        {
          "indexed": true,
          "name": "previousOwner",
          "type": "address"
        },
        {
          "indexed": true,
          "name": "newOwner",
          "type": "address"
        }
      ],
      "name": "OwnershipTransferred",
      "type": "event"
    },
    {
      "constant": false,
      "inputs": [
        {
          "name": "validator",
          "type": "address"
        }
      ],
      "name": "setValidator",
      "outputs": [],
      "payable": false,
      "stateMutability": "nonpayable",
      "type": "function"
    },
    {
      "constant": false,
      "inputs": [
        {
          "name": "from",
          "type": "address"
        },
        {
          "name": "to",
          "type": "address"
        },
        {
          "name": "h",
          "type": "bytes32"
        },
        {
          "name": "v",
          "type": "uint8"
        },
        {
          "name": "r",
          "type": "bytes32"
        },
        {
          "name": "s",
          "type": "bytes32"
        }
      ],
      "name": "recover",
      "outputs": [
        {
          "name": "",
          "type": "bool"
        }
      ],
      "payable": false,
      "stateMutability": "nonpayable",
      "type": "function"
    },
    {
      "constant": false,
      "inputs": [
        {
          "name": "to",
          "type": "address"
        },
        {
          "name": "value",
          "type": "uint256"
        }
      ],
      "name": "transfer",
      "outputs": [
        {
          "name": "ok",
          "type": "bool"
        }
      ],
      "payable": false,
      "stateMutability": "nonpayable",
      "type": "function"
    },
    {
      "constant": false,
      "inputs": [
        {
          "name": "_caller",
          "type": "address"
        },
        {
          "name": "to",
          "type": "address"
        },
        {
          "name": "value",
          "type": "uint256"
        }
      ],
      "name": "transfer20",
      "outputs": [
        {
          "name": "ok",
          "type": "bool"
        }
      ],
      "payable": false,
      "stateMutability": "nonpayable",
      "type": "function"
    },
    {
      "constant": true,
      "inputs": [],
      "name": "getValidator",
      "outputs": [
        {
          "name": "",
          "type": "address"
        }
      ],
      "payable": false,
      "stateMutability": "view",
      "type": "function"
    }
  ],
  "bytecode": "0x6080604052601260065560126009553480156200001b57600080fd5b506040516060806200408f8339810180604052810190808051906020019092919080519060200190929190805190602001909291905050508260008181336000806101000a81548173ffffffffffffffffffffffffffffffffffffffff021916908373ffffffffffffffffffffffffffffffffffffffff16021790555060008273ffffffffffffffffffffffffffffffffffffffff161480620000be5750600081145b1515620000c757fe5b60008273ffffffffffffffffffffffffffffffffffffffff1614156200023457620000f16200039e565b604051809103906000f0801580156200010e573d6000803e3d6000fd5b50600260006101000a81548173ffffffffffffffffffffffffffffffffffffffff021916908373ffffffffffffffffffffffffffffffffffffffff160217905550600260009054906101000a900473ffffffffffffffffffffffffffffffffffffffff1673ffffffffffffffffffffffffffffffffffffffff166321e5383a33836040518363ffffffff167c0100000000000000000000000000000000000000000000000000000000028152600401808373ffffffffffffffffffffffffffffffffffffffff1673ffffffffffffffffffffffffffffffffffffffff16815260200182815260200192505050600060405180830381600087803b1580156200021557600080fd5b505af11580156200022a573d6000803e3d6000fd5b5050505062000276565b81600260006101000a81548173ffffffffffffffffffffffffffffffffffffffff021916908373ffffffffffffffffffffffffffffffffffffffff1602179055505b5050505060008273ffffffffffffffffffffffffffffffffffffffff16141515156200029e57fe5b600773__SmartTokenLib_________________________635d5dcc3e9091846040518363ffffffff167c0100000000000000000000000000000000000000000000000000000000028152600401808381526020018273ffffffffffffffffffffffffffffffffffffffff1673ffffffffffffffffffffffffffffffffffffffff1681526020019250505060006040518083038186803b1580156200034157600080fd5b505af415801562000356573d6000803e3d6000fd5b5050505080600860006101000a81548162ffffff02191690837d01000000000000000000000000000000000000000000000000000000000090040217905550505050620003af565b604051610e26806200326983390190565b612eaa80620003bf6000396000f300608060405260043610610174576000357c0100000000000000000000000000000000000000000000000000000000900463ffffffff1680623074ff1461017957806306fdde03146101d0578063095ea7b3146102605780631195e07e146102c55780631327d3d81461031c57806318160ddd1461035f57806323b872dd1461038a5780632beac3bc1461040f5780632ff2e9dc14610494578063313ce567146104bf5780633408f73a146104ea57806342966c68146105415780634990b7ba146105865780634dd1fffb146106515780634e71e0c8146106d657806369569a51146106ed5780636eb4c6091461073057806370a08231146107e2578063715018a6146108395780638ba47bdd146108505780638da5cb5b146108bb57806395d89b4114610912578063a0712d68146109a2578063a9059cbb146109e7578063b9b3abe014610a4c578063cae9ca5114610af1578063dd62ed3e14610b6e578063e30c397814610be5578063f2fde38b14610c3c575b600080fd5b34801561018557600080fd5b5061018e610c7f565b604051808273ffffffffffffffffffffffffffffffffffffffff1673ffffffffffffffffffffffffffffffffffffffff16815260200191505060405180910390f35b3480156101dc57600080fd5b506101e5610ca9565b6040518080602001828103825283818151815260200191508051906020019080838360005b8381101561022557808201518184015260208101905061020a565b50505050905090810190601f1680156102525780820380516001836020036101000a031916815260200191505b509250505060405180910390f35b34801561026c57600080fd5b506102ab600480360381019080803573ffffffffffffffffffffffffffffffffffffffff16906020019092919080359060200190929190505050610d47565b604051808215151515815260200191505060405180910390f35b3480156102d157600080fd5b506102da610d5c565b604051808273ffffffffffffffffffffffffffffffffffffffff1673ffffffffffffffffffffffffffffffffffffffff16815260200191505060405180910390f35b34801561032857600080fd5b5061035d600480360381019080803573ffffffffffffffffffffffffffffffffffffffff169060200190929190505050610e0c565b005b34801561036b57600080fd5b50610374610ec9565b6040518082815260200191505060405180910390f35b34801561039657600080fd5b506103f5600480360381019080803573ffffffffffffffffffffffffffffffffffffffff169060200190929190803573ffffffffffffffffffffffffffffffffffffffff16906020019092919080359060200190929190505050610f91565b604051808215151515815260200191505060405180910390f35b34801561041b57600080fd5b5061047a600480360381019080803573ffffffffffffffffffffffffffffffffffffffff169060200190929190803573ffffffffffffffffffffffffffffffffffffffff16906020019092919080359060200190929190505050610fa8565b604051808215151515815260200191505060405180910390f35b3480156104a057600080fd5b506104a961114b565b6040518082815260200191505060405180910390f35b3480156104cb57600080fd5b506104d4611150565b6040518082815260200191505060405180910390f35b3480156104f657600080fd5b506104ff611156565b604051808273ffffffffffffffffffffffffffffffffffffffff1673ffffffffffffffffffffffffffffffffffffffff16815260200191505060405180910390f35b34801561054d57600080fd5b5061056c60048036038101908080359060200190929190505050611180565b604051808215151515815260200191505060405180910390f35b34801561059257600080fd5b50610637600480360381019080803573ffffffffffffffffffffffffffffffffffffffff169060200190929190803573ffffffffffffffffffffffffffffffffffffffff16906020019092919080359060200190929190803590602001908201803590602001908080601f016020809104026020016040519081016040528093929190818152602001838380828437820191505050505050919291929050505061132c565b604051808215151515815260200191505060405180910390f35b34801561065d57600080fd5b506106bc600480360381019080803573ffffffffffffffffffffffffffffffffffffffff169060200190929190803573ffffffffffffffffffffffffffffffffffffffff16906020019092919080359060200190929190505050611644565b604051808215151515815260200191505060405180910390f35b3480156106e257600080fd5b506106eb6118ee565b005b3480156106f957600080fd5b5061072e600480360381019080803573ffffffffffffffffffffffffffffffffffffffff169060200190929190505050611a8d565b005b34801561073c57600080fd5b506107c8600480360381019080803573ffffffffffffffffffffffffffffffffffffffff169060200190929190803573ffffffffffffffffffffffffffffffffffffffff1690602001909291908035600019169060200190929190803560ff16906020019092919080356000191690602001909291908035600019169060200190929190505050611b2c565b604051808215151515815260200191505060405180910390f35b3480156107ee57600080fd5b50610823600480360381019080803573ffffffffffffffffffffffffffffffffffffffff1690602001909291905050506120f5565b6040518082815260200191505060405180910390f35b34801561084557600080fd5b5061084e6121f6565b005b34801561085c57600080fd5b506108656122f8565b60405180827cffffffffffffffffffffffffffffffffffffffffffffffffffffffffff19167cffffffffffffffffffffffffffffffffffffffffffffffffffffffffff1916815260200191505060405180910390f35b3480156108c757600080fd5b506108d0612328565b604051808273ffffffffffffffffffffffffffffffffffffffff1673ffffffffffffffffffffffffffffffffffffffff16815260200191505060405180910390f35b34801561091e57600080fd5b5061092761234d565b6040518080602001828103825283818151815260200191508051906020019080838360005b8381101561096757808201518184015260208101905061094c565b50505050905090810190601f1680156109945780820380516001836020036101000a031916815260200191505b509250505060405180910390f35b3480156109ae57600080fd5b506109cd600480360381019080803590602001909291905050506123eb565b604051808215151515815260200191505060405180910390f35b3480156109f357600080fd5b50610a32600480360381019080803573ffffffffffffffffffffffffffffffffffffffff16906020019092919080359060200190929190505050612597565b604051808215151515815260200191505060405180910390f35b348015610a5857600080fd5b50610ad7600480360381019080803573ffffffffffffffffffffffffffffffffffffffff169060200190929190803573ffffffffffffffffffffffffffffffffffffffff169060200190929190803573ffffffffffffffffffffffffffffffffffffffff169060200190929190803590602001909291905050506125ac565b604051808215151515815260200191505060405180910390f35b348015610afd57600080fd5b50610b54600480360381019080803573ffffffffffffffffffffffffffffffffffffffff1690602001909291908035906020019092919080359060200190820180359060200191909192939192939050505061288b565b604051808215151515815260200191505060405180910390f35b348015610b7a57600080fd5b50610bcf600480360381019080803573ffffffffffffffffffffffffffffffffffffffff169060200190929190803573ffffffffffffffffffffffffffffffffffffffff1690602001909291905050506128d5565b6040518082815260200191505060405180910390f35b348015610bf157600080fd5b50610bfa612a53565b604051808273ffffffffffffffffffffffffffffffffffffffff1673ffffffffffffffffffffffffffffffffffffffff16815260200191505060405180910390f35b348015610c4857600080fd5b50610c7d600480360381019080803573ffffffffffffffffffffffffffffffffffffffff169060200190929190505050612a79565b005b6000600360009054906101000a900473ffffffffffffffffffffffffffffffffffffffff16905090565b60048054600181600116156101000203166002900480601f016020809104026020016040519081016040528092919081815260200182805460018160011615610100020316600290048015610d3f5780601f10610d1457610100808354040283529160200191610d3f565b820191906000526020600020905b815481529060010190602001808311610d2257829003601f168201915b505050505081565b6000610d54338484611644565b905092915050565b6000600773__SmartTokenLib_________________________63487887b290916040518263ffffffff167c01000000000000000000000000000000000000000000000000000000000281526004018082815260200191505060206040518083038186803b158015610dcc57600080fd5b505af4158015610de0573d6000803e3d6000fd5b505050506040513d6020811015610df657600080fd5b8101908080519060200190929190505050905090565b600773__SmartTokenLib_________________________635d5dcc3e9091836040518363ffffffff167c0100000000000000000000000000000000000000000000000000000000028152600401808381526020018273ffffffffffffffffffffffffffffffffffffffff1673ffffffffffffffffffffffffffffffffffffffff1681526020019250505060006040518083038186803b158015610eae57600080fd5b505af4158015610ec2573d6000803e3d6000fd5b5050505050565b6000600260009054906101000a900473ffffffffffffffffffffffffffffffffffffffff1673ffffffffffffffffffffffffffffffffffffffff16636c9c2faf6040518163ffffffff167c0100000000000000000000000000000000000000000000000000000000028152600401602060405180830381600087803b158015610f5157600080fd5b505af1158015610f65573d6000803e3d6000fd5b505050506040513d6020811015610f7b57600080fd5b8101908080519060200190929190505050905090565b6000610f9f338585856125ac565b90509392505050565b6000600773__SmartTokenLib_________________________63892259fc90918686866040518563ffffffff167c0100000000000000000000000000000000000000000000000000000000028152600401808581526020018473ffffffffffffffffffffffffffffffffffffffff1673ffffffffffffffffffffffffffffffffffffffff1681526020018373ffffffffffffffffffffffffffffffffffffffff1673ffffffffffffffffffffffffffffffffffffffff16815260200182815260200194505050505060206040518083038186803b15801561108857600080fd5b505af415801561109c573d6000803e3d6000fd5b505050506040513d60208110156110b257600080fd5b81019080805190602001909291905050501515611137576040517f08c379a00000000000000000000000000000000000000000000000000000000081526004018080602001828103825260158152602001807f7472616e73666572206973206e6f742076616c6964000000000000000000000081525060200191505060405180910390fd5b611142848484612b18565b90509392505050565b600081565b60095481565b6000600260009054906101000a900473ffffffffffffffffffffffffffffffffffffffff16905090565b60008060009054906101000a900473ffffffffffffffffffffffffffffffffffffffff1673ffffffffffffffffffffffffffffffffffffffff163373ffffffffffffffffffffffffffffffffffffffff161415156111dd57600080fd5b600260009054906101000a900473ffffffffffffffffffffffffffffffffffffffff1673ffffffffffffffffffffffffffffffffffffffff1673__MintableTokenLib______________________63a6c9ac28909133856040518463ffffffff167c0100000000000000000000000000000000000000000000000000000000028152600401808473ffffffffffffffffffffffffffffffffffffffff1673ffffffffffffffffffffffffffffffffffffffff1681526020018373ffffffffffffffffffffffffffffffffffffffff1673ffffffffffffffffffffffffffffffffffffffff168152602001828152602001935050505060206040518083038186803b1580156112ea57600080fd5b505af41580156112fe573d6000803e3d6000fd5b505050506040513d602081101561131457600080fd5b81019080805190602001909291905050509050919050565b6000848073ffffffffffffffffffffffffffffffffffffffff163373ffffffffffffffffffffffffffffffffffffffff1614806113b65750600360009054906101000a900473ffffffffffffffffffffffffffffffffffffffff1673ffffffffffffffffffffffffffffffffffffffff163373ffffffffffffffffffffffffffffffffffffffff16145b1515611450576040517f08c379a00000000000000000000000000000000000000000000000000000000081526004018080602001828103825260348152602001807f6569746865722063616c6c6572206d7573742062652073656e646572206f722081526020017f63616c6c696e67207669612066726f6e74656e6400000000000000000000000081525060400191505060405180910390fd5b600260009054906101000a900473ffffffffffffffffffffffffffffffffffffffff1673ffffffffffffffffffffffffffffffffffffffff1673__ERC20Lib______________________________63f008f5749091888888886040518663ffffffff167c0100000000000000000000000000000000000000000000000000000000028152600401808673ffffffffffffffffffffffffffffffffffffffff1673ffffffffffffffffffffffffffffffffffffffff1681526020018573ffffffffffffffffffffffffffffffffffffffff1673ffffffffffffffffffffffffffffffffffffffff1681526020018473ffffffffffffffffffffffffffffffffffffffff1673ffffffffffffffffffffffffffffffffffffffff16815260200183815260200180602001828103825283818151815260200191508051906020019080838360005b838110156115b0578082015181840152602081019050611595565b50505050905090810190601f1680156115dd5780820380516001836020036101000a031916815260200191505b50965050505050505060206040518083038186803b1580156115fe57600080fd5b505af4158015611612573d6000803e3d6000fd5b505050506040513d602081101561162857600080fd5b8101908080519060200190929190505050915050949350505050565b6000838073ffffffffffffffffffffffffffffffffffffffff163373ffffffffffffffffffffffffffffffffffffffff1614806116ce5750600360009054906101000a900473ffffffffffffffffffffffffffffffffffffffff1673ffffffffffffffffffffffffffffffffffffffff163373ffffffffffffffffffffffffffffffffffffffff16145b1515611768576040517f08c379a00000000000000000000000000000000000000000000000000000000081526004018080602001828103825260348152602001807f6569746865722063616c6c6572206d7573742062652073656e646572206f722081526020017f63616c6c696e67207669612066726f6e74656e6400000000000000000000000081525060400191505060405180910390fd5b600260009054906101000a900473ffffffffffffffffffffffffffffffffffffffff1673ffffffffffffffffffffffffffffffffffffffff1673__ERC20Lib______________________________63365feff190918787876040518563ffffffff167c0100000000000000000000000000000000000000000000000000000000028152600401808573ffffffffffffffffffffffffffffffffffffffff1673ffffffffffffffffffffffffffffffffffffffff1681526020018473ffffffffffffffffffffffffffffffffffffffff1673ffffffffffffffffffffffffffffffffffffffff1681526020018373ffffffffffffffffffffffffffffffffffffffff1673ffffffffffffffffffffffffffffffffffffffff16815260200182815260200194505050505060206040518083038186803b1580156118a957600080fd5b505af41580156118bd573d6000803e3d6000fd5b505050506040513d60208110156118d357600080fd5b81019080805190602001909291905050509150509392505050565b600160009054906101000a900473ffffffffffffffffffffffffffffffffffffffff1673ffffffffffffffffffffffffffffffffffffffff163373ffffffffffffffffffffffffffffffffffffffff1614151561194a57600080fd5b600160009054906101000a900473ffffffffffffffffffffffffffffffffffffffff1673ffffffffffffffffffffffffffffffffffffffff166000809054906101000a900473ffffffffffffffffffffffffffffffffffffffff1673ffffffffffffffffffffffffffffffffffffffff167f8be0079c531659141344cd1fd0a4f28419497f9722a3daafe3b4186f6b6457e060405160405180910390a3600160009054906101000a900473ffffffffffffffffffffffffffffffffffffffff166000806101000a81548173ffffffffffffffffffffffffffffffffffffffff021916908373ffffffffffffffffffffffffffffffffffffffff1602179055506000600160006101000a81548173ffffffffffffffffffffffffffffffffffffffff021916908373ffffffffffffffffffffffffffffffffffffffff160217905550565b6000809054906101000a900473ffffffffffffffffffffffffffffffffffffffff1673ffffffffffffffffffffffffffffffffffffffff163373ffffffffffffffffffffffffffffffffffffffff16141515611ae857600080fd5b80600360006101000a81548173ffffffffffffffffffffffffffffffffffffffff021916908373ffffffffffffffffffffffffffffffffffffffff16021790555050565b6000806000809054906101000a900473ffffffffffffffffffffffffffffffffffffffff1673ffffffffffffffffffffffffffffffffffffffff163373ffffffffffffffffffffffffffffffffffffffff16141515611b8a57600080fd5b611b978887878787612dc2565b1515611c31576040517f08c379a000000000000000000000000000000000000000000000000000000000815260040180806020018281038252602c8152602001807f7369676e61747572652f6861736820646f6573206e6f74207265636f7665722081526020017f66726f6d2061646472657373000000000000000000000000000000000000000081525060400191505060405180910390fd5b3073ffffffffffffffffffffffffffffffffffffffff166370a08231896040518263ffffffff167c0100000000000000000000000000000000000000000000000000000000028152600401808273ffffffffffffffffffffffffffffffffffffffff1673ffffffffffffffffffffffffffffffffffffffff168152602001915050602060405180830381600087803b158015611ccc57600080fd5b505af1158015611ce0573d6000803e3d6000fd5b505050506040513d6020811015611cf657600080fd5b81019080805190602001909291905050509050600260009054906101000a900473ffffffffffffffffffffffffffffffffffffffff1673ffffffffffffffffffffffffffffffffffffffff1673__MintableTokenLib______________________63a6c9ac2890918a846040518463ffffffff167c0100000000000000000000000000000000000000000000000000000000028152600401808473ffffffffffffffffffffffffffffffffffffffff1673ffffffffffffffffffffffffffffffffffffffff1681526020018373ffffffffffffffffffffffffffffffffffffffff1673ffffffffffffffffffffffffffffffffffffffff168152602001828152602001935050505060206040518083038186803b158015611e1657600080fd5b505af4158015611e2a573d6000803e3d6000fd5b505050506040513d6020811015611e4057600080fd5b81019080805190602001909291905050501515611ec5576040517f08c379a00000000000000000000000000000000000000000000000000000000081526004018080602001828103825260158152602001807f756e61626c6520746f206275726e20746f6b656e73000000000000000000000081525060200191505060405180910390fd5b600260009054906101000a900473ffffffffffffffffffffffffffffffffffffffff1673ffffffffffffffffffffffffffffffffffffffff1673__MintableTokenLib______________________63b0c29c74909189846040518463ffffffff167c0100000000000000000000000000000000000000000000000000000000028152600401808473ffffffffffffffffffffffffffffffffffffffff1673ffffffffffffffffffffffffffffffffffffffff1681526020018373ffffffffffffffffffffffffffffffffffffffff1673ffffffffffffffffffffffffffffffffffffffff168152602001828152602001935050505060206040518083038186803b158015611fd257600080fd5b505af4158015611fe6573d6000803e3d6000fd5b505050506040513d6020811015611ffc57600080fd5b81019080805190602001909291905050501515612081576040517f08c379a00000000000000000000000000000000000000000000000000000000081526004018080602001828103825260158152602001807f756e61626c6520746f206d696e7420746f6b656e73000000000000000000000081525060200191505060405180910390fd5b8673ffffffffffffffffffffffffffffffffffffffff168873ffffffffffffffffffffffffffffffffffffffff167ffff3b3844276f57024e0b42afec1a37f75db36511e43819a4f2a63ab7862b648836040518082815260200191505060405180910390a360019150509695505050505050565b6000600260009054906101000a900473ffffffffffffffffffffffffffffffffffffffff1673ffffffffffffffffffffffffffffffffffffffff1663f8b2cb4f836040518263ffffffff167c0100000000000000000000000000000000000000000000000000000000028152600401808273ffffffffffffffffffffffffffffffffffffffff1673ffffffffffffffffffffffffffffffffffffffff168152602001915050602060405180830381600087803b1580156121b457600080fd5b505af11580156121c8573d6000803e3d6000fd5b505050506040513d60208110156121de57600080fd5b81019080805190602001909291905050509050919050565b6000809054906101000a900473ffffffffffffffffffffffffffffffffffffffff1673ffffffffffffffffffffffffffffffffffffffff163373ffffffffffffffffffffffffffffffffffffffff1614151561225157600080fd5b6000809054906101000a900473ffffffffffffffffffffffffffffffffffffffff1673ffffffffffffffffffffffffffffffffffffffff167ff8df31144d9c2f0f6b59d69b8b98abd5459d07f2742c4df920b25aae33c6482060405160405180910390a260008060006101000a81548173ffffffffffffffffffffffffffffffffffffffff021916908373ffffffffffffffffffffffffffffffffffffffff160217905550565b600860009054906101000a90047d0100000000000000000000000000000000000000000000000000000000000281565b6000809054906101000a900473ffffffffffffffffffffffffffffffffffffffff1681565b60058054600181600116156101000203166002900480601f0160208091040260200160405190810160405280929190818152602001828054600181600116156101000203166002900480156123e35780601f106123b8576101008083540402835291602001916123e3565b820191906000526020600020905b8154815290600101906020018083116123c657829003601f168201915b505050505081565b60008060009054906101000a900473ffffffffffffffffffffffffffffffffffffffff1673ffffffffffffffffffffffffffffffffffffffff163373ffffffffffffffffffffffffffffffffffffffff1614151561244857600080fd5b600260009054906101000a900473ffffffffffffffffffffffffffffffffffffffff1673ffffffffffffffffffffffffffffffffffffffff1673__MintableTokenLib______________________63b0c29c74909133856040518463ffffffff167c0100000000000000000000000000000000000000000000000000000000028152600401808473ffffffffffffffffffffffffffffffffffffffff1673ffffffffffffffffffffffffffffffffffffffff1681526020018373ffffffffffffffffffffffffffffffffffffffff1673ffffffffffffffffffffffffffffffffffffffff168152602001828152602001935050505060206040518083038186803b15801561255557600080fd5b505af4158015612569573d6000803e3d6000fd5b505050506040513d602081101561257f57600080fd5b81019080805190602001909291905050509050919050565b60006125a4338484610fa8565b905092915050565b6000848073ffffffffffffffffffffffffffffffffffffffff163373ffffffffffffffffffffffffffffffffffffffff1614806126365750600360009054906101000a900473ffffffffffffffffffffffffffffffffffffffff1673ffffffffffffffffffffffffffffffffffffffff163373ffffffffffffffffffffffffffffffffffffffff16145b15156126d0576040517f08c379a00000000000000000000000000000000000000000000000000000000081526004018080602001828103825260348152602001807f6569746865722063616c6c6572206d7573742062652073656e646572206f722081526020017f63616c6c696e67207669612066726f6e74656e6400000000000000000000000081525060400191505060405180910390fd5b600260009054906101000a900473ffffffffffffffffffffffffffffffffffffffff1673ffffffffffffffffffffffffffffffffffffffff1673__ERC20Lib______________________________63f3a0ddf99091888888886040518663ffffffff167c0100000000000000000000000000000000000000000000000000000000028152600401808673ffffffffffffffffffffffffffffffffffffffff1673ffffffffffffffffffffffffffffffffffffffff1681526020018573ffffffffffffffffffffffffffffffffffffffff1673ffffffffffffffffffffffffffffffffffffffff1681526020018473ffffffffffffffffffffffffffffffffffffffff1673ffffffffffffffffffffffffffffffffffffffff1681526020018373ffffffffffffffffffffffffffffffffffffffff1673ffffffffffffffffffffffffffffffffffffffff1681526020018281526020019550505050505060206040518083038186803b15801561284557600080fd5b505af4158015612859573d6000803e3d6000fd5b505050506040513d602081101561286f57600080fd5b8101908080519060200190929190505050915050949350505050565b60006128cb33868686868080601f01602080910402602001604051908101604052809392919081815260200183838082843782019150505050505061132c565b9050949350505050565b6000600260009054906101000a900473ffffffffffffffffffffffffffffffffffffffff1673ffffffffffffffffffffffffffffffffffffffff1673__ERC20Lib______________________________631045d7ce909185856040518463ffffffff167c0100000000000000000000000000000000000000000000000000000000028152600401808473ffffffffffffffffffffffffffffffffffffffff1673ffffffffffffffffffffffffffffffffffffffff1681526020018373ffffffffffffffffffffffffffffffffffffffff1673ffffffffffffffffffffffffffffffffffffffff1681526020018273ffffffffffffffffffffffffffffffffffffffff1673ffffffffffffffffffffffffffffffffffffffff168152602001935050505060206040518083038186803b158015612a1057600080fd5b505af4158015612a24573d6000803e3d6000fd5b505050506040513d6020811015612a3a57600080fd5b8101908080519060200190929190505050905092915050565b600160009054906101000a900473ffffffffffffffffffffffffffffffffffffffff1681565b6000809054906101000a900473ffffffffffffffffffffffffffffffffffffffff1673ffffffffffffffffffffffffffffffffffffffff163373ffffffffffffffffffffffffffffffffffffffff16141515612ad457600080fd5b80600160006101000a81548173ffffffffffffffffffffffffffffffffffffffff021916908373ffffffffffffffffffffffffffffffffffffffff16021790555050565b6000838073ffffffffffffffffffffffffffffffffffffffff163373ffffffffffffffffffffffffffffffffffffffff161480612ba25750600360009054906101000a900473ffffffffffffffffffffffffffffffffffffffff1673ffffffffffffffffffffffffffffffffffffffff163373ffffffffffffffffffffffffffffffffffffffff16145b1515612c3c576040517f08c379a00000000000000000000000000000000000000000000000000000000081526004018080602001828103825260348152602001807f6569746865722063616c6c6572206d7573742062652073656e646572206f722081526020017f63616c6c696e67207669612066726f6e74656e6400000000000000000000000081525060400191505060405180910390fd5b600260009054906101000a900473ffffffffffffffffffffffffffffffffffffffff1673ffffffffffffffffffffffffffffffffffffffff1673__ERC20Lib______________________________6344ded8ba90918787876040518563ffffffff167c0100000000000000000000000000000000000000000000000000000000028152600401808573ffffffffffffffffffffffffffffffffffffffff1673ffffffffffffffffffffffffffffffffffffffff1681526020018473ffffffffffffffffffffffffffffffffffffffff1673ffffffffffffffffffffffffffffffffffffffff1681526020018373ffffffffffffffffffffffffffffffffffffffff1673ffffffffffffffffffffffffffffffffffffffff16815260200182815260200194505050505060206040518083038186803b158015612d7d57600080fd5b505af4158015612d91573d6000803e3d6000fd5b505050506040513d6020811015612da757600080fd5b81019080805190602001909291905050509150509392505050565b60008573ffffffffffffffffffffffffffffffffffffffff16600186868686604051600081526020016040526040518085600019166000191681526020018460ff1660ff1681526020018360001916600019168152602001826000191660001916815260200194505050505060206040516020810390808403906000865af1158015612e52573d6000803e3d6000fd5b5050506020604051035173ffffffffffffffffffffffffffffffffffffffff16149050959450505050505600a165627a7a72305820c06374ec045dfd6b189bf1916e9cb0d342e13f6632e00f361f6732c13fb8f09600296080604052336000806101000a81548173ffffffffffffffffffffffffffffffffffffffff021916908373ffffffffffffffffffffffffffffffffffffffff160217905550610dd3806100536000396000f3006080604052600436106100af576000357c0100000000000000000000000000000000000000000000000000000000900463ffffffff16806321e5383a146100b457806333dd1b8a146101015780634e71e0c81461016e5780636c9c2faf14610185578063715018a6146101b05780638da5cb5b146101c7578063c7c7e9ea1461021e578063cf8eeb7e14610295578063e30c3978146102e2578063f2fde38b14610339578063f8b2cb4f1461037c575b600080fd5b3480156100c057600080fd5b506100ff600480360381019080803573ffffffffffffffffffffffffffffffffffffffff169060200190929190803590602001909291905050506103d3565b005b34801561010d57600080fd5b5061016c600480360381019080803573ffffffffffffffffffffffffffffffffffffffff169060200190929190803573ffffffffffffffffffffffffffffffffffffffff169060200190929190803590602001909291905050506104f4565b005b34801561017a57600080fd5b5061018361064a565b005b34801561019157600080fd5b5061019a6107e9565b6040518082815260200191505060405180910390f35b3480156101bc57600080fd5b506101c5610899565b005b3480156101d357600080fd5b506101dc61099b565b604051808273ffffffffffffffffffffffffffffffffffffffff1673ffffffffffffffffffffffffffffffffffffffff16815260200191505060405180910390f35b34801561022a57600080fd5b5061027f600480360381019080803573ffffffffffffffffffffffffffffffffffffffff169060200190929190803573ffffffffffffffffffffffffffffffffffffffff1690602001909291905050506109c0565b6040518082815260200191505060405180910390f35b3480156102a157600080fd5b506102e0600480360381019080803573ffffffffffffffffffffffffffffffffffffffff16906020019092919080359060200190929190505050610adb565b005b3480156102ee57600080fd5b506102f7610bfc565b604051808273ffffffffffffffffffffffffffffffffffffffff1673ffffffffffffffffffffffffffffffffffffffff16815260200191505060405180910390f35b34801561034557600080fd5b5061037a600480360381019080803573ffffffffffffffffffffffffffffffffffffffff169060200190929190505050610c22565b005b34801561038857600080fd5b506103bd600480360381019080803573ffffffffffffffffffffffffffffffffffffffff169060200190929190505050610cc1565b6040518082815260200191505060405180910390f35b6000809054906101000a900473ffffffffffffffffffffffffffffffffffffffff1673ffffffffffffffffffffffffffffffffffffffff163373ffffffffffffffffffffffffffffffffffffffff1614151561042e57600080fd5b600273__TokenStorageLib_______________________637aeb0ed5909184846040518463ffffffff167c0100000000000000000000000000000000000000000000000000000000028152600401808481526020018373ffffffffffffffffffffffffffffffffffffffff1673ffffffffffffffffffffffffffffffffffffffff168152602001828152602001935050505060006040518083038186803b1580156104d857600080fd5b505af41580156104ec573d6000803e3d6000fd5b505050505050565b6000809054906101000a900473ffffffffffffffffffffffffffffffffffffffff1673ffffffffffffffffffffffffffffffffffffffff163373ffffffffffffffffffffffffffffffffffffffff1614151561054f57600080fd5b600273__TokenStorageLib_______________________635599b4b790918585856040518563ffffffff167c0100000000000000000000000000000000000000000000000000000000028152600401808581526020018473ffffffffffffffffffffffffffffffffffffffff1673ffffffffffffffffffffffffffffffffffffffff1681526020018373ffffffffffffffffffffffffffffffffffffffff1673ffffffffffffffffffffffffffffffffffffffff16815260200182815260200194505050505060006040518083038186803b15801561062d57600080fd5b505af4158015610641573d6000803e3d6000fd5b50505050505050565b600160009054906101000a900473ffffffffffffffffffffffffffffffffffffffff1673ffffffffffffffffffffffffffffffffffffffff163373ffffffffffffffffffffffffffffffffffffffff161415156106a657600080fd5b600160009054906101000a900473ffffffffffffffffffffffffffffffffffffffff1673ffffffffffffffffffffffffffffffffffffffff166000809054906101000a900473ffffffffffffffffffffffffffffffffffffffff1673ffffffffffffffffffffffffffffffffffffffff167f8be0079c531659141344cd1fd0a4f28419497f9722a3daafe3b4186f6b6457e060405160405180910390a3600160009054906101000a900473ffffffffffffffffffffffffffffffffffffffff166000806101000a81548173ffffffffffffffffffffffffffffffffffffffff021916908373ffffffffffffffffffffffffffffffffffffffff1602179055506000600160006101000a81548173ffffffffffffffffffffffffffffffffffffffff021916908373ffffffffffffffffffffffffffffffffffffffff160217905550565b6000600273__TokenStorageLib_______________________63072f9a5090916040518263ffffffff167c01000000000000000000000000000000000000000000000000000000000281526004018082815260200191505060206040518083038186803b15801561085957600080fd5b505af415801561086d573d6000803e3d6000fd5b505050506040513d602081101561088357600080fd5b8101908080519060200190929190505050905090565b6000809054906101000a900473ffffffffffffffffffffffffffffffffffffffff1673ffffffffffffffffffffffffffffffffffffffff163373ffffffffffffffffffffffffffffffffffffffff161415156108f457600080fd5b6000809054906101000a900473ffffffffffffffffffffffffffffffffffffffff1673ffffffffffffffffffffffffffffffffffffffff167ff8df31144d9c2f0f6b59d69b8b98abd5459d07f2742c4df920b25aae33c6482060405160405180910390a260008060006101000a81548173ffffffffffffffffffffffffffffffffffffffff021916908373ffffffffffffffffffffffffffffffffffffffff160217905550565b6000809054906101000a900473ffffffffffffffffffffffffffffffffffffffff1681565b6000600273__TokenStorageLib_______________________639daeae1e909185856040518463ffffffff167c0100000000000000000000000000000000000000000000000000000000028152600401808481526020018373ffffffffffffffffffffffffffffffffffffffff1673ffffffffffffffffffffffffffffffffffffffff1681526020018273ffffffffffffffffffffffffffffffffffffffff1673ffffffffffffffffffffffffffffffffffffffff168152602001935050505060206040518083038186803b158015610a9857600080fd5b505af4158015610aac573d6000803e3d6000fd5b505050506040513d6020811015610ac257600080fd5b8101908080519060200190929190505050905092915050565b6000809054906101000a900473ffffffffffffffffffffffffffffffffffffffff1673ffffffffffffffffffffffffffffffffffffffff163373ffffffffffffffffffffffffffffffffffffffff16141515610b3657600080fd5b600273__TokenStorageLib_______________________63d9c7339e909184846040518463ffffffff167c0100000000000000000000000000000000000000000000000000000000028152600401808481526020018373ffffffffffffffffffffffffffffffffffffffff1673ffffffffffffffffffffffffffffffffffffffff168152602001828152602001935050505060006040518083038186803b158015610be057600080fd5b505af4158015610bf4573d6000803e3d6000fd5b505050505050565b600160009054906101000a900473ffffffffffffffffffffffffffffffffffffffff1681565b6000809054906101000a900473ffffffffffffffffffffffffffffffffffffffff1673ffffffffffffffffffffffffffffffffffffffff163373ffffffffffffffffffffffffffffffffffffffff16141515610c7d57600080fd5b80600160006101000a81548173ffffffffffffffffffffffffffffffffffffffff021916908373ffffffffffffffffffffffffffffffffffffffff16021790555050565b6000600273__TokenStorageLib_______________________63b0aacf249091846040518363ffffffff167c0100000000000000000000000000000000000000000000000000000000028152600401808381526020018273ffffffffffffffffffffffffffffffffffffffff1673ffffffffffffffffffffffffffffffffffffffff1681526020019250505060206040518083038186803b158015610d6557600080fd5b505af4158015610d79573d6000803e3d6000fd5b505050506040513d6020811015610d8f57600080fd5b810190808051906020019092919050505090509190505600a165627a7a723058207fa121e0f14e6a5f4d76dce3abcf037400d9538a549fa7e1c2efb0e4c6d8a1090029",
  "source": "pragma solidity ^0.4.24;\n\nimport \"./SmartTokenLib.sol\";\nimport \"./MintableController.sol\";\nimport \"./Validator.sol\";\n\ncontract SmartController is MintableController {\n\n    using SmartTokenLib for SmartTokenLib.SmartTokenStorage;\n    using MintableTokenLib for SmartTokenLib.SmartTokenStorage;\n\n    SmartTokenLib.SmartTokenStorage smartToken;\n\n    bytes3 public ticker;\n    uint public decimals = 18;\n    uint constant public INITIAL_SUPPLY = 0;\n\n    // EVENTS\n    event Recovered(address indexed from, address indexed to, uint amount);\n\n    // CONSTRUCTOR\n    constructor(address _storage, address validator, bytes3 ticker_)\n        public\n        MintableController(_storage, INITIAL_SUPPLY) \n    {\n        assert(validator != 0x0);\n        smartToken.setValidator(validator);\n        ticker = ticker_;\n    }\n\n    // EXTERNAL\n    function setValidator(address validator) external {\n        smartToken.setValidator(validator);\n    }\n\n    function recover(address from, address to, bytes32 h, uint8 v, bytes32 r, bytes32 s)\n        external\n        onlyOwner\n        returns (bool)\n    {\n        require(\n            SmartTokenLib.recover(from, h, v, r, s), \n            \"signature/hash does not recover from address\"\n        );\n        uint amount = this.balanceOf(from);\n        require(token.burn(from, amount), \"unable to burn tokens\");\n        require(token.mint(to, amount), \"unable to mint tokens\"); \n        emit Recovered(from, to, amount);\n        return true;\n    }\n\n    // EXTERNAL ERC20\n    function transfer(address to, uint value) external returns (bool ok) {\n        return transfer20(msg.sender, to, value);\n    }\n\n    // PUBLIC ERC20 FRONT\n    function transfer20(address _caller, address to, uint value) \n        public \n        returns (bool ok) \n    {\n        if (!smartToken.validate(_caller, to, value)) {\n            revert(\"transfer is not valid\");\n        }\n        return super.transfer20(_caller, to, value);\n    }\n\n    // EXTERNAL CONSTANT\n    function getValidator() external view returns (address) {\n        return smartToken.getValidator();\n    }\n\n}\n",
  "sourcePath": "/Users/gislik/Code/smart-contracts/contracts/SmartController.sol",
  "compiler": {
    "name": "solc",
    "version": "0.4.24+commit.e67f0147.Emscripten.clang"
  },
  "schemaVersion": "2.0.1",
  "updatedAt": "2018-08-22T15:39:23.539Z"
}