{
  "contractName": "SmartTokenLib",
  "abi": [
    {
      "constant": false,
      "inputs": [
        {
          "name": "self",
          "type": "SmartTokenLib.SmartTokenStorage storage"
        },
        {
          "name": "validator",
          "type": "address"
        }
      ],
      "name": "setValidator",
      "outputs": [],
      "payable": false,
      "stateMutability": "nonpayable",
      "type": "function"
    },
    {
      "constant": false,
      "inputs": [
        {
          "name": "self",
          "type": "SmartTokenLib.SmartTokenStorage storage"
        },
        {
          "name": "from",
          "type": "address"
        },
        {
          "name": "to",
          "type": "address"
        },
        {
          "name": "value",
          "type": "uint256"
        }
      ],
      "name": "validate",
      "outputs": [
        {
          "name": "valid",
          "type": "bool"
        }
      ],
      "payable": false,
      "stateMutability": "nonpayable",
      "type": "function"
    },
    {
      "constant": true,
      "inputs": [
        {
          "name": "self",
          "type": "SmartTokenLib.SmartTokenStorage storage"
        }
      ],
      "name": "getValidator",
      "outputs": [
        {
          "name": "",
          "type": "address"
        }
      ],
      "payable": false,
      "stateMutability": "view",
      "type": "function"
    }
  ],
  "bytecode": "0x610392610030600b82828239805160001a6073146000811461002057610022565bfe5b5030600052607381538281f300730000000000000000000000000000000000000000301460806040526004361061006e576000357c0100000000000000000000000000000000000000000000000000000000900463ffffffff168063487887b2146100735780635d5dcc3e146100d3578063892259fc14610120575b600080fd5b610091600480360381019080803590602001909291905050506101af565b604051808273ffffffffffffffffffffffffffffffffffffffff1673ffffffffffffffffffffffffffffffffffffffff16815260200191505060405180910390f35b8180156100df57600080fd5b5061011e60048036038101908080359060200190929190803573ffffffffffffffffffffffffffffffffffffffff1690602001909291905050506101dd565b005b81801561012c57600080fd5b5061019560048036038101908080359060200190929190803573ffffffffffffffffffffffffffffffffffffffff169060200190929190803573ffffffffffffffffffffffffffffffffffffffff16906020019092919080359060200190929190505050610224565b604051808215151515815260200191505060405180910390f35b60008160000160009054906101000a900473ffffffffffffffffffffffffffffffffffffffff169050919050565b808260000160006101000a81548173ffffffffffffffffffffffffffffffffffffffff021916908373ffffffffffffffffffffffffffffffffffffffff1602179055505050565b60008460000160009054906101000a900473ffffffffffffffffffffffffffffffffffffffff1673ffffffffffffffffffffffffffffffffffffffff1663aa3ad4e48585856040518463ffffffff167c0100000000000000000000000000000000000000000000000000000000028152600401808473ffffffffffffffffffffffffffffffffffffffff1673ffffffffffffffffffffffffffffffffffffffff1681526020018373ffffffffffffffffffffffffffffffffffffffff1673ffffffffffffffffffffffffffffffffffffffff1681526020018281526020019350505050602060405180830381600087803b15801561032157600080fd5b505af1158015610335573d6000803e3d6000fd5b505050506040513d602081101561034b57600080fd5b810190808051906020019092919050505090509493505050505600a165627a7a723058209d214337ce933b7ec63e5452d0c2e7c8d95b250e0ac70cb69f04ee146f1d9c5a0029",
  "source": "pragma solidity ^0.4.24;\n\nimport \"./Validator.sol\";\n\nlibrary SmartTokenLib {\n\n    struct SmartTokenStorage {\n        Validator validator;\n    }\n\n    // EXTERNAL\n    function setValidator(SmartTokenStorage storage self, address validator) \n        external \n    {\n        self.validator = Validator(validator);\n    }\n\n    // EXTERNAL CONSTANT\n    function validate(SmartTokenStorage storage self, address from, address to, uint value) \n        external\n        returns (bool valid) \n    { \n        return self.validator.validate(from, to, value);\n    }\n\n    function getValidator(SmartTokenStorage storage self) \n        external \n        view \n        returns (address) \n    {\n        return address(self.validator);\n    }\n\n    // INTERNAL PURE\n    function recover(address a, bytes32 h, uint8 v, bytes32 r, bytes32 s) \n        internal \n        pure\n        returns (bool) \n    {\n        return ecrecover(h, v, r, s) == a;\n    }\n\n}\n",
  "sourcePath": "/Users/gislik/Code/smart-contracts/contracts/SmartTokenLib.sol",
  "compiler": {
    "name": "solc",
    "version": "0.4.24+commit.e67f0147.Emscripten.clang"
  },
  "schemaVersion": "2.0.1",
  "updatedAt": "2018-08-22T15:39:22.871Z"
}