{
  "contractName": "SmartTokenLib",
  "abi": [
    {
      "anonymous": false,
      "inputs": [
        {
          "indexed": true,
          "name": "from",
          "type": "address"
        },
        {
          "indexed": true,
          "name": "to",
          "type": "address"
        },
        {
          "indexed": false,
          "name": "amount",
          "type": "uint256"
        }
      ],
      "name": "Recovered",
      "type": "event"
    },
    {
      "anonymous": false,
      "inputs": [
        {
          "indexed": true,
          "name": "old",
          "type": "address"
        },
        {
          "indexed": true,
          "name": "current",
          "type": "address"
        }
      ],
      "name": "Validator",
      "type": "event"
    },
    {
      "constant": true,
      "inputs": [
        {
          "name": "self",
          "type": "SmartTokenLib.SmartStorage storage"
        }
      ],
      "name": "getValidator",
      "outputs": [
        {
          "name": "",
          "type": "address"
        }
      ],
      "payable": false,
      "stateMutability": "view",
      "type": "function"
    }
  ],
  "bytecode": "0x610113610030600b82828239805160001a6073146000811461002057610022565bfe5b5030600052607381538281f30073000000000000000000000000000000000000000030146080604052600436106056576000357c0100000000000000000000000000000000000000000000000000000000900463ffffffff1680636271970c14605b575b600080fd5b60776004803603810190808035906020019092919050505060b9565b604051808273ffffffffffffffffffffffffffffffffffffffff1673ffffffffffffffffffffffffffffffffffffffff16815260200191505060405180910390f35b60008160000160009054906101000a900473ffffffffffffffffffffffffffffffffffffffff1690509190505600a165627a7a723058209fb29c5bb7692bd94560c8b0d4fb258b5758607c79ee058d6e6ba952b19694e90029",
  "source": "pragma solidity ^0.4.24;\n\nimport \"./ERC20Lib.sol\";\nimport \"./MintableTokenLib.sol\";\nimport \"./IValidator.sol\";\n\n/**\n * @title SmartTokenLib\n * @dev This library provides functionality which is required from a regulatory perspective.\n */\nlibrary SmartTokenLib {\n\n    using ERC20Lib for TokenStorage;\n    using MintableTokenLib for TokenStorage;\n\n    struct SmartStorage {\n        IValidator validator;\n    }\n\n    /**\n     * @dev Emitted when the contract owner recovers tokens.\n     * @param from Sender address.\n     * @param to Recipient address.\n     * @param amount Number of tokens.\n     */\n    event Recovered(address indexed from, address indexed to, uint amount);\n\n    /**\n     * @dev Emitted when updating the validator.\n     * @param old Address of the old validator.\n     * @param current Address of the new validator.\n     */\n    event Validator(address indexed old, address indexed current);\n\n    /**\n     * @dev Sets a new validator.\n     * @param self Smart storage to operate on.\n     * @param validator Address of validator.\n     */\n    function setValidator(SmartStorage storage self, address validator) \n        internal \n    {\n        emit Validator(self.validator, validator);\n        self.validator = IValidator(validator);\n    }\n\n\n    /**\n     * @dev Approves or rejects a transfer request.\n     * The request is forwarded to a validator which implements\n     * the actual business logic.\n     * @param self Smart storage to operate on.\n     * @param from Sender address.\n     * @param to Recipient address.\n     * @param amount Number of tokens.\n     */\n    function validate(SmartStorage storage self, address from, address to, uint amount) \n        internal\n        returns (bool valid) \n    { \n        return self.validator.validate(from, to, amount);\n    }\n\n    /**\n     * @dev Recovers tokens from an address and reissues them to another address.\n     * In case a user loses its private key the tokens can be recovered by burning\n     * the tokens from that address and reissuing to a new address.\n     * To recover tokens the contract owner needs to provide a signature\n     * proving that the token owner has authorized the owner to do so.\n     * @param from Address to burn tokens from.\n     * @param to Address to mint tokens to.\n     * @param h Hash which the token owner signed.\n     * @param v Signature component.\n     * @param r Signature component.\n     * @param s Sigature component.\n     */\n    function recover(\n        TokenStorage token, \n        address from, \n        address to, \n        bytes32 h, \n        uint8 v, \n        bytes32 r, \n        bytes32 s\n    ) \n        internal \n        returns (bool) \n    {\n        require(\n            ecrecover(h, v, r, s) == from,\n            \"signature/hash does not recover from address\"\n        );\n        uint amount = token.balanceOf(from);\n        require(token.burn(from, amount), \"unable to burn tokens\");\n        require(token.mint(to, amount), \"unable to mint tokens\"); \n        emit Recovered(from, to, amount);\n        return true;\n    }\n\n    /**\n     * @dev Gets the current validator.\n     * @param self Smart storage to operate on.\n     * @return Address of validator.\n     */\n    function getValidator(SmartStorage storage self) \n        external \n        view \n        returns (address) \n    {\n        return address(self.validator);\n    }\n\n}\n",
  "sourcePath": "/Users/gislik/Code/smart-contracts/contracts/SmartTokenLib.sol",
  "compiler": {
    "name": "solc",
    "version": "0.4.24+commit.e67f0147.Emscripten.clang"
  },
  "schemaVersion": "2.0.1",
  "updatedAt": "2019-05-27T11:16:33.035Z"
}