{
  "contractName": "SmartTokenLib",
  "abi": [
    {
      "anonymous": false,
      "inputs": [
        {
          "indexed": true,
          "name": "from",
          "type": "address"
        },
        {
          "indexed": true,
          "name": "to",
          "type": "address"
        },
        {
          "indexed": false,
          "name": "amount",
          "type": "uint256"
        }
      ],
      "name": "Recovered",
      "type": "event"
    },
    {
      "constant": false,
      "inputs": [
        {
          "name": "self",
          "type": "SmartTokenLib.SmartStorage storage"
        },
        {
          "name": "validator",
          "type": "address"
        }
      ],
      "name": "setValidator",
      "outputs": [],
      "payable": false,
      "stateMutability": "nonpayable",
      "type": "function"
    },
    {
      "constant": false,
      "inputs": [
        {
          "name": "self",
          "type": "SmartTokenLib.SmartStorage storage"
        },
        {
          "name": "from",
          "type": "address"
        },
        {
          "name": "to",
          "type": "address"
        },
        {
          "name": "value",
          "type": "uint256"
        }
      ],
      "name": "validate",
      "outputs": [
        {
          "name": "valid",
          "type": "bool"
        }
      ],
      "payable": false,
      "stateMutability": "nonpayable",
      "type": "function"
    },
    {
      "constant": true,
      "inputs": [
        {
          "name": "self",
          "type": "SmartTokenLib.SmartStorage storage"
        }
      ],
      "name": "getValidator",
      "outputs": [
        {
          "name": "",
          "type": "address"
        }
      ],
      "payable": false,
      "stateMutability": "view",
      "type": "function"
    }
  ],
  "bytecode": "0x610392610030600b82828239805160001a6073146000811461002057610022565bfe5b5030600052607381538281f300730000000000000000000000000000000000000000301460806040526004361061006e576000357c0100000000000000000000000000000000000000000000000000000000900463ffffffff16806332c5a6eb146100735780636271970c14610102578063ad41534914610162575b600080fd5b81801561007f57600080fd5b506100e860048036038101908080359060200190929190803573ffffffffffffffffffffffffffffffffffffffff169060200190929190803573ffffffffffffffffffffffffffffffffffffffff169060200190929190803590602001909291905050506101af565b604051808215151515815260200191505060405180910390f35b610120600480360381019080803590602001909291905050506102f1565b604051808273ffffffffffffffffffffffffffffffffffffffff1673ffffffffffffffffffffffffffffffffffffffff16815260200191505060405180910390f35b81801561016e57600080fd5b506101ad60048036038101908080359060200190929190803573ffffffffffffffffffffffffffffffffffffffff16906020019092919050505061031f565b005b60008460000160009054906101000a900473ffffffffffffffffffffffffffffffffffffffff1673ffffffffffffffffffffffffffffffffffffffff1663aa3ad4e48585856040518463ffffffff167c0100000000000000000000000000000000000000000000000000000000028152600401808473ffffffffffffffffffffffffffffffffffffffff1673ffffffffffffffffffffffffffffffffffffffff1681526020018373ffffffffffffffffffffffffffffffffffffffff1673ffffffffffffffffffffffffffffffffffffffff1681526020018281526020019350505050602060405180830381600087803b1580156102ac57600080fd5b505af11580156102c0573d6000803e3d6000fd5b505050506040513d60208110156102d657600080fd5b81019080805190602001909291905050509050949350505050565b60008160000160009054906101000a900473ffffffffffffffffffffffffffffffffffffffff169050919050565b808260000160006101000a81548173ffffffffffffffffffffffffffffffffffffffff021916908373ffffffffffffffffffffffffffffffffffffffff16021790555050505600a165627a7a72305820eefd42d732db2b68dbec13a5809cbad5c42d2bcc4977796a276069b9ef38f7830029",
  "source": "pragma solidity ^0.4.24;\n\nimport \"./ERC20Lib.sol\";\nimport \"./MintableTokenLib.sol\";\nimport \"./Validator.sol\";\n\nlibrary SmartTokenLib {\n\n    struct SmartStorage {\n        Validator validator;\n    }\n\n    // EVENTS\n    event Recovered(address indexed from, address indexed to, uint amount);\n\n    // EXTERNAL\n    function setValidator(SmartStorage storage self, address validator) \n        external \n    {\n        self.validator = Validator(validator);\n    }\n\n    // EXTERNAL CONSTANT\n    function validate(SmartStorage storage self, address from, address to, uint value) \n        external\n        returns (bool valid) \n    { \n        return self.validator.validate(from, to, value);\n    }\n\n    function getValidator(SmartStorage storage self) \n        external \n        view \n        returns (address) \n    {\n        return address(self.validator);\n    }\n\n    // INTERNAL \n    function recover(\n        TokenStorage token, \n        address from, \n        address to, \n        bytes32 h, \n        uint8 v, \n        bytes32 r, \n        bytes32 s\n    ) \n        internal \n        returns (bool) \n    {\n        require(\n            ecrecover(h, v, r, s) == from,\n            \"signature/hash does not recover from address\"\n        );\n        uint amount = ERC20Lib.balanceOf(token, from);\n        require(MintableTokenLib.burn(token, from, amount), \"unable to burn tokens\");\n        require(MintableTokenLib.mint(token, to, amount), \"unable to mint tokens\"); \n        emit Recovered(from, to, amount);\n        return true;\n    }\n\n}\n",
  "sourcePath": "/Users/gislik/Code/smart-contracts/contracts/SmartTokenLib.sol",
  "compiler": {
    "name": "solc",
    "version": "0.4.24+commit.e67f0147.Emscripten.clang"
  },
  "schemaVersion": "2.0.1",
  "updatedAt": "2018-08-22T17:00:59.698Z"
}