{
  "contractName": "SmartTokenLib",
  "abi": [
    {
      "anonymous": false,
      "inputs": [
        {
          "indexed": true,
          "name": "from",
          "type": "address"
        },
        {
          "indexed": true,
          "name": "to",
          "type": "address"
        },
        {
          "indexed": false,
          "name": "amount",
          "type": "uint256"
        }
      ],
      "name": "Recovered",
      "type": "event"
    },
    {
      "anonymous": false,
      "inputs": [
        {
          "indexed": true,
          "name": "old",
          "type": "address"
        },
        {
          "indexed": true,
          "name": "current",
          "type": "address"
        }
      ],
      "name": "Validator",
      "type": "event"
    },
    {
      "constant": false,
      "inputs": [
        {
          "name": "self",
          "type": "SmartTokenLib.SmartStorage storage"
        },
        {
          "name": "validator",
          "type": "address"
        }
      ],
      "name": "setValidator",
      "outputs": [],
      "payable": false,
      "stateMutability": "nonpayable",
      "type": "function"
    },
    {
      "constant": false,
      "inputs": [
        {
          "name": "self",
          "type": "SmartTokenLib.SmartStorage storage"
        },
        {
          "name": "from",
          "type": "address"
        },
        {
          "name": "to",
          "type": "address"
        },
        {
          "name": "amount",
          "type": "uint256"
        }
      ],
      "name": "validate",
      "outputs": [
        {
          "name": "valid",
          "type": "bool"
        }
      ],
      "payable": false,
      "stateMutability": "nonpayable",
      "type": "function"
    },
    {
      "constant": false,
      "inputs": [
        {
          "name": "token",
          "type": "TokenStorage"
        },
        {
          "name": "from",
          "type": "address"
        },
        {
          "name": "to",
          "type": "address"
        },
        {
          "name": "h",
          "type": "bytes32"
        },
        {
          "name": "v",
          "type": "uint8"
        },
        {
          "name": "r",
          "type": "bytes32"
        },
        {
          "name": "s",
          "type": "bytes32"
        }
      ],
      "name": "recover",
      "outputs": [
        {
          "name": "",
          "type": "uint256"
        }
      ],
      "payable": false,
      "stateMutability": "nonpayable",
      "type": "function"
    },
    {
      "constant": true,
      "inputs": [
        {
          "name": "self",
          "type": "SmartTokenLib.SmartStorage storage"
        }
      ],
      "name": "getValidator",
      "outputs": [
        {
          "name": "",
          "type": "address"
        }
      ],
      "payable": false,
      "stateMutability": "view",
      "type": "function"
    }
  ],
  "bytecode": "0x610a17610030600b82828239805160001a6073146000811461002057610022565bfe5b5030600052607381538281f3007300000000000000000000000000000000000000003014608060405260043610610079576000357c0100000000000000000000000000000000000000000000000000000000900463ffffffff16806332c5a6eb1461007e5780636271970c1461010d5780638f7227341461016d578063ad4153491461023b575b600080fd5b81801561008a57600080fd5b506100f360048036038101908080359060200190929190803573ffffffffffffffffffffffffffffffffffffffff169060200190929190803573ffffffffffffffffffffffffffffffffffffffff16906020019092919080359060200190929190505050610288565b604051808215151515815260200191505060405180910390f35b61012b600480360381019080803590602001909291905050506103ca565b604051808273ffffffffffffffffffffffffffffffffffffffff1673ffffffffffffffffffffffffffffffffffffffff16815260200191505060405180910390f35b81801561017957600080fd5b50610225600480360381019080803573ffffffffffffffffffffffffffffffffffffffff169060200190929190803573ffffffffffffffffffffffffffffffffffffffff169060200190929190803573ffffffffffffffffffffffffffffffffffffffff1690602001909291908035600019169060200190929190803560ff169060200190929190803560001916906020019092919080356000191690602001909291905050506103f8565b6040518082815260200191505060405180910390f35b81801561024757600080fd5b5061028660048036038101908080359060200190929190803573ffffffffffffffffffffffffffffffffffffffff169060200190929190505050610926565b005b60008460000160009054906101000a900473ffffffffffffffffffffffffffffffffffffffff1673ffffffffffffffffffffffffffffffffffffffff1663aa3ad4e48585856040518463ffffffff167c0100000000000000000000000000000000000000000000000000000000028152600401808473ffffffffffffffffffffffffffffffffffffffff1673ffffffffffffffffffffffffffffffffffffffff1681526020018373ffffffffffffffffffffffffffffffffffffffff1673ffffffffffffffffffffffffffffffffffffffff1681526020018281526020019350505050602060405180830381600087803b15801561038557600080fd5b505af1158015610399573d6000803e3d6000fd5b505050506040513d60208110156103af57600080fd5b81019080805190602001909291905050509050949350505050565b60008160000160009054906101000a900473ffffffffffffffffffffffffffffffffffffffff169050919050565b6000808773ffffffffffffffffffffffffffffffffffffffff16600187878787604051600081526020016040526040518085600019166000191681526020018460ff1660ff1681526020018360001916600019168152602001826000191660001916815260200194505050505060206040516020810390808403906000865af1158015610489573d6000803e3d6000fd5b5050506020604051035173ffffffffffffffffffffffffffffffffffffffff16141515610544576040517f08c379a000000000000000000000000000000000000000000000000000000000815260040180806020018281038252602c8152602001807f7369676e61747572652f6861736820646f6573206e6f74207265636f7665722081526020017f66726f6d2061646472657373000000000000000000000000000000000000000081525060400191505060405180910390fd5b8873ffffffffffffffffffffffffffffffffffffffff1673__ERC20Lib______________________________63188b486790918a6040518363ffffffff167c0100000000000000000000000000000000000000000000000000000000028152600401808373ffffffffffffffffffffffffffffffffffffffff1673ffffffffffffffffffffffffffffffffffffffff1681526020018273ffffffffffffffffffffffffffffffffffffffff1673ffffffffffffffffffffffffffffffffffffffff1681526020019250505060206040518083038186803b15801561062757600080fd5b505af415801561063b573d6000803e3d6000fd5b505050506040513d602081101561065157600080fd5b810190808051906020019092919050505090508873ffffffffffffffffffffffffffffffffffffffff1673__MintableTokenLib______________________63a6c9ac2890918a846040518463ffffffff167c0100000000000000000000000000000000000000000000000000000000028152600401808473ffffffffffffffffffffffffffffffffffffffff1673ffffffffffffffffffffffffffffffffffffffff1681526020018373ffffffffffffffffffffffffffffffffffffffff1673ffffffffffffffffffffffffffffffffffffffff168152602001828152602001935050505060206040518083038186803b15801561074f57600080fd5b505af4158015610763573d6000803e3d6000fd5b505050506040513d602081101561077957600080fd5b8101908080519060200190929190505050508873ffffffffffffffffffffffffffffffffffffffff1673__MintableTokenLib______________________63b0c29c74909189846040518463ffffffff167c0100000000000000000000000000000000000000000000000000000000028152600401808473ffffffffffffffffffffffffffffffffffffffff1673ffffffffffffffffffffffffffffffffffffffff1681526020018373ffffffffffffffffffffffffffffffffffffffff1673ffffffffffffffffffffffffffffffffffffffff168152602001828152602001935050505060206040518083038186803b15801561087657600080fd5b505af415801561088a573d6000803e3d6000fd5b505050506040513d60208110156108a057600080fd5b8101908080519060200190929190505050508673ffffffffffffffffffffffffffffffffffffffff168873ffffffffffffffffffffffffffffffffffffffff167ffff3b3844276f57024e0b42afec1a37f75db36511e43819a4f2a63ab7862b648836040518082815260200191505060405180910390a380915050979650505050505050565b8073ffffffffffffffffffffffffffffffffffffffff168260000160009054906101000a900473ffffffffffffffffffffffffffffffffffffffff1673ffffffffffffffffffffffffffffffffffffffff167f5228715db99b8f1da4dfd674224fa5f9c26b00f68a1bd3020f87a25724119bea60405160405180910390a3808260000160006101000a81548173ffffffffffffffffffffffffffffffffffffffff021916908373ffffffffffffffffffffffffffffffffffffffff16021790555050505600a165627a7a72305820b1145800526ccc0c5e06c40e3c9aa206cc41ee5a44bd1c958704a61fd2906c850029",
  "source": "/**\n * Copyright 2019 Monerium ehf.\n *\n * Licensed under the Apache License, Version 2.0 (the \"License\");\n * you may not use this file except in compliance with the License.\n * You may obtain a copy of the License at\n *\n *     http://www.apache.org/licenses/LICENSE-2.0\n *\n * Unless required by applicable law or agreed to in writing, software\n * distributed under the License is distributed on an \"AS IS\" BASIS,\n * WITHOUT WARRANTIES OR CONDITIONS OF ANY KIND, either express or implied.\n * See the License for the specific language governing permissions and\n * limitations under the License.\n */\n\npragma solidity 0.4.24;\n\nimport \"./ERC20Lib.sol\";\nimport \"./MintableTokenLib.sol\";\nimport \"./IValidator.sol\";\n\n/**\n * @title SmartTokenLib\n * @dev This library provides functionality which is required from a regulatory perspective.\n */\nlibrary SmartTokenLib {\n\n    using ERC20Lib for TokenStorage;\n    using MintableTokenLib for TokenStorage;\n\n    struct SmartStorage {\n        IValidator validator;\n    }\n\n    /**\n     * @dev Emitted when the contract owner recovers tokens.\n     * @param from Sender address.\n     * @param to Recipient address.\n     * @param amount Number of tokens.\n     */\n    event Recovered(address indexed from, address indexed to, uint amount);\n\n    /**\n     * @dev Emitted when updating the validator.\n     * @param old Address of the old validator.\n     * @param current Address of the new validator.\n     */\n    event Validator(address indexed old, address indexed current);\n\n    /**\n     * @dev Sets a new validator.\n     * @param self Smart storage to operate on.\n     * @param validator Address of validator.\n     */\n    function setValidator(SmartStorage storage self, address validator)\n        external\n    {\n        emit Validator(self.validator, validator);\n        self.validator = IValidator(validator);\n    }\n\n\n    /**\n     * @dev Approves or rejects a transfer request.\n     * The request is forwarded to a validator which implements\n     * the actual business logic.\n     * @param self Smart storage to operate on.\n     * @param from Sender address.\n     * @param to Recipient address.\n     * @param amount Number of tokens.\n     */\n    function validate(SmartStorage storage self, address from, address to, uint amount)\n        external\n        returns (bool valid)\n    {\n        return self.validator.validate(from, to, amount);\n    }\n\n    /**\n     * @dev Recovers tokens from an address and reissues them to another address.\n     * In case a user loses its private key the tokens can be recovered by burning\n     * the tokens from that address and reissuing to a new address.\n     * To recover tokens the contract owner needs to provide a signature\n     * proving that the token owner has authorized the owner to do so.\n     * @param from Address to burn tokens from.\n     * @param to Address to mint tokens to.\n     * @param h Hash which the token owner signed.\n     * @param v Signature component.\n     * @param r Signature component.\n     * @param s Sigature component.\n     * @return Amount recovered.\n     */\n    function recover(\n        TokenStorage token,\n        address from,\n        address to,\n        bytes32 h,\n        uint8 v,\n        bytes32 r,\n        bytes32 s\n    )\n        external\n        returns (uint)\n    {\n        require(\n            ecrecover(h, v, r, s) == from,\n            \"signature/hash does not recover from address\"\n        );\n        uint amount = token.balanceOf(from);\n        token.burn(from, amount);\n        token.mint(to, amount);\n        emit Recovered(from, to, amount);\n        return amount;\n    }\n\n    /**\n     * @dev Gets the current validator.\n     * @param self Smart storage to operate on.\n     * @return Address of validator.\n     */\n    function getValidator(SmartStorage storage self)\n        external\n        view\n        returns (address)\n    {\n        return address(self.validator);\n    }\n\n}\n",
  "sourcePath": "/Users/gislik/Code/smart-contracts/contracts/SmartTokenLib.sol",
  "compiler": {
    "name": "solc",
    "version": "0.4.24+commit.e67f0147.Emscripten.clang"
  },
  "schemaVersion": "2.0.1",
  "updatedAt": "2019-07-19T18:34:39.075Z"
}