{
  "contractName": "TokenStorageLib",
  "abi": [
    {
      "constant": false,
      "inputs": [
        {
          "name": "self",
          "type": "TokenStorageLib.TokenStorage storage"
        },
        {
          "name": "to",
          "type": "address"
        },
        {
          "name": "amount",
          "type": "uint256"
        }
      ],
      "name": "addBalance",
      "outputs": [],
      "payable": false,
      "stateMutability": "nonpayable",
      "type": "function"
    },
    {
      "constant": false,
      "inputs": [
        {
          "name": "self",
          "type": "TokenStorageLib.TokenStorage storage"
        },
        {
          "name": "from",
          "type": "address"
        },
        {
          "name": "amount",
          "type": "uint256"
        }
      ],
      "name": "subBalance",
      "outputs": [],
      "payable": false,
      "stateMutability": "nonpayable",
      "type": "function"
    },
    {
      "constant": false,
      "inputs": [
        {
          "name": "self",
          "type": "TokenStorageLib.TokenStorage storage"
        },
        {
          "name": "owner",
          "type": "address"
        },
        {
          "name": "spender",
          "type": "address"
        },
        {
          "name": "amount",
          "type": "uint256"
        }
      ],
      "name": "setAllowed",
      "outputs": [],
      "payable": false,
      "stateMutability": "nonpayable",
      "type": "function"
    },
    {
      "constant": true,
      "inputs": [
        {
          "name": "self",
          "type": "TokenStorageLib.TokenStorage storage"
        }
      ],
      "name": "getSupply",
      "outputs": [
        {
          "name": "",
          "type": "uint256"
        }
      ],
      "payable": false,
      "stateMutability": "view",
      "type": "function"
    },
    {
      "constant": true,
      "inputs": [
        {
          "name": "self",
          "type": "TokenStorageLib.TokenStorage storage"
        },
        {
          "name": "who",
          "type": "address"
        }
      ],
      "name": "getBalance",
      "outputs": [
        {
          "name": "",
          "type": "uint256"
        }
      ],
      "payable": false,
      "stateMutability": "view",
      "type": "function"
    },
    {
      "constant": true,
      "inputs": [
        {
          "name": "self",
          "type": "TokenStorageLib.TokenStorage storage"
        },
        {
          "name": "owner",
          "type": "address"
        },
        {
          "name": "spender",
          "type": "address"
        }
      ],
      "name": "getAllowed",
      "outputs": [
        {
          "name": "",
          "type": "uint256"
        }
      ],
      "payable": false,
      "stateMutability": "view",
      "type": "function"
    }
  ],
  "bytecode": "0x6105fd610030600b82828239805160001a6073146000811461002057610022565bfe5b5030600052607381538281f300730000000000000000000000000000000000000000301460806040526004361061008f576000357c0100000000000000000000000000000000000000000000000000000000900463ffffffff168063072f9a50146100945780635599b4b7146100c85780637aeb0ed51461013f5780639daeae1e14610196578063b0aacf241461020a578063d9c7339e1461025e575b600080fd5b6100b2600480360381019080803590602001909291905050506102b5565b6040518082815260200191505060405180910390f35b8180156100d457600080fd5b5061013d60048036038101908080359060200190929190803573ffffffffffffffffffffffffffffffffffffffff169060200190929190803573ffffffffffffffffffffffffffffffffffffffff169060200190929190803590602001909291905050506102c3565b005b81801561014b57600080fd5b5061019460048036038101908080359060200190929190803573ffffffffffffffffffffffffffffffffffffffff1690602001909291908035906020019092919050505061034c565b005b6101f460048036038101908080359060200190929190803573ffffffffffffffffffffffffffffffffffffffff169060200190929190803573ffffffffffffffffffffffffffffffffffffffff169060200190929190505050610409565b6040518082815260200191505060405180910390f35b61024860048036038101908080359060200190929190803573ffffffffffffffffffffffffffffffffffffffff169060200190929190505050610493565b6040518082815260200191505060405180910390f35b81801561026a57600080fd5b506102b360048036038101908080359060200190929190803573ffffffffffffffffffffffffffffffffffffffff169060200190929190803590602001909291905050506104df565b005b600081600201549050919050565b808460010160008573ffffffffffffffffffffffffffffffffffffffff1673ffffffffffffffffffffffffffffffffffffffff16815260200190815260200160002060008473ffffffffffffffffffffffffffffffffffffffff1673ffffffffffffffffffffffffffffffffffffffff1681526020019081526020016000208190555050505050565b61036381846002015461059c90919063ffffffff16565b83600201819055506103bf818460000160008573ffffffffffffffffffffffffffffffffffffffff1673ffffffffffffffffffffffffffffffffffffffff1681526020019081526020016000205461059c90919063ffffffff16565b8360000160008473ffffffffffffffffffffffffffffffffffffffff1673ffffffffffffffffffffffffffffffffffffffff16815260200190815260200160002081905550505050565b60008360010160008473ffffffffffffffffffffffffffffffffffffffff1673ffffffffffffffffffffffffffffffffffffffff16815260200190815260200160002060008373ffffffffffffffffffffffffffffffffffffffff1673ffffffffffffffffffffffffffffffffffffffff1681526020019081526020016000205490509392505050565b60008260000160008373ffffffffffffffffffffffffffffffffffffffff1673ffffffffffffffffffffffffffffffffffffffff16815260200190815260200160002054905092915050565b6104f68184600201546105b890919063ffffffff16565b8360020181905550610552818460000160008573ffffffffffffffffffffffffffffffffffffffff1673ffffffffffffffffffffffffffffffffffffffff168152602001908152602001600020546105b890919063ffffffff16565b8360000160008473ffffffffffffffffffffffffffffffffffffffff1673ffffffffffffffffffffffffffffffffffffffff16815260200190815260200160002081905550505050565b600081830190508281101515156105af57fe5b80905092915050565b60008282111515156105c657fe5b8183039050929150505600a165627a7a723058200a791e10779ec27474baabbb3103b8d8f519c949ad5388c03e655fa8a7d931b30029",
  "source": "pragma solidity ^0.4.24;\n\nimport \"zeppelin-solidity/contracts/math/SafeMath.sol\";\n\nlibrary TokenStorageLib {\n\n    using SafeMath for uint;\n\n    struct TokenStorage {\n        mapping (address => uint) balances;\n        mapping (address => mapping (address => uint)) allowed;\n        uint totalSupply;\n    }\n\n    // EXTERNAL\n    function addBalance(TokenStorage storage self, address to, uint amount) \n        external \n    {\n        self.totalSupply = self.totalSupply.add(amount);\n        self.balances[to] = self.balances[to].add(amount);\n    }\n\n    function subBalance(TokenStorage storage self, address from, uint amount) \n        external \n    {\n        self.totalSupply = self.totalSupply.sub(amount);\n        self.balances[from] = self.balances[from].sub(amount);\n    }\n\n    function setAllowed(TokenStorage storage self, address owner, address spender, uint amount) \n        external\n    {\n        self.allowed[owner][spender] = amount;\n    }\n\n    // EXTERNAL CONSTANT\n    function getSupply(TokenStorage storage self) \n        external\n        view returns (uint) \n    {\n        return self.totalSupply;\n    }\n\n    function getBalance(TokenStorage storage self, address who) \n        external\n        view returns (uint) \n    {\n        return self.balances[who];\n    }\n\n    function getAllowed(TokenStorage storage self, address owner, address spender) \n        external\n        view\n        returns (uint) \n    {\n        return self.allowed[owner][spender];\n    }\n\n}\n",
  "sourcePath": "/Users/gislik/Code/smart-contracts/contracts/TokenStorageLib.sol",
  "compiler": {
    "name": "solc",
    "version": "0.4.24+commit.e67f0147.Emscripten.clang"
  },
  "schemaVersion": "2.0.1",
  "updatedAt": "2018-08-22T15:39:22.877Z"
}