{
  "contractName": "Validator",
  "abi": [
    {
      "anonymous": false,
      "inputs": [
        {
          "indexed": true,
          "name": "from",
          "type": "address"
        },
        {
          "indexed": true,
          "name": "to",
          "type": "address"
        },
        {
          "indexed": false,
          "name": "valid",
          "type": "bool"
        },
        {
          "indexed": false,
          "name": "value",
          "type": "uint256"
        }
      ],
      "name": "Decision",
      "type": "event"
    },
    {
      "constant": true,
      "inputs": [
        {
          "name": "",
          "type": "address"
        },
        {
          "name": "",
          "type": "address"
        },
        {
          "name": "",
          "type": "uint256"
        }
      ],
      "name": "validate",
      "outputs": [
        {
          "name": "",
          "type": "bool"
        }
      ],
      "payable": false,
      "stateMutability": "view",
      "type": "function"
    }
  ],
  "bytecode": "0x608060405234801561001057600080fd5b5060fb8061001f6000396000f300608060405260043610603f576000357c0100000000000000000000000000000000000000000000000000000000900463ffffffff168063aa3ad4e4146044575b600080fd5b348015604f57600080fd5b5060ac600480360381019080803573ffffffffffffffffffffffffffffffffffffffff169060200190929190803573ffffffffffffffffffffffffffffffffffffffff1690602001909291908035906020019092919050505060c6565b604051808215151515815260200191505060405180910390f35b600093925050505600a165627a7a723058203fb251e05a456b527fe95b58fa076d1179a5c105a857661e6b8205ae4d9469ce0029",
  "source": "pragma solidity ^0.4.24;\n\ncontract Validator {\n\n    // EVENTS\n    event Decision(address indexed from, address indexed to, bool valid, uint value);\n\n    // params: \n    // _from\n    // _to\n    // _value\n    // returns: valid\n    function validate(address, address, uint) external view returns (bool) { }\n}\n",
  "sourcePath": "/Users/gislik/Code/smart-contracts/contracts/Validator.sol",
  "compiler": {
    "name": "solc",
    "version": "0.4.24+commit.e67f0147.Emscripten.clang"
  },
  "schemaVersion": "2.0.0",
  "updatedAt": "2018-08-13T10:59:25.572Z"
}